{
  "contractName": "DGNFT",
  "abi": [
    {
      "inputs": [],
      "stateMutability": "nonpayable",
      "type": "constructor"
    },
    {
      "anonymous": false,
      "inputs": [
        {
          "indexed": true,
          "internalType": "address",
          "name": "owner",
          "type": "address"
        },
        {
          "indexed": true,
          "internalType": "address",
          "name": "approved",
          "type": "address"
        },
        {
          "indexed": true,
          "internalType": "uint256",
          "name": "tokenId",
          "type": "uint256"
        }
      ],
      "name": "Approval",
      "type": "event"
    },
    {
      "anonymous": false,
      "inputs": [
        {
          "indexed": true,
          "internalType": "address",
          "name": "owner",
          "type": "address"
        },
        {
          "indexed": true,
          "internalType": "address",
          "name": "operator",
          "type": "address"
        },
        {
          "indexed": false,
          "internalType": "bool",
          "name": "approved",
          "type": "bool"
        }
      ],
      "name": "ApprovalForAll",
      "type": "event"
    },
    {
      "anonymous": false,
      "inputs": [
        {
          "indexed": true,
          "internalType": "address",
          "name": "previousOwner",
          "type": "address"
        },
        {
          "indexed": true,
          "internalType": "address",
          "name": "newOwner",
          "type": "address"
        }
      ],
      "name": "OwnershipTransferred",
      "type": "event"
    },
    {
      "anonymous": false,
      "inputs": [
        {
          "indexed": true,
          "internalType": "address",
          "name": "from",
          "type": "address"
        },
        {
          "indexed": true,
          "internalType": "address",
          "name": "to",
          "type": "address"
        },
        {
          "indexed": true,
          "internalType": "uint256",
          "name": "tokenId",
          "type": "uint256"
        }
      ],
      "name": "Transfer",
      "type": "event"
    },
    {
      "inputs": [
        {
          "internalType": "address",
          "name": "to",
          "type": "address"
        },
        {
          "internalType": "uint256",
          "name": "tokenId",
          "type": "uint256"
        }
      ],
      "name": "approve",
      "outputs": [],
      "stateMutability": "nonpayable",
      "type": "function"
    },
    {
      "inputs": [
        {
          "internalType": "address",
          "name": "owner",
          "type": "address"
        }
      ],
      "name": "balanceOf",
      "outputs": [
        {
          "internalType": "uint256",
          "name": "",
          "type": "uint256"
        }
      ],
      "stateMutability": "view",
      "type": "function"
    },
    {
      "inputs": [
        {
          "internalType": "uint256",
          "name": "tokenId",
          "type": "uint256"
        }
      ],
      "name": "getApproved",
      "outputs": [
        {
          "internalType": "address",
          "name": "",
          "type": "address"
        }
      ],
      "stateMutability": "view",
      "type": "function"
    },
    {
      "inputs": [
        {
          "internalType": "address",
          "name": "owner",
          "type": "address"
        },
        {
          "internalType": "address",
          "name": "operator",
          "type": "address"
        }
      ],
      "name": "isApprovedForAll",
      "outputs": [
        {
          "internalType": "bool",
          "name": "",
          "type": "bool"
        }
      ],
      "stateMutability": "view",
      "type": "function"
    },
    {
      "inputs": [],
      "name": "name",
      "outputs": [
        {
          "internalType": "string",
          "name": "",
          "type": "string"
        }
      ],
      "stateMutability": "view",
      "type": "function"
    },
    {
      "inputs": [],
      "name": "owner",
      "outputs": [
        {
          "internalType": "address",
          "name": "",
          "type": "address"
        }
      ],
      "stateMutability": "view",
      "type": "function"
    },
    {
      "inputs": [
        {
          "internalType": "uint256",
          "name": "tokenId",
          "type": "uint256"
        }
      ],
      "name": "ownerOf",
      "outputs": [
        {
          "internalType": "address",
          "name": "",
          "type": "address"
        }
      ],
      "stateMutability": "view",
      "type": "function"
    },
    {
      "inputs": [],
      "name": "renounceOwnership",
      "outputs": [],
      "stateMutability": "nonpayable",
      "type": "function"
    },
    {
      "inputs": [
        {
          "internalType": "address",
          "name": "from",
          "type": "address"
        },
        {
          "internalType": "address",
          "name": "to",
          "type": "address"
        },
        {
          "internalType": "uint256",
          "name": "tokenId",
          "type": "uint256"
        }
      ],
      "name": "safeTransferFrom",
      "outputs": [],
      "stateMutability": "nonpayable",
      "type": "function"
    },
    {
      "inputs": [
        {
          "internalType": "address",
          "name": "from",
          "type": "address"
        },
        {
          "internalType": "address",
          "name": "to",
          "type": "address"
        },
        {
          "internalType": "uint256",
          "name": "tokenId",
          "type": "uint256"
        },
        {
          "internalType": "bytes",
          "name": "data",
          "type": "bytes"
        }
      ],
      "name": "safeTransferFrom",
      "outputs": [],
      "stateMutability": "nonpayable",
      "type": "function"
    },
    {
      "inputs": [
        {
          "internalType": "address",
          "name": "operator",
          "type": "address"
        },
        {
          "internalType": "bool",
          "name": "approved",
          "type": "bool"
        }
      ],
      "name": "setApprovalForAll",
      "outputs": [],
      "stateMutability": "nonpayable",
      "type": "function"
    },
    {
      "inputs": [
        {
          "internalType": "bytes4",
          "name": "interfaceId",
          "type": "bytes4"
        }
      ],
      "name": "supportsInterface",
      "outputs": [
        {
          "internalType": "bool",
          "name": "",
          "type": "bool"
        }
      ],
      "stateMutability": "view",
      "type": "function"
    },
    {
      "inputs": [],
      "name": "symbol",
      "outputs": [
        {
          "internalType": "string",
          "name": "",
          "type": "string"
        }
      ],
      "stateMutability": "view",
      "type": "function"
    },
    {
      "inputs": [
        {
          "internalType": "uint256",
          "name": "tokenId",
          "type": "uint256"
        }
      ],
      "name": "tokenURI",
      "outputs": [
        {
          "internalType": "string",
          "name": "",
          "type": "string"
        }
      ],
      "stateMutability": "view",
      "type": "function"
    },
    {
      "inputs": [
        {
          "internalType": "address",
          "name": "from",
          "type": "address"
        },
        {
          "internalType": "address",
          "name": "to",
          "type": "address"
        },
        {
          "internalType": "uint256",
          "name": "tokenId",
          "type": "uint256"
        }
      ],
      "name": "transferFrom",
      "outputs": [],
      "stateMutability": "nonpayable",
      "type": "function"
    },
    {
      "inputs": [
        {
          "internalType": "address",
          "name": "newOwner",
          "type": "address"
        }
      ],
      "name": "transferOwnership",
      "outputs": [],
      "stateMutability": "nonpayable",
      "type": "function"
    },
    {
      "inputs": [
        {
          "internalType": "address",
          "name": "user",
          "type": "address"
        },
        {
          "internalType": "string",
          "name": "tokenURI",
          "type": "string"
        }
      ],
      "name": "mintNFT",
      "outputs": [
        {
          "internalType": "uint256",
          "name": "",
          "type": "uint256"
        }
      ],
      "stateMutability": "nonpayable",
      "type": "function"
    },
    {
      "inputs": [
        {
          "internalType": "uint256",
          "name": "tokenId",
          "type": "uint256"
        }
      ],
      "name": "transferInfo",
      "outputs": [
        {
          "internalType": "address[]",
          "name": "",
          "type": "address[]"
        }
      ],
      "stateMutability": "view",
      "type": "function"
    }
  ],
  "bytecode": "0x60806040523480156200001157600080fd5b506040518060400160405280600581526020017f44474e46540000000000000000000000000000000000000000000000000000008152506040518060400160405280600581526020017f44474e4654000000000000000000000000000000000000000000000000000000815250816000908051906020019062000096929190620001a6565b508060019080519060200190620000af929190620001a6565b505050620000d2620000c6620000d860201b60201c565b620000e060201b60201c565b620002bb565b600033905090565b6000600760009054906101000a900473ffffffffffffffffffffffffffffffffffffffff16905081600760006101000a81548173ffffffffffffffffffffffffffffffffffffffff021916908373ffffffffffffffffffffffffffffffffffffffff1602179055508173ffffffffffffffffffffffffffffffffffffffff168173ffffffffffffffffffffffffffffffffffffffff167f8be0079c531659141344cd1fd0a4f28419497f9722a3daafe3b4186f6b6457e060405160405180910390a35050565b828054620001b49062000256565b90600052602060002090601f016020900481019282620001d8576000855562000224565b82601f10620001f357805160ff191683800117855562000224565b8280016001018555821562000224579182015b828111156200022357825182559160200191906001019062000206565b5b50905062000233919062000237565b5090565b5b808211156200025257600081600090555060010162000238565b5090565b600060028204905060018216806200026f57607f821691505b602082108114156200028657620002856200028c565b5b50919050565b7f4e487b7100000000000000000000000000000000000000000000000000000000600052602260045260246000fd5b612e2280620002cb6000396000f3fe608060405234801561001057600080fd5b50600436106101165760003560e01c80638da5cb5b116100a2578063c87b56dd11610071578063c87b56dd146102cb578063cc47e9bd146102fb578063e985e9c51461032b578063eacabe141461035b578063f2fde38b1461038b57610116565b80638da5cb5b1461025757806395d89b4114610275578063a22cb46514610293578063b88d4fde146102af57610116565b806323b872dd116100e957806323b872dd146101b557806342842e0e146101d15780636352211e146101ed57806370a082311461021d578063715018a61461024d57610116565b806301ffc9a71461011b57806306fdde031461014b578063081812fc14610169578063095ea7b314610199575b600080fd5b61013560048036038101906101309190611f5f565b6103a7565b60405161014291906123c6565b60405180910390f35b610153610489565b60405161016091906123e1565b60405180910390f35b610183600480360381019061017e9190611fb1565b61051b565b604051610190919061233d565b60405180910390f35b6101b360048036038101906101ae9190611f23565b610561565b005b6101cf60048036038101906101ca9190611dc9565b610679565b005b6101eb60048036038101906101e69190611dc9565b6106d9565b005b61020760048036038101906102029190611fb1565b6106f9565b604051610214919061233d565b60405180910390f35b61023760048036038101906102329190611d64565b6107ab565b60405161024491906125c3565b60405180910390f35b610255610863565b005b61025f610877565b60405161026c919061233d565b60405180910390f35b61027d6108a1565b60405161028a91906123e1565b60405180910390f35b6102ad60048036038101906102a89190611e93565b610933565b005b6102c960048036038101906102c49190611e18565b610949565b005b6102e560048036038101906102e09190611fb1565b6109ab565b6040516102f291906123e1565b60405180910390f35b61031560048036038101906103109190611fb1565b610abe565b60405161032291906123a4565b60405180910390f35b61034560048036038101906103409190611d8d565b610b5f565b60405161035291906123c6565b60405180910390f35b61037560048036038101906103709190611ecf565b610bf3565b60405161038291906125c3565b60405180910390f35b6103a560048036038101906103a09190611d64565b610c33565b005b60007f80ac58cd000000000000000000000000000000000000000000000000000000007bffffffffffffffffffffffffffffffffffffffffffffffffffffffff1916827bffffffffffffffffffffffffffffffffffffffffffffffffffffffff1916148061047257507f5b5e139f000000000000000000000000000000000000000000000000000000007bffffffffffffffffffffffffffffffffffffffffffffffffffffffff1916827bffffffffffffffffffffffffffffffffffffffffffffffffffffffff1916145b80610482575061048182610cb7565b5b9050919050565b60606000805461049890612852565b80601f01602080910402602001604051908101604052809291908181526020018280546104c490612852565b80156105115780601f106104e657610100808354040283529160200191610511565b820191906000526020600020905b8154815290600101906020018083116104f457829003601f168201915b5050505050905090565b600061052682610d21565b6004600083815260200190815260200160002060009054906101000a900473ffffffffffffffffffffffffffffffffffffffff169050919050565b600061056c826106f9565b90508073ffffffffffffffffffffffffffffffffffffffff168373ffffffffffffffffffffffffffffffffffffffff1614156105dd576040517f08c379a00000000000000000000000000000000000000000000000000000000081526004016105d490612583565b60405180910390fd5b8073ffffffffffffffffffffffffffffffffffffffff166105fc610d6c565b73ffffffffffffffffffffffffffffffffffffffff16148061062b575061062a81610625610d6c565b610b5f565b5b61066a576040517f08c379a000000000000000000000000000000000000000000000000000000000815260040161066190612503565b60405180910390fd5b6106748383610d74565b505050565b61068a610684610d6c565b82610e2d565b6106c9576040517f08c379a00000000000000000000000000000000000000000000000000000000081526004016106c0906125a3565b60405180910390fd5b6106d4838383610ec2565b505050565b6106f483838360405180602001604052806000815250610949565b505050565b6000806002600084815260200190815260200160002060009054906101000a900473ffffffffffffffffffffffffffffffffffffffff169050600073ffffffffffffffffffffffffffffffffffffffff168173ffffffffffffffffffffffffffffffffffffffff1614156107a2576040517f08c379a000000000000000000000000000000000000000000000000000000000815260040161079990612563565b60405180910390fd5b80915050919050565b60008073ffffffffffffffffffffffffffffffffffffffff168273ffffffffffffffffffffffffffffffffffffffff16141561081c576040517f08c379a0000000000000000000000000000000000000000000000000000000008152600401610813906124c3565b60405180910390fd5b600360008373ffffffffffffffffffffffffffffffffffffffff1673ffffffffffffffffffffffffffffffffffffffff168152602001908152602001600020549050919050565b61086b611129565b61087560006111a7565b565b6000600760009054906101000a900473ffffffffffffffffffffffffffffffffffffffff16905090565b6060600180546108b090612852565b80601f01602080910402602001604051908101604052809291908181526020018280546108dc90612852565b80156109295780601f106108fe57610100808354040283529160200191610929565b820191906000526020600020905b81548152906001019060200180831161090c57829003601f168201915b5050505050905090565b61094561093e610d6c565b838361126d565b5050565b61095a610954610d6c565b83610e2d565b610999576040517f08c379a0000000000000000000000000000000000000000000000000000000008152600401610990906125a3565b60405180910390fd5b6109a5848484846113da565b50505050565b60606109b682610d21565b60006006600084815260200190815260200160002080546109d690612852565b80601f0160208091040260200160405190810160405280929190818152602001828054610a0290612852565b8015610a4f5780601f10610a2457610100808354040283529160200191610a4f565b820191906000526020600020905b815481529060010190602001808311610a3257829003601f168201915b505050505090506000610a60611436565b9050600081511415610a76578192505050610ab9565b600082511115610aab578082604051602001610a93929190612319565b60405160208183030381529060405292505050610ab9565b610ab48461144d565b925050505b919050565b606060086000838152602001908152602001600020805480602002602001604051908101604052809291908181526020018280548015610b5357602002820191906000526020600020905b8160009054906101000a900473ffffffffffffffffffffffffffffffffffffffff1673ffffffffffffffffffffffffffffffffffffffff1681526020019060010190808311610b09575b50505050509050919050565b6000600560008473ffffffffffffffffffffffffffffffffffffffff1673ffffffffffffffffffffffffffffffffffffffff16815260200190815260200160002060008373ffffffffffffffffffffffffffffffffffffffff1673ffffffffffffffffffffffffffffffffffffffff16815260200190815260200160002060009054906101000a900460ff16905092915050565b6000610bfd611129565b610c0760096114b5565b6000610c1360096114cb565b9050610c1f84826114d9565b610c2981846116b3565b8091505092915050565b610c3b611129565b600073ffffffffffffffffffffffffffffffffffffffff168173ffffffffffffffffffffffffffffffffffffffff161415610cab576040517f08c379a0000000000000000000000000000000000000000000000000000000008152600401610ca290612423565b60405180910390fd5b610cb4816111a7565b50565b60007f01ffc9a7000000000000000000000000000000000000000000000000000000007bffffffffffffffffffffffffffffffffffffffffffffffffffffffff1916827bffffffffffffffffffffffffffffffffffffffffffffffffffffffff1916149050919050565b610d2a81611727565b610d69576040517f08c379a0000000000000000000000000000000000000000000000000000000008152600401610d6090612563565b60405180910390fd5b50565b600033905090565b816004600083815260200190815260200160002060006101000a81548173ffffffffffffffffffffffffffffffffffffffff021916908373ffffffffffffffffffffffffffffffffffffffff160217905550808273ffffffffffffffffffffffffffffffffffffffff16610de7836106f9565b73ffffffffffffffffffffffffffffffffffffffff167f8c5be1e5ebec7d5bd14f71427d1e84f3dd0314c0f7b2291e5b200ac8c7c3b92560405160405180910390a45050565b600080610e39836106f9565b90508073ffffffffffffffffffffffffffffffffffffffff168473ffffffffffffffffffffffffffffffffffffffff161480610e7b5750610e7a8185610b5f565b5b80610eb957508373ffffffffffffffffffffffffffffffffffffffff16610ea18461051b565b73ffffffffffffffffffffffffffffffffffffffff16145b91505092915050565b8273ffffffffffffffffffffffffffffffffffffffff16610ee2826106f9565b73ffffffffffffffffffffffffffffffffffffffff1614610f38576040517f08c379a0000000000000000000000000000000000000000000000000000000008152600401610f2f90612443565b60405180910390fd5b600073ffffffffffffffffffffffffffffffffffffffff168273ffffffffffffffffffffffffffffffffffffffff161415610fa8576040517f08c379a0000000000000000000000000000000000000000000000000000000008152600401610f9f90612483565b60405180910390fd5b610fb3838383611793565b610fbe600082610d74565b6001600360008573ffffffffffffffffffffffffffffffffffffffff1673ffffffffffffffffffffffffffffffffffffffff168152602001908152602001600020600082825461100e9190612768565b925050819055506001600360008473ffffffffffffffffffffffffffffffffffffffff1673ffffffffffffffffffffffffffffffffffffffff168152602001908152602001600020600082825461106591906126e1565b92505081905550816002600083815260200190815260200160002060006101000a81548173ffffffffffffffffffffffffffffffffffffffff021916908373ffffffffffffffffffffffffffffffffffffffff160217905550808273ffffffffffffffffffffffffffffffffffffffff168473ffffffffffffffffffffffffffffffffffffffff167fddf252ad1be2c89b69c2b068fc378daa952ba7f163c4a11628f55a4df523b3ef60405160405180910390a4611124838383611798565b505050565b611131610d6c565b73ffffffffffffffffffffffffffffffffffffffff1661114f610877565b73ffffffffffffffffffffffffffffffffffffffff16146111a5576040517f08c379a000000000000000000000000000000000000000000000000000000000815260040161119c90612543565b60405180910390fd5b565b6000600760009054906101000a900473ffffffffffffffffffffffffffffffffffffffff16905081600760006101000a81548173ffffffffffffffffffffffffffffffffffffffff021916908373ffffffffffffffffffffffffffffffffffffffff1602179055508173ffffffffffffffffffffffffffffffffffffffff168173ffffffffffffffffffffffffffffffffffffffff167f8be0079c531659141344cd1fd0a4f28419497f9722a3daafe3b4186f6b6457e060405160405180910390a35050565b8173ffffffffffffffffffffffffffffffffffffffff168373ffffffffffffffffffffffffffffffffffffffff1614156112dc576040517f08c379a00000000000000000000000000000000000000000000000000000000081526004016112d3906124a3565b60405180910390fd5b80600560008573ffffffffffffffffffffffffffffffffffffffff1673ffffffffffffffffffffffffffffffffffffffff16815260200190815260200160002060008473ffffffffffffffffffffffffffffffffffffffff1673ffffffffffffffffffffffffffffffffffffffff16815260200190815260200160002060006101000a81548160ff0219169083151502179055508173ffffffffffffffffffffffffffffffffffffffff168373ffffffffffffffffffffffffffffffffffffffff167f17307eab39ab6107e8899845ad3d59bd9653f200f220920489ca2b5937696c31836040516113cd91906123c6565b60405180910390a3505050565b6113e5848484610ec2565b6113f18484848461181c565b611430576040517f08c379a000000000000000000000000000000000000000000000000000000000815260040161142790612403565b60405180910390fd5b50505050565b606060405180602001604052806000815250905090565b606061145882610d21565b6000611462611436565b9050600081511161148257604051806020016040528060008152506114ad565b8061148c846119b3565b60405160200161149d929190612319565b6040516020818303038152906040525b915050919050565b6001816000016000828254019250508190555050565b600081600001549050919050565b600073ffffffffffffffffffffffffffffffffffffffff168273ffffffffffffffffffffffffffffffffffffffff161415611549576040517f08c379a000000000000000000000000000000000000000000000000000000000815260040161154090612523565b60405180910390fd5b61155281611727565b15611592576040517f08c379a000000000000000000000000000000000000000000000000000000000815260040161158990612463565b60405180910390fd5b61159e60008383611793565b6001600360008473ffffffffffffffffffffffffffffffffffffffff1673ffffffffffffffffffffffffffffffffffffffff16815260200190815260200160002060008282546115ee91906126e1565b92505081905550816002600083815260200190815260200160002060006101000a81548173ffffffffffffffffffffffffffffffffffffffff021916908373ffffffffffffffffffffffffffffffffffffffff160217905550808273ffffffffffffffffffffffffffffffffffffffff16600073ffffffffffffffffffffffffffffffffffffffff167fddf252ad1be2c89b69c2b068fc378daa952ba7f163c4a11628f55a4df523b3ef60405160405180910390a46116af60008383611798565b5050565b6116bc82611727565b6116fb576040517f08c379a00000000000000000000000000000000000000000000000000000000081526004016116f2906124e3565b60405180910390fd5b80600660008481526020019081526020016000209080519060200190611722929190611b88565b505050565b60008073ffffffffffffffffffffffffffffffffffffffff166002600084815260200190815260200160002060009054906101000a900473ffffffffffffffffffffffffffffffffffffffff1673ffffffffffffffffffffffffffffffffffffffff1614159050919050565b505050565b60086000828152602001908152602001600020829080600181540180825580915050600190039060005260206000200160009091909190916101000a81548173ffffffffffffffffffffffffffffffffffffffff021916908373ffffffffffffffffffffffffffffffffffffffff160217905550611817838383611b60565b505050565b600061183d8473ffffffffffffffffffffffffffffffffffffffff16611b65565b156119a6578373ffffffffffffffffffffffffffffffffffffffff1663150b7a02611866610d6c565b8786866040518563ffffffff1660e01b81526004016118889493929190612358565b602060405180830381600087803b1580156118a257600080fd5b505af19250505080156118d357506040513d601f19601f820116820180604052508101906118d09190611f88565b60015b611956573d8060008114611903576040519150601f19603f3d011682016040523d82523d6000602084013e611908565b606091505b5060008151141561194e576040517f08c379a000000000000000000000000000000000000000000000000000000000815260040161194590612403565b60405180910390fd5b805181602001fd5b63150b7a0260e01b7bffffffffffffffffffffffffffffffffffffffffffffffffffffffff1916817bffffffffffffffffffffffffffffffffffffffffffffffffffffffff1916149150506119ab565b600190505b949350505050565b606060008214156119fb576040518060400160405280600181526020017f30000000000000000000000000000000000000000000000000000000000000008152509050611b5b565b600082905060005b60008214611a2d578080611a16906128b5565b915050600a82611a269190612737565b9150611a03565b60008167ffffffffffffffff811115611a6f577f4e487b7100000000000000000000000000000000000000000000000000000000600052604160045260246000fd5b6040519080825280601f01601f191660200182016040528015611aa15781602001600182028036833780820191505090505b5090505b60008514611b5457600182611aba9190612768565b9150600a85611ac991906128fe565b6030611ad591906126e1565b60f81b818381518110611b11577f4e487b7100000000000000000000000000000000000000000000000000000000600052603260045260246000fd5b60200101907effffffffffffffffffffffffffffffffffffffffffffffffffffffffffffff1916908160001a905350600a85611b4d9190612737565b9450611aa5565b8093505050505b919050565b505050565b6000808273ffffffffffffffffffffffffffffffffffffffff163b119050919050565b828054611b9490612852565b90600052602060002090601f016020900481019282611bb65760008555611bfd565b82601f10611bcf57805160ff1916838001178555611bfd565b82800160010185558215611bfd579182015b82811115611bfc578251825591602001919060010190611be1565b5b509050611c0a9190611c0e565b5090565b5b80821115611c27576000816000905550600101611c0f565b5090565b6000611c3e611c3984612603565b6125de565b905082815260208101848484011115611c5657600080fd5b611c61848285612810565b509392505050565b6000611c7c611c7784612634565b6125de565b905082815260208101848484011115611c9457600080fd5b611c9f848285612810565b509392505050565b600081359050611cb681612d90565b92915050565b600081359050611ccb81612da7565b92915050565b600081359050611ce081612dbe565b92915050565b600081519050611cf581612dbe565b92915050565b600082601f830112611d0c57600080fd5b8135611d1c848260208601611c2b565b91505092915050565b600082601f830112611d3657600080fd5b8135611d46848260208601611c69565b91505092915050565b600081359050611d5e81612dd5565b92915050565b600060208284031215611d7657600080fd5b6000611d8484828501611ca7565b91505092915050565b60008060408385031215611da057600080fd5b6000611dae85828601611ca7565b9250506020611dbf85828601611ca7565b9150509250929050565b600080600060608486031215611dde57600080fd5b6000611dec86828701611ca7565b9350506020611dfd86828701611ca7565b9250506040611e0e86828701611d4f565b9150509250925092565b60008060008060808587031215611e2e57600080fd5b6000611e3c87828801611ca7565b9450506020611e4d87828801611ca7565b9350506040611e5e87828801611d4f565b925050606085013567ffffffffffffffff811115611e7b57600080fd5b611e8787828801611cfb565b91505092959194509250565b60008060408385031215611ea657600080fd5b6000611eb485828601611ca7565b9250506020611ec585828601611cbc565b9150509250929050565b60008060408385031215611ee257600080fd5b6000611ef085828601611ca7565b925050602083013567ffffffffffffffff811115611f0d57600080fd5b611f1985828601611d25565b9150509250929050565b60008060408385031215611f3657600080fd5b6000611f4485828601611ca7565b9250506020611f5585828601611d4f565b9150509250929050565b600060208284031215611f7157600080fd5b6000611f7f84828501611cd1565b91505092915050565b600060208284031215611f9a57600080fd5b6000611fa884828501611ce6565b91505092915050565b600060208284031215611fc357600080fd5b6000611fd184828501611d4f565b91505092915050565b6000611fe68383611ff2565b60208301905092915050565b611ffb8161279c565b82525050565b61200a8161279c565b82525050565b600061201b82612675565b61202581856126a3565b935061203083612665565b8060005b838110156120615781516120488882611fda565b975061205383612696565b925050600181019050612034565b5085935050505092915050565b612077816127ae565b82525050565b600061208882612680565b61209281856126b4565b93506120a281856020860161281f565b6120ab816129eb565b840191505092915050565b60006120c18261268b565b6120cb81856126c5565b93506120db81856020860161281f565b6120e4816129eb565b840191505092915050565b60006120fa8261268b565b61210481856126d6565b935061211481856020860161281f565b80840191505092915050565b600061212d6032836126c5565b9150612138826129fc565b604082019050919050565b60006121506026836126c5565b915061215b82612a4b565b604082019050919050565b60006121736025836126c5565b915061217e82612a9a565b604082019050919050565b6000612196601c836126c5565b91506121a182612ae9565b602082019050919050565b60006121b96024836126c5565b91506121c482612b12565b604082019050919050565b60006121dc6019836126c5565b91506121e782612b61565b602082019050919050565b60006121ff6029836126c5565b915061220a82612b8a565b604082019050919050565b6000612222602e836126c5565b915061222d82612bd9565b604082019050919050565b6000612245603e836126c5565b915061225082612c28565b604082019050919050565b60006122686020836126c5565b915061227382612c77565b602082019050919050565b600061228b6020836126c5565b915061229682612ca0565b602082019050919050565b60006122ae6018836126c5565b91506122b982612cc9565b602082019050919050565b60006122d16021836126c5565b91506122dc82612cf2565b604082019050919050565b60006122f4602e836126c5565b91506122ff82612d41565b604082019050919050565b61231381612806565b82525050565b600061232582856120ef565b915061233182846120ef565b91508190509392505050565b60006020820190506123526000830184612001565b92915050565b600060808201905061236d6000830187612001565b61237a6020830186612001565b612387604083018561230a565b8181036060830152612399818461207d565b905095945050505050565b600060208201905081810360008301526123be8184612010565b905092915050565b60006020820190506123db600083018461206e565b92915050565b600060208201905081810360008301526123fb81846120b6565b905092915050565b6000602082019050818103600083015261241c81612120565b9050919050565b6000602082019050818103600083015261243c81612143565b9050919050565b6000602082019050818103600083015261245c81612166565b9050919050565b6000602082019050818103600083015261247c81612189565b9050919050565b6000602082019050818103600083015261249c816121ac565b9050919050565b600060208201905081810360008301526124bc816121cf565b9050919050565b600060208201905081810360008301526124dc816121f2565b9050919050565b600060208201905081810360008301526124fc81612215565b9050919050565b6000602082019050818103600083015261251c81612238565b9050919050565b6000602082019050818103600083015261253c8161225b565b9050919050565b6000602082019050818103600083015261255c8161227e565b9050919050565b6000602082019050818103600083015261257c816122a1565b9050919050565b6000602082019050818103600083015261259c816122c4565b9050919050565b600060208201905081810360008301526125bc816122e7565b9050919050565b60006020820190506125d8600083018461230a565b92915050565b60006125e86125f9565b90506125f48282612884565b919050565b6000604051905090565b600067ffffffffffffffff82111561261e5761261d6129bc565b5b612627826129eb565b9050602081019050919050565b600067ffffffffffffffff82111561264f5761264e6129bc565b5b612658826129eb565b9050602081019050919050565b6000819050602082019050919050565b600081519050919050565b600081519050919050565b600081519050919050565b6000602082019050919050565b600082825260208201905092915050565b600082825260208201905092915050565b600082825260208201905092915050565b600081905092915050565b60006126ec82612806565b91506126f783612806565b9250827fffffffffffffffffffffffffffffffffffffffffffffffffffffffffffffffff0382111561272c5761272b61292f565b5b828201905092915050565b600061274282612806565b915061274d83612806565b92508261275d5761275c61295e565b5b828204905092915050565b600061277382612806565b915061277e83612806565b9250828210156127915761279061292f565b5b828203905092915050565b60006127a7826127e6565b9050919050565b60008115159050919050565b60007fffffffff0000000000000000000000000000000000000000000000000000000082169050919050565b600073ffffffffffffffffffffffffffffffffffffffff82169050919050565b6000819050919050565b82818337600083830152505050565b60005b8381101561283d578082015181840152602081019050612822565b8381111561284c576000848401525b50505050565b6000600282049050600182168061286a57607f821691505b6020821081141561287e5761287d61298d565b5b50919050565b61288d826129eb565b810181811067ffffffffffffffff821117156128ac576128ab6129bc565b5b80604052505050565b60006128c082612806565b91507fffffffffffffffffffffffffffffffffffffffffffffffffffffffffffffffff8214156128f3576128f261292f565b5b600182019050919050565b600061290982612806565b915061291483612806565b9250826129245761292361295e565b5b828206905092915050565b7f4e487b7100000000000000000000000000000000000000000000000000000000600052601160045260246000fd5b7f4e487b7100000000000000000000000000000000000000000000000000000000600052601260045260246000fd5b7f4e487b7100000000000000000000000000000000000000000000000000000000600052602260045260246000fd5b7f4e487b7100000000000000000000000000000000000000000000000000000000600052604160045260246000fd5b6000601f19601f8301169050919050565b7f4552433732313a207472616e7366657220746f206e6f6e20455243373231526560008201527f63656976657220696d706c656d656e7465720000000000000000000000000000602082015250565b7f4f776e61626c653a206e6577206f776e657220697320746865207a65726f206160008201527f6464726573730000000000000000000000000000000000000000000000000000602082015250565b7f4552433732313a207472616e736665722066726f6d20696e636f72726563742060008201527f6f776e6572000000000000000000000000000000000000000000000000000000602082015250565b7f4552433732313a20746f6b656e20616c7265616479206d696e74656400000000600082015250565b7f4552433732313a207472616e7366657220746f20746865207a65726f2061646460008201527f7265737300000000000000000000000000000000000000000000000000000000602082015250565b7f4552433732313a20617070726f766520746f2063616c6c657200000000000000600082015250565b7f4552433732313a2061646472657373207a65726f206973206e6f74206120766160008201527f6c6964206f776e65720000000000000000000000000000000000000000000000602082015250565b7f45524337323155524953746f726167653a2055524920736574206f66206e6f6e60008201527f6578697374656e7420746f6b656e000000000000000000000000000000000000602082015250565b7f4552433732313a20617070726f76652063616c6c6572206973206e6f7420746f60008201527f6b656e206f776e6572206e6f7220617070726f76656420666f7220616c6c0000602082015250565b7f4552433732313a206d696e7420746f20746865207a65726f2061646472657373600082015250565b7f4f776e61626c653a2063616c6c6572206973206e6f7420746865206f776e6572600082015250565b7f4552433732313a20696e76616c696420746f6b656e2049440000000000000000600082015250565b7f4552433732313a20617070726f76616c20746f2063757272656e74206f776e6560008201527f7200000000000000000000000000000000000000000000000000000000000000602082015250565b7f4552433732313a2063616c6c6572206973206e6f7420746f6b656e206f776e6560008201527f72206e6f7220617070726f766564000000000000000000000000000000000000602082015250565b612d998161279c565b8114612da457600080fd5b50565b612db0816127ae565b8114612dbb57600080fd5b50565b612dc7816127ba565b8114612dd257600080fd5b50565b612dde81612806565b8114612de957600080fd5b5056fea2646970667358221220f1f65e87a1d1644881cbacd15cfe34e1827b9620c5737b48c248dfa394f2714d64736f6c63430008010033",
  "immutableReferences": {},
  "source": "//SPDX-License-Identifier: MIT\npragma solidity ^0.8.1;\n\nimport \"@openzeppelin/contracts/token/ERC721/ERC721.sol\";\nimport \"@openzeppelin/contracts/token/ERC721/extensions/ERC721URIStorage.sol\";\nimport \"@openzeppelin/contracts/access/Ownable.sol\";\nimport \"@openzeppelin/contracts/utils/Counters.sol\";\n\ncontract DGNFT is ERC721URIStorage, Ownable{\n    mapping(uint256 => address[]) private tokensHistory;\n    using Counters for Counters.Counter;\n    Counters.Counter private _tokenIds;\n    constructor() public ERC721(\"DGNFT\",\"DGNFT\"){}\n    function mintNFT(address user, string memory tokenURI) public onlyOwner returns(uint256){\n        _tokenIds.increment();\n\n        uint256 newItemId = _tokenIds.current();\n        //_mint(msg.sender, newItemId);\n        _mint(user, newItemId);\n        _setTokenURI(newItemId, tokenURI);\n\n        return newItemId;\n    }\n\n    function transferInfo(uint256 tokenId) public view returns(address[] memory){\n        return tokensHistory[tokenId];\n    }\n\n    function _afterTokenTransfer(\n        address from,\n        address to,\n        uint256 tokenId\n    ) internal virtual override {\n        tokensHistory[tokenId].push(to);\n        super._afterTokenTransfer(from, to, tokenId);\n    }\n}\n",
  "sourcePath": "D:\\workspace\\emb_projects\\dg\\mint_nft\\contracts\\DGNFT.sol",
  "compiler": {
    "name": "solc",
    "version": "0.8.1+commit.df193b15.Emscripten.clang"
  },
  "schemaVersion": "3.4.10",
  "updatedAt": "2022-11-28T08:34:53.246Z",
  "devdoc": {
    "kind": "dev",
    "methods": {
      "approve(address,uint256)": {
        "details": "See {IERC721-approve}."
      },
      "balanceOf(address)": {
        "details": "See {IERC721-balanceOf}."
      },
      "getApproved(uint256)": {
        "details": "See {IERC721-getApproved}."
      },
      "isApprovedForAll(address,address)": {
        "details": "See {IERC721-isApprovedForAll}."
      },
      "name()": {
        "details": "See {IERC721Metadata-name}."
      },
      "owner()": {
        "details": "Returns the address of the current owner."
      },
      "ownerOf(uint256)": {
        "details": "See {IERC721-ownerOf}."
      },
      "renounceOwnership()": {
        "details": "Leaves the contract without owner. It will not be possible to call `onlyOwner` functions anymore. Can only be called by the current owner. NOTE: Renouncing ownership will leave the contract without an owner, thereby removing any functionality that is only available to the owner."
      },
      "safeTransferFrom(address,address,uint256)": {
        "details": "See {IERC721-safeTransferFrom}."
      },
      "safeTransferFrom(address,address,uint256,bytes)": {
        "details": "See {IERC721-safeTransferFrom}."
      },
      "setApprovalForAll(address,bool)": {
        "details": "See {IERC721-setApprovalForAll}."
      },
      "supportsInterface(bytes4)": {
        "details": "See {IERC165-supportsInterface}."
      },
      "symbol()": {
        "details": "See {IERC721Metadata-symbol}."
      },
      "tokenURI(uint256)": {
        "details": "See {IERC721Metadata-tokenURI}."
      },
      "transferFrom(address,address,uint256)": {
        "details": "See {IERC721-transferFrom}."
      },
      "transferOwnership(address)": {
        "details": "Transfers ownership of the contract to a new account (`newOwner`). Can only be called by the current owner."
      }
    },
    "version": 1
  },
  "userdoc": {
    "kind": "user",
    "methods": {},
    "version": 1
  }
}