{
  "contractName": "SBT",
  "abi": [
    {
      "inputs": [
        {
          "internalType": "string",
          "name": "name_",
          "type": "string"
        },
        {
          "internalType": "string",
          "name": "symbol_",
          "type": "string"
        }
      ],
      "stateMutability": "nonpayable",
      "type": "constructor"
    },
    {
      "anonymous": false,
      "inputs": [
        {
          "indexed": true,
          "internalType": "address",
          "name": "owner",
          "type": "address"
        },
        {
          "indexed": true,
          "internalType": "address",
          "name": "approved",
          "type": "address"
        },
        {
          "indexed": true,
          "internalType": "uint256",
          "name": "tokenId",
          "type": "uint256"
        }
      ],
      "name": "Approval",
      "type": "event"
    },
    {
      "anonymous": false,
      "inputs": [
        {
          "indexed": true,
          "internalType": "address",
          "name": "owner",
          "type": "address"
        },
        {
          "indexed": true,
          "internalType": "address",
          "name": "operator",
          "type": "address"
        },
        {
          "indexed": false,
          "internalType": "bool",
          "name": "approved",
          "type": "bool"
        }
      ],
      "name": "ApprovalForAll",
      "type": "event"
    },
    {
      "anonymous": false,
      "inputs": [
        {
          "indexed": false,
          "internalType": "uint256",
          "name": "tokenId",
          "type": "uint256"
        }
      ],
      "name": "Locked",
      "type": "event"
    },
    {
      "anonymous": false,
      "inputs": [
        {
          "indexed": true,
          "internalType": "address",
          "name": "previousOwner",
          "type": "address"
        },
        {
          "indexed": true,
          "internalType": "address",
          "name": "newOwner",
          "type": "address"
        }
      ],
      "name": "OwnershipTransferred",
      "type": "event"
    },
    {
      "anonymous": false,
      "inputs": [
        {
          "indexed": true,
          "internalType": "address",
          "name": "from",
          "type": "address"
        },
        {
          "indexed": true,
          "internalType": "address",
          "name": "to",
          "type": "address"
        },
        {
          "indexed": true,
          "internalType": "uint256",
          "name": "tokenId",
          "type": "uint256"
        }
      ],
      "name": "Transfer",
      "type": "event"
    },
    {
      "anonymous": false,
      "inputs": [
        {
          "indexed": false,
          "internalType": "uint256",
          "name": "tokenId",
          "type": "uint256"
        }
      ],
      "name": "Unlocked",
      "type": "event"
    },
    {
      "inputs": [
        {
          "internalType": "address",
          "name": "to",
          "type": "address"
        },
        {
          "internalType": "uint256",
          "name": "tokenId",
          "type": "uint256"
        }
      ],
      "name": "approve",
      "outputs": [],
      "stateMutability": "nonpayable",
      "type": "function"
    },
    {
      "inputs": [
        {
          "internalType": "address",
          "name": "owner",
          "type": "address"
        }
      ],
      "name": "balanceOf",
      "outputs": [
        {
          "internalType": "uint256",
          "name": "",
          "type": "uint256"
        }
      ],
      "stateMutability": "view",
      "type": "function",
      "constant": true
    },
    {
      "inputs": [
        {
          "internalType": "uint256",
          "name": "tokenId",
          "type": "uint256"
        }
      ],
      "name": "getApproved",
      "outputs": [
        {
          "internalType": "address",
          "name": "",
          "type": "address"
        }
      ],
      "stateMutability": "view",
      "type": "function",
      "constant": true
    },
    {
      "inputs": [
        {
          "internalType": "address",
          "name": "owner",
          "type": "address"
        },
        {
          "internalType": "address",
          "name": "operator",
          "type": "address"
        }
      ],
      "name": "isApprovedForAll",
      "outputs": [
        {
          "internalType": "bool",
          "name": "",
          "type": "bool"
        }
      ],
      "stateMutability": "view",
      "type": "function",
      "constant": true
    },
    {
      "inputs": [],
      "name": "name",
      "outputs": [
        {
          "internalType": "string",
          "name": "",
          "type": "string"
        }
      ],
      "stateMutability": "view",
      "type": "function",
      "constant": true
    },
    {
      "inputs": [],
      "name": "owner",
      "outputs": [
        {
          "internalType": "address",
          "name": "",
          "type": "address"
        }
      ],
      "stateMutability": "view",
      "type": "function",
      "constant": true
    },
    {
      "inputs": [
        {
          "internalType": "uint256",
          "name": "tokenId",
          "type": "uint256"
        }
      ],
      "name": "ownerOf",
      "outputs": [
        {
          "internalType": "address",
          "name": "",
          "type": "address"
        }
      ],
      "stateMutability": "view",
      "type": "function",
      "constant": true
    },
    {
      "inputs": [],
      "name": "renounceOwnership",
      "outputs": [],
      "stateMutability": "nonpayable",
      "type": "function"
    },
    {
      "inputs": [
        {
          "internalType": "address",
          "name": "operator",
          "type": "address"
        },
        {
          "internalType": "bool",
          "name": "approved",
          "type": "bool"
        }
      ],
      "name": "setApprovalForAll",
      "outputs": [],
      "stateMutability": "nonpayable",
      "type": "function"
    },
    {
      "inputs": [],
      "name": "symbol",
      "outputs": [
        {
          "internalType": "string",
          "name": "",
          "type": "string"
        }
      ],
      "stateMutability": "view",
      "type": "function",
      "constant": true
    },
    {
      "inputs": [
        {
          "internalType": "uint256",
          "name": "index",
          "type": "uint256"
        }
      ],
      "name": "tokenByIndex",
      "outputs": [
        {
          "internalType": "uint256",
          "name": "",
          "type": "uint256"
        }
      ],
      "stateMutability": "view",
      "type": "function",
      "constant": true
    },
    {
      "inputs": [
        {
          "internalType": "address",
          "name": "owner",
          "type": "address"
        },
        {
          "internalType": "uint256",
          "name": "index",
          "type": "uint256"
        }
      ],
      "name": "tokenOfOwnerByIndex",
      "outputs": [
        {
          "internalType": "uint256",
          "name": "",
          "type": "uint256"
        }
      ],
      "stateMutability": "view",
      "type": "function",
      "constant": true
    },
    {
      "inputs": [
        {
          "internalType": "uint256",
          "name": "tokenId",
          "type": "uint256"
        }
      ],
      "name": "tokenURI",
      "outputs": [
        {
          "internalType": "string",
          "name": "",
          "type": "string"
        }
      ],
      "stateMutability": "view",
      "type": "function",
      "constant": true
    },
    {
      "inputs": [],
      "name": "totalSupply",
      "outputs": [
        {
          "internalType": "uint256",
          "name": "",
          "type": "uint256"
        }
      ],
      "stateMutability": "view",
      "type": "function",
      "constant": true
    },
    {
      "inputs": [
        {
          "internalType": "address",
          "name": "newOwner",
          "type": "address"
        }
      ],
      "name": "transferOwnership",
      "outputs": [],
      "stateMutability": "nonpayable",
      "type": "function"
    },
    {
      "inputs": [
        {
          "internalType": "uint256",
          "name": "tokenId",
          "type": "uint256"
        }
      ],
      "name": "locked",
      "outputs": [
        {
          "internalType": "bool",
          "name": "",
          "type": "bool"
        }
      ],
      "stateMutability": "view",
      "type": "function",
      "constant": true
    },
    {
      "inputs": [
        {
          "internalType": "address",
          "name": "to",
          "type": "address"
        },
        {
          "internalType": "string",
          "name": "tokenURI",
          "type": "string"
        }
      ],
      "name": "safeMint",
      "outputs": [],
      "stateMutability": "nonpayable",
      "type": "function"
    },
    {
      "inputs": [
        {
          "internalType": "uint256",
          "name": "tokenId",
          "type": "uint256"
        }
      ],
      "name": "burn",
      "outputs": [],
      "stateMutability": "nonpayable",
      "type": "function"
    },
    {
      "inputs": [
        {
          "internalType": "address",
          "name": "from",
          "type": "address"
        },
        {
          "internalType": "address",
          "name": "to",
          "type": "address"
        },
        {
          "internalType": "uint256",
          "name": "tokenId",
          "type": "uint256"
        }
      ],
      "name": "safeTransferFrom",
      "outputs": [],
      "stateMutability": "nonpayable",
      "type": "function"
    },
    {
      "inputs": [
        {
          "internalType": "address",
          "name": "from",
          "type": "address"
        },
        {
          "internalType": "address",
          "name": "to",
          "type": "address"
        },
        {
          "internalType": "uint256",
          "name": "tokenId",
          "type": "uint256"
        },
        {
          "internalType": "bytes",
          "name": "data",
          "type": "bytes"
        }
      ],
      "name": "safeTransferFrom",
      "outputs": [],
      "stateMutability": "nonpayable",
      "type": "function"
    },
    {
      "inputs": [
        {
          "internalType": "address",
          "name": "from",
          "type": "address"
        },
        {
          "internalType": "address",
          "name": "to",
          "type": "address"
        },
        {
          "internalType": "uint256",
          "name": "tokenId",
          "type": "uint256"
        }
      ],
      "name": "transferFrom",
      "outputs": [],
      "stateMutability": "nonpayable",
      "type": "function"
    },
    {
      "inputs": [
        {
          "internalType": "bytes4",
          "name": "_interfaceId",
          "type": "bytes4"
        }
      ],
      "name": "supportsInterface",
      "outputs": [
        {
          "internalType": "bool",
          "name": "",
          "type": "bool"
        }
      ],
      "stateMutability": "view",
      "type": "function",
      "constant": true
    },
    {
      "inputs": [
        {
          "internalType": "string",
          "name": "tokenURI",
          "type": "string"
        }
      ],
      "name": "getTokenID",
      "outputs": [
        {
          "internalType": "uint256",
          "name": "",
          "type": "uint256"
        }
      ],
      "stateMutability": "view",
      "type": "function",
      "constant": true
    }
  ],
  "bytecode": "0x60806040523480156200001157600080fd5b50604051620041c2380380620041c28339818101604052810190620000379190620002e8565b818181600090816200004a9190620005b8565b5080600190816200005c9190620005b8565b5050506200007f620000736200008760201b60201c565b6200008f60201b60201c565b50506200069f565b600033905090565b6000600a60009054906101000a900473ffffffffffffffffffffffffffffffffffffffff16905081600a60006101000a81548173ffffffffffffffffffffffffffffffffffffffff021916908373ffffffffffffffffffffffffffffffffffffffff1602179055508173ffffffffffffffffffffffffffffffffffffffff168173ffffffffffffffffffffffffffffffffffffffff167f8be0079c531659141344cd1fd0a4f28419497f9722a3daafe3b4186f6b6457e060405160405180910390a35050565b6000604051905090565b600080fd5b600080fd5b600080fd5b600080fd5b6000601f19601f8301169050919050565b7f4e487b7100000000000000000000000000000000000000000000000000000000600052604160045260246000fd5b620001be8262000173565b810181811067ffffffffffffffff82111715620001e057620001df62000184565b5b80604052505050565b6000620001f562000155565b9050620002038282620001b3565b919050565b600067ffffffffffffffff82111562000226576200022562000184565b5b620002318262000173565b9050602081019050919050565b60005b838110156200025e57808201518184015260208101905062000241565b60008484015250505050565b6000620002816200027b8462000208565b620001e9565b905082815260208101848484011115620002a0576200029f6200016e565b5b620002ad8482856200023e565b509392505050565b600082601f830112620002cd57620002cc62000169565b5b8151620002df8482602086016200026a565b91505092915050565b600080604083850312156200030257620003016200015f565b5b600083015167ffffffffffffffff81111562000323576200032262000164565b5b6200033185828601620002b5565b925050602083015167ffffffffffffffff81111562000355576200035462000164565b5b6200036385828601620002b5565b9150509250929050565b600081519050919050565b7f4e487b7100000000000000000000000000000000000000000000000000000000600052602260045260246000fd5b60006002820490506001821680620003c057607f821691505b602082108103620003d657620003d562000378565b5b50919050565b60008190508160005260206000209050919050565b60006020601f8301049050919050565b600082821b905092915050565b600060088302620004407fffffffffffffffffffffffffffffffffffffffffffffffffffffffffffffffff8262000401565b6200044c868362000401565b95508019841693508086168417925050509392505050565b6000819050919050565b6000819050919050565b600062000499620004936200048d8462000464565b6200046e565b62000464565b9050919050565b6000819050919050565b620004b58362000478565b620004cd620004c482620004a0565b8484546200040e565b825550505050565b600090565b620004e4620004d5565b620004f1818484620004aa565b505050565b5b8181101562000519576200050d600082620004da565b600181019050620004f7565b5050565b601f82111562000568576200053281620003dc565b6200053d84620003f1565b810160208510156200054d578190505b620005656200055c85620003f1565b830182620004f6565b50505b505050565b600082821c905092915050565b60006200058d600019846008026200056d565b1980831691505092915050565b6000620005a883836200057a565b9150826002028217905092915050565b620005c3826200036d565b67ffffffffffffffff811115620005df57620005de62000184565b5b620005eb8254620003a7565b620005f88282856200051d565b600060209050601f8311600181146200063057600084156200061b578287015190505b6200062785826200059a565b86555062000697565b601f1984166200064086620003dc565b60005b828110156200066a5784890151825560018201915060208501945060208101905062000643565b868310156200068a578489015162000686601f8916826200057a565b8355505b6001600288020188555050505b505050505050565b613b1380620006af6000396000f3fe608060405234801561001057600080fd5b506004361061014d5760003560e01c806370a08231116100c3578063b88d4fde1161007c578063b88d4fde146103b0578063c87b56dd146103cc578063d204c45e146103fc578063e706a63914610418578063e985e9c514610448578063f2fde38b146104785761014d565b806370a08231146102ee578063715018a61461031e5780638da5cb5b1461032857806395d89b4114610346578063a22cb46514610364578063b45a3c0e146103805761014d565b806323b872dd1161011557806323b872dd1461020a5780632f745c591461022657806342842e0e1461025657806342966c68146102725780634f6ccce71461028e5780636352211e146102be5761014d565b806301ffc9a71461015257806306fdde0314610182578063081812fc146101a0578063095ea7b3146101d057806318160ddd146101ec575b600080fd5b61016c6004803603810190610167919061259b565b610494565b60405161017991906125e3565b60405180910390f35b61018a61050e565b604051610197919061268e565b60405180910390f35b6101ba60048036038101906101b591906126e6565b6105a0565b6040516101c79190612754565b60405180910390f35b6101ea60048036038101906101e5919061279b565b6105e6565b005b6101f46106fd565b60405161020191906127ea565b60405180910390f35b610224600480360381019061021f9190612805565b61070a565b005b610240600480360381019061023b919061279b565b610747565b60405161024d91906127ea565b60405180910390f35b610270600480360381019061026b9190612805565b6107ec565b005b61028c600480360381019061028791906126e6565b610829565b005b6102a860048036038101906102a391906126e6565b6108b4565b6040516102b591906127ea565b60405180910390f35b6102d860048036038101906102d391906126e6565b610925565b6040516102e59190612754565b60405180910390f35b61030860048036038101906103039190612858565b6109d6565b60405161031591906127ea565b60405180910390f35b610326610a8d565b005b610330610aa1565b60405161033d9190612754565b60405180910390f35b61034e610acb565b60405161035b919061268e565b60405180910390f35b61037e600480360381019061037991906128b1565b610b5d565b005b61039a600480360381019061039591906126e6565b610b73565b6040516103a791906125e3565b60405180910390f35b6103ca60048036038101906103c59190612a26565b610bdd565b005b6103e660048036038101906103e191906126e6565b610c1c565b6040516103f3919061268e565b60405180910390f35b61041660048036038101906104119190612b4a565b610c84565b005b610432600480360381019061042d9190612ba6565b610d8f565b60405161043f91906127ea565b60405180910390f35b610462600480360381019061045d9190612bef565b610de1565b60405161046f91906125e3565b60405180910390f35b610492600480360381019061048d9190612858565b610e75565b005b60007fb45a3c0e000000000000000000000000000000000000000000000000000000007bffffffffffffffffffffffffffffffffffffffffffffffffffffffff1916827bffffffffffffffffffffffffffffffffffffffffffffffffffffffff19161480610507575061050682610ef8565b5b9050919050565b60606000805461051d90612c5e565b80601f016020809104026020016040519081016040528092919081815260200182805461054990612c5e565b80156105965780601f1061056b57610100808354040283529160200191610596565b820191906000526020600020905b81548152906001019060200180831161057957829003601f168201915b5050505050905090565b60006105ab82610f72565b6004600083815260200190815260200160002060009054906101000a900473ffffffffffffffffffffffffffffffffffffffff169050919050565b60006105f182610925565b90508073ffffffffffffffffffffffffffffffffffffffff168373ffffffffffffffffffffffffffffffffffffffff1603610661576040517f08c379a000000000000000000000000000000000000000000000000000000000815260040161065890612d01565b60405180910390fd5b8073ffffffffffffffffffffffffffffffffffffffff16610680610fbd565b73ffffffffffffffffffffffffffffffffffffffff1614806106af57506106ae816106a9610fbd565b610de1565b5b6106ee576040517f08c379a00000000000000000000000000000000000000000000000000000000081526004016106e590612d93565b60405180910390fd5b6106f88383610fc5565b505050565b6000600880549050905090565b80600e600082815260200190815260200160002060009054906101000a900460ff161561073657600080fd5b61074184848461107e565b50505050565b6000610752836109d6565b8210610793576040517f08c379a000000000000000000000000000000000000000000000000000000000815260040161078a90612e25565b60405180910390fd5b600660008473ffffffffffffffffffffffffffffffffffffffff1673ffffffffffffffffffffffffffffffffffffffff168152602001908152602001600020600083815260200190815260200160002054905092915050565b80600e600082815260200190815260200160002060009054906101000a900460ff161561081857600080fd5b61082384848461107e565b50505050565b61083281610925565b73ffffffffffffffffffffffffffffffffffffffff163373ffffffffffffffffffffffffffffffffffffffff161461089f576040517f08c379a000000000000000000000000000000000000000000000000000000000815260040161089690612e91565b60405180910390fd5b6108a88161109e565b6108b1816111bb565b50565b60006108be6106fd565b82106108ff576040517f08c379a00000000000000000000000000000000000000000000000000000000081526004016108f690612f23565b60405180910390fd5b6008828154811061091357610912612f43565b5b90600052602060002001549050919050565b6000806002600084815260200190815260200160002060009054906101000a900473ffffffffffffffffffffffffffffffffffffffff169050600073ffffffffffffffffffffffffffffffffffffffff168173ffffffffffffffffffffffffffffffffffffffff16036109cd576040517f08c379a00000000000000000000000000000000000000000000000000000000081526004016109c490612fbe565b60405180910390fd5b80915050919050565b60008073ffffffffffffffffffffffffffffffffffffffff168273ffffffffffffffffffffffffffffffffffffffff1603610a46576040517f08c379a0000000000000000000000000000000000000000000000000000000008152600401610a3d90613050565b60405180910390fd5b600360008373ffffffffffffffffffffffffffffffffffffffff1673ffffffffffffffffffffffffffffffffffffffff168152602001908152602001600020549050919050565b610a956112a0565b610a9f600061131e565b565b6000600a60009054906101000a900473ffffffffffffffffffffffffffffffffffffffff16905090565b606060018054610ada90612c5e565b80601f0160208091040260200160405190810160405280929190818152602001828054610b0690612c5e565b8015610b535780601f10610b2857610100808354040283529160200191610b53565b820191906000526020600020905b815481529060010190602001808311610b3657829003601f168201915b5050505050905090565b610b6f610b68610fbd565b83836113e4565b5050565b60008073ffffffffffffffffffffffffffffffffffffffff16610b9583610925565b73ffffffffffffffffffffffffffffffffffffffff1603610bb557600080fd5b600e600083815260200190815260200160002060009054906101000a900460ff169050919050565b81600e600082815260200190815260200160002060009054906101000a900460ff1615610c0957600080fd5b610c1585858585611550565b5050505050565b6060610c2782610f72565b6000610c316115b2565b90506000815111610c515760405180602001604052806000815250610c7c565b80610c5b846115c9565b604051602001610c6c9291906130ac565b6040516020818303038152906040525b915050919050565b610c8c6112a0565b60011515600e6000610c9d84610d8f565b815260200190815260200160002060009054906101000a900460ff16151503610cfb576040517f08c379a0000000000000000000000000000000000000000000000000000000008152600401610cf29061311c565b60405180910390fd5b610d05600b611729565b6000610d11600b61173f565b90506001600e600083815260200190815260200160002060006101000a81548160ff0219169083151502179055507f032bc66be43dbccb7487781d168eb7bda224628a3b2c3388bdf69b532a3a161181604051610d6e91906127ea565b60405180910390a1610d80838261174d565b610d8a818361176b565b505050565b600080600d83604051610da2919061313c565b90815260200160405180910390205403610dbb57600080fd5b600d82604051610dcb919061313c565b9081526020016040518091039020549050919050565b6000600560008473ffffffffffffffffffffffffffffffffffffffff1673ffffffffffffffffffffffffffffffffffffffff16815260200190815260200160002060008373ffffffffffffffffffffffffffffffffffffffff1673ffffffffffffffffffffffffffffffffffffffff16815260200190815260200160002060009054906101000a900460ff16905092915050565b610e7d6112a0565b600073ffffffffffffffffffffffffffffffffffffffff168173ffffffffffffffffffffffffffffffffffffffff1603610eec576040517f08c379a0000000000000000000000000000000000000000000000000000000008152600401610ee3906131c5565b60405180910390fd5b610ef58161131e565b50565b60007f780e9d63000000000000000000000000000000000000000000000000000000007bffffffffffffffffffffffffffffffffffffffffffffffffffffffff1916827bffffffffffffffffffffffffffffffffffffffffffffffffffffffff19161480610f6b5750610f6a826117b3565b5b9050919050565b610f7b81611895565b610fba576040517f08c379a0000000000000000000000000000000000000000000000000000000008152600401610fb190612fbe565b60405180910390fd5b50565b600033905090565b816004600083815260200190815260200160002060006101000a81548173ffffffffffffffffffffffffffffffffffffffff021916908373ffffffffffffffffffffffffffffffffffffffff160217905550808273ffffffffffffffffffffffffffffffffffffffff1661103883610925565b73ffffffffffffffffffffffffffffffffffffffff167f8c5be1e5ebec7d5bd14f71427d1e84f3dd0314c0f7b2291e5b200ac8c7c3b92560405160405180910390a45050565b61109983838360405180602001604052806000815250610bdd565b505050565b60006110a982610925565b90506110b781600084611901565b6110c2600083610fc5565b6001600360008373ffffffffffffffffffffffffffffffffffffffff1673ffffffffffffffffffffffffffffffffffffffff16815260200190815260200160002060008282546111129190613214565b925050819055506002600083815260200190815260200160002060006101000a81549073ffffffffffffffffffffffffffffffffffffffff021916905581600073ffffffffffffffffffffffffffffffffffffffff168273ffffffffffffffffffffffffffffffffffffffff167fddf252ad1be2c89b69c2b068fc378daa952ba7f163c4a11628f55a4df523b3ef60405160405180910390a46111b781600084611911565b5050565b6000600c600083815260200190815260200160002080546111db90612c5e565b80601f016020809104026020016040519081016040528092919081815260200182805461120790612c5e565b80156112545780601f1061122957610100808354040283529160200191611254565b820191906000526020600020905b81548152906001019060200180831161123757829003601f168201915b50505050509050600c6000838152602001908152602001600020600061127a91906124d2565b600d8160405161128a919061313c565b9081526020016040518091039020600090555050565b6112a8610fbd565b73ffffffffffffffffffffffffffffffffffffffff166112c6610aa1565b73ffffffffffffffffffffffffffffffffffffffff161461131c576040517f08c379a000000000000000000000000000000000000000000000000000000000815260040161131390613294565b60405180910390fd5b565b6000600a60009054906101000a900473ffffffffffffffffffffffffffffffffffffffff16905081600a60006101000a81548173ffffffffffffffffffffffffffffffffffffffff021916908373ffffffffffffffffffffffffffffffffffffffff1602179055508173ffffffffffffffffffffffffffffffffffffffff168173ffffffffffffffffffffffffffffffffffffffff167f8be0079c531659141344cd1fd0a4f28419497f9722a3daafe3b4186f6b6457e060405160405180910390a35050565b8173ffffffffffffffffffffffffffffffffffffffff168373ffffffffffffffffffffffffffffffffffffffff1603611452576040517f08c379a000000000000000000000000000000000000000000000000000000000815260040161144990613300565b60405180910390fd5b80600560008573ffffffffffffffffffffffffffffffffffffffff1673ffffffffffffffffffffffffffffffffffffffff16815260200190815260200160002060008473ffffffffffffffffffffffffffffffffffffffff1673ffffffffffffffffffffffffffffffffffffffff16815260200190815260200160002060006101000a81548160ff0219169083151502179055508173ffffffffffffffffffffffffffffffffffffffff168373ffffffffffffffffffffffffffffffffffffffff167f17307eab39ab6107e8899845ad3d59bd9653f200f220920489ca2b5937696c318360405161154391906125e3565b60405180910390a3505050565b61156161155b610fbd565b83611916565b6115a0576040517f08c379a000000000000000000000000000000000000000000000000000000000815260040161159790613392565b60405180910390fd5b6115ac848484846119ab565b50505050565b606060405180602001604052806000815250905090565b606060008203611610576040518060400160405280600181526020017f30000000000000000000000000000000000000000000000000000000000000008152509050611724565b600082905060005b6000821461164257808061162b906133b2565b915050600a8261163b9190613429565b9150611618565b60008167ffffffffffffffff81111561165e5761165d6128fb565b5b6040519080825280601f01601f1916602001820160405280156116905781602001600182028036833780820191505090505b5090505b6000851461171d576001826116a99190613214565b9150600a856116b8919061345a565b60306116c4919061348b565b60f81b8183815181106116da576116d9612f43565b5b60200101907effffffffffffffffffffffffffffffffffffffffffffffffffffffffffffff1916908160001a905350600a856117169190613429565b9450611694565b8093505050505b919050565b6001816000016000828254019250508190555050565b600081600001549050919050565b611767828260405180602001604052806000815250611a07565b5050565b80600c6000848152602001908152602001600020908161178b919061366b565b5081600d8260405161179d919061313c565b9081526020016040518091039020819055505050565b60007f80ac58cd000000000000000000000000000000000000000000000000000000007bffffffffffffffffffffffffffffffffffffffffffffffffffffffff1916827bffffffffffffffffffffffffffffffffffffffffffffffffffffffff1916148061187e57507f5b5e139f000000000000000000000000000000000000000000000000000000007bffffffffffffffffffffffffffffffffffffffffffffffffffffffff1916827bffffffffffffffffffffffffffffffffffffffffffffffffffffffff1916145b8061188e575061188d82611a62565b5b9050919050565b60008073ffffffffffffffffffffffffffffffffffffffff166002600084815260200190815260200160002060009054906101000a900473ffffffffffffffffffffffffffffffffffffffff1673ffffffffffffffffffffffffffffffffffffffff1614159050919050565b61190c838383611acc565b505050565b505050565b60008061192283610925565b90508073ffffffffffffffffffffffffffffffffffffffff168473ffffffffffffffffffffffffffffffffffffffff16148061196457506119638185610de1565b5b806119a257508373ffffffffffffffffffffffffffffffffffffffff1661198a846105a0565b73ffffffffffffffffffffffffffffffffffffffff16145b91505092915050565b6119b6848484611bde565b6119c284848484611e44565b611a01576040517f08c379a00000000000000000000000000000000000000000000000000000000081526004016119f8906137af565b60405180910390fd5b50505050565b611a118383611fcb565b611a1e6000848484611e44565b611a5d576040517f08c379a0000000000000000000000000000000000000000000000000000000008152600401611a54906137af565b60405180910390fd5b505050565b60007f01ffc9a7000000000000000000000000000000000000000000000000000000007bffffffffffffffffffffffffffffffffffffffffffffffffffffffff1916827bffffffffffffffffffffffffffffffffffffffffffffffffffffffff1916149050919050565b611ad78383836121a4565b600073ffffffffffffffffffffffffffffffffffffffff168373ffffffffffffffffffffffffffffffffffffffff1603611b1957611b14816121a9565b611b58565b8173ffffffffffffffffffffffffffffffffffffffff168373ffffffffffffffffffffffffffffffffffffffff1614611b5757611b5683826121f2565b5b5b600073ffffffffffffffffffffffffffffffffffffffff168273ffffffffffffffffffffffffffffffffffffffff1603611b9a57611b958161235f565b611bd9565b8273ffffffffffffffffffffffffffffffffffffffff168273ffffffffffffffffffffffffffffffffffffffff1614611bd857611bd78282612430565b5b5b505050565b8273ffffffffffffffffffffffffffffffffffffffff16611bfe82610925565b73ffffffffffffffffffffffffffffffffffffffff1614611c54576040517f08c379a0000000000000000000000000000000000000000000000000000000008152600401611c4b90613841565b60405180910390fd5b600073ffffffffffffffffffffffffffffffffffffffff168273ffffffffffffffffffffffffffffffffffffffff1603611cc3576040517f08c379a0000000000000000000000000000000000000000000000000000000008152600401611cba906138d3565b60405180910390fd5b611cce838383611901565b611cd9600082610fc5565b6001600360008573ffffffffffffffffffffffffffffffffffffffff1673ffffffffffffffffffffffffffffffffffffffff1681526020019081526020016000206000828254611d299190613214565b925050819055506001600360008473ffffffffffffffffffffffffffffffffffffffff1673ffffffffffffffffffffffffffffffffffffffff1681526020019081526020016000206000828254611d80919061348b565b92505081905550816002600083815260200190815260200160002060006101000a81548173ffffffffffffffffffffffffffffffffffffffff021916908373ffffffffffffffffffffffffffffffffffffffff160217905550808273ffffffffffffffffffffffffffffffffffffffff168473ffffffffffffffffffffffffffffffffffffffff167fddf252ad1be2c89b69c2b068fc378daa952ba7f163c4a11628f55a4df523b3ef60405160405180910390a4611e3f838383611911565b505050565b6000611e658473ffffffffffffffffffffffffffffffffffffffff166124af565b15611fbe578373ffffffffffffffffffffffffffffffffffffffff1663150b7a02611e8e610fbd565b8786866040518563ffffffff1660e01b8152600401611eb09493929190613948565b6020604051808303816000875af1925050508015611eec57506040513d601f19601f82011682018060405250810190611ee991906139a9565b60015b611f6e573d8060008114611f1c576040519150601f19603f3d011682016040523d82523d6000602084013e611f21565b606091505b506000815103611f66576040517f08c379a0000000000000000000000000000000000000000000000000000000008152600401611f5d906137af565b60405180910390fd5b805181602001fd5b63150b7a0260e01b7bffffffffffffffffffffffffffffffffffffffffffffffffffffffff1916817bffffffffffffffffffffffffffffffffffffffffffffffffffffffff191614915050611fc3565b600190505b949350505050565b600073ffffffffffffffffffffffffffffffffffffffff168273ffffffffffffffffffffffffffffffffffffffff160361203a576040517f08c379a000000000000000000000000000000000000000000000000000000000815260040161203190613a22565b60405180910390fd5b61204381611895565b15612083576040517f08c379a000000000000000000000000000000000000000000000000000000000815260040161207a90613a8e565b60405180910390fd5b61208f60008383611901565b6001600360008473ffffffffffffffffffffffffffffffffffffffff1673ffffffffffffffffffffffffffffffffffffffff16815260200190815260200160002060008282546120df919061348b565b92505081905550816002600083815260200190815260200160002060006101000a81548173ffffffffffffffffffffffffffffffffffffffff021916908373ffffffffffffffffffffffffffffffffffffffff160217905550808273ffffffffffffffffffffffffffffffffffffffff16600073ffffffffffffffffffffffffffffffffffffffff167fddf252ad1be2c89b69c2b068fc378daa952ba7f163c4a11628f55a4df523b3ef60405160405180910390a46121a060008383611911565b5050565b505050565b6008805490506009600083815260200190815260200160002081905550600881908060018154018082558091505060019003906000526020600020016000909190919091505550565b600060016121ff846109d6565b6122099190613214565b90506000600760008481526020019081526020016000205490508181146122ee576000600660008673ffffffffffffffffffffffffffffffffffffffff1673ffffffffffffffffffffffffffffffffffffffff168152602001908152602001600020600084815260200190815260200160002054905080600660008773ffffffffffffffffffffffffffffffffffffffff1673ffffffffffffffffffffffffffffffffffffffff168152602001908152602001600020600084815260200190815260200160002081905550816007600083815260200190815260200160002081905550505b6007600084815260200190815260200160002060009055600660008573ffffffffffffffffffffffffffffffffffffffff1673ffffffffffffffffffffffffffffffffffffffff16815260200190815260200160002060008381526020019081526020016000206000905550505050565b600060016008805490506123739190613214565b90506000600960008481526020019081526020016000205490506000600883815481106123a3576123a2612f43565b5b9060005260206000200154905080600883815481106123c5576123c4612f43565b5b90600052602060002001819055508160096000838152602001908152602001600020819055506009600085815260200190815260200160002060009055600880548061241457612413613aae565b5b6001900381819060005260206000200160009055905550505050565b600061243b836109d6565b905081600660008573ffffffffffffffffffffffffffffffffffffffff1673ffffffffffffffffffffffffffffffffffffffff168152602001908152602001600020600083815260200190815260200160002081905550806007600084815260200190815260200160002081905550505050565b6000808273ffffffffffffffffffffffffffffffffffffffff163b119050919050565b5080546124de90612c5e565b6000825580601f106124f0575061250f565b601f01602090049060005260206000209081019061250e9190612512565b5b50565b5b8082111561252b576000816000905550600101612513565b5090565b6000604051905090565b600080fd5b600080fd5b60007fffffffff0000000000000000000000000000000000000000000000000000000082169050919050565b61257881612543565b811461258357600080fd5b50565b6000813590506125958161256f565b92915050565b6000602082840312156125b1576125b0612539565b5b60006125bf84828501612586565b91505092915050565b60008115159050919050565b6125dd816125c8565b82525050565b60006020820190506125f860008301846125d4565b92915050565b600081519050919050565b600082825260208201905092915050565b60005b8381101561263857808201518184015260208101905061261d565b60008484015250505050565b6000601f19601f8301169050919050565b6000612660826125fe565b61266a8185612609565b935061267a81856020860161261a565b61268381612644565b840191505092915050565b600060208201905081810360008301526126a88184612655565b905092915050565b6000819050919050565b6126c3816126b0565b81146126ce57600080fd5b50565b6000813590506126e0816126ba565b92915050565b6000602082840312156126fc576126fb612539565b5b600061270a848285016126d1565b91505092915050565b600073ffffffffffffffffffffffffffffffffffffffff82169050919050565b600061273e82612713565b9050919050565b61274e81612733565b82525050565b60006020820190506127696000830184612745565b92915050565b61277881612733565b811461278357600080fd5b50565b6000813590506127958161276f565b92915050565b600080604083850312156127b2576127b1612539565b5b60006127c085828601612786565b92505060206127d1858286016126d1565b9150509250929050565b6127e4816126b0565b82525050565b60006020820190506127ff60008301846127db565b92915050565b60008060006060848603121561281e5761281d612539565b5b600061282c86828701612786565b935050602061283d86828701612786565b925050604061284e868287016126d1565b9150509250925092565b60006020828403121561286e5761286d612539565b5b600061287c84828501612786565b91505092915050565b61288e816125c8565b811461289957600080fd5b50565b6000813590506128ab81612885565b92915050565b600080604083850312156128c8576128c7612539565b5b60006128d685828601612786565b92505060206128e78582860161289c565b9150509250929050565b600080fd5b600080fd5b7f4e487b7100000000000000000000000000000000000000000000000000000000600052604160045260246000fd5b61293382612644565b810181811067ffffffffffffffff82111715612952576129516128fb565b5b80604052505050565b600061296561252f565b9050612971828261292a565b919050565b600067ffffffffffffffff821115612991576129906128fb565b5b61299a82612644565b9050602081019050919050565b82818337600083830152505050565b60006129c96129c484612976565b61295b565b9050828152602081018484840111156129e5576129e46128f6565b5b6129f08482856129a7565b509392505050565b600082601f830112612a0d57612a0c6128f1565b5b8135612a1d8482602086016129b6565b91505092915050565b60008060008060808587031215612a4057612a3f612539565b5b6000612a4e87828801612786565b9450506020612a5f87828801612786565b9350506040612a70878288016126d1565b925050606085013567ffffffffffffffff811115612a9157612a9061253e565b5b612a9d878288016129f8565b91505092959194509250565b600067ffffffffffffffff821115612ac457612ac36128fb565b5b612acd82612644565b9050602081019050919050565b6000612aed612ae884612aa9565b61295b565b905082815260208101848484011115612b0957612b086128f6565b5b612b148482856129a7565b509392505050565b600082601f830112612b3157612b306128f1565b5b8135612b41848260208601612ada565b91505092915050565b60008060408385031215612b6157612b60612539565b5b6000612b6f85828601612786565b925050602083013567ffffffffffffffff811115612b9057612b8f61253e565b5b612b9c85828601612b1c565b9150509250929050565b600060208284031215612bbc57612bbb612539565b5b600082013567ffffffffffffffff811115612bda57612bd961253e565b5b612be684828501612b1c565b91505092915050565b60008060408385031215612c0657612c05612539565b5b6000612c1485828601612786565b9250506020612c2585828601612786565b9150509250929050565b7f4e487b7100000000000000000000000000000000000000000000000000000000600052602260045260246000fd5b60006002820490506001821680612c7657607f821691505b602082108103612c8957612c88612c2f565b5b50919050565b7f4552433732313a20617070726f76616c20746f2063757272656e74206f776e6560008201527f7200000000000000000000000000000000000000000000000000000000000000602082015250565b6000612ceb602183612609565b9150612cf682612c8f565b604082019050919050565b60006020820190508181036000830152612d1a81612cde565b9050919050565b7f4552433732313a20617070726f76652063616c6c6572206973206e6f7420746f60008201527f6b656e206f776e6572206e6f7220617070726f76656420666f7220616c6c0000602082015250565b6000612d7d603e83612609565b9150612d8882612d21565b604082019050919050565b60006020820190508181036000830152612dac81612d70565b9050919050565b7f455243373231456e756d657261626c653a206f776e657220696e646578206f7560008201527f74206f6620626f756e6473000000000000000000000000000000000000000000602082015250565b6000612e0f602b83612609565b9150612e1a82612db3565b604082019050919050565b60006020820190508181036000830152612e3e81612e02565b9050919050565b7f42524e3031000000000000000000000000000000000000000000000000000000600082015250565b6000612e7b600583612609565b9150612e8682612e45565b602082019050919050565b60006020820190508181036000830152612eaa81612e6e565b9050919050565b7f455243373231456e756d657261626c653a20676c6f62616c20696e646578206f60008201527f7574206f6620626f756e64730000000000000000000000000000000000000000602082015250565b6000612f0d602c83612609565b9150612f1882612eb1565b604082019050919050565b60006020820190508181036000830152612f3c81612f00565b9050919050565b7f4e487b7100000000000000000000000000000000000000000000000000000000600052603260045260246000fd5b7f4552433732313a20696e76616c696420746f6b656e2049440000000000000000600082015250565b6000612fa8601883612609565b9150612fb382612f72565b602082019050919050565b60006020820190508181036000830152612fd781612f9b565b9050919050565b7f4552433732313a2061646472657373207a65726f206973206e6f74206120766160008201527f6c6964206f776e65720000000000000000000000000000000000000000000000602082015250565b600061303a602983612609565b915061304582612fde565b604082019050919050565b600060208201905081810360008301526130698161302d565b9050919050565b600081905092915050565b6000613086826125fe565b6130908185613070565b93506130a081856020860161261a565b80840191505092915050565b60006130b8828561307b565b91506130c4828461307b565b91508190509392505050565b7f4d4e543032000000000000000000000000000000000000000000000000000000600082015250565b6000613106600583612609565b9150613111826130d0565b602082019050919050565b60006020820190508181036000830152613135816130f9565b9050919050565b6000613148828461307b565b915081905092915050565b7f4f776e61626c653a206e6577206f776e657220697320746865207a65726f206160008201527f6464726573730000000000000000000000000000000000000000000000000000602082015250565b60006131af602683612609565b91506131ba82613153565b604082019050919050565b600060208201905081810360008301526131de816131a2565b9050919050565b7f4e487b7100000000000000000000000000000000000000000000000000000000600052601160045260246000fd5b600061321f826126b0565b915061322a836126b0565b9250828203905081811115613242576132416131e5565b5b92915050565b7f4f776e61626c653a2063616c6c6572206973206e6f7420746865206f776e6572600082015250565b600061327e602083612609565b915061328982613248565b602082019050919050565b600060208201905081810360008301526132ad81613271565b9050919050565b7f4552433732313a20617070726f766520746f2063616c6c657200000000000000600082015250565b60006132ea601983612609565b91506132f5826132b4565b602082019050919050565b60006020820190508181036000830152613319816132dd565b9050919050565b7f4552433732313a2063616c6c6572206973206e6f7420746f6b656e206f776e6560008201527f72206e6f7220617070726f766564000000000000000000000000000000000000602082015250565b600061337c602e83612609565b915061338782613320565b604082019050919050565b600060208201905081810360008301526133ab8161336f565b9050919050565b60006133bd826126b0565b91507fffffffffffffffffffffffffffffffffffffffffffffffffffffffffffffffff82036133ef576133ee6131e5565b5b600182019050919050565b7f4e487b7100000000000000000000000000000000000000000000000000000000600052601260045260246000fd5b6000613434826126b0565b915061343f836126b0565b92508261344f5761344e6133fa565b5b828204905092915050565b6000613465826126b0565b9150613470836126b0565b9250826134805761347f6133fa565b5b828206905092915050565b6000613496826126b0565b91506134a1836126b0565b92508282019050808211156134b9576134b86131e5565b5b92915050565b60008190508160005260206000209050919050565b60006020601f8301049050919050565b600082821b905092915050565b6000600883026135217fffffffffffffffffffffffffffffffffffffffffffffffffffffffffffffffff826134e4565b61352b86836134e4565b95508019841693508086168417925050509392505050565b6000819050919050565b600061356861356361355e846126b0565b613543565b6126b0565b9050919050565b6000819050919050565b6135828361354d565b61359661358e8261356f565b8484546134f1565b825550505050565b600090565b6135ab61359e565b6135b6818484613579565b505050565b5b818110156135da576135cf6000826135a3565b6001810190506135bc565b5050565b601f82111561361f576135f0816134bf565b6135f9846134d4565b81016020851015613608578190505b61361c613614856134d4565b8301826135bb565b50505b505050565b600082821c905092915050565b600061364260001984600802613624565b1980831691505092915050565b600061365b8383613631565b9150826002028217905092915050565b613674826125fe565b67ffffffffffffffff81111561368d5761368c6128fb565b5b6136978254612c5e565b6136a28282856135de565b600060209050601f8311600181146136d557600084156136c3578287015190505b6136cd858261364f565b865550613735565b601f1984166136e3866134bf565b60005b8281101561370b578489015182556001820191506020850194506020810190506136e6565b868310156137285784890151613724601f891682613631565b8355505b6001600288020188555050505b505050505050565b7f4552433732313a207472616e7366657220746f206e6f6e20455243373231526560008201527f63656976657220696d706c656d656e7465720000000000000000000000000000602082015250565b6000613799603283612609565b91506137a48261373d565b604082019050919050565b600060208201905081810360008301526137c88161378c565b9050919050565b7f4552433732313a207472616e736665722066726f6d20696e636f72726563742060008201527f6f776e6572000000000000000000000000000000000000000000000000000000602082015250565b600061382b602583612609565b9150613836826137cf565b604082019050919050565b6000602082019050818103600083015261385a8161381e565b9050919050565b7f4552433732313a207472616e7366657220746f20746865207a65726f2061646460008201527f7265737300000000000000000000000000000000000000000000000000000000602082015250565b60006138bd602483612609565b91506138c882613861565b604082019050919050565b600060208201905081810360008301526138ec816138b0565b9050919050565b600081519050919050565b600082825260208201905092915050565b600061391a826138f3565b61392481856138fe565b935061393481856020860161261a565b61393d81612644565b840191505092915050565b600060808201905061395d6000830187612745565b61396a6020830186612745565b61397760408301856127db565b8181036060830152613989818461390f565b905095945050505050565b6000815190506139a38161256f565b92915050565b6000602082840312156139bf576139be612539565b5b60006139cd84828501613994565b91505092915050565b7f4552433732313a206d696e7420746f20746865207a65726f2061646472657373600082015250565b6000613a0c602083612609565b9150613a17826139d6565b602082019050919050565b60006020820190508181036000830152613a3b816139ff565b9050919050565b7f4552433732313a20746f6b656e20616c7265616479206d696e74656400000000600082015250565b6000613a78601c83612609565b9150613a8382613a42565b602082019050919050565b60006020820190508181036000830152613aa781613a6b565b9050919050565b7f4e487b7100000000000000000000000000000000000000000000000000000000600052603160045260246000fdfea2646970667358221220c16db8e0d649c0eec6a4493e2ed884b2b432d258c441f4ad68319645d901c3ea64736f6c63430008110033",
  "immutableReferences": {},
  "source": "// SPDX-License-Identifier: Apache-2.0\npragma solidity ^0.8.16;\n\nimport \"@openzeppelin/contracts/token/ERC721/ERC721.sol\";\nimport \"@openzeppelin/contracts/token/ERC721/extensions/ERC721Enumerable.sol\";\nimport \"@openzeppelin/contracts/access/Ownable.sol\";\nimport \"@openzeppelin/contracts/utils/Counters.sol\";\nimport \"./IERC5192.sol\";\n\ncontract SBT is ERC721, ERC721Enumerable, Ownable {\n\n    constructor(\n        string memory name_,\n        string memory symbol_\n    ) ERC721(name_, symbol_) {}\n\n\n\n    //function _baseURI() internal view override returns (string memory) {\n    //    return baseURI;\n    //}\n\n    using Counters for Counters.Counter;\n    Counters.Counter private _tokenIdCounter;\n\n    // URIStorage\n    mapping(uint256 => string) tokenURIs;\n\n    mapping(string => uint256) tokenID_URI;\n\n    // Mapping from token ID to locked status\n    mapping(uint256 => bool) _locked;\n\n    /// @notice Emitted when the locking status is changed to locked.\n    /// @dev If a token is minted and the status is locked, this event should be emitted.\n    /// @param tokenId The identifier for a token.\n    event Locked(uint256 tokenId);\n\n    /// @notice Emitted when the locking status is changed to unlocked.\n    /// @notice currently SBT Contract does not emit Unlocked event\n    /// @dev If a token is minted and the status is unlocked, this event should be emitted.\n    /// @param tokenId The identifier for a token.\n    event Unlocked(uint256 tokenId);\n\n    /// @notice Returns the locking status of an Soulbound Token\n    /// @dev SBTs assigned to zero address are considered invalid, and queries\n    /// about them do throw.\n    /// @param tokenId The identifier for an SBT.\n    function locked(uint256 tokenId) external view returns (bool) {\n        require(ownerOf(tokenId) != address(0));\n        return _locked[tokenId];\n    }\n\n    function safeMint(address to, string memory tokenURI) public onlyOwner {\n        //require(balanceOf(to) == 0, \"MNT01\");\n        require(_locked[getTokenID(tokenURI)] != true, \"MNT02\");\n        _tokenIdCounter.increment();\n\n        uint256 newTokenID = _tokenIdCounter.current();\n\n        _locked[newTokenID] = true;\n        emit Locked(newTokenID);\n\n        _safeMint(to, newTokenID);\n        setTokenURI(newTokenID, tokenURI);\n    }\n\n    function burn(uint256 tokenId) public {\n        require(msg.sender == ownerOf(tokenId), \"BRN01\");\n        _burn(tokenId);\n        burnURI(tokenId);\n    }\n\n    modifier IsTransferAllowed(uint256 tokenId) {\n        require(!_locked[tokenId]);\n        _;\n    }\n\n    function safeTransferFrom(\n        address from,\n        address to,\n        uint256 tokenId\n    ) public virtual override(IERC721, ERC721) IsTransferAllowed(tokenId) {\n        super.safeTransferFrom(from, to, tokenId);\n    }\n\n    function safeTransferFrom(\n        address from,\n        address to,\n        uint256 tokenId,\n        bytes memory data\n    ) public virtual override(IERC721, ERC721) IsTransferAllowed(tokenId) {\n        super.safeTransferFrom(from, to, tokenId, data);\n    }\n\n    function transferFrom(\n        address from,\n        address to,\n        uint256 tokenId\n    ) public virtual override(IERC721, ERC721) IsTransferAllowed(tokenId) {\n        super.safeTransferFrom(from, to, tokenId);\n    }\n\n    function _beforeTokenTransfer(\n        address from,\n        address to,\n        uint256 tokenId\n    ) internal override(ERC721, ERC721Enumerable) {\n        super._beforeTokenTransfer(from, to, tokenId);\n    }\n\n    function supportsInterface(bytes4 _interfaceId)\n    public\n    view\n    override(ERC721, ERC721Enumerable)\n    returns (bool)\n    {\n        return _interfaceId == type(IERC5192).interfaceId || super.supportsInterface(_interfaceId);\n    }\n\n    function setTokenURI(uint256 tokenID, string memory tokenURI) private {\n        tokenURIs[tokenID] = tokenURI;\n        tokenID_URI[tokenURI] = tokenID;\n    }\n\n    function getTokenID(string memory tokenURI) public view returns(uint256) {\n        require(tokenID_URI[tokenURI] != 0);\n\n        return tokenID_URI[tokenURI];\n    }\n\n    function burnURI(uint256 tokenID) private {\n        string memory uri = tokenURIs[tokenID];\n        delete tokenURIs[tokenID];\n        delete tokenID_URI[uri];\n    }\n}",
  "sourcePath": "/Users/leekunho/Desktop/workspace/MOSTI/MOSTI_Wallet/contracts/SBT.sol",
  "compiler": {
    "name": "solc",
    "version": "0.8.17+commit.8df45f5f.Emscripten.clang"
  },
  "schemaVersion": "3.4.10",
  "updatedAt": "2023-03-22T02:21:33.056Z",
  "networkType": "ethereum",
  "devdoc": {
    "events": {
      "Locked(uint256)": {
        "details": "If a token is minted and the status is locked, this event should be emitted.",
        "params": {
          "tokenId": "The identifier for a token."
        }
      },
      "Unlocked(uint256)": {
        "details": "If a token is minted and the status is unlocked, this event should be emitted.",
        "params": {
          "tokenId": "The identifier for a token."
        }
      }
    },
    "kind": "dev",
    "methods": {
      "approve(address,uint256)": {
        "details": "See {IERC721-approve}."
      },
      "balanceOf(address)": {
        "details": "See {IERC721-balanceOf}."
      },
      "getApproved(uint256)": {
        "details": "See {IERC721-getApproved}."
      },
      "isApprovedForAll(address,address)": {
        "details": "See {IERC721-isApprovedForAll}."
      },
      "locked(uint256)": {
        "details": "SBTs assigned to zero address are considered invalid, and queries about them do throw.",
        "params": {
          "tokenId": "The identifier for an SBT."
        }
      },
      "name()": {
        "details": "See {IERC721Metadata-name}."
      },
      "owner()": {
        "details": "Returns the address of the current owner."
      },
      "ownerOf(uint256)": {
        "details": "See {IERC721-ownerOf}."
      },
      "renounceOwnership()": {
        "details": "Leaves the contract without owner. It will not be possible to call `onlyOwner` functions anymore. Can only be called by the current owner. NOTE: Renouncing ownership will leave the contract without an owner, thereby removing any functionality that is only available to the owner."
      },
      "setApprovalForAll(address,bool)": {
        "details": "See {IERC721-setApprovalForAll}."
      },
      "symbol()": {
        "details": "See {IERC721Metadata-symbol}."
      },
      "tokenByIndex(uint256)": {
        "details": "See {IERC721Enumerable-tokenByIndex}."
      },
      "tokenOfOwnerByIndex(address,uint256)": {
        "details": "See {IERC721Enumerable-tokenOfOwnerByIndex}."
      },
      "tokenURI(uint256)": {
        "details": "See {IERC721Metadata-tokenURI}."
      },
      "totalSupply()": {
        "details": "See {IERC721Enumerable-totalSupply}."
      },
      "transferOwnership(address)": {
        "details": "Transfers ownership of the contract to a new account (`newOwner`). Can only be called by the current owner."
      }
    },
    "version": 1
  },
  "userdoc": {
    "events": {
      "Locked(uint256)": {
        "notice": "Emitted when the locking status is changed to locked."
      },
      "Unlocked(uint256)": {
        "notice": "Emitted when the locking status is changed to unlocked.currently SBT Contract does not emit Unlocked event"
      }
    },
    "kind": "user",
    "methods": {
      "locked(uint256)": {
        "notice": "Returns the locking status of an Soulbound Token"
      }
    },
    "version": 1
  }
}