{
  "contractName": "SBTAdmin",
  "abi": [
    {
      "inputs": [
        {
          "internalType": "string",
          "name": "uri",
          "type": "string"
        }
      ],
      "stateMutability": "nonpayable",
      "type": "constructor"
    },
    {
      "anonymous": false,
      "inputs": [
        {
          "indexed": true,
          "internalType": "address",
          "name": "account",
          "type": "address"
        },
        {
          "indexed": true,
          "internalType": "address",
          "name": "operator",
          "type": "address"
        },
        {
          "indexed": false,
          "internalType": "bool",
          "name": "approved",
          "type": "bool"
        }
      ],
      "name": "ApprovalForAll",
      "type": "event"
    },
    {
      "anonymous": false,
      "inputs": [
        {
          "indexed": false,
          "internalType": "address",
          "name": "to",
          "type": "address"
        },
        {
          "indexed": false,
          "internalType": "uint256",
          "name": "tokenId",
          "type": "uint256"
        }
      ],
      "name": "Burn",
      "type": "event"
    },
    {
      "anonymous": false,
      "inputs": [
        {
          "indexed": false,
          "internalType": "address",
          "name": "tokenOwner",
          "type": "address"
        },
        {
          "indexed": false,
          "internalType": "uint256",
          "name": "tokenId",
          "type": "uint256"
        },
        {
          "indexed": false,
          "internalType": "string",
          "name": "tokenURI",
          "type": "string"
        }
      ],
      "name": "CreateToken",
      "type": "event"
    },
    {
      "anonymous": false,
      "inputs": [
        {
          "indexed": false,
          "internalType": "address",
          "name": "to",
          "type": "address"
        },
        {
          "indexed": false,
          "internalType": "uint256",
          "name": "tokenId",
          "type": "uint256"
        }
      ],
      "name": "Locked",
      "type": "event"
    },
    {
      "anonymous": false,
      "inputs": [
        {
          "indexed": false,
          "internalType": "address",
          "name": "to",
          "type": "address"
        },
        {
          "indexed": false,
          "internalType": "uint256",
          "name": "tokenId",
          "type": "uint256"
        }
      ],
      "name": "Mint",
      "type": "event"
    },
    {
      "anonymous": false,
      "inputs": [
        {
          "indexed": true,
          "internalType": "address",
          "name": "previousOwner",
          "type": "address"
        },
        {
          "indexed": true,
          "internalType": "address",
          "name": "newOwner",
          "type": "address"
        }
      ],
      "name": "OwnershipTransferred",
      "type": "event"
    },
    {
      "anonymous": false,
      "inputs": [
        {
          "indexed": true,
          "internalType": "address",
          "name": "operator",
          "type": "address"
        },
        {
          "indexed": true,
          "internalType": "address",
          "name": "from",
          "type": "address"
        },
        {
          "indexed": true,
          "internalType": "address",
          "name": "to",
          "type": "address"
        },
        {
          "indexed": false,
          "internalType": "uint256[]",
          "name": "ids",
          "type": "uint256[]"
        },
        {
          "indexed": false,
          "internalType": "uint256[]",
          "name": "values",
          "type": "uint256[]"
        }
      ],
      "name": "TransferBatch",
      "type": "event"
    },
    {
      "anonymous": false,
      "inputs": [
        {
          "indexed": true,
          "internalType": "address",
          "name": "operator",
          "type": "address"
        },
        {
          "indexed": true,
          "internalType": "address",
          "name": "from",
          "type": "address"
        },
        {
          "indexed": true,
          "internalType": "address",
          "name": "to",
          "type": "address"
        },
        {
          "indexed": false,
          "internalType": "uint256",
          "name": "id",
          "type": "uint256"
        },
        {
          "indexed": false,
          "internalType": "uint256",
          "name": "value",
          "type": "uint256"
        }
      ],
      "name": "TransferSingle",
      "type": "event"
    },
    {
      "anonymous": false,
      "inputs": [
        {
          "indexed": false,
          "internalType": "string",
          "name": "value",
          "type": "string"
        },
        {
          "indexed": true,
          "internalType": "uint256",
          "name": "id",
          "type": "uint256"
        }
      ],
      "name": "URI",
      "type": "event"
    },
    {
      "anonymous": false,
      "inputs": [
        {
          "indexed": false,
          "internalType": "address",
          "name": "to",
          "type": "address"
        },
        {
          "indexed": false,
          "internalType": "uint256",
          "name": "tokenId",
          "type": "uint256"
        }
      ],
      "name": "Unlocked",
      "type": "event"
    },
    {
      "inputs": [
        {
          "internalType": "address",
          "name": "account",
          "type": "address"
        },
        {
          "internalType": "uint256",
          "name": "id",
          "type": "uint256"
        }
      ],
      "name": "balanceOf",
      "outputs": [
        {
          "internalType": "uint256",
          "name": "",
          "type": "uint256"
        }
      ],
      "stateMutability": "view",
      "type": "function",
      "constant": true
    },
    {
      "inputs": [
        {
          "internalType": "address[]",
          "name": "accounts",
          "type": "address[]"
        },
        {
          "internalType": "uint256[]",
          "name": "ids",
          "type": "uint256[]"
        }
      ],
      "name": "balanceOfBatch",
      "outputs": [
        {
          "internalType": "uint256[]",
          "name": "",
          "type": "uint256[]"
        }
      ],
      "stateMutability": "view",
      "type": "function",
      "constant": true
    },
    {
      "inputs": [
        {
          "internalType": "address",
          "name": "tokenOwner",
          "type": "address"
        },
        {
          "internalType": "string",
          "name": "tokenURI",
          "type": "string"
        }
      ],
      "name": "createToken",
      "outputs": [],
      "stateMutability": "nonpayable",
      "type": "function"
    },
    {
      "inputs": [
        {
          "internalType": "address",
          "name": "account",
          "type": "address"
        },
        {
          "internalType": "address",
          "name": "operator",
          "type": "address"
        }
      ],
      "name": "isApprovedForAll",
      "outputs": [
        {
          "internalType": "bool",
          "name": "",
          "type": "bool"
        }
      ],
      "stateMutability": "view",
      "type": "function",
      "constant": true
    },
    {
      "inputs": [],
      "name": "owner",
      "outputs": [
        {
          "internalType": "address",
          "name": "",
          "type": "address"
        }
      ],
      "stateMutability": "view",
      "type": "function",
      "constant": true
    },
    {
      "inputs": [],
      "name": "renounceOwnership",
      "outputs": [],
      "stateMutability": "nonpayable",
      "type": "function"
    },
    {
      "inputs": [
        {
          "internalType": "address",
          "name": "from",
          "type": "address"
        },
        {
          "internalType": "address",
          "name": "to",
          "type": "address"
        },
        {
          "internalType": "uint256[]",
          "name": "ids",
          "type": "uint256[]"
        },
        {
          "internalType": "uint256[]",
          "name": "amounts",
          "type": "uint256[]"
        },
        {
          "internalType": "bytes",
          "name": "data",
          "type": "bytes"
        }
      ],
      "name": "safeBatchTransferFrom",
      "outputs": [],
      "stateMutability": "nonpayable",
      "type": "function"
    },
    {
      "inputs": [
        {
          "internalType": "address",
          "name": "from",
          "type": "address"
        },
        {
          "internalType": "address",
          "name": "to",
          "type": "address"
        },
        {
          "internalType": "uint256",
          "name": "id",
          "type": "uint256"
        },
        {
          "internalType": "uint256",
          "name": "amount",
          "type": "uint256"
        },
        {
          "internalType": "bytes",
          "name": "data",
          "type": "bytes"
        }
      ],
      "name": "safeTransferFrom",
      "outputs": [],
      "stateMutability": "nonpayable",
      "type": "function"
    },
    {
      "inputs": [
        {
          "internalType": "address",
          "name": "operator",
          "type": "address"
        },
        {
          "internalType": "bool",
          "name": "approved",
          "type": "bool"
        }
      ],
      "name": "setApprovalForAll",
      "outputs": [],
      "stateMutability": "nonpayable",
      "type": "function"
    },
    {
      "inputs": [
        {
          "internalType": "bytes4",
          "name": "interfaceId",
          "type": "bytes4"
        }
      ],
      "name": "supportsInterface",
      "outputs": [
        {
          "internalType": "bool",
          "name": "",
          "type": "bool"
        }
      ],
      "stateMutability": "view",
      "type": "function",
      "constant": true
    },
    {
      "inputs": [
        {
          "internalType": "address",
          "name": "newOwner",
          "type": "address"
        }
      ],
      "name": "transferOwnership",
      "outputs": [],
      "stateMutability": "nonpayable",
      "type": "function"
    },
    {
      "inputs": [
        {
          "internalType": "uint256",
          "name": "",
          "type": "uint256"
        }
      ],
      "name": "uri",
      "outputs": [
        {
          "internalType": "string",
          "name": "",
          "type": "string"
        }
      ],
      "stateMutability": "view",
      "type": "function",
      "constant": true
    },
    {
      "inputs": [
        {
          "internalType": "address",
          "name": "tokenOwner",
          "type": "address"
        },
        {
          "internalType": "address",
          "name": "to",
          "type": "address"
        },
        {
          "internalType": "uint256",
          "name": "tokenId",
          "type": "uint256"
        }
      ],
      "name": "mintSBT",
      "outputs": [],
      "stateMutability": "nonpayable",
      "type": "function"
    },
    {
      "inputs": [
        {
          "internalType": "address",
          "name": "tokenOwner",
          "type": "address"
        },
        {
          "internalType": "address",
          "name": "to",
          "type": "address"
        },
        {
          "internalType": "uint256",
          "name": "tokenId",
          "type": "uint256"
        }
      ],
      "name": "burnSBT",
      "outputs": [],
      "stateMutability": "nonpayable",
      "type": "function"
    }
  ],
  "bytecode": "0x60806040523480156200001157600080fd5b5060405162003bd338038062003bd38339818101604052810190620000379190620002e7565b8080620000596200004d6200007360201b60201c565b6200007b60201b60201c565b6200006a816200013f60201b60201c565b5050506200066a565b600033905090565b60008060009054906101000a900473ffffffffffffffffffffffffffffffffffffffff169050816000806101000a81548173ffffffffffffffffffffffffffffffffffffffff021916908373ffffffffffffffffffffffffffffffffffffffff1602179055508173ffffffffffffffffffffffffffffffffffffffff168173ffffffffffffffffffffffffffffffffffffffff167f8be0079c531659141344cd1fd0a4f28419497f9722a3daafe3b4186f6b6457e060405160405180910390a35050565b806003908162000150919062000583565b5050565b6000604051905090565b600080fd5b600080fd5b600080fd5b600080fd5b6000601f19601f8301169050919050565b7f4e487b7100000000000000000000000000000000000000000000000000000000600052604160045260246000fd5b620001bd8262000172565b810181811067ffffffffffffffff82111715620001df57620001de62000183565b5b80604052505050565b6000620001f462000154565b9050620002028282620001b2565b919050565b600067ffffffffffffffff82111562000225576200022462000183565b5b620002308262000172565b9050602081019050919050565b60005b838110156200025d57808201518184015260208101905062000240565b60008484015250505050565b6000620002806200027a8462000207565b620001e8565b9050828152602081018484840111156200029f576200029e6200016d565b5b620002ac8482856200023d565b509392505050565b600082601f830112620002cc57620002cb62000168565b5b8151620002de84826020860162000269565b91505092915050565b6000602082840312156200030057620002ff6200015e565b5b600082015167ffffffffffffffff81111562000321576200032062000163565b5b6200032f84828501620002b4565b91505092915050565b600081519050919050565b7f4e487b7100000000000000000000000000000000000000000000000000000000600052602260045260246000fd5b600060028204905060018216806200038b57607f821691505b602082108103620003a157620003a062000343565b5b50919050565b60008190508160005260206000209050919050565b60006020601f8301049050919050565b600082821b905092915050565b6000600883026200040b7fffffffffffffffffffffffffffffffffffffffffffffffffffffffffffffffff82620003cc565b620004178683620003cc565b95508019841693508086168417925050509392505050565b6000819050919050565b6000819050919050565b6000620004646200045e62000458846200042f565b62000439565b6200042f565b9050919050565b6000819050919050565b620004808362000443565b620004986200048f826200046b565b848454620003d9565b825550505050565b600090565b620004af620004a0565b620004bc81848462000475565b505050565b5b81811015620004e457620004d8600082620004a5565b600181019050620004c2565b5050565b601f8211156200053357620004fd81620003a7565b6200050884620003bc565b8101602085101562000518578190505b620005306200052785620003bc565b830182620004c1565b50505b505050565b600082821c905092915050565b6000620005586000198460080262000538565b1980831691505092915050565b600062000573838362000545565b9150826002028217905092915050565b6200058e8262000338565b67ffffffffffffffff811115620005aa57620005a962000183565b5b620005b6825462000372565b620005c3828285620004e8565b600060209050601f831160018114620005fb5760008415620005e6578287015190505b620005f2858262000565565b86555062000662565b601f1984166200060b86620003a7565b60005b8281101562000635578489015182556001820191506020850194506020810190506200060e565b8683101562000655578489015162000651601f89168262000545565b8355505b6001600288020188555050505b505050505050565b613559806200067a6000396000f3fe608060405234801561001057600080fd5b50600436106100e95760003560e01c8063715018a61161008c578063c1cac60811610066578063c1cac60814610246578063e985e9c514610262578063f242432a14610292578063f2fde38b146102ae576100e9565b8063715018a6146102025780638da5cb5b1461020c578063a22cb4651461022a576100e9565b80630e89341c116100c85780630e89341c1461016a5780632eb2c2d61461019a5780634e1273f4146101b65780635760e7a9146101e6576100e9565b8062fdd58e146100ee578063013828071461011e57806301ffc9a71461013a575b600080fd5b61010860048036038101906101039190611cce565b6102ca565b6040516101159190611d1d565b60405180910390f35b61013860048036038101906101339190611e7e565b610393565b005b610154600480360381019061014f9190611f32565b610524565b6040516101619190611f7a565b60405180910390f35b610184600480360381019061017f9190611f95565b610606565b6040516101919190612041565b60405180910390f35b6101b460048036038101906101af91906121cc565b61069a565b005b6101d060048036038101906101cb919061235e565b6106a1565b6040516101dd9190612494565b60405180910390f35b61020060048036038101906101fb91906124b6565b6107ba565b005b61020a6109fd565b005b610214610a11565b6040516102219190612518565b60405180910390f35b610244600480360381019061023f919061255f565b610a3a565b005b610260600480360381019061025b91906124b6565b610a50565b005b61027c6004803603810190610277919061259f565b610ced565b6040516102899190611f7a565b60405180910390f35b6102ac60048036038101906102a791906125df565b610d81565b005b6102c860048036038101906102c39190612676565b610e01565b005b60008073ffffffffffffffffffffffffffffffffffffffff168373ffffffffffffffffffffffffffffffffffffffff160361033a576040517f08c379a000000000000000000000000000000000000000000000000000000000815260040161033190612715565b60405180910390fd5b6001600083815260200190815260200160002060008473ffffffffffffffffffffffffffffffffffffffff1673ffffffffffffffffffffffffffffffffffffffff16815260200190815260200160002054905092915050565b61039b610e84565b6103a56004610f02565b60006103b16004610f18565b90506103cf8382600160405180602001604052806000815250610f26565b826006600083815260200190815260200160002060006101000a81548173ffffffffffffffffffffffffffffffffffffffff021916908373ffffffffffffffffffffffffffffffffffffffff160217905550816007600083815260200190815260200160002090816104419190612941565b5060016005600083815260200190815260200160002060008573ffffffffffffffffffffffffffffffffffffffff1673ffffffffffffffffffffffffffffffffffffffff16815260200190815260200160002060006101000a81548160ff0219169083151502179055507f9f1ec8c880f76798e7b793325d625e9b60e4082a553c98f42b6cda368dd6000883826040516104dc929190612a13565b60405180910390a17f115a2f20ba15585d8a0a25070f438874efaf5ea80d77acb3f7a7c8e08d25a1ca83828460405161051793929190612a3c565b60405180910390a1505050565b60007fd9b67a26000000000000000000000000000000000000000000000000000000007bffffffffffffffffffffffffffffffffffffffffffffffffffffffff1916827bffffffffffffffffffffffffffffffffffffffffffffffffffffffff191614806105ef57507f0e89341c000000000000000000000000000000000000000000000000000000007bffffffffffffffffffffffffffffffffffffffffffffffffffffffff1916827bffffffffffffffffffffffffffffffffffffffffffffffffffffffff1916145b806105ff57506105fe826110d7565b5b9050919050565b60606003805461061590612764565b80601f016020809104026020016040519081016040528092919081815260200182805461064190612764565b801561068e5780601f106106635761010080835404028352916020019161068e565b820191906000526020600020905b81548152906001019060200180831161067157829003601f168201915b50505050509050919050565b5050505050565b606081518351146106e7576040517f08c379a00000000000000000000000000000000000000000000000000000000081526004016106de90612aec565b60405180910390fd5b6000835167ffffffffffffffff81111561070457610703611d53565b5b6040519080825280602002602001820160405280156107325781602001602082028036833780820191505090505b50905060005b84518110156107af5761077f85828151811061075757610756612b0c565b5b602002602001015185838151811061077257610771612b0c565b5b60200260200101516102ca565b82828151811061079257610791612b0c565b5b602002602001018181525050806107a890612b6a565b9050610738565b508091505092915050565b6107c2610e84565b8273ffffffffffffffffffffffffffffffffffffffff166006600083815260200190815260200160002060009054906101000a900473ffffffffffffffffffffffffffffffffffffffff1673ffffffffffffffffffffffffffffffffffffffff1614610863576040517f08c379a000000000000000000000000000000000000000000000000000000000815260040161085a90612bfe565b60405180910390fd5b6005600082815260200190815260200160002060008373ffffffffffffffffffffffffffffffffffffffff1673ffffffffffffffffffffffffffffffffffffffff16815260200190815260200160002060009054906101000a900460ff1615610901576040517f08c379a00000000000000000000000000000000000000000000000000000000081526004016108f890612c6a565b60405180910390fd5b61091d8282600160405180602001604052806000815250611141565b7f0f6798a560793a54c3bcfe86a93cde1e73087d944c0ea20544137d4121396885828260405161094e929190612a13565b60405180910390a160016005600083815260200190815260200160002060008473ffffffffffffffffffffffffffffffffffffffff1673ffffffffffffffffffffffffffffffffffffffff16815260200190815260200160002060006101000a81548160ff0219169083151502179055507f9f1ec8c880f76798e7b793325d625e9b60e4082a553c98f42b6cda368dd6000882826040516109f0929190612a13565b60405180910390a1505050565b610a05610e84565b610a0f6000611153565b565b60008060009054906101000a900473ffffffffffffffffffffffffffffffffffffffff16905090565b610a4c610a45611217565b838361121f565b5050565b610a58610e84565b8273ffffffffffffffffffffffffffffffffffffffff166006600083815260200190815260200160002060009054906101000a900473ffffffffffffffffffffffffffffffffffffffff1673ffffffffffffffffffffffffffffffffffffffff1614610af9576040517f08c379a0000000000000000000000000000000000000000000000000000000008152600401610af090612bfe565b60405180910390fd5b8173ffffffffffffffffffffffffffffffffffffffff166006600083815260200190815260200160002060009054906101000a900473ffffffffffffffffffffffffffffffffffffffff1673ffffffffffffffffffffffffffffffffffffffff1603610b6457600080fd5b6005600082815260200190815260200160002060008373ffffffffffffffffffffffffffffffffffffffff1673ffffffffffffffffffffffffffffffffffffffff16815260200190815260200160002060009054906101000a900460ff16610c01576040517f08c379a0000000000000000000000000000000000000000000000000000000008152600401610bf890612cd6565b60405180910390fd5b610c0d8282600161138b565b7fcc16f5dbb4873280815c1ee09dbd06736cffcc184412cf7a71a0fdb75d397ca58282604051610c3e929190612a13565b60405180910390a160006005600083815260200190815260200160002060008473ffffffffffffffffffffffffffffffffffffffff1673ffffffffffffffffffffffffffffffffffffffff16815260200190815260200160002060006101000a81548160ff0219169083151502179055507f0f0bc5b519ddefdd8e5f9e6423433aa2b869738de2ae34d58ebc796fc749fa0d8282604051610ce0929190612a13565b60405180910390a1505050565b6000600260008473ffffffffffffffffffffffffffffffffffffffff1673ffffffffffffffffffffffffffffffffffffffff16815260200190815260200160002060008373ffffffffffffffffffffffffffffffffffffffff1673ffffffffffffffffffffffffffffffffffffffff16815260200190815260200160002060009054906101000a900460ff16905092915050565b84836005600082815260200190815260200160002060008373ffffffffffffffffffffffffffffffffffffffff1673ffffffffffffffffffffffffffffffffffffffff16815260200190815260200160002060009054906101000a900460ff1615610deb57600080fd5b610df8878787878761139b565b50505050505050565b610e09610e84565b600073ffffffffffffffffffffffffffffffffffffffff168173ffffffffffffffffffffffffffffffffffffffff1603610e78576040517f08c379a0000000000000000000000000000000000000000000000000000000008152600401610e6f90612d68565b60405180910390fd5b610e8181611153565b50565b610e8c611217565b73ffffffffffffffffffffffffffffffffffffffff16610eaa610a11565b73ffffffffffffffffffffffffffffffffffffffff1614610f00576040517f08c379a0000000000000000000000000000000000000000000000000000000008152600401610ef790612dd4565b60405180910390fd5b565b6001816000016000828254019250508190555050565b600081600001549050919050565b600073ffffffffffffffffffffffffffffffffffffffff168473ffffffffffffffffffffffffffffffffffffffff1603610f95576040517f08c379a0000000000000000000000000000000000000000000000000000000008152600401610f8c90612e66565b60405180910390fd5b6000610f9f611217565b90506000610fac8561143c565b90506000610fb98561143c565b9050610fca836000898585896114b6565b846001600088815260200190815260200160002060008973ffffffffffffffffffffffffffffffffffffffff1673ffffffffffffffffffffffffffffffffffffffff168152602001908152602001600020600082825461102a9190612e86565b925050819055508673ffffffffffffffffffffffffffffffffffffffff16600073ffffffffffffffffffffffffffffffffffffffff168473ffffffffffffffffffffffffffffffffffffffff167fc3d58168c5ae7397731d063d5bbf3d657854427343f4c083240f7aacaa2d0f6289896040516110a8929190612eba565b60405180910390a46110bf836000898585896114be565b6110ce836000898989896114c6565b50505050505050565b60007f01ffc9a7000000000000000000000000000000000000000000000000000000007bffffffffffffffffffffffffffffffffffffffffffffffffffffffff1916827bffffffffffffffffffffffffffffffffffffffffffffffffffffffff1916149050919050565b61114d84848484610f26565b50505050565b60008060009054906101000a900473ffffffffffffffffffffffffffffffffffffffff169050816000806101000a81548173ffffffffffffffffffffffffffffffffffffffff021916908373ffffffffffffffffffffffffffffffffffffffff1602179055508173ffffffffffffffffffffffffffffffffffffffff168173ffffffffffffffffffffffffffffffffffffffff167f8be0079c531659141344cd1fd0a4f28419497f9722a3daafe3b4186f6b6457e060405160405180910390a35050565b600033905090565b8173ffffffffffffffffffffffffffffffffffffffff168373ffffffffffffffffffffffffffffffffffffffff160361128d576040517f08c379a000000000000000000000000000000000000000000000000000000000815260040161128490612f55565b60405180910390fd5b80600260008573ffffffffffffffffffffffffffffffffffffffff1673ffffffffffffffffffffffffffffffffffffffff16815260200190815260200160002060008473ffffffffffffffffffffffffffffffffffffffff1673ffffffffffffffffffffffffffffffffffffffff16815260200190815260200160002060006101000a81548160ff0219169083151502179055508173ffffffffffffffffffffffffffffffffffffffff168373ffffffffffffffffffffffffffffffffffffffff167f17307eab39ab6107e8899845ad3d59bd9653f200f220920489ca2b5937696c318360405161137e9190611f7a565b60405180910390a3505050565b61139683838361169d565b505050565b6113a3611217565b73ffffffffffffffffffffffffffffffffffffffff168573ffffffffffffffffffffffffffffffffffffffff1614806113e957506113e8856113e3611217565b610ced565b5b611428576040517f08c379a000000000000000000000000000000000000000000000000000000000815260040161141f90612fe7565b60405180910390fd5b61143585858585856118e5565b5050505050565b60606000600167ffffffffffffffff81111561145b5761145a611d53565b5b6040519080825280602002602001820160405280156114895781602001602082028036833780820191505090505b50905082816000815181106114a1576114a0612b0c565b5b60200260200101818152505080915050919050565b505050505050565b505050505050565b6114e58473ffffffffffffffffffffffffffffffffffffffff16611965565b15611695578373ffffffffffffffffffffffffffffffffffffffff1663f23a6e6187878686866040518663ffffffff1660e01b815260040161152b95949392919061305c565b6020604051808303816000875af192505050801561156757506040513d601f19601f8201168201806040525081019061156491906130cb565b60015b61160c57611573613105565b806308c379a0036115cf5750611587613127565b8061159257506115d1565b806040517f08c379a00000000000000000000000000000000000000000000000000000000081526004016115c69190612041565b60405180910390fd5b505b6040517f08c379a000000000000000000000000000000000000000000000000000000000815260040161160390613229565b60405180910390fd5b63f23a6e6160e01b7bffffffffffffffffffffffffffffffffffffffffffffffffffffffff1916817bffffffffffffffffffffffffffffffffffffffffffffffffffffffff191614611693576040517f08c379a000000000000000000000000000000000000000000000000000000000815260040161168a906132bb565b60405180910390fd5b505b505050505050565b600073ffffffffffffffffffffffffffffffffffffffff168373ffffffffffffffffffffffffffffffffffffffff160361170c576040517f08c379a00000000000000000000000000000000000000000000000000000000081526004016117039061334d565b60405180910390fd5b6000611716611217565b905060006117238461143c565b905060006117308461143c565b9050611750838760008585604051806020016040528060008152506114b6565b60006001600087815260200190815260200160002060008873ffffffffffffffffffffffffffffffffffffffff1673ffffffffffffffffffffffffffffffffffffffff168152602001908152602001600020549050848110156117e8576040517f08c379a00000000000000000000000000000000000000000000000000000000081526004016117df906133df565b60405180910390fd5b8481036001600088815260200190815260200160002060008973ffffffffffffffffffffffffffffffffffffffff1673ffffffffffffffffffffffffffffffffffffffff16815260200190815260200160002081905550600073ffffffffffffffffffffffffffffffffffffffff168773ffffffffffffffffffffffffffffffffffffffff168573ffffffffffffffffffffffffffffffffffffffff167fc3d58168c5ae7397731d063d5bbf3d657854427343f4c083240f7aacaa2d0f6289896040516118b6929190612eba565b60405180910390a46118dc848860008686604051806020016040528060008152506114be565b50505050505050565b84836005600082815260200190815260200160002060008373ffffffffffffffffffffffffffffffffffffffff1673ffffffffffffffffffffffffffffffffffffffff16815260200190815260200160002060009054906101000a900460ff161561194f57600080fd5b61195c8787878787611988565b50505050505050565b6000808273ffffffffffffffffffffffffffffffffffffffff163b119050919050565b600073ffffffffffffffffffffffffffffffffffffffff168473ffffffffffffffffffffffffffffffffffffffff16036119f7576040517f08c379a00000000000000000000000000000000000000000000000000000000081526004016119ee90613471565b60405180910390fd5b6000611a01611217565b90506000611a0e8561143c565b90506000611a1b8561143c565b9050611a2b8389898585896114b6565b60006001600088815260200190815260200160002060008a73ffffffffffffffffffffffffffffffffffffffff1673ffffffffffffffffffffffffffffffffffffffff16815260200190815260200160002054905085811015611ac3576040517f08c379a0000000000000000000000000000000000000000000000000000000008152600401611aba90613503565b60405180910390fd5b8581036001600089815260200190815260200160002060008b73ffffffffffffffffffffffffffffffffffffffff1673ffffffffffffffffffffffffffffffffffffffff16815260200190815260200160002081905550856001600089815260200190815260200160002060008a73ffffffffffffffffffffffffffffffffffffffff1673ffffffffffffffffffffffffffffffffffffffff1681526020019081526020016000206000828254611b7a9190612e86565b925050819055508773ffffffffffffffffffffffffffffffffffffffff168973ffffffffffffffffffffffffffffffffffffffff168573ffffffffffffffffffffffffffffffffffffffff167fc3d58168c5ae7397731d063d5bbf3d657854427343f4c083240f7aacaa2d0f628a8a604051611bf7929190612eba565b60405180910390a4611c0d848a8a86868a6114be565b611c1b848a8a8a8a8a6114c6565b505050505050505050565b6000604051905090565b600080fd5b600080fd5b600073ffffffffffffffffffffffffffffffffffffffff82169050919050565b6000611c6582611c3a565b9050919050565b611c7581611c5a565b8114611c8057600080fd5b50565b600081359050611c9281611c6c565b92915050565b6000819050919050565b611cab81611c98565b8114611cb657600080fd5b50565b600081359050611cc881611ca2565b92915050565b60008060408385031215611ce557611ce4611c30565b5b6000611cf385828601611c83565b9250506020611d0485828601611cb9565b9150509250929050565b611d1781611c98565b82525050565b6000602082019050611d326000830184611d0e565b92915050565b600080fd5b600080fd5b6000601f19601f8301169050919050565b7f4e487b7100000000000000000000000000000000000000000000000000000000600052604160045260246000fd5b611d8b82611d42565b810181811067ffffffffffffffff82111715611daa57611da9611d53565b5b80604052505050565b6000611dbd611c26565b9050611dc98282611d82565b919050565b600067ffffffffffffffff821115611de957611de8611d53565b5b611df282611d42565b9050602081019050919050565b82818337600083830152505050565b6000611e21611e1c84611dce565b611db3565b905082815260208101848484011115611e3d57611e3c611d3d565b5b611e48848285611dff565b509392505050565b600082601f830112611e6557611e64611d38565b5b8135611e75848260208601611e0e565b91505092915050565b60008060408385031215611e9557611e94611c30565b5b6000611ea385828601611c83565b925050602083013567ffffffffffffffff811115611ec457611ec3611c35565b5b611ed085828601611e50565b9150509250929050565b60007fffffffff0000000000000000000000000000000000000000000000000000000082169050919050565b611f0f81611eda565b8114611f1a57600080fd5b50565b600081359050611f2c81611f06565b92915050565b600060208284031215611f4857611f47611c30565b5b6000611f5684828501611f1d565b91505092915050565b60008115159050919050565b611f7481611f5f565b82525050565b6000602082019050611f8f6000830184611f6b565b92915050565b600060208284031215611fab57611faa611c30565b5b6000611fb984828501611cb9565b91505092915050565b600081519050919050565b600082825260208201905092915050565b60005b83811015611ffc578082015181840152602081019050611fe1565b60008484015250505050565b600061201382611fc2565b61201d8185611fcd565b935061202d818560208601611fde565b61203681611d42565b840191505092915050565b6000602082019050818103600083015261205b8184612008565b905092915050565b600067ffffffffffffffff82111561207e5761207d611d53565b5b602082029050602081019050919050565b600080fd5b60006120a76120a284612063565b611db3565b905080838252602082019050602084028301858111156120ca576120c961208f565b5b835b818110156120f357806120df8882611cb9565b8452602084019350506020810190506120cc565b5050509392505050565b600082601f83011261211257612111611d38565b5b8135612122848260208601612094565b91505092915050565b600067ffffffffffffffff82111561214657612145611d53565b5b61214f82611d42565b9050602081019050919050565b600061216f61216a8461212b565b611db3565b90508281526020810184848401111561218b5761218a611d3d565b5b612196848285611dff565b509392505050565b600082601f8301126121b3576121b2611d38565b5b81356121c384826020860161215c565b91505092915050565b600080600080600060a086880312156121e8576121e7611c30565b5b60006121f688828901611c83565b955050602061220788828901611c83565b945050604086013567ffffffffffffffff81111561222857612227611c35565b5b612234888289016120fd565b935050606086013567ffffffffffffffff81111561225557612254611c35565b5b612261888289016120fd565b925050608086013567ffffffffffffffff81111561228257612281611c35565b5b61228e8882890161219e565b9150509295509295909350565b600067ffffffffffffffff8211156122b6576122b5611d53565b5b602082029050602081019050919050565b60006122da6122d58461229b565b611db3565b905080838252602082019050602084028301858111156122fd576122fc61208f565b5b835b8181101561232657806123128882611c83565b8452602084019350506020810190506122ff565b5050509392505050565b600082601f83011261234557612344611d38565b5b81356123558482602086016122c7565b91505092915050565b6000806040838503121561237557612374611c30565b5b600083013567ffffffffffffffff81111561239357612392611c35565b5b61239f85828601612330565b925050602083013567ffffffffffffffff8111156123c0576123bf611c35565b5b6123cc858286016120fd565b9150509250929050565b600081519050919050565b600082825260208201905092915050565b6000819050602082019050919050565b61240b81611c98565b82525050565b600061241d8383612402565b60208301905092915050565b6000602082019050919050565b6000612441826123d6565b61244b81856123e1565b9350612456836123f2565b8060005b8381101561248757815161246e8882612411565b975061247983612429565b92505060018101905061245a565b5085935050505092915050565b600060208201905081810360008301526124ae8184612436565b905092915050565b6000806000606084860312156124cf576124ce611c30565b5b60006124dd86828701611c83565b93505060206124ee86828701611c83565b92505060406124ff86828701611cb9565b9150509250925092565b61251281611c5a565b82525050565b600060208201905061252d6000830184612509565b92915050565b61253c81611f5f565b811461254757600080fd5b50565b60008135905061255981612533565b92915050565b6000806040838503121561257657612575611c30565b5b600061258485828601611c83565b92505060206125958582860161254a565b9150509250929050565b600080604083850312156125b6576125b5611c30565b5b60006125c485828601611c83565b92505060206125d585828601611c83565b9150509250929050565b600080600080600060a086880312156125fb576125fa611c30565b5b600061260988828901611c83565b955050602061261a88828901611c83565b945050604061262b88828901611cb9565b935050606061263c88828901611cb9565b925050608086013567ffffffffffffffff81111561265d5761265c611c35565b5b6126698882890161219e565b9150509295509295909350565b60006020828403121561268c5761268b611c30565b5b600061269a84828501611c83565b91505092915050565b7f455243313135353a2061646472657373207a65726f206973206e6f742061207660008201527f616c6964206f776e657200000000000000000000000000000000000000000000602082015250565b60006126ff602a83611fcd565b915061270a826126a3565b604082019050919050565b6000602082019050818103600083015261272e816126f2565b9050919050565b7f4e487b7100000000000000000000000000000000000000000000000000000000600052602260045260246000fd5b6000600282049050600182168061277c57607f821691505b60208210810361278f5761278e612735565b5b50919050565b60008190508160005260206000209050919050565b60006020601f8301049050919050565b600082821b905092915050565b6000600883026127f77fffffffffffffffffffffffffffffffffffffffffffffffffffffffffffffffff826127ba565b61280186836127ba565b95508019841693508086168417925050509392505050565b6000819050919050565b600061283e61283961283484611c98565b612819565b611c98565b9050919050565b6000819050919050565b61285883612823565b61286c61286482612845565b8484546127c7565b825550505050565b600090565b612881612874565b61288c81848461284f565b505050565b5b818110156128b0576128a5600082612879565b600181019050612892565b5050565b601f8211156128f5576128c681612795565b6128cf846127aa565b810160208510156128de578190505b6128f26128ea856127aa565b830182612891565b50505b505050565b600082821c905092915050565b6000612918600019846008026128fa565b1980831691505092915050565b60006129318383612907565b9150826002028217905092915050565b61294a82611fc2565b67ffffffffffffffff81111561296357612962611d53565b5b61296d8254612764565b6129788282856128b4565b600060209050601f8311600181146129ab5760008415612999578287015190505b6129a38582612925565b865550612a0b565b601f1984166129b986612795565b60005b828110156129e1578489015182556001820191506020850194506020810190506129bc565b868310156129fe57848901516129fa601f891682612907565b8355505b6001600288020188555050505b505050505050565b6000604082019050612a286000830185612509565b612a356020830184611d0e565b9392505050565b6000606082019050612a516000830186612509565b612a5e6020830185611d0e565b8181036040830152612a708184612008565b9050949350505050565b7f455243313135353a206163636f756e747320616e6420696473206c656e67746860008201527f206d69736d617463680000000000000000000000000000000000000000000000602082015250565b6000612ad6602983611fcd565b9150612ae182612a7a565b604082019050919050565b60006020820190508181036000830152612b0581612ac9565b9050919050565b7f4e487b7100000000000000000000000000000000000000000000000000000000600052603260045260246000fd5b7f4e487b7100000000000000000000000000000000000000000000000000000000600052601160045260246000fd5b6000612b7582611c98565b91507fffffffffffffffffffffffffffffffffffffffffffffffffffffffffffffffff8203612ba757612ba6612b3b565b5b600182019050919050565b7f6e6f74204f776e65720000000000000000000000000000000000000000000000600082015250565b6000612be8600983611fcd565b9150612bf382612bb2565b602082019050919050565b60006020820190508181036000830152612c1781612bdb565b9050919050565b7f616c72656164792068617320746f6b656e000000000000000000000000000000600082015250565b6000612c54601183611fcd565b9150612c5f82612c1e565b602082019050919050565b60006020820190508181036000830152612c8381612c47565b9050919050565b7f6e6f742068617320746f6b656e00000000000000000000000000000000000000600082015250565b6000612cc0600d83611fcd565b9150612ccb82612c8a565b602082019050919050565b60006020820190508181036000830152612cef81612cb3565b9050919050565b7f4f776e61626c653a206e6577206f776e657220697320746865207a65726f206160008201527f6464726573730000000000000000000000000000000000000000000000000000602082015250565b6000612d52602683611fcd565b9150612d5d82612cf6565b604082019050919050565b60006020820190508181036000830152612d8181612d45565b9050919050565b7f4f776e61626c653a2063616c6c6572206973206e6f7420746865206f776e6572600082015250565b6000612dbe602083611fcd565b9150612dc982612d88565b602082019050919050565b60006020820190508181036000830152612ded81612db1565b9050919050565b7f455243313135353a206d696e7420746f20746865207a65726f2061646472657360008201527f7300000000000000000000000000000000000000000000000000000000000000602082015250565b6000612e50602183611fcd565b9150612e5b82612df4565b604082019050919050565b60006020820190508181036000830152612e7f81612e43565b9050919050565b6000612e9182611c98565b9150612e9c83611c98565b9250828201905080821115612eb457612eb3612b3b565b5b92915050565b6000604082019050612ecf6000830185611d0e565b612edc6020830184611d0e565b9392505050565b7f455243313135353a2073657474696e6720617070726f76616c2073746174757360008201527f20666f722073656c660000000000000000000000000000000000000000000000602082015250565b6000612f3f602983611fcd565b9150612f4a82612ee3565b604082019050919050565b60006020820190508181036000830152612f6e81612f32565b9050919050565b7f455243313135353a2063616c6c6572206973206e6f7420746f6b656e206f776e60008201527f6572206e6f7220617070726f7665640000000000000000000000000000000000602082015250565b6000612fd1602f83611fcd565b9150612fdc82612f75565b604082019050919050565b6000602082019050818103600083015261300081612fc4565b9050919050565b600081519050919050565b600082825260208201905092915050565b600061302e82613007565b6130388185613012565b9350613048818560208601611fde565b61305181611d42565b840191505092915050565b600060a0820190506130716000830188612509565b61307e6020830187612509565b61308b6040830186611d0e565b6130986060830185611d0e565b81810360808301526130aa8184613023565b90509695505050505050565b6000815190506130c581611f06565b92915050565b6000602082840312156130e1576130e0611c30565b5b60006130ef848285016130b6565b91505092915050565b60008160e01c9050919050565b600060033d11156131245760046000803e6131216000516130f8565b90505b90565b600060443d106131b457613139611c26565b60043d036004823e80513d602482011167ffffffffffffffff821117156131615750506131b4565b808201805167ffffffffffffffff81111561317f57505050506131b4565b80602083010160043d03850181111561319c5750505050506131b4565b6131ab82602001850186611d82565b82955050505050505b90565b7f455243313135353a207472616e7366657220746f206e6f6e204552433131353560008201527f526563656976657220696d706c656d656e746572000000000000000000000000602082015250565b6000613213603483611fcd565b915061321e826131b7565b604082019050919050565b6000602082019050818103600083015261324281613206565b9050919050565b7f455243313135353a204552433131353552656365697665722072656a6563746560008201527f6420746f6b656e73000000000000000000000000000000000000000000000000602082015250565b60006132a5602883611fcd565b91506132b082613249565b604082019050919050565b600060208201905081810360008301526132d481613298565b9050919050565b7f455243313135353a206275726e2066726f6d20746865207a65726f206164647260008201527f6573730000000000000000000000000000000000000000000000000000000000602082015250565b6000613337602383611fcd565b9150613342826132db565b604082019050919050565b600060208201905081810360008301526133668161332a565b9050919050565b7f455243313135353a206275726e20616d6f756e7420657863656564732062616c60008201527f616e636500000000000000000000000000000000000000000000000000000000602082015250565b60006133c9602483611fcd565b91506133d48261336d565b604082019050919050565b600060208201905081810360008301526133f8816133bc565b9050919050565b7f455243313135353a207472616e7366657220746f20746865207a65726f20616460008201527f6472657373000000000000000000000000000000000000000000000000000000602082015250565b600061345b602583611fcd565b9150613466826133ff565b604082019050919050565b6000602082019050818103600083015261348a8161344e565b9050919050565b7f455243313135353a20696e73756666696369656e742062616c616e636520666f60008201527f72207472616e7366657200000000000000000000000000000000000000000000602082015250565b60006134ed602a83611fcd565b91506134f882613491565b604082019050919050565b6000602082019050818103600083015261351c816134e0565b905091905056fea2646970667358221220fe2bdd20520f104134261eed173232728c84b5f3af607d66883361b53adbf5ec64736f6c63430008110033",
  "immutableReferences": {},
  "source": "// SPDX-License-Identifier: Apache-2.0\npragma solidity ^0.8.16;\n\nimport \"./SBTVirtual.sol\";\n\ncontract SBTAdmin is SBTVirtual {\n\n    constructor(string memory uri) SBTVirtual(uri) {\n\n    }\n\n    event Mint(address to, uint256 tokenId);\n    event Burn(address to, uint256 tokenId);\n\n    function mintSBT(address tokenOwner, address to, uint256 tokenId) external onlyOwner{\n        require(tokenOwnerOf[tokenId] == tokenOwner, \"not Owner\");\n        require(!_locked[tokenId][to], \"already has token\");\n\n        super._mint(to, tokenId, 1, \"\");\n        emit Mint(to, tokenId);\n\n        _locked[tokenId][to] = true;\n        emit Locked(to, tokenId);\n    }\n\n    function burnSBT(address tokenOwner, address to, uint256 tokenId) external onlyOwner{\n        require(tokenOwnerOf[tokenId] == tokenOwner, \"not Owner\");\n        require(tokenOwnerOf[tokenId] != to);\n        require(_locked[tokenId][to], \"not has token\");\n\n        super._burn(to, tokenId, 1);\n        emit Burn(to, tokenId);\n\n        _locked[tokenId][to] = false;\n        emit Unlocked(to, tokenId);\n    }\n\n}",
  "sourcePath": "/Users/leekunho/Desktop/workspace/MOSTI/MOSTI_Wallet/contracts/SBTAdmin.sol",
  "compiler": {
    "name": "solc",
    "version": "0.8.17+commit.8df45f5f.Emscripten.clang"
  },
  "schemaVersion": "3.4.10",
  "updatedAt": "2023-04-04T01:48:28.687Z",
  "networkType": "ethereum",
  "devdoc": {
    "kind": "dev",
    "methods": {
      "balanceOf(address,uint256)": {
        "details": "See {IERC1155-balanceOf}. Requirements: - `account` cannot be the zero address."
      },
      "balanceOfBatch(address[],uint256[])": {
        "details": "See {IERC1155-balanceOfBatch}. Requirements: - `accounts` and `ids` must have the same length."
      },
      "isApprovedForAll(address,address)": {
        "details": "See {IERC1155-isApprovedForAll}."
      },
      "owner()": {
        "details": "Returns the address of the current owner."
      },
      "renounceOwnership()": {
        "details": "Leaves the contract without owner. It will not be possible to call `onlyOwner` functions anymore. Can only be called by the current owner. NOTE: Renouncing ownership will leave the contract without an owner, thereby removing any functionality that is only available to the owner."
      },
      "safeBatchTransferFrom(address,address,uint256[],uint256[],bytes)": {
        "details": "See {IERC1155-safeBatchTransferFrom}."
      },
      "safeTransferFrom(address,address,uint256,uint256,bytes)": {
        "details": "See {IERC1155-safeTransferFrom}."
      },
      "setApprovalForAll(address,bool)": {
        "details": "See {IERC1155-setApprovalForAll}."
      },
      "supportsInterface(bytes4)": {
        "details": "See {IERC165-supportsInterface}."
      },
      "transferOwnership(address)": {
        "details": "Transfers ownership of the contract to a new account (`newOwner`). Can only be called by the current owner."
      },
      "uri(uint256)": {
        "details": "See {IERC1155MetadataURI-uri}. This implementation returns the same URI for *all* token types. It relies on the token type ID substitution mechanism https://eips.ethereum.org/EIPS/eip-1155#metadata[defined in the EIP]. Clients calling this function must replace the `\\{id\\}` substring with the actual token type ID."
      }
    },
    "version": 1
  },
  "userdoc": {
    "kind": "user",
    "methods": {},
    "version": 1
  }
}