{
  "contractName": "SBTUser",
  "abi": [
    {
      "inputs": [
        {
          "internalType": "string",
          "name": "uri",
          "type": "string"
        }
      ],
      "stateMutability": "nonpayable",
      "type": "constructor"
    },
    {
      "anonymous": false,
      "inputs": [
        {
          "indexed": true,
          "internalType": "address",
          "name": "account",
          "type": "address"
        },
        {
          "indexed": true,
          "internalType": "address",
          "name": "operator",
          "type": "address"
        },
        {
          "indexed": false,
          "internalType": "bool",
          "name": "approved",
          "type": "bool"
        }
      ],
      "name": "ApprovalForAll",
      "type": "event"
    },
    {
      "anonymous": false,
      "inputs": [
        {
          "indexed": false,
          "internalType": "address",
          "name": "to",
          "type": "address"
        },
        {
          "indexed": false,
          "internalType": "uint256",
          "name": "tokenId",
          "type": "uint256"
        }
      ],
      "name": "Burn",
      "type": "event"
    },
    {
      "anonymous": false,
      "inputs": [
        {
          "indexed": false,
          "internalType": "address",
          "name": "tokenOwner",
          "type": "address"
        },
        {
          "indexed": false,
          "internalType": "uint256",
          "name": "tokenId",
          "type": "uint256"
        }
      ],
      "name": "CreateToken",
      "type": "event"
    },
    {
      "anonymous": false,
      "inputs": [
        {
          "indexed": false,
          "internalType": "address",
          "name": "to",
          "type": "address"
        },
        {
          "indexed": false,
          "internalType": "uint256",
          "name": "tokenId",
          "type": "uint256"
        }
      ],
      "name": "Locked",
      "type": "event"
    },
    {
      "anonymous": false,
      "inputs": [
        {
          "indexed": false,
          "internalType": "address",
          "name": "to",
          "type": "address"
        },
        {
          "indexed": false,
          "internalType": "uint256",
          "name": "tokenId",
          "type": "uint256"
        }
      ],
      "name": "Mint",
      "type": "event"
    },
    {
      "anonymous": false,
      "inputs": [
        {
          "indexed": true,
          "internalType": "address",
          "name": "previousOwner",
          "type": "address"
        },
        {
          "indexed": true,
          "internalType": "address",
          "name": "newOwner",
          "type": "address"
        }
      ],
      "name": "OwnershipTransferred",
      "type": "event"
    },
    {
      "anonymous": false,
      "inputs": [
        {
          "indexed": true,
          "internalType": "address",
          "name": "operator",
          "type": "address"
        },
        {
          "indexed": true,
          "internalType": "address",
          "name": "from",
          "type": "address"
        },
        {
          "indexed": true,
          "internalType": "address",
          "name": "to",
          "type": "address"
        },
        {
          "indexed": false,
          "internalType": "uint256[]",
          "name": "ids",
          "type": "uint256[]"
        },
        {
          "indexed": false,
          "internalType": "uint256[]",
          "name": "values",
          "type": "uint256[]"
        }
      ],
      "name": "TransferBatch",
      "type": "event"
    },
    {
      "anonymous": false,
      "inputs": [
        {
          "indexed": true,
          "internalType": "address",
          "name": "operator",
          "type": "address"
        },
        {
          "indexed": true,
          "internalType": "address",
          "name": "from",
          "type": "address"
        },
        {
          "indexed": true,
          "internalType": "address",
          "name": "to",
          "type": "address"
        },
        {
          "indexed": false,
          "internalType": "uint256",
          "name": "id",
          "type": "uint256"
        },
        {
          "indexed": false,
          "internalType": "uint256",
          "name": "value",
          "type": "uint256"
        }
      ],
      "name": "TransferSingle",
      "type": "event"
    },
    {
      "anonymous": false,
      "inputs": [
        {
          "indexed": false,
          "internalType": "string",
          "name": "value",
          "type": "string"
        },
        {
          "indexed": true,
          "internalType": "uint256",
          "name": "id",
          "type": "uint256"
        }
      ],
      "name": "URI",
      "type": "event"
    },
    {
      "anonymous": false,
      "inputs": [
        {
          "indexed": false,
          "internalType": "address",
          "name": "to",
          "type": "address"
        },
        {
          "indexed": false,
          "internalType": "uint256",
          "name": "tokenId",
          "type": "uint256"
        }
      ],
      "name": "Unlocked",
      "type": "event"
    },
    {
      "inputs": [
        {
          "internalType": "address",
          "name": "account",
          "type": "address"
        },
        {
          "internalType": "uint256",
          "name": "id",
          "type": "uint256"
        }
      ],
      "name": "balanceOf",
      "outputs": [
        {
          "internalType": "uint256",
          "name": "",
          "type": "uint256"
        }
      ],
      "stateMutability": "view",
      "type": "function",
      "constant": true
    },
    {
      "inputs": [
        {
          "internalType": "address[]",
          "name": "accounts",
          "type": "address[]"
        },
        {
          "internalType": "uint256[]",
          "name": "ids",
          "type": "uint256[]"
        }
      ],
      "name": "balanceOfBatch",
      "outputs": [
        {
          "internalType": "uint256[]",
          "name": "",
          "type": "uint256[]"
        }
      ],
      "stateMutability": "view",
      "type": "function",
      "constant": true
    },
    {
      "inputs": [
        {
          "internalType": "address",
          "name": "tokenOwner",
          "type": "address"
        }
      ],
      "name": "createToken",
      "outputs": [],
      "stateMutability": "nonpayable",
      "type": "function"
    },
    {
      "inputs": [
        {
          "internalType": "address",
          "name": "account",
          "type": "address"
        },
        {
          "internalType": "address",
          "name": "operator",
          "type": "address"
        }
      ],
      "name": "isApprovedForAll",
      "outputs": [
        {
          "internalType": "bool",
          "name": "",
          "type": "bool"
        }
      ],
      "stateMutability": "view",
      "type": "function",
      "constant": true
    },
    {
      "inputs": [],
      "name": "owner",
      "outputs": [
        {
          "internalType": "address",
          "name": "",
          "type": "address"
        }
      ],
      "stateMutability": "view",
      "type": "function",
      "constant": true
    },
    {
      "inputs": [],
      "name": "renounceOwnership",
      "outputs": [],
      "stateMutability": "nonpayable",
      "type": "function"
    },
    {
      "inputs": [
        {
          "internalType": "address",
          "name": "from",
          "type": "address"
        },
        {
          "internalType": "address",
          "name": "to",
          "type": "address"
        },
        {
          "internalType": "uint256[]",
          "name": "ids",
          "type": "uint256[]"
        },
        {
          "internalType": "uint256[]",
          "name": "amounts",
          "type": "uint256[]"
        },
        {
          "internalType": "bytes",
          "name": "data",
          "type": "bytes"
        }
      ],
      "name": "safeBatchTransferFrom",
      "outputs": [],
      "stateMutability": "nonpayable",
      "type": "function"
    },
    {
      "inputs": [
        {
          "internalType": "address",
          "name": "from",
          "type": "address"
        },
        {
          "internalType": "address",
          "name": "to",
          "type": "address"
        },
        {
          "internalType": "uint256",
          "name": "id",
          "type": "uint256"
        },
        {
          "internalType": "uint256",
          "name": "amount",
          "type": "uint256"
        },
        {
          "internalType": "bytes",
          "name": "data",
          "type": "bytes"
        }
      ],
      "name": "safeTransferFrom",
      "outputs": [],
      "stateMutability": "nonpayable",
      "type": "function"
    },
    {
      "inputs": [
        {
          "internalType": "address",
          "name": "operator",
          "type": "address"
        },
        {
          "internalType": "bool",
          "name": "approved",
          "type": "bool"
        }
      ],
      "name": "setApprovalForAll",
      "outputs": [],
      "stateMutability": "nonpayable",
      "type": "function"
    },
    {
      "inputs": [
        {
          "internalType": "bytes4",
          "name": "interfaceId",
          "type": "bytes4"
        }
      ],
      "name": "supportsInterface",
      "outputs": [
        {
          "internalType": "bool",
          "name": "",
          "type": "bool"
        }
      ],
      "stateMutability": "view",
      "type": "function",
      "constant": true
    },
    {
      "inputs": [
        {
          "internalType": "address",
          "name": "newOwner",
          "type": "address"
        }
      ],
      "name": "transferOwnership",
      "outputs": [],
      "stateMutability": "nonpayable",
      "type": "function"
    },
    {
      "inputs": [
        {
          "internalType": "uint256",
          "name": "",
          "type": "uint256"
        }
      ],
      "name": "uri",
      "outputs": [
        {
          "internalType": "string",
          "name": "",
          "type": "string"
        }
      ],
      "stateMutability": "view",
      "type": "function",
      "constant": true
    },
    {
      "inputs": [
        {
          "internalType": "address",
          "name": "tokenOwner",
          "type": "address"
        },
        {
          "internalType": "address",
          "name": "to",
          "type": "address"
        },
        {
          "internalType": "uint256",
          "name": "tokenId",
          "type": "uint256"
        }
      ],
      "name": "mintSBT",
      "outputs": [],
      "stateMutability": "nonpayable",
      "type": "function"
    },
    {
      "inputs": [
        {
          "internalType": "address",
          "name": "to",
          "type": "address"
        },
        {
          "internalType": "uint256",
          "name": "tokenId",
          "type": "uint256"
        }
      ],
      "name": "burnSBT",
      "outputs": [],
      "stateMutability": "nonpayable",
      "type": "function"
    }
  ],
  "bytecode": "0x60806040523480156200001157600080fd5b5060405162003754380380620037548339818101604052810190620000379190620002e7565b8080620000596200004d6200007360201b60201c565b6200007b60201b60201c565b6200006a816200013f60201b60201c565b5050506200066a565b600033905090565b60008060009054906101000a900473ffffffffffffffffffffffffffffffffffffffff169050816000806101000a81548173ffffffffffffffffffffffffffffffffffffffff021916908373ffffffffffffffffffffffffffffffffffffffff1602179055508173ffffffffffffffffffffffffffffffffffffffff168173ffffffffffffffffffffffffffffffffffffffff167f8be0079c531659141344cd1fd0a4f28419497f9722a3daafe3b4186f6b6457e060405160405180910390a35050565b806003908162000150919062000583565b5050565b6000604051905090565b600080fd5b600080fd5b600080fd5b600080fd5b6000601f19601f8301169050919050565b7f4e487b7100000000000000000000000000000000000000000000000000000000600052604160045260246000fd5b620001bd8262000172565b810181811067ffffffffffffffff82111715620001df57620001de62000183565b5b80604052505050565b6000620001f462000154565b9050620002028282620001b2565b919050565b600067ffffffffffffffff82111562000225576200022462000183565b5b620002308262000172565b9050602081019050919050565b60005b838110156200025d57808201518184015260208101905062000240565b60008484015250505050565b6000620002806200027a8462000207565b620001e8565b9050828152602081018484840111156200029f576200029e6200016d565b5b620002ac8482856200023d565b509392505050565b600082601f830112620002cc57620002cb62000168565b5b8151620002de84826020860162000269565b91505092915050565b6000602082840312156200030057620002ff6200015e565b5b600082015167ffffffffffffffff81111562000321576200032062000163565b5b6200032f84828501620002b4565b91505092915050565b600081519050919050565b7f4e487b7100000000000000000000000000000000000000000000000000000000600052602260045260246000fd5b600060028204905060018216806200038b57607f821691505b602082108103620003a157620003a062000343565b5b50919050565b60008190508160005260206000209050919050565b60006020601f8301049050919050565b600082821b905092915050565b6000600883026200040b7fffffffffffffffffffffffffffffffffffffffffffffffffffffffffffffffff82620003cc565b620004178683620003cc565b95508019841693508086168417925050509392505050565b6000819050919050565b6000819050919050565b6000620004646200045e62000458846200042f565b62000439565b6200042f565b9050919050565b6000819050919050565b620004808362000443565b620004986200048f826200046b565b848454620003d9565b825550505050565b600090565b620004af620004a0565b620004bc81848462000475565b505050565b5b81811015620004e457620004d8600082620004a5565b600181019050620004c2565b5050565b601f8211156200053357620004fd81620003a7565b6200050884620003bc565b8101602085101562000518578190505b620005306200052785620003bc565b830182620004c1565b50505b505050565b600082821c905092915050565b6000620005586000198460080262000538565b1980831691505092915050565b600062000573838362000545565b9150826002028217905092915050565b6200058e8262000338565b67ffffffffffffffff811115620005aa57620005a962000183565b5b620005b6825462000372565b620005c3828285620004e8565b600060209050601f831160018114620005fb5760008415620005e6578287015190505b620005f2858262000565565b86555062000662565b601f1984166200060b86620003a7565b60005b8281101562000635578489015182556001820191506020850194506020810190506200060e565b8683101562000655578489015162000651601f89168262000545565b8355505b6001600288020188555050505b505050505050565b6130da806200067a6000396000f3fe608060405234801561001057600080fd5b50600436106100e95760003560e01c8063715018a61161008c578063c21ab7f911610066578063c21ab7f914610246578063e985e9c514610262578063f242432a14610292578063f2fde38b146102ae576100e9565b8063715018a6146102025780638da5cb5b1461020c578063a22cb4651461022a576100e9565b80632eb2c2d6116100c85780632eb2c2d61461017e57806330257e0a1461019a5780634e1273f4146101b65780635760e7a9146101e6576100e9565b8062fdd58e146100ee57806301ffc9a71461011e5780630e89341c1461014e575b600080fd5b61010860048036038101906101039190611c08565b6102ca565b6040516101159190611c57565b60405180910390f35b61013860048036038101906101339190611cca565b610393565b6040516101459190611d12565b60405180910390f35b61016860048036038101906101639190611d2d565b610475565b6040516101759190611dea565b60405180910390f35b61019860048036038101906101939190612009565b610509565b005b6101b460048036038101906101af9190611c08565b610510565b005b6101d060048036038101906101cb919061219b565b61070b565b6040516101dd91906122d1565b60405180910390f35b61020060048036038101906101fb91906122f3565b610824565b005b61020a610a67565b005b610214610a7b565b6040516102219190612355565b60405180910390f35b610244600480360381019061023f919061239c565b610aa4565b005b610260600480360381019061025b91906123dc565b610aba565b005b61027c60048036038101906102779190612409565b610c27565b6040516102899190611d12565b60405180910390f35b6102ac60048036038101906102a79190612449565b610cbb565b005b6102c860048036038101906102c391906123dc565b610d3b565b005b60008073ffffffffffffffffffffffffffffffffffffffff168373ffffffffffffffffffffffffffffffffffffffff160361033a576040517f08c379a000000000000000000000000000000000000000000000000000000000815260040161033190612552565b60405180910390fd5b6001600083815260200190815260200160002060008473ffffffffffffffffffffffffffffffffffffffff1673ffffffffffffffffffffffffffffffffffffffff16815260200190815260200160002054905092915050565b60007fd9b67a26000000000000000000000000000000000000000000000000000000007bffffffffffffffffffffffffffffffffffffffffffffffffffffffff1916827bffffffffffffffffffffffffffffffffffffffffffffffffffffffff1916148061045e57507f0e89341c000000000000000000000000000000000000000000000000000000007bffffffffffffffffffffffffffffffffffffffffffffffffffffffff1916827bffffffffffffffffffffffffffffffffffffffffffffffffffffffff1916145b8061046e575061046d82610dbe565b5b9050919050565b606060038054610484906125a1565b80601f01602080910402602001604051908101604052809291908181526020018280546104b0906125a1565b80156104fd5780601f106104d2576101008083540402835291602001916104fd565b820191906000526020600020905b8154815290600101906020018083116104e057829003601f168201915b50505050509050919050565b5050505050565b610518610e28565b8173ffffffffffffffffffffffffffffffffffffffff166006600083815260200190815260200160002060009054906101000a900473ffffffffffffffffffffffffffffffffffffffff1673ffffffffffffffffffffffffffffffffffffffff160361058357600080fd5b6005600082815260200190815260200160002060008373ffffffffffffffffffffffffffffffffffffffff1673ffffffffffffffffffffffffffffffffffffffff16815260200190815260200160002060009054906101000a900460ff16610620576040517f08c379a00000000000000000000000000000000000000000000000000000000081526004016106179061261e565b60405180910390fd5b61062c82826001610ea6565b7fcc16f5dbb4873280815c1ee09dbd06736cffcc184412cf7a71a0fdb75d397ca5828260405161065d92919061263e565b60405180910390a160006005600083815260200190815260200160002060008473ffffffffffffffffffffffffffffffffffffffff1673ffffffffffffffffffffffffffffffffffffffff16815260200190815260200160002060006101000a81548160ff0219169083151502179055507f0f0bc5b519ddefdd8e5f9e6423433aa2b869738de2ae34d58ebc796fc749fa0d82826040516106ff92919061263e565b60405180910390a15050565b60608151835114610751576040517f08c379a0000000000000000000000000000000000000000000000000000000008152600401610748906126d9565b60405180910390fd5b6000835167ffffffffffffffff81111561076e5761076d611e11565b5b60405190808252806020026020018201604052801561079c5781602001602082028036833780820191505090505b50905060005b8451811015610819576107e98582815181106107c1576107c06126f9565b5b60200260200101518583815181106107dc576107db6126f9565b5b60200260200101516102ca565b8282815181106107fc576107fb6126f9565b5b6020026020010181815250508061081290612757565b90506107a2565b508091505092915050565b61082c610e28565b8273ffffffffffffffffffffffffffffffffffffffff166006600083815260200190815260200160002060009054906101000a900473ffffffffffffffffffffffffffffffffffffffff1673ffffffffffffffffffffffffffffffffffffffff16146108cd576040517f08c379a00000000000000000000000000000000000000000000000000000000081526004016108c4906127eb565b60405180910390fd5b6005600082815260200190815260200160002060008373ffffffffffffffffffffffffffffffffffffffff1673ffffffffffffffffffffffffffffffffffffffff16815260200190815260200160002060009054906101000a900460ff161561096b576040517f08c379a000000000000000000000000000000000000000000000000000000000815260040161096290612857565b60405180910390fd5b6109878282600160405180602001604052806000815250610eb6565b7f0f6798a560793a54c3bcfe86a93cde1e73087d944c0ea20544137d412139688582826040516109b892919061263e565b60405180910390a160016005600083815260200190815260200160002060008473ffffffffffffffffffffffffffffffffffffffff1673ffffffffffffffffffffffffffffffffffffffff16815260200190815260200160002060006101000a81548160ff0219169083151502179055507f9f1ec8c880f76798e7b793325d625e9b60e4082a553c98f42b6cda368dd600088282604051610a5a92919061263e565b60405180910390a1505050565b610a6f610e28565b610a796000610ec8565b565b60008060009054906101000a900473ffffffffffffffffffffffffffffffffffffffff16905090565b610ab6610aaf610f8c565b8383610f94565b5050565b610ac2610e28565b610acc6004611100565b6000610ad86004611116565b9050610af68282600160405180602001604052806000815250611124565b816006600083815260200190815260200160002060006101000a81548173ffffffffffffffffffffffffffffffffffffffff021916908373ffffffffffffffffffffffffffffffffffffffff16021790555060016005600083815260200190815260200160002060008473ffffffffffffffffffffffffffffffffffffffff1673ffffffffffffffffffffffffffffffffffffffff16815260200190815260200160002060006101000a81548160ff0219169083151502179055507f9f1ec8c880f76798e7b793325d625e9b60e4082a553c98f42b6cda368dd600088282604051610be292919061263e565b60405180910390a17fb378e89b40ac5bbe0e2241b596fbe1adc3cf1fb7c982aa1b4560165cf264ee938282604051610c1b92919061263e565b60405180910390a15050565b6000600260008473ffffffffffffffffffffffffffffffffffffffff1673ffffffffffffffffffffffffffffffffffffffff16815260200190815260200160002060008373ffffffffffffffffffffffffffffffffffffffff1673ffffffffffffffffffffffffffffffffffffffff16815260200190815260200160002060009054906101000a900460ff16905092915050565b84836005600082815260200190815260200160002060008373ffffffffffffffffffffffffffffffffffffffff1673ffffffffffffffffffffffffffffffffffffffff16815260200190815260200160002060009054906101000a900460ff1615610d2557600080fd5b610d3287878787876112d5565b50505050505050565b610d43610e28565b600073ffffffffffffffffffffffffffffffffffffffff168173ffffffffffffffffffffffffffffffffffffffff1603610db2576040517f08c379a0000000000000000000000000000000000000000000000000000000008152600401610da9906128e9565b60405180910390fd5b610dbb81610ec8565b50565b60007f01ffc9a7000000000000000000000000000000000000000000000000000000007bffffffffffffffffffffffffffffffffffffffffffffffffffffffff1916827bffffffffffffffffffffffffffffffffffffffffffffffffffffffff1916149050919050565b610e30610f8c565b73ffffffffffffffffffffffffffffffffffffffff16610e4e610a7b565b73ffffffffffffffffffffffffffffffffffffffff1614610ea4576040517f08c379a0000000000000000000000000000000000000000000000000000000008152600401610e9b90612955565b60405180910390fd5b565b610eb1838383611376565b505050565b610ec284848484611124565b50505050565b60008060009054906101000a900473ffffffffffffffffffffffffffffffffffffffff169050816000806101000a81548173ffffffffffffffffffffffffffffffffffffffff021916908373ffffffffffffffffffffffffffffffffffffffff1602179055508173ffffffffffffffffffffffffffffffffffffffff168173ffffffffffffffffffffffffffffffffffffffff167f8be0079c531659141344cd1fd0a4f28419497f9722a3daafe3b4186f6b6457e060405160405180910390a35050565b600033905090565b8173ffffffffffffffffffffffffffffffffffffffff168373ffffffffffffffffffffffffffffffffffffffff1603611002576040517f08c379a0000000000000000000000000000000000000000000000000000000008152600401610ff9906129e7565b60405180910390fd5b80600260008573ffffffffffffffffffffffffffffffffffffffff1673ffffffffffffffffffffffffffffffffffffffff16815260200190815260200160002060008473ffffffffffffffffffffffffffffffffffffffff1673ffffffffffffffffffffffffffffffffffffffff16815260200190815260200160002060006101000a81548160ff0219169083151502179055508173ffffffffffffffffffffffffffffffffffffffff168373ffffffffffffffffffffffffffffffffffffffff167f17307eab39ab6107e8899845ad3d59bd9653f200f220920489ca2b5937696c31836040516110f39190611d12565b60405180910390a3505050565b6001816000016000828254019250508190555050565b600081600001549050919050565b600073ffffffffffffffffffffffffffffffffffffffff168473ffffffffffffffffffffffffffffffffffffffff1603611193576040517f08c379a000000000000000000000000000000000000000000000000000000000815260040161118a90612a79565b60405180910390fd5b600061119d610f8c565b905060006111aa856115be565b905060006111b7856115be565b90506111c883600089858589611638565b846001600088815260200190815260200160002060008973ffffffffffffffffffffffffffffffffffffffff1673ffffffffffffffffffffffffffffffffffffffff16815260200190815260200160002060008282546112289190612a99565b925050819055508673ffffffffffffffffffffffffffffffffffffffff16600073ffffffffffffffffffffffffffffffffffffffff168473ffffffffffffffffffffffffffffffffffffffff167fc3d58168c5ae7397731d063d5bbf3d657854427343f4c083240f7aacaa2d0f6289896040516112a6929190612acd565b60405180910390a46112bd83600089858589611640565b6112cc83600089898989611648565b50505050505050565b6112dd610f8c565b73ffffffffffffffffffffffffffffffffffffffff168573ffffffffffffffffffffffffffffffffffffffff16148061132357506113228561131d610f8c565b610c27565b5b611362576040517f08c379a000000000000000000000000000000000000000000000000000000000815260040161135990612b68565b60405180910390fd5b61136f858585858561181f565b5050505050565b600073ffffffffffffffffffffffffffffffffffffffff168373ffffffffffffffffffffffffffffffffffffffff16036113e5576040517f08c379a00000000000000000000000000000000000000000000000000000000081526004016113dc90612bfa565b60405180910390fd5b60006113ef610f8c565b905060006113fc846115be565b90506000611409846115be565b905061142983876000858560405180602001604052806000815250611638565b60006001600087815260200190815260200160002060008873ffffffffffffffffffffffffffffffffffffffff1673ffffffffffffffffffffffffffffffffffffffff168152602001908152602001600020549050848110156114c1576040517f08c379a00000000000000000000000000000000000000000000000000000000081526004016114b890612c8c565b60405180910390fd5b8481036001600088815260200190815260200160002060008973ffffffffffffffffffffffffffffffffffffffff1673ffffffffffffffffffffffffffffffffffffffff16815260200190815260200160002081905550600073ffffffffffffffffffffffffffffffffffffffff168773ffffffffffffffffffffffffffffffffffffffff168573ffffffffffffffffffffffffffffffffffffffff167fc3d58168c5ae7397731d063d5bbf3d657854427343f4c083240f7aacaa2d0f62898960405161158f929190612acd565b60405180910390a46115b584886000868660405180602001604052806000815250611640565b50505050505050565b60606000600167ffffffffffffffff8111156115dd576115dc611e11565b5b60405190808252806020026020018201604052801561160b5781602001602082028036833780820191505090505b5090508281600081518110611623576116226126f9565b5b60200260200101818152505080915050919050565b505050505050565b505050505050565b6116678473ffffffffffffffffffffffffffffffffffffffff1661189f565b15611817578373ffffffffffffffffffffffffffffffffffffffff1663f23a6e6187878686866040518663ffffffff1660e01b81526004016116ad959493929190612d01565b6020604051808303816000875af19250505080156116e957506040513d601f19601f820116820180604052508101906116e69190612d70565b60015b61178e576116f5612daa565b806308c379a0036117515750611709612dcc565b806117145750611753565b806040517f08c379a00000000000000000000000000000000000000000000000000000000081526004016117489190611dea565b60405180910390fd5b505b6040517f08c379a000000000000000000000000000000000000000000000000000000000815260040161178590612ece565b60405180910390fd5b63f23a6e6160e01b7bffffffffffffffffffffffffffffffffffffffffffffffffffffffff1916817bffffffffffffffffffffffffffffffffffffffffffffffffffffffff191614611815576040517f08c379a000000000000000000000000000000000000000000000000000000000815260040161180c90612f60565b60405180910390fd5b505b505050505050565b84836005600082815260200190815260200160002060008373ffffffffffffffffffffffffffffffffffffffff1673ffffffffffffffffffffffffffffffffffffffff16815260200190815260200160002060009054906101000a900460ff161561188957600080fd5b61189687878787876118c2565b50505050505050565b6000808273ffffffffffffffffffffffffffffffffffffffff163b119050919050565b600073ffffffffffffffffffffffffffffffffffffffff168473ffffffffffffffffffffffffffffffffffffffff1603611931576040517f08c379a000000000000000000000000000000000000000000000000000000000815260040161192890612ff2565b60405180910390fd5b600061193b610f8c565b90506000611948856115be565b90506000611955856115be565b9050611965838989858589611638565b60006001600088815260200190815260200160002060008a73ffffffffffffffffffffffffffffffffffffffff1673ffffffffffffffffffffffffffffffffffffffff168152602001908152602001600020549050858110156119fd576040517f08c379a00000000000000000000000000000000000000000000000000000000081526004016119f490613084565b60405180910390fd5b8581036001600089815260200190815260200160002060008b73ffffffffffffffffffffffffffffffffffffffff1673ffffffffffffffffffffffffffffffffffffffff16815260200190815260200160002081905550856001600089815260200190815260200160002060008a73ffffffffffffffffffffffffffffffffffffffff1673ffffffffffffffffffffffffffffffffffffffff1681526020019081526020016000206000828254611ab49190612a99565b925050819055508773ffffffffffffffffffffffffffffffffffffffff168973ffffffffffffffffffffffffffffffffffffffff168573ffffffffffffffffffffffffffffffffffffffff167fc3d58168c5ae7397731d063d5bbf3d657854427343f4c083240f7aacaa2d0f628a8a604051611b31929190612acd565b60405180910390a4611b47848a8a86868a611640565b611b55848a8a8a8a8a611648565b505050505050505050565b6000604051905090565b600080fd5b600080fd5b600073ffffffffffffffffffffffffffffffffffffffff82169050919050565b6000611b9f82611b74565b9050919050565b611baf81611b94565b8114611bba57600080fd5b50565b600081359050611bcc81611ba6565b92915050565b6000819050919050565b611be581611bd2565b8114611bf057600080fd5b50565b600081359050611c0281611bdc565b92915050565b60008060408385031215611c1f57611c1e611b6a565b5b6000611c2d85828601611bbd565b9250506020611c3e85828601611bf3565b9150509250929050565b611c5181611bd2565b82525050565b6000602082019050611c6c6000830184611c48565b92915050565b60007fffffffff0000000000000000000000000000000000000000000000000000000082169050919050565b611ca781611c72565b8114611cb257600080fd5b50565b600081359050611cc481611c9e565b92915050565b600060208284031215611ce057611cdf611b6a565b5b6000611cee84828501611cb5565b91505092915050565b60008115159050919050565b611d0c81611cf7565b82525050565b6000602082019050611d276000830184611d03565b92915050565b600060208284031215611d4357611d42611b6a565b5b6000611d5184828501611bf3565b91505092915050565b600081519050919050565b600082825260208201905092915050565b60005b83811015611d94578082015181840152602081019050611d79565b60008484015250505050565b6000601f19601f8301169050919050565b6000611dbc82611d5a565b611dc68185611d65565b9350611dd6818560208601611d76565b611ddf81611da0565b840191505092915050565b60006020820190508181036000830152611e048184611db1565b905092915050565b600080fd5b7f4e487b7100000000000000000000000000000000000000000000000000000000600052604160045260246000fd5b611e4982611da0565b810181811067ffffffffffffffff82111715611e6857611e67611e11565b5b80604052505050565b6000611e7b611b60565b9050611e878282611e40565b919050565b600067ffffffffffffffff821115611ea757611ea6611e11565b5b602082029050602081019050919050565b600080fd5b6000611ed0611ecb84611e8c565b611e71565b90508083825260208201905060208402830185811115611ef357611ef2611eb8565b5b835b81811015611f1c5780611f088882611bf3565b845260208401935050602081019050611ef5565b5050509392505050565b600082601f830112611f3b57611f3a611e0c565b5b8135611f4b848260208601611ebd565b91505092915050565b600080fd5b600067ffffffffffffffff821115611f7457611f73611e11565b5b611f7d82611da0565b9050602081019050919050565b82818337600083830152505050565b6000611fac611fa784611f59565b611e71565b905082815260208101848484011115611fc857611fc7611f54565b5b611fd3848285611f8a565b509392505050565b600082601f830112611ff057611fef611e0c565b5b8135612000848260208601611f99565b91505092915050565b600080600080600060a0868803121561202557612024611b6a565b5b600061203388828901611bbd565b955050602061204488828901611bbd565b945050604086013567ffffffffffffffff81111561206557612064611b6f565b5b61207188828901611f26565b935050606086013567ffffffffffffffff81111561209257612091611b6f565b5b61209e88828901611f26565b925050608086013567ffffffffffffffff8111156120bf576120be611b6f565b5b6120cb88828901611fdb565b9150509295509295909350565b600067ffffffffffffffff8211156120f3576120f2611e11565b5b602082029050602081019050919050565b6000612117612112846120d8565b611e71565b9050808382526020820190506020840283018581111561213a57612139611eb8565b5b835b81811015612163578061214f8882611bbd565b84526020840193505060208101905061213c565b5050509392505050565b600082601f83011261218257612181611e0c565b5b8135612192848260208601612104565b91505092915050565b600080604083850312156121b2576121b1611b6a565b5b600083013567ffffffffffffffff8111156121d0576121cf611b6f565b5b6121dc8582860161216d565b925050602083013567ffffffffffffffff8111156121fd576121fc611b6f565b5b61220985828601611f26565b9150509250929050565b600081519050919050565b600082825260208201905092915050565b6000819050602082019050919050565b61224881611bd2565b82525050565b600061225a838361223f565b60208301905092915050565b6000602082019050919050565b600061227e82612213565b612288818561221e565b93506122938361222f565b8060005b838110156122c45781516122ab888261224e565b97506122b683612266565b925050600181019050612297565b5085935050505092915050565b600060208201905081810360008301526122eb8184612273565b905092915050565b60008060006060848603121561230c5761230b611b6a565b5b600061231a86828701611bbd565b935050602061232b86828701611bbd565b925050604061233c86828701611bf3565b9150509250925092565b61234f81611b94565b82525050565b600060208201905061236a6000830184612346565b92915050565b61237981611cf7565b811461238457600080fd5b50565b60008135905061239681612370565b92915050565b600080604083850312156123b3576123b2611b6a565b5b60006123c185828601611bbd565b92505060206123d285828601612387565b9150509250929050565b6000602082840312156123f2576123f1611b6a565b5b600061240084828501611bbd565b91505092915050565b600080604083850312156124205761241f611b6a565b5b600061242e85828601611bbd565b925050602061243f85828601611bbd565b9150509250929050565b600080600080600060a0868803121561246557612464611b6a565b5b600061247388828901611bbd565b955050602061248488828901611bbd565b945050604061249588828901611bf3565b93505060606124a688828901611bf3565b925050608086013567ffffffffffffffff8111156124c7576124c6611b6f565b5b6124d388828901611fdb565b9150509295509295909350565b7f455243313135353a2061646472657373207a65726f206973206e6f742061207660008201527f616c6964206f776e657200000000000000000000000000000000000000000000602082015250565b600061253c602a83611d65565b9150612547826124e0565b604082019050919050565b6000602082019050818103600083015261256b8161252f565b9050919050565b7f4e487b7100000000000000000000000000000000000000000000000000000000600052602260045260246000fd5b600060028204905060018216806125b957607f821691505b6020821081036125cc576125cb612572565b5b50919050565b7f6e6f742068617320746f6b656e00000000000000000000000000000000000000600082015250565b6000612608600d83611d65565b9150612613826125d2565b602082019050919050565b60006020820190508181036000830152612637816125fb565b9050919050565b60006040820190506126536000830185612346565b6126606020830184611c48565b9392505050565b7f455243313135353a206163636f756e747320616e6420696473206c656e67746860008201527f206d69736d617463680000000000000000000000000000000000000000000000602082015250565b60006126c3602983611d65565b91506126ce82612667565b604082019050919050565b600060208201905081810360008301526126f2816126b6565b9050919050565b7f4e487b7100000000000000000000000000000000000000000000000000000000600052603260045260246000fd5b7f4e487b7100000000000000000000000000000000000000000000000000000000600052601160045260246000fd5b600061276282611bd2565b91507fffffffffffffffffffffffffffffffffffffffffffffffffffffffffffffffff820361279457612793612728565b5b600182019050919050565b7f6e6f74204f776e65720000000000000000000000000000000000000000000000600082015250565b60006127d5600983611d65565b91506127e08261279f565b602082019050919050565b60006020820190508181036000830152612804816127c8565b9050919050565b7f616c72656164792068617320746f6b656e000000000000000000000000000000600082015250565b6000612841601183611d65565b915061284c8261280b565b602082019050919050565b6000602082019050818103600083015261287081612834565b9050919050565b7f4f776e61626c653a206e6577206f776e657220697320746865207a65726f206160008201527f6464726573730000000000000000000000000000000000000000000000000000602082015250565b60006128d3602683611d65565b91506128de82612877565b604082019050919050565b60006020820190508181036000830152612902816128c6565b9050919050565b7f4f776e61626c653a2063616c6c6572206973206e6f7420746865206f776e6572600082015250565b600061293f602083611d65565b915061294a82612909565b602082019050919050565b6000602082019050818103600083015261296e81612932565b9050919050565b7f455243313135353a2073657474696e6720617070726f76616c2073746174757360008201527f20666f722073656c660000000000000000000000000000000000000000000000602082015250565b60006129d1602983611d65565b91506129dc82612975565b604082019050919050565b60006020820190508181036000830152612a00816129c4565b9050919050565b7f455243313135353a206d696e7420746f20746865207a65726f2061646472657360008201527f7300000000000000000000000000000000000000000000000000000000000000602082015250565b6000612a63602183611d65565b9150612a6e82612a07565b604082019050919050565b60006020820190508181036000830152612a9281612a56565b9050919050565b6000612aa482611bd2565b9150612aaf83611bd2565b9250828201905080821115612ac757612ac6612728565b5b92915050565b6000604082019050612ae26000830185611c48565b612aef6020830184611c48565b9392505050565b7f455243313135353a2063616c6c6572206973206e6f7420746f6b656e206f776e60008201527f6572206e6f7220617070726f7665640000000000000000000000000000000000602082015250565b6000612b52602f83611d65565b9150612b5d82612af6565b604082019050919050565b60006020820190508181036000830152612b8181612b45565b9050919050565b7f455243313135353a206275726e2066726f6d20746865207a65726f206164647260008201527f6573730000000000000000000000000000000000000000000000000000000000602082015250565b6000612be4602383611d65565b9150612bef82612b88565b604082019050919050565b60006020820190508181036000830152612c1381612bd7565b9050919050565b7f455243313135353a206275726e20616d6f756e7420657863656564732062616c60008201527f616e636500000000000000000000000000000000000000000000000000000000602082015250565b6000612c76602483611d65565b9150612c8182612c1a565b604082019050919050565b60006020820190508181036000830152612ca581612c69565b9050919050565b600081519050919050565b600082825260208201905092915050565b6000612cd382612cac565b612cdd8185612cb7565b9350612ced818560208601611d76565b612cf681611da0565b840191505092915050565b600060a082019050612d166000830188612346565b612d236020830187612346565b612d306040830186611c48565b612d3d6060830185611c48565b8181036080830152612d4f8184612cc8565b90509695505050505050565b600081519050612d6a81611c9e565b92915050565b600060208284031215612d8657612d85611b6a565b5b6000612d9484828501612d5b565b91505092915050565b60008160e01c9050919050565b600060033d1115612dc95760046000803e612dc6600051612d9d565b90505b90565b600060443d10612e5957612dde611b60565b60043d036004823e80513d602482011167ffffffffffffffff82111715612e06575050612e59565b808201805167ffffffffffffffff811115612e245750505050612e59565b80602083010160043d038501811115612e41575050505050612e59565b612e5082602001850186611e40565b82955050505050505b90565b7f455243313135353a207472616e7366657220746f206e6f6e204552433131353560008201527f526563656976657220696d706c656d656e746572000000000000000000000000602082015250565b6000612eb8603483611d65565b9150612ec382612e5c565b604082019050919050565b60006020820190508181036000830152612ee781612eab565b9050919050565b7f455243313135353a204552433131353552656365697665722072656a6563746560008201527f6420746f6b656e73000000000000000000000000000000000000000000000000602082015250565b6000612f4a602883611d65565b9150612f5582612eee565b604082019050919050565b60006020820190508181036000830152612f7981612f3d565b9050919050565b7f455243313135353a207472616e7366657220746f20746865207a65726f20616460008201527f6472657373000000000000000000000000000000000000000000000000000000602082015250565b6000612fdc602583611d65565b9150612fe782612f80565b604082019050919050565b6000602082019050818103600083015261300b81612fcf565b9050919050565b7f455243313135353a20696e73756666696369656e742062616c616e636520666f60008201527f72207472616e7366657200000000000000000000000000000000000000000000602082015250565b600061306e602a83611d65565b915061307982613012565b604082019050919050565b6000602082019050818103600083015261309d81613061565b905091905056fea2646970667358221220cd10ed2d984bfd7e19c496dc5eab1ab8dfe1d7f995acd4207b842b78545ebc4964736f6c63430008110033",
  "immutableReferences": {},
  "source": "// SPDX-License-Identifier: Apache-2.0\npragma solidity ^0.8.16;\n\nimport \"./SBTVirtual.sol\";\n\ncontract SBTUser is SBTVirtual {\n\n    constructor(string memory uri) SBTVirtual(uri) {\n\n    }\n\n    event Mint(address to, uint256 tokenId);\n    event Burn(address to, uint256 tokenId);\n\n    function mintSBT(address tokenOwner, address to, uint256 tokenId) external onlyOwner {\n        require(tokenOwnerOf[tokenId] == tokenOwner, \"not Owner\");\n        require(!_locked[tokenId][to], \"already has token\");\n\n        super._mint(to, tokenId, 1, \"\");\n        emit Mint(to, tokenId);\n\n        _locked[tokenId][to] = true;\n        emit Locked(to, tokenId);\n    }\n\n    function burnSBT(address to, uint256 tokenId) external onlyOwner{\n        require(tokenOwnerOf[tokenId] != to);\n        require(_locked[tokenId][to], \"not has token\");\n\n        super._burn(to, tokenId, 1);\n        emit Burn(to, tokenId);\n\n        _locked[tokenId][to] = false;\n        emit Unlocked(to, tokenId);\n    }\n\n}",
  "sourcePath": "/Users/leekunho/Desktop/workspace/MOSTI/MOSTI_Wallet/contracts/SBTUser.sol",
  "compiler": {
    "name": "solc",
    "version": "0.8.17+commit.8df45f5f.Emscripten.clang"
  },
  "schemaVersion": "3.4.10",
  "updatedAt": "2023-03-29T06:58:22.978Z",
  "networkType": "ethereum",
  "devdoc": {
    "kind": "dev",
    "methods": {
      "balanceOf(address,uint256)": {
        "details": "See {IERC1155-balanceOf}. Requirements: - `account` cannot be the zero address."
      },
      "balanceOfBatch(address[],uint256[])": {
        "details": "See {IERC1155-balanceOfBatch}. Requirements: - `accounts` and `ids` must have the same length."
      },
      "isApprovedForAll(address,address)": {
        "details": "See {IERC1155-isApprovedForAll}."
      },
      "owner()": {
        "details": "Returns the address of the current owner."
      },
      "renounceOwnership()": {
        "details": "Leaves the contract without owner. It will not be possible to call `onlyOwner` functions anymore. Can only be called by the current owner. NOTE: Renouncing ownership will leave the contract without an owner, thereby removing any functionality that is only available to the owner."
      },
      "safeBatchTransferFrom(address,address,uint256[],uint256[],bytes)": {
        "details": "See {IERC1155-safeBatchTransferFrom}."
      },
      "safeTransferFrom(address,address,uint256,uint256,bytes)": {
        "details": "See {IERC1155-safeTransferFrom}."
      },
      "setApprovalForAll(address,bool)": {
        "details": "See {IERC1155-setApprovalForAll}."
      },
      "supportsInterface(bytes4)": {
        "details": "See {IERC165-supportsInterface}."
      },
      "transferOwnership(address)": {
        "details": "Transfers ownership of the contract to a new account (`newOwner`). Can only be called by the current owner."
      },
      "uri(uint256)": {
        "details": "See {IERC1155MetadataURI-uri}. This implementation returns the same URI for *all* token types. It relies on the token type ID substitution mechanism https://eips.ethereum.org/EIPS/eip-1155#metadata[defined in the EIP]. Clients calling this function must replace the `\\{id\\}` substring with the actual token type ID."
      }
    },
    "version": 1
  },
  "userdoc": {
    "kind": "user",
    "methods": {},
    "version": 1
  }
}