{
  "contractName": "SBTUser",
  "abi": [
    {
      "inputs": [
        {
          "internalType": "string",
          "name": "uri",
          "type": "string"
        }
      ],
      "stateMutability": "nonpayable",
      "type": "constructor"
    },
    {
      "anonymous": false,
      "inputs": [
        {
          "indexed": true,
          "internalType": "address",
          "name": "account",
          "type": "address"
        },
        {
          "indexed": true,
          "internalType": "address",
          "name": "operator",
          "type": "address"
        },
        {
          "indexed": false,
          "internalType": "bool",
          "name": "approved",
          "type": "bool"
        }
      ],
      "name": "ApprovalForAll",
      "type": "event"
    },
    {
      "anonymous": false,
      "inputs": [
        {
          "indexed": false,
          "internalType": "address",
          "name": "to",
          "type": "address"
        },
        {
          "indexed": false,
          "internalType": "uint256",
          "name": "tokenId",
          "type": "uint256"
        }
      ],
      "name": "Burn",
      "type": "event"
    },
    {
      "anonymous": false,
      "inputs": [
        {
          "indexed": false,
          "internalType": "address",
          "name": "tokenOwner",
          "type": "address"
        },
        {
          "indexed": false,
          "internalType": "uint256",
          "name": "tokenId",
          "type": "uint256"
        },
        {
          "indexed": false,
          "internalType": "string",
          "name": "tokenURI",
          "type": "string"
        }
      ],
      "name": "CreateToken",
      "type": "event"
    },
    {
      "anonymous": false,
      "inputs": [
        {
          "indexed": false,
          "internalType": "address",
          "name": "to",
          "type": "address"
        },
        {
          "indexed": false,
          "internalType": "uint256",
          "name": "tokenId",
          "type": "uint256"
        }
      ],
      "name": "Locked",
      "type": "event"
    },
    {
      "anonymous": false,
      "inputs": [
        {
          "indexed": false,
          "internalType": "address",
          "name": "to",
          "type": "address"
        },
        {
          "indexed": false,
          "internalType": "uint256",
          "name": "tokenId",
          "type": "uint256"
        }
      ],
      "name": "Mint",
      "type": "event"
    },
    {
      "anonymous": false,
      "inputs": [
        {
          "indexed": true,
          "internalType": "address",
          "name": "previousOwner",
          "type": "address"
        },
        {
          "indexed": true,
          "internalType": "address",
          "name": "newOwner",
          "type": "address"
        }
      ],
      "name": "OwnershipTransferred",
      "type": "event"
    },
    {
      "anonymous": false,
      "inputs": [
        {
          "indexed": true,
          "internalType": "address",
          "name": "operator",
          "type": "address"
        },
        {
          "indexed": true,
          "internalType": "address",
          "name": "from",
          "type": "address"
        },
        {
          "indexed": true,
          "internalType": "address",
          "name": "to",
          "type": "address"
        },
        {
          "indexed": false,
          "internalType": "uint256[]",
          "name": "ids",
          "type": "uint256[]"
        },
        {
          "indexed": false,
          "internalType": "uint256[]",
          "name": "values",
          "type": "uint256[]"
        }
      ],
      "name": "TransferBatch",
      "type": "event"
    },
    {
      "anonymous": false,
      "inputs": [
        {
          "indexed": true,
          "internalType": "address",
          "name": "operator",
          "type": "address"
        },
        {
          "indexed": true,
          "internalType": "address",
          "name": "from",
          "type": "address"
        },
        {
          "indexed": true,
          "internalType": "address",
          "name": "to",
          "type": "address"
        },
        {
          "indexed": false,
          "internalType": "uint256",
          "name": "id",
          "type": "uint256"
        },
        {
          "indexed": false,
          "internalType": "uint256",
          "name": "value",
          "type": "uint256"
        }
      ],
      "name": "TransferSingle",
      "type": "event"
    },
    {
      "anonymous": false,
      "inputs": [
        {
          "indexed": false,
          "internalType": "string",
          "name": "value",
          "type": "string"
        },
        {
          "indexed": true,
          "internalType": "uint256",
          "name": "id",
          "type": "uint256"
        }
      ],
      "name": "URI",
      "type": "event"
    },
    {
      "anonymous": false,
      "inputs": [
        {
          "indexed": false,
          "internalType": "address",
          "name": "to",
          "type": "address"
        },
        {
          "indexed": false,
          "internalType": "uint256",
          "name": "tokenId",
          "type": "uint256"
        }
      ],
      "name": "Unlocked",
      "type": "event"
    },
    {
      "inputs": [
        {
          "internalType": "address",
          "name": "account",
          "type": "address"
        },
        {
          "internalType": "uint256",
          "name": "id",
          "type": "uint256"
        }
      ],
      "name": "balanceOf",
      "outputs": [
        {
          "internalType": "uint256",
          "name": "",
          "type": "uint256"
        }
      ],
      "stateMutability": "view",
      "type": "function",
      "constant": true
    },
    {
      "inputs": [
        {
          "internalType": "address[]",
          "name": "accounts",
          "type": "address[]"
        },
        {
          "internalType": "uint256[]",
          "name": "ids",
          "type": "uint256[]"
        }
      ],
      "name": "balanceOfBatch",
      "outputs": [
        {
          "internalType": "uint256[]",
          "name": "",
          "type": "uint256[]"
        }
      ],
      "stateMutability": "view",
      "type": "function",
      "constant": true
    },
    {
      "inputs": [
        {
          "internalType": "address",
          "name": "tokenOwner",
          "type": "address"
        },
        {
          "internalType": "string",
          "name": "tokenURI",
          "type": "string"
        }
      ],
      "name": "createToken",
      "outputs": [],
      "stateMutability": "nonpayable",
      "type": "function"
    },
    {
      "inputs": [
        {
          "internalType": "address",
          "name": "account",
          "type": "address"
        },
        {
          "internalType": "address",
          "name": "operator",
          "type": "address"
        }
      ],
      "name": "isApprovedForAll",
      "outputs": [
        {
          "internalType": "bool",
          "name": "",
          "type": "bool"
        }
      ],
      "stateMutability": "view",
      "type": "function",
      "constant": true
    },
    {
      "inputs": [],
      "name": "owner",
      "outputs": [
        {
          "internalType": "address",
          "name": "",
          "type": "address"
        }
      ],
      "stateMutability": "view",
      "type": "function",
      "constant": true
    },
    {
      "inputs": [],
      "name": "renounceOwnership",
      "outputs": [],
      "stateMutability": "nonpayable",
      "type": "function"
    },
    {
      "inputs": [
        {
          "internalType": "address",
          "name": "from",
          "type": "address"
        },
        {
          "internalType": "address",
          "name": "to",
          "type": "address"
        },
        {
          "internalType": "uint256[]",
          "name": "ids",
          "type": "uint256[]"
        },
        {
          "internalType": "uint256[]",
          "name": "amounts",
          "type": "uint256[]"
        },
        {
          "internalType": "bytes",
          "name": "data",
          "type": "bytes"
        }
      ],
      "name": "safeBatchTransferFrom",
      "outputs": [],
      "stateMutability": "nonpayable",
      "type": "function"
    },
    {
      "inputs": [
        {
          "internalType": "address",
          "name": "from",
          "type": "address"
        },
        {
          "internalType": "address",
          "name": "to",
          "type": "address"
        },
        {
          "internalType": "uint256",
          "name": "id",
          "type": "uint256"
        },
        {
          "internalType": "uint256",
          "name": "amount",
          "type": "uint256"
        },
        {
          "internalType": "bytes",
          "name": "data",
          "type": "bytes"
        }
      ],
      "name": "safeTransferFrom",
      "outputs": [],
      "stateMutability": "nonpayable",
      "type": "function"
    },
    {
      "inputs": [
        {
          "internalType": "address",
          "name": "operator",
          "type": "address"
        },
        {
          "internalType": "bool",
          "name": "approved",
          "type": "bool"
        }
      ],
      "name": "setApprovalForAll",
      "outputs": [],
      "stateMutability": "nonpayable",
      "type": "function"
    },
    {
      "inputs": [
        {
          "internalType": "bytes4",
          "name": "interfaceId",
          "type": "bytes4"
        }
      ],
      "name": "supportsInterface",
      "outputs": [
        {
          "internalType": "bool",
          "name": "",
          "type": "bool"
        }
      ],
      "stateMutability": "view",
      "type": "function",
      "constant": true
    },
    {
      "inputs": [
        {
          "internalType": "address",
          "name": "newOwner",
          "type": "address"
        }
      ],
      "name": "transferOwnership",
      "outputs": [],
      "stateMutability": "nonpayable",
      "type": "function"
    },
    {
      "inputs": [
        {
          "internalType": "uint256",
          "name": "",
          "type": "uint256"
        }
      ],
      "name": "uri",
      "outputs": [
        {
          "internalType": "string",
          "name": "",
          "type": "string"
        }
      ],
      "stateMutability": "view",
      "type": "function",
      "constant": true
    },
    {
      "inputs": [
        {
          "internalType": "address",
          "name": "tokenOwner",
          "type": "address"
        },
        {
          "internalType": "address",
          "name": "to",
          "type": "address"
        },
        {
          "internalType": "uint256",
          "name": "tokenId",
          "type": "uint256"
        }
      ],
      "name": "mintSBT",
      "outputs": [],
      "stateMutability": "nonpayable",
      "type": "function"
    },
    {
      "inputs": [
        {
          "internalType": "address",
          "name": "to",
          "type": "address"
        },
        {
          "internalType": "uint256",
          "name": "tokenId",
          "type": "uint256"
        }
      ],
      "name": "burnSBT",
      "outputs": [],
      "stateMutability": "nonpayable",
      "type": "function"
    }
  ],
  "bytecode": "0x60806040523480156200001157600080fd5b5060405162003b3138038062003b318339818101604052810190620000379190620002e7565b8080620000596200004d6200007360201b60201c565b6200007b60201b60201c565b6200006a816200013f60201b60201c565b5050506200066a565b600033905090565b60008060009054906101000a900473ffffffffffffffffffffffffffffffffffffffff169050816000806101000a81548173ffffffffffffffffffffffffffffffffffffffff021916908373ffffffffffffffffffffffffffffffffffffffff1602179055508173ffffffffffffffffffffffffffffffffffffffff168173ffffffffffffffffffffffffffffffffffffffff167f8be0079c531659141344cd1fd0a4f28419497f9722a3daafe3b4186f6b6457e060405160405180910390a35050565b806003908162000150919062000583565b5050565b6000604051905090565b600080fd5b600080fd5b600080fd5b600080fd5b6000601f19601f8301169050919050565b7f4e487b7100000000000000000000000000000000000000000000000000000000600052604160045260246000fd5b620001bd8262000172565b810181811067ffffffffffffffff82111715620001df57620001de62000183565b5b80604052505050565b6000620001f462000154565b9050620002028282620001b2565b919050565b600067ffffffffffffffff82111562000225576200022462000183565b5b620002308262000172565b9050602081019050919050565b60005b838110156200025d57808201518184015260208101905062000240565b60008484015250505050565b6000620002806200027a8462000207565b620001e8565b9050828152602081018484840111156200029f576200029e6200016d565b5b620002ac8482856200023d565b509392505050565b600082601f830112620002cc57620002cb62000168565b5b8151620002de84826020860162000269565b91505092915050565b6000602082840312156200030057620002ff6200015e565b5b600082015167ffffffffffffffff81111562000321576200032062000163565b5b6200032f84828501620002b4565b91505092915050565b600081519050919050565b7f4e487b7100000000000000000000000000000000000000000000000000000000600052602260045260246000fd5b600060028204905060018216806200038b57607f821691505b602082108103620003a157620003a062000343565b5b50919050565b60008190508160005260206000209050919050565b60006020601f8301049050919050565b600082821b905092915050565b6000600883026200040b7fffffffffffffffffffffffffffffffffffffffffffffffffffffffffffffffff82620003cc565b620004178683620003cc565b95508019841693508086168417925050509392505050565b6000819050919050565b6000819050919050565b6000620004646200045e62000458846200042f565b62000439565b6200042f565b9050919050565b6000819050919050565b620004808362000443565b620004986200048f826200046b565b848454620003d9565b825550505050565b600090565b620004af620004a0565b620004bc81848462000475565b505050565b5b81811015620004e457620004d8600082620004a5565b600181019050620004c2565b5050565b601f8211156200053357620004fd81620003a7565b6200050884620003bc565b8101602085101562000518578190505b620005306200052785620003bc565b830182620004c1565b50505b505050565b600082821c905092915050565b6000620005586000198460080262000538565b1980831691505092915050565b600062000573838362000545565b9150826002028217905092915050565b6200058e8262000338565b67ffffffffffffffff811115620005aa57620005a962000183565b5b620005b6825462000372565b620005c3828285620004e8565b600060209050601f831160018114620005fb5760008415620005e6578287015190505b620005f2858262000565565b86555062000662565b601f1984166200060b86620003a7565b60005b8281101562000635578489015182556001820191506020850194506020810190506200060e565b8683101562000655578489015162000651601f89168262000545565b8355505b6001600288020188555050505b505050505050565b6134b7806200067a6000396000f3fe608060405234801561001057600080fd5b50600436106100e95760003560e01c80635760e7a91161008c578063a22cb46511610066578063a22cb46514610246578063e985e9c514610262578063f242432a14610292578063f2fde38b146102ae576100e9565b80635760e7a914610202578063715018a61461021e5780638da5cb5b14610228576100e9565b80630e89341c116100c85780630e89341c1461016a5780632eb2c2d61461019a57806330257e0a146101b65780634e1273f4146101d2576100e9565b8062fdd58e146100ee578063013828071461011e57806301ffc9a71461013a575b600080fd5b61010860048036038101906101039190611c2c565b6102ca565b6040516101159190611c7b565b60405180910390f35b61013860048036038101906101339190611ddc565b610393565b005b610154600480360381019061014f9190611e90565b610524565b6040516101619190611ed8565b60405180910390f35b610184600480360381019061017f9190611ef3565b610606565b6040516101919190611f9f565b60405180910390f35b6101b460048036038101906101af919061212a565b61069a565b005b6101d060048036038101906101cb9190611c2c565b6106a1565b005b6101ec60048036038101906101e791906122bc565b61089c565b6040516101f991906123f2565b60405180910390f35b61021c60048036038101906102179190612414565b6109b5565b005b610226610bf8565b005b610230610c0c565b60405161023d9190612476565b60405180910390f35b610260600480360381019061025b91906124bd565b610c35565b005b61027c600480360381019061027791906124fd565b610c4b565b6040516102899190611ed8565b60405180910390f35b6102ac60048036038101906102a7919061253d565b610cdf565b005b6102c860048036038101906102c391906125d4565b610d5f565b005b60008073ffffffffffffffffffffffffffffffffffffffff168373ffffffffffffffffffffffffffffffffffffffff160361033a576040517f08c379a000000000000000000000000000000000000000000000000000000000815260040161033190612673565b60405180910390fd5b6001600083815260200190815260200160002060008473ffffffffffffffffffffffffffffffffffffffff1673ffffffffffffffffffffffffffffffffffffffff16815260200190815260200160002054905092915050565b61039b610de2565b6103a56004610e60565b60006103b16004610e76565b90506103cf8382600160405180602001604052806000815250610e84565b826006600083815260200190815260200160002060006101000a81548173ffffffffffffffffffffffffffffffffffffffff021916908373ffffffffffffffffffffffffffffffffffffffff16021790555081600760008381526020019081526020016000209081610441919061289f565b5060016005600083815260200190815260200160002060008573ffffffffffffffffffffffffffffffffffffffff1673ffffffffffffffffffffffffffffffffffffffff16815260200190815260200160002060006101000a81548160ff0219169083151502179055507f9f1ec8c880f76798e7b793325d625e9b60e4082a553c98f42b6cda368dd6000883826040516104dc929190612971565b60405180910390a17f115a2f20ba15585d8a0a25070f438874efaf5ea80d77acb3f7a7c8e08d25a1ca8382846040516105179392919061299a565b60405180910390a1505050565b60007fd9b67a26000000000000000000000000000000000000000000000000000000007bffffffffffffffffffffffffffffffffffffffffffffffffffffffff1916827bffffffffffffffffffffffffffffffffffffffffffffffffffffffff191614806105ef57507f0e89341c000000000000000000000000000000000000000000000000000000007bffffffffffffffffffffffffffffffffffffffffffffffffffffffff1916827bffffffffffffffffffffffffffffffffffffffffffffffffffffffff1916145b806105ff57506105fe82611035565b5b9050919050565b606060038054610615906126c2565b80601f0160208091040260200160405190810160405280929190818152602001828054610641906126c2565b801561068e5780601f106106635761010080835404028352916020019161068e565b820191906000526020600020905b81548152906001019060200180831161067157829003601f168201915b50505050509050919050565b5050505050565b6106a9610de2565b8173ffffffffffffffffffffffffffffffffffffffff166006600083815260200190815260200160002060009054906101000a900473ffffffffffffffffffffffffffffffffffffffff1673ffffffffffffffffffffffffffffffffffffffff160361071457600080fd5b6005600082815260200190815260200160002060008373ffffffffffffffffffffffffffffffffffffffff1673ffffffffffffffffffffffffffffffffffffffff16815260200190815260200160002060009054906101000a900460ff166107b1576040517f08c379a00000000000000000000000000000000000000000000000000000000081526004016107a890612a24565b60405180910390fd5b6107bd8282600161109f565b7fcc16f5dbb4873280815c1ee09dbd06736cffcc184412cf7a71a0fdb75d397ca582826040516107ee929190612971565b60405180910390a160006005600083815260200190815260200160002060008473ffffffffffffffffffffffffffffffffffffffff1673ffffffffffffffffffffffffffffffffffffffff16815260200190815260200160002060006101000a81548160ff0219169083151502179055507f0f0bc5b519ddefdd8e5f9e6423433aa2b869738de2ae34d58ebc796fc749fa0d8282604051610890929190612971565b60405180910390a15050565b606081518351146108e2576040517f08c379a00000000000000000000000000000000000000000000000000000000081526004016108d990612ab6565b60405180910390fd5b6000835167ffffffffffffffff8111156108ff576108fe611cb1565b5b60405190808252806020026020018201604052801561092d5781602001602082028036833780820191505090505b50905060005b84518110156109aa5761097a85828151811061095257610951612ad6565b5b602002602001015185838151811061096d5761096c612ad6565b5b60200260200101516102ca565b82828151811061098d5761098c612ad6565b5b602002602001018181525050806109a390612b34565b9050610933565b508091505092915050565b6109bd610de2565b8273ffffffffffffffffffffffffffffffffffffffff166006600083815260200190815260200160002060009054906101000a900473ffffffffffffffffffffffffffffffffffffffff1673ffffffffffffffffffffffffffffffffffffffff1614610a5e576040517f08c379a0000000000000000000000000000000000000000000000000000000008152600401610a5590612bc8565b60405180910390fd5b6005600082815260200190815260200160002060008373ffffffffffffffffffffffffffffffffffffffff1673ffffffffffffffffffffffffffffffffffffffff16815260200190815260200160002060009054906101000a900460ff1615610afc576040517f08c379a0000000000000000000000000000000000000000000000000000000008152600401610af390612c34565b60405180910390fd5b610b1882826001604051806020016040528060008152506110af565b7f0f6798a560793a54c3bcfe86a93cde1e73087d944c0ea20544137d41213968858282604051610b49929190612971565b60405180910390a160016005600083815260200190815260200160002060008473ffffffffffffffffffffffffffffffffffffffff1673ffffffffffffffffffffffffffffffffffffffff16815260200190815260200160002060006101000a81548160ff0219169083151502179055507f9f1ec8c880f76798e7b793325d625e9b60e4082a553c98f42b6cda368dd600088282604051610beb929190612971565b60405180910390a1505050565b610c00610de2565b610c0a60006110c1565b565b60008060009054906101000a900473ffffffffffffffffffffffffffffffffffffffff16905090565b610c47610c40611185565b838361118d565b5050565b6000600260008473ffffffffffffffffffffffffffffffffffffffff1673ffffffffffffffffffffffffffffffffffffffff16815260200190815260200160002060008373ffffffffffffffffffffffffffffffffffffffff1673ffffffffffffffffffffffffffffffffffffffff16815260200190815260200160002060009054906101000a900460ff16905092915050565b84836005600082815260200190815260200160002060008373ffffffffffffffffffffffffffffffffffffffff1673ffffffffffffffffffffffffffffffffffffffff16815260200190815260200160002060009054906101000a900460ff1615610d4957600080fd5b610d5687878787876112f9565b50505050505050565b610d67610de2565b600073ffffffffffffffffffffffffffffffffffffffff168173ffffffffffffffffffffffffffffffffffffffff1603610dd6576040517f08c379a0000000000000000000000000000000000000000000000000000000008152600401610dcd90612cc6565b60405180910390fd5b610ddf816110c1565b50565b610dea611185565b73ffffffffffffffffffffffffffffffffffffffff16610e08610c0c565b73ffffffffffffffffffffffffffffffffffffffff1614610e5e576040517f08c379a0000000000000000000000000000000000000000000000000000000008152600401610e5590612d32565b60405180910390fd5b565b6001816000016000828254019250508190555050565b600081600001549050919050565b600073ffffffffffffffffffffffffffffffffffffffff168473ffffffffffffffffffffffffffffffffffffffff1603610ef3576040517f08c379a0000000000000000000000000000000000000000000000000000000008152600401610eea90612dc4565b60405180910390fd5b6000610efd611185565b90506000610f0a8561139a565b90506000610f178561139a565b9050610f2883600089858589611414565b846001600088815260200190815260200160002060008973ffffffffffffffffffffffffffffffffffffffff1673ffffffffffffffffffffffffffffffffffffffff1681526020019081526020016000206000828254610f889190612de4565b925050819055508673ffffffffffffffffffffffffffffffffffffffff16600073ffffffffffffffffffffffffffffffffffffffff168473ffffffffffffffffffffffffffffffffffffffff167fc3d58168c5ae7397731d063d5bbf3d657854427343f4c083240f7aacaa2d0f628989604051611006929190612e18565b60405180910390a461101d8360008985858961141c565b61102c83600089898989611424565b50505050505050565b60007f01ffc9a7000000000000000000000000000000000000000000000000000000007bffffffffffffffffffffffffffffffffffffffffffffffffffffffff1916827bffffffffffffffffffffffffffffffffffffffffffffffffffffffff1916149050919050565b6110aa8383836115fb565b505050565b6110bb84848484610e84565b50505050565b60008060009054906101000a900473ffffffffffffffffffffffffffffffffffffffff169050816000806101000a81548173ffffffffffffffffffffffffffffffffffffffff021916908373ffffffffffffffffffffffffffffffffffffffff1602179055508173ffffffffffffffffffffffffffffffffffffffff168173ffffffffffffffffffffffffffffffffffffffff167f8be0079c531659141344cd1fd0a4f28419497f9722a3daafe3b4186f6b6457e060405160405180910390a35050565b600033905090565b8173ffffffffffffffffffffffffffffffffffffffff168373ffffffffffffffffffffffffffffffffffffffff16036111fb576040517f08c379a00000000000000000000000000000000000000000000000000000000081526004016111f290612eb3565b60405180910390fd5b80600260008573ffffffffffffffffffffffffffffffffffffffff1673ffffffffffffffffffffffffffffffffffffffff16815260200190815260200160002060008473ffffffffffffffffffffffffffffffffffffffff1673ffffffffffffffffffffffffffffffffffffffff16815260200190815260200160002060006101000a81548160ff0219169083151502179055508173ffffffffffffffffffffffffffffffffffffffff168373ffffffffffffffffffffffffffffffffffffffff167f17307eab39ab6107e8899845ad3d59bd9653f200f220920489ca2b5937696c31836040516112ec9190611ed8565b60405180910390a3505050565b611301611185565b73ffffffffffffffffffffffffffffffffffffffff168573ffffffffffffffffffffffffffffffffffffffff161480611347575061134685611341611185565b610c4b565b5b611386576040517f08c379a000000000000000000000000000000000000000000000000000000000815260040161137d90612f45565b60405180910390fd5b6113938585858585611843565b5050505050565b60606000600167ffffffffffffffff8111156113b9576113b8611cb1565b5b6040519080825280602002602001820160405280156113e75781602001602082028036833780820191505090505b50905082816000815181106113ff576113fe612ad6565b5b60200260200101818152505080915050919050565b505050505050565b505050505050565b6114438473ffffffffffffffffffffffffffffffffffffffff166118c3565b156115f3578373ffffffffffffffffffffffffffffffffffffffff1663f23a6e6187878686866040518663ffffffff1660e01b8152600401611489959493929190612fba565b6020604051808303816000875af19250505080156114c557506040513d601f19601f820116820180604052508101906114c29190613029565b60015b61156a576114d1613063565b806308c379a00361152d57506114e5613085565b806114f0575061152f565b806040517f08c379a00000000000000000000000000000000000000000000000000000000081526004016115249190611f9f565b60405180910390fd5b505b6040517f08c379a000000000000000000000000000000000000000000000000000000000815260040161156190613187565b60405180910390fd5b63f23a6e6160e01b7bffffffffffffffffffffffffffffffffffffffffffffffffffffffff1916817bffffffffffffffffffffffffffffffffffffffffffffffffffffffff1916146115f1576040517f08c379a00000000000000000000000000000000000000000000000000000000081526004016115e890613219565b60405180910390fd5b505b505050505050565b600073ffffffffffffffffffffffffffffffffffffffff168373ffffffffffffffffffffffffffffffffffffffff160361166a576040517f08c379a0000000000000000000000000000000000000000000000000000000008152600401611661906132ab565b60405180910390fd5b6000611674611185565b905060006116818461139a565b9050600061168e8461139a565b90506116ae83876000858560405180602001604052806000815250611414565b60006001600087815260200190815260200160002060008873ffffffffffffffffffffffffffffffffffffffff1673ffffffffffffffffffffffffffffffffffffffff16815260200190815260200160002054905084811015611746576040517f08c379a000000000000000000000000000000000000000000000000000000000815260040161173d9061333d565b60405180910390fd5b8481036001600088815260200190815260200160002060008973ffffffffffffffffffffffffffffffffffffffff1673ffffffffffffffffffffffffffffffffffffffff16815260200190815260200160002081905550600073ffffffffffffffffffffffffffffffffffffffff168773ffffffffffffffffffffffffffffffffffffffff168573ffffffffffffffffffffffffffffffffffffffff167fc3d58168c5ae7397731d063d5bbf3d657854427343f4c083240f7aacaa2d0f628989604051611814929190612e18565b60405180910390a461183a8488600086866040518060200160405280600081525061141c565b50505050505050565b84836005600082815260200190815260200160002060008373ffffffffffffffffffffffffffffffffffffffff1673ffffffffffffffffffffffffffffffffffffffff16815260200190815260200160002060009054906101000a900460ff16156118ad57600080fd5b6118ba87878787876118e6565b50505050505050565b6000808273ffffffffffffffffffffffffffffffffffffffff163b119050919050565b600073ffffffffffffffffffffffffffffffffffffffff168473ffffffffffffffffffffffffffffffffffffffff1603611955576040517f08c379a000000000000000000000000000000000000000000000000000000000815260040161194c906133cf565b60405180910390fd5b600061195f611185565b9050600061196c8561139a565b905060006119798561139a565b9050611989838989858589611414565b60006001600088815260200190815260200160002060008a73ffffffffffffffffffffffffffffffffffffffff1673ffffffffffffffffffffffffffffffffffffffff16815260200190815260200160002054905085811015611a21576040517f08c379a0000000000000000000000000000000000000000000000000000000008152600401611a1890613461565b60405180910390fd5b8581036001600089815260200190815260200160002060008b73ffffffffffffffffffffffffffffffffffffffff1673ffffffffffffffffffffffffffffffffffffffff16815260200190815260200160002081905550856001600089815260200190815260200160002060008a73ffffffffffffffffffffffffffffffffffffffff1673ffffffffffffffffffffffffffffffffffffffff1681526020019081526020016000206000828254611ad89190612de4565b925050819055508773ffffffffffffffffffffffffffffffffffffffff168973ffffffffffffffffffffffffffffffffffffffff168573ffffffffffffffffffffffffffffffffffffffff167fc3d58168c5ae7397731d063d5bbf3d657854427343f4c083240f7aacaa2d0f628a8a604051611b55929190612e18565b60405180910390a4611b6b848a8a86868a61141c565b611b79848a8a8a8a8a611424565b505050505050505050565b6000604051905090565b600080fd5b600080fd5b600073ffffffffffffffffffffffffffffffffffffffff82169050919050565b6000611bc382611b98565b9050919050565b611bd381611bb8565b8114611bde57600080fd5b50565b600081359050611bf081611bca565b92915050565b6000819050919050565b611c0981611bf6565b8114611c1457600080fd5b50565b600081359050611c2681611c00565b92915050565b60008060408385031215611c4357611c42611b8e565b5b6000611c5185828601611be1565b9250506020611c6285828601611c17565b9150509250929050565b611c7581611bf6565b82525050565b6000602082019050611c906000830184611c6c565b92915050565b600080fd5b600080fd5b6000601f19601f8301169050919050565b7f4e487b7100000000000000000000000000000000000000000000000000000000600052604160045260246000fd5b611ce982611ca0565b810181811067ffffffffffffffff82111715611d0857611d07611cb1565b5b80604052505050565b6000611d1b611b84565b9050611d278282611ce0565b919050565b600067ffffffffffffffff821115611d4757611d46611cb1565b5b611d5082611ca0565b9050602081019050919050565b82818337600083830152505050565b6000611d7f611d7a84611d2c565b611d11565b905082815260208101848484011115611d9b57611d9a611c9b565b5b611da6848285611d5d565b509392505050565b600082601f830112611dc357611dc2611c96565b5b8135611dd3848260208601611d6c565b91505092915050565b60008060408385031215611df357611df2611b8e565b5b6000611e0185828601611be1565b925050602083013567ffffffffffffffff811115611e2257611e21611b93565b5b611e2e85828601611dae565b9150509250929050565b60007fffffffff0000000000000000000000000000000000000000000000000000000082169050919050565b611e6d81611e38565b8114611e7857600080fd5b50565b600081359050611e8a81611e64565b92915050565b600060208284031215611ea657611ea5611b8e565b5b6000611eb484828501611e7b565b91505092915050565b60008115159050919050565b611ed281611ebd565b82525050565b6000602082019050611eed6000830184611ec9565b92915050565b600060208284031215611f0957611f08611b8e565b5b6000611f1784828501611c17565b91505092915050565b600081519050919050565b600082825260208201905092915050565b60005b83811015611f5a578082015181840152602081019050611f3f565b60008484015250505050565b6000611f7182611f20565b611f7b8185611f2b565b9350611f8b818560208601611f3c565b611f9481611ca0565b840191505092915050565b60006020820190508181036000830152611fb98184611f66565b905092915050565b600067ffffffffffffffff821115611fdc57611fdb611cb1565b5b602082029050602081019050919050565b600080fd5b600061200561200084611fc1565b611d11565b9050808382526020820190506020840283018581111561202857612027611fed565b5b835b81811015612051578061203d8882611c17565b84526020840193505060208101905061202a565b5050509392505050565b600082601f8301126120705761206f611c96565b5b8135612080848260208601611ff2565b91505092915050565b600067ffffffffffffffff8211156120a4576120a3611cb1565b5b6120ad82611ca0565b9050602081019050919050565b60006120cd6120c884612089565b611d11565b9050828152602081018484840111156120e9576120e8611c9b565b5b6120f4848285611d5d565b509392505050565b600082601f83011261211157612110611c96565b5b81356121218482602086016120ba565b91505092915050565b600080600080600060a0868803121561214657612145611b8e565b5b600061215488828901611be1565b955050602061216588828901611be1565b945050604086013567ffffffffffffffff81111561218657612185611b93565b5b6121928882890161205b565b935050606086013567ffffffffffffffff8111156121b3576121b2611b93565b5b6121bf8882890161205b565b925050608086013567ffffffffffffffff8111156121e0576121df611b93565b5b6121ec888289016120fc565b9150509295509295909350565b600067ffffffffffffffff82111561221457612213611cb1565b5b602082029050602081019050919050565b6000612238612233846121f9565b611d11565b9050808382526020820190506020840283018581111561225b5761225a611fed565b5b835b8181101561228457806122708882611be1565b84526020840193505060208101905061225d565b5050509392505050565b600082601f8301126122a3576122a2611c96565b5b81356122b3848260208601612225565b91505092915050565b600080604083850312156122d3576122d2611b8e565b5b600083013567ffffffffffffffff8111156122f1576122f0611b93565b5b6122fd8582860161228e565b925050602083013567ffffffffffffffff81111561231e5761231d611b93565b5b61232a8582860161205b565b9150509250929050565b600081519050919050565b600082825260208201905092915050565b6000819050602082019050919050565b61236981611bf6565b82525050565b600061237b8383612360565b60208301905092915050565b6000602082019050919050565b600061239f82612334565b6123a9818561233f565b93506123b483612350565b8060005b838110156123e55781516123cc888261236f565b97506123d783612387565b9250506001810190506123b8565b5085935050505092915050565b6000602082019050818103600083015261240c8184612394565b905092915050565b60008060006060848603121561242d5761242c611b8e565b5b600061243b86828701611be1565b935050602061244c86828701611be1565b925050604061245d86828701611c17565b9150509250925092565b61247081611bb8565b82525050565b600060208201905061248b6000830184612467565b92915050565b61249a81611ebd565b81146124a557600080fd5b50565b6000813590506124b781612491565b92915050565b600080604083850312156124d4576124d3611b8e565b5b60006124e285828601611be1565b92505060206124f3858286016124a8565b9150509250929050565b6000806040838503121561251457612513611b8e565b5b600061252285828601611be1565b925050602061253385828601611be1565b9150509250929050565b600080600080600060a0868803121561255957612558611b8e565b5b600061256788828901611be1565b955050602061257888828901611be1565b945050604061258988828901611c17565b935050606061259a88828901611c17565b925050608086013567ffffffffffffffff8111156125bb576125ba611b93565b5b6125c7888289016120fc565b9150509295509295909350565b6000602082840312156125ea576125e9611b8e565b5b60006125f884828501611be1565b91505092915050565b7f455243313135353a2061646472657373207a65726f206973206e6f742061207660008201527f616c6964206f776e657200000000000000000000000000000000000000000000602082015250565b600061265d602a83611f2b565b915061266882612601565b604082019050919050565b6000602082019050818103600083015261268c81612650565b9050919050565b7f4e487b7100000000000000000000000000000000000000000000000000000000600052602260045260246000fd5b600060028204905060018216806126da57607f821691505b6020821081036126ed576126ec612693565b5b50919050565b60008190508160005260206000209050919050565b60006020601f8301049050919050565b600082821b905092915050565b6000600883026127557fffffffffffffffffffffffffffffffffffffffffffffffffffffffffffffffff82612718565b61275f8683612718565b95508019841693508086168417925050509392505050565b6000819050919050565b600061279c61279761279284611bf6565b612777565b611bf6565b9050919050565b6000819050919050565b6127b683612781565b6127ca6127c2826127a3565b848454612725565b825550505050565b600090565b6127df6127d2565b6127ea8184846127ad565b505050565b5b8181101561280e576128036000826127d7565b6001810190506127f0565b5050565b601f82111561285357612824816126f3565b61282d84612708565b8101602085101561283c578190505b61285061284885612708565b8301826127ef565b50505b505050565b600082821c905092915050565b600061287660001984600802612858565b1980831691505092915050565b600061288f8383612865565b9150826002028217905092915050565b6128a882611f20565b67ffffffffffffffff8111156128c1576128c0611cb1565b5b6128cb82546126c2565b6128d6828285612812565b600060209050601f83116001811461290957600084156128f7578287015190505b6129018582612883565b865550612969565b601f198416612917866126f3565b60005b8281101561293f5784890151825560018201915060208501945060208101905061291a565b8683101561295c5784890151612958601f891682612865565b8355505b6001600288020188555050505b505050505050565b60006040820190506129866000830185612467565b6129936020830184611c6c565b9392505050565b60006060820190506129af6000830186612467565b6129bc6020830185611c6c565b81810360408301526129ce8184611f66565b9050949350505050565b7f6e6f742068617320746f6b656e00000000000000000000000000000000000000600082015250565b6000612a0e600d83611f2b565b9150612a19826129d8565b602082019050919050565b60006020820190508181036000830152612a3d81612a01565b9050919050565b7f455243313135353a206163636f756e747320616e6420696473206c656e67746860008201527f206d69736d617463680000000000000000000000000000000000000000000000602082015250565b6000612aa0602983611f2b565b9150612aab82612a44565b604082019050919050565b60006020820190508181036000830152612acf81612a93565b9050919050565b7f4e487b7100000000000000000000000000000000000000000000000000000000600052603260045260246000fd5b7f4e487b7100000000000000000000000000000000000000000000000000000000600052601160045260246000fd5b6000612b3f82611bf6565b91507fffffffffffffffffffffffffffffffffffffffffffffffffffffffffffffffff8203612b7157612b70612b05565b5b600182019050919050565b7f6e6f74204f776e65720000000000000000000000000000000000000000000000600082015250565b6000612bb2600983611f2b565b9150612bbd82612b7c565b602082019050919050565b60006020820190508181036000830152612be181612ba5565b9050919050565b7f616c72656164792068617320746f6b656e000000000000000000000000000000600082015250565b6000612c1e601183611f2b565b9150612c2982612be8565b602082019050919050565b60006020820190508181036000830152612c4d81612c11565b9050919050565b7f4f776e61626c653a206e6577206f776e657220697320746865207a65726f206160008201527f6464726573730000000000000000000000000000000000000000000000000000602082015250565b6000612cb0602683611f2b565b9150612cbb82612c54565b604082019050919050565b60006020820190508181036000830152612cdf81612ca3565b9050919050565b7f4f776e61626c653a2063616c6c6572206973206e6f7420746865206f776e6572600082015250565b6000612d1c602083611f2b565b9150612d2782612ce6565b602082019050919050565b60006020820190508181036000830152612d4b81612d0f565b9050919050565b7f455243313135353a206d696e7420746f20746865207a65726f2061646472657360008201527f7300000000000000000000000000000000000000000000000000000000000000602082015250565b6000612dae602183611f2b565b9150612db982612d52565b604082019050919050565b60006020820190508181036000830152612ddd81612da1565b9050919050565b6000612def82611bf6565b9150612dfa83611bf6565b9250828201905080821115612e1257612e11612b05565b5b92915050565b6000604082019050612e2d6000830185611c6c565b612e3a6020830184611c6c565b9392505050565b7f455243313135353a2073657474696e6720617070726f76616c2073746174757360008201527f20666f722073656c660000000000000000000000000000000000000000000000602082015250565b6000612e9d602983611f2b565b9150612ea882612e41565b604082019050919050565b60006020820190508181036000830152612ecc81612e90565b9050919050565b7f455243313135353a2063616c6c6572206973206e6f7420746f6b656e206f776e60008201527f6572206e6f7220617070726f7665640000000000000000000000000000000000602082015250565b6000612f2f602f83611f2b565b9150612f3a82612ed3565b604082019050919050565b60006020820190508181036000830152612f5e81612f22565b9050919050565b600081519050919050565b600082825260208201905092915050565b6000612f8c82612f65565b612f968185612f70565b9350612fa6818560208601611f3c565b612faf81611ca0565b840191505092915050565b600060a082019050612fcf6000830188612467565b612fdc6020830187612467565b612fe96040830186611c6c565b612ff66060830185611c6c565b81810360808301526130088184612f81565b90509695505050505050565b60008151905061302381611e64565b92915050565b60006020828403121561303f5761303e611b8e565b5b600061304d84828501613014565b91505092915050565b60008160e01c9050919050565b600060033d11156130825760046000803e61307f600051613056565b90505b90565b600060443d1061311257613097611b84565b60043d036004823e80513d602482011167ffffffffffffffff821117156130bf575050613112565b808201805167ffffffffffffffff8111156130dd5750505050613112565b80602083010160043d0385018111156130fa575050505050613112565b61310982602001850186611ce0565b82955050505050505b90565b7f455243313135353a207472616e7366657220746f206e6f6e204552433131353560008201527f526563656976657220696d706c656d656e746572000000000000000000000000602082015250565b6000613171603483611f2b565b915061317c82613115565b604082019050919050565b600060208201905081810360008301526131a081613164565b9050919050565b7f455243313135353a204552433131353552656365697665722072656a6563746560008201527f6420746f6b656e73000000000000000000000000000000000000000000000000602082015250565b6000613203602883611f2b565b915061320e826131a7565b604082019050919050565b60006020820190508181036000830152613232816131f6565b9050919050565b7f455243313135353a206275726e2066726f6d20746865207a65726f206164647260008201527f6573730000000000000000000000000000000000000000000000000000000000602082015250565b6000613295602383611f2b565b91506132a082613239565b604082019050919050565b600060208201905081810360008301526132c481613288565b9050919050565b7f455243313135353a206275726e20616d6f756e7420657863656564732062616c60008201527f616e636500000000000000000000000000000000000000000000000000000000602082015250565b6000613327602483611f2b565b9150613332826132cb565b604082019050919050565b600060208201905081810360008301526133568161331a565b9050919050565b7f455243313135353a207472616e7366657220746f20746865207a65726f20616460008201527f6472657373000000000000000000000000000000000000000000000000000000602082015250565b60006133b9602583611f2b565b91506133c48261335d565b604082019050919050565b600060208201905081810360008301526133e8816133ac565b9050919050565b7f455243313135353a20696e73756666696369656e742062616c616e636520666f60008201527f72207472616e7366657200000000000000000000000000000000000000000000602082015250565b600061344b602a83611f2b565b9150613456826133ef565b604082019050919050565b6000602082019050818103600083015261347a8161343e565b905091905056fea2646970667358221220fd931fad24ec720d8fd2ec70e7690a4aaf5f9e66557b76e3da6245c42ee1be4f64736f6c63430008110033",
  "immutableReferences": {},
  "source": "// SPDX-License-Identifier: Apache-2.0\npragma solidity ^0.8.16;\n\nimport \"./SBTVirtual.sol\";\n\ncontract SBTUser is SBTVirtual {\n\n    constructor(string memory uri) SBTVirtual(uri) {\n\n    }\n\n    event Mint(address to, uint256 tokenId);\n    event Burn(address to, uint256 tokenId);\n\n    function mintSBT(address tokenOwner, address to, uint256 tokenId) external onlyOwner {\n        require(tokenOwnerOf[tokenId] == tokenOwner, \"not Owner\");\n        require(!_locked[tokenId][to], \"already has token\");\n\n        super._mint(to, tokenId, 1, \"\");\n        emit Mint(to, tokenId);\n\n        _locked[tokenId][to] = true;\n        emit Locked(to, tokenId);\n    }\n\n    function burnSBT(address to, uint256 tokenId) external onlyOwner{\n        require(tokenOwnerOf[tokenId] != to);\n        require(_locked[tokenId][to], \"not has token\");\n\n        super._burn(to, tokenId, 1);\n        emit Burn(to, tokenId);\n\n        _locked[tokenId][to] = false;\n        emit Unlocked(to, tokenId);\n    }\n\n}",
  "sourcePath": "/Users/leekunho/Desktop/workspace/MOSTI/MOSTI_Wallet/contracts/SBTUser.sol",
  "compiler": {
    "name": "solc",
    "version": "0.8.17+commit.8df45f5f.Emscripten.clang"
  },
  "schemaVersion": "3.4.10",
  "updatedAt": "2023-04-04T01:48:28.668Z",
  "networkType": "ethereum",
  "devdoc": {
    "kind": "dev",
    "methods": {
      "balanceOf(address,uint256)": {
        "details": "See {IERC1155-balanceOf}. Requirements: - `account` cannot be the zero address."
      },
      "balanceOfBatch(address[],uint256[])": {
        "details": "See {IERC1155-balanceOfBatch}. Requirements: - `accounts` and `ids` must have the same length."
      },
      "isApprovedForAll(address,address)": {
        "details": "See {IERC1155-isApprovedForAll}."
      },
      "owner()": {
        "details": "Returns the address of the current owner."
      },
      "renounceOwnership()": {
        "details": "Leaves the contract without owner. It will not be possible to call `onlyOwner` functions anymore. Can only be called by the current owner. NOTE: Renouncing ownership will leave the contract without an owner, thereby removing any functionality that is only available to the owner."
      },
      "safeBatchTransferFrom(address,address,uint256[],uint256[],bytes)": {
        "details": "See {IERC1155-safeBatchTransferFrom}."
      },
      "safeTransferFrom(address,address,uint256,uint256,bytes)": {
        "details": "See {IERC1155-safeTransferFrom}."
      },
      "setApprovalForAll(address,bool)": {
        "details": "See {IERC1155-setApprovalForAll}."
      },
      "supportsInterface(bytes4)": {
        "details": "See {IERC165-supportsInterface}."
      },
      "transferOwnership(address)": {
        "details": "Transfers ownership of the contract to a new account (`newOwner`). Can only be called by the current owner."
      },
      "uri(uint256)": {
        "details": "See {IERC1155MetadataURI-uri}. This implementation returns the same URI for *all* token types. It relies on the token type ID substitution mechanism https://eips.ethereum.org/EIPS/eip-1155#metadata[defined in the EIP]. Clients calling this function must replace the `\\{id\\}` substring with the actual token type ID."
      }
    },
    "version": 1
  },
  "userdoc": {
    "kind": "user",
    "methods": {},
    "version": 1
  }
}