{
  "contractName": "SBTUser",
  "abi": [
    {
      "inputs": [
        {
          "internalType": "string",
          "name": "uri",
          "type": "string"
        }
      ],
      "stateMutability": "nonpayable",
      "type": "constructor"
    },
    {
      "anonymous": false,
      "inputs": [
        {
          "indexed": true,
          "internalType": "address",
          "name": "account",
          "type": "address"
        },
        {
          "indexed": true,
          "internalType": "address",
          "name": "operator",
          "type": "address"
        },
        {
          "indexed": false,
          "internalType": "bool",
          "name": "approved",
          "type": "bool"
        }
      ],
      "name": "ApprovalForAll",
      "type": "event"
    },
    {
      "anonymous": false,
      "inputs": [
        {
          "indexed": false,
          "internalType": "address",
          "name": "to",
          "type": "address"
        },
        {
          "indexed": false,
          "internalType": "uint256",
          "name": "tokenId",
          "type": "uint256"
        }
      ],
      "name": "Burn",
      "type": "event"
    },
    {
      "anonymous": false,
      "inputs": [
        {
          "indexed": false,
          "internalType": "address",
          "name": "tokenOwner",
          "type": "address"
        },
        {
          "indexed": false,
          "internalType": "uint256",
          "name": "tokenId",
          "type": "uint256"
        },
        {
          "indexed": false,
          "internalType": "string",
          "name": "tokenURI",
          "type": "string"
        }
      ],
      "name": "CreateToken",
      "type": "event"
    },
    {
      "anonymous": false,
      "inputs": [
        {
          "indexed": false,
          "internalType": "address",
          "name": "to",
          "type": "address"
        },
        {
          "indexed": false,
          "internalType": "uint256",
          "name": "tokenId",
          "type": "uint256"
        }
      ],
      "name": "Locked",
      "type": "event"
    },
    {
      "anonymous": false,
      "inputs": [
        {
          "indexed": false,
          "internalType": "address",
          "name": "to",
          "type": "address"
        },
        {
          "indexed": false,
          "internalType": "uint256",
          "name": "tokenId",
          "type": "uint256"
        }
      ],
      "name": "Mint",
      "type": "event"
    },
    {
      "anonymous": false,
      "inputs": [
        {
          "indexed": true,
          "internalType": "address",
          "name": "previousOwner",
          "type": "address"
        },
        {
          "indexed": true,
          "internalType": "address",
          "name": "newOwner",
          "type": "address"
        }
      ],
      "name": "OwnershipTransferred",
      "type": "event"
    },
    {
      "anonymous": false,
      "inputs": [
        {
          "indexed": true,
          "internalType": "address",
          "name": "operator",
          "type": "address"
        },
        {
          "indexed": true,
          "internalType": "address",
          "name": "from",
          "type": "address"
        },
        {
          "indexed": true,
          "internalType": "address",
          "name": "to",
          "type": "address"
        },
        {
          "indexed": false,
          "internalType": "uint256[]",
          "name": "ids",
          "type": "uint256[]"
        },
        {
          "indexed": false,
          "internalType": "uint256[]",
          "name": "values",
          "type": "uint256[]"
        }
      ],
      "name": "TransferBatch",
      "type": "event"
    },
    {
      "anonymous": false,
      "inputs": [
        {
          "indexed": true,
          "internalType": "address",
          "name": "operator",
          "type": "address"
        },
        {
          "indexed": true,
          "internalType": "address",
          "name": "from",
          "type": "address"
        },
        {
          "indexed": true,
          "internalType": "address",
          "name": "to",
          "type": "address"
        },
        {
          "indexed": false,
          "internalType": "uint256",
          "name": "id",
          "type": "uint256"
        },
        {
          "indexed": false,
          "internalType": "uint256",
          "name": "value",
          "type": "uint256"
        }
      ],
      "name": "TransferSingle",
      "type": "event"
    },
    {
      "anonymous": false,
      "inputs": [
        {
          "indexed": false,
          "internalType": "string",
          "name": "value",
          "type": "string"
        },
        {
          "indexed": true,
          "internalType": "uint256",
          "name": "id",
          "type": "uint256"
        }
      ],
      "name": "URI",
      "type": "event"
    },
    {
      "anonymous": false,
      "inputs": [
        {
          "indexed": false,
          "internalType": "address",
          "name": "to",
          "type": "address"
        },
        {
          "indexed": false,
          "internalType": "uint256",
          "name": "tokenId",
          "type": "uint256"
        }
      ],
      "name": "Unlocked",
      "type": "event"
    },
    {
      "inputs": [
        {
          "internalType": "address",
          "name": "account",
          "type": "address"
        },
        {
          "internalType": "uint256",
          "name": "id",
          "type": "uint256"
        }
      ],
      "name": "balanceOf",
      "outputs": [
        {
          "internalType": "uint256",
          "name": "",
          "type": "uint256"
        }
      ],
      "stateMutability": "view",
      "type": "function",
      "constant": true
    },
    {
      "inputs": [
        {
          "internalType": "address[]",
          "name": "accounts",
          "type": "address[]"
        },
        {
          "internalType": "uint256[]",
          "name": "ids",
          "type": "uint256[]"
        }
      ],
      "name": "balanceOfBatch",
      "outputs": [
        {
          "internalType": "uint256[]",
          "name": "",
          "type": "uint256[]"
        }
      ],
      "stateMutability": "view",
      "type": "function",
      "constant": true
    },
    {
      "inputs": [
        {
          "internalType": "address",
          "name": "tokenOwner",
          "type": "address"
        },
        {
          "internalType": "string",
          "name": "tokenURI",
          "type": "string"
        }
      ],
      "name": "createToken",
      "outputs": [],
      "stateMutability": "nonpayable",
      "type": "function"
    },
    {
      "inputs": [
        {
          "internalType": "address",
          "name": "account",
          "type": "address"
        },
        {
          "internalType": "address",
          "name": "operator",
          "type": "address"
        }
      ],
      "name": "isApprovedForAll",
      "outputs": [
        {
          "internalType": "bool",
          "name": "",
          "type": "bool"
        }
      ],
      "stateMutability": "view",
      "type": "function",
      "constant": true
    },
    {
      "inputs": [],
      "name": "owner",
      "outputs": [
        {
          "internalType": "address",
          "name": "",
          "type": "address"
        }
      ],
      "stateMutability": "view",
      "type": "function",
      "constant": true
    },
    {
      "inputs": [
        {
          "internalType": "uint256",
          "name": "tokenId",
          "type": "uint256"
        }
      ],
      "name": "ownerOf",
      "outputs": [
        {
          "internalType": "address",
          "name": "",
          "type": "address"
        }
      ],
      "stateMutability": "view",
      "type": "function",
      "constant": true
    },
    {
      "inputs": [],
      "name": "renounceOwnership",
      "outputs": [],
      "stateMutability": "nonpayable",
      "type": "function"
    },
    {
      "inputs": [
        {
          "internalType": "address",
          "name": "from",
          "type": "address"
        },
        {
          "internalType": "address",
          "name": "to",
          "type": "address"
        },
        {
          "internalType": "uint256[]",
          "name": "ids",
          "type": "uint256[]"
        },
        {
          "internalType": "uint256[]",
          "name": "amounts",
          "type": "uint256[]"
        },
        {
          "internalType": "bytes",
          "name": "data",
          "type": "bytes"
        }
      ],
      "name": "safeBatchTransferFrom",
      "outputs": [],
      "stateMutability": "nonpayable",
      "type": "function"
    },
    {
      "inputs": [
        {
          "internalType": "address",
          "name": "from",
          "type": "address"
        },
        {
          "internalType": "address",
          "name": "to",
          "type": "address"
        },
        {
          "internalType": "uint256",
          "name": "id",
          "type": "uint256"
        },
        {
          "internalType": "uint256",
          "name": "amount",
          "type": "uint256"
        },
        {
          "internalType": "bytes",
          "name": "data",
          "type": "bytes"
        }
      ],
      "name": "safeTransferFrom",
      "outputs": [],
      "stateMutability": "nonpayable",
      "type": "function"
    },
    {
      "inputs": [
        {
          "internalType": "address",
          "name": "operator",
          "type": "address"
        },
        {
          "internalType": "bool",
          "name": "approved",
          "type": "bool"
        }
      ],
      "name": "setApprovalForAll",
      "outputs": [],
      "stateMutability": "nonpayable",
      "type": "function"
    },
    {
      "inputs": [
        {
          "internalType": "bytes4",
          "name": "interfaceId",
          "type": "bytes4"
        }
      ],
      "name": "supportsInterface",
      "outputs": [
        {
          "internalType": "bool",
          "name": "",
          "type": "bool"
        }
      ],
      "stateMutability": "view",
      "type": "function",
      "constant": true
    },
    {
      "inputs": [
        {
          "internalType": "address",
          "name": "newOwner",
          "type": "address"
        }
      ],
      "name": "transferOwnership",
      "outputs": [],
      "stateMutability": "nonpayable",
      "type": "function"
    },
    {
      "inputs": [
        {
          "internalType": "uint256",
          "name": "",
          "type": "uint256"
        }
      ],
      "name": "uri",
      "outputs": [
        {
          "internalType": "string",
          "name": "",
          "type": "string"
        }
      ],
      "stateMutability": "view",
      "type": "function",
      "constant": true
    },
    {
      "inputs": [
        {
          "internalType": "address",
          "name": "to",
          "type": "address"
        },
        {
          "internalType": "uint256",
          "name": "tokenId",
          "type": "uint256"
        }
      ],
      "name": "mintSBT",
      "outputs": [],
      "stateMutability": "nonpayable",
      "type": "function"
    },
    {
      "inputs": [
        {
          "internalType": "address",
          "name": "to",
          "type": "address"
        },
        {
          "internalType": "uint256",
          "name": "tokenId",
          "type": "uint256"
        }
      ],
      "name": "burnSBT",
      "outputs": [],
      "stateMutability": "nonpayable",
      "type": "function"
    }
  ],
  "bytecode": "0x60806040523480156200001157600080fd5b5060405162003a4838038062003a488339818101604052810190620000379190620002e7565b8080620000596200004d6200007360201b60201c565b6200007b60201b60201c565b6200006a816200013f60201b60201c565b5050506200066a565b600033905090565b60008060009054906101000a900473ffffffffffffffffffffffffffffffffffffffff169050816000806101000a81548173ffffffffffffffffffffffffffffffffffffffff021916908373ffffffffffffffffffffffffffffffffffffffff1602179055508173ffffffffffffffffffffffffffffffffffffffff168173ffffffffffffffffffffffffffffffffffffffff167f8be0079c531659141344cd1fd0a4f28419497f9722a3daafe3b4186f6b6457e060405160405180910390a35050565b806003908162000150919062000583565b5050565b6000604051905090565b600080fd5b600080fd5b600080fd5b600080fd5b6000601f19601f8301169050919050565b7f4e487b7100000000000000000000000000000000000000000000000000000000600052604160045260246000fd5b620001bd8262000172565b810181811067ffffffffffffffff82111715620001df57620001de62000183565b5b80604052505050565b6000620001f462000154565b9050620002028282620001b2565b919050565b600067ffffffffffffffff82111562000225576200022462000183565b5b620002308262000172565b9050602081019050919050565b60005b838110156200025d57808201518184015260208101905062000240565b60008484015250505050565b6000620002806200027a8462000207565b620001e8565b9050828152602081018484840111156200029f576200029e6200016d565b5b620002ac8482856200023d565b509392505050565b600082601f830112620002cc57620002cb62000168565b5b8151620002de84826020860162000269565b91505092915050565b6000602082840312156200030057620002ff6200015e565b5b600082015167ffffffffffffffff81111562000321576200032062000163565b5b6200032f84828501620002b4565b91505092915050565b600081519050919050565b7f4e487b7100000000000000000000000000000000000000000000000000000000600052602260045260246000fd5b600060028204905060018216806200038b57607f821691505b602082108103620003a157620003a062000343565b5b50919050565b60008190508160005260206000209050919050565b60006020601f8301049050919050565b600082821b905092915050565b6000600883026200040b7fffffffffffffffffffffffffffffffffffffffffffffffffffffffffffffffff82620003cc565b620004178683620003cc565b95508019841693508086168417925050509392505050565b6000819050919050565b6000819050919050565b6000620004646200045e62000458846200042f565b62000439565b6200042f565b9050919050565b6000819050919050565b620004808362000443565b620004986200048f826200046b565b848454620003d9565b825550505050565b600090565b620004af620004a0565b620004bc81848462000475565b505050565b5b81811015620004e457620004d8600082620004a5565b600181019050620004c2565b5050565b601f8211156200053357620004fd81620003a7565b6200050884620003bc565b8101602085101562000518578190505b620005306200052785620003bc565b830182620004c1565b50505b505050565b600082821c905092915050565b6000620005586000198460080262000538565b1980831691505092915050565b600062000573838362000545565b9150826002028217905092915050565b6200058e8262000338565b67ffffffffffffffff811115620005aa57620005a962000183565b5b620005b6825462000372565b620005c3828285620004e8565b600060209050601f831160018114620005fb5760008415620005e6578287015190505b620005f2858262000565565b86555062000662565b601f1984166200060b86620003a7565b60005b8281101562000635578489015182556001820191506020850194506020810190506200060e565b8683101562000655578489015162000651601f89168262000545565b8355505b6001600288020188555050505b505050505050565b6133ce806200067a6000396000f3fe608060405234801561001057600080fd5b50600436106100f45760003560e01c80636352211e11610097578063b9980b4011610066578063b9980b4014610281578063e985e9c51461029d578063f242432a146102cd578063f2fde38b146102e9576100f4565b80636352211e1461020d578063715018a61461023d5780638da5cb5b14610247578063a22cb46514610265576100f4565b80630e89341c116100d35780630e89341c146101755780632eb2c2d6146101a557806330257e0a146101c15780634e1273f4146101dd576100f4565b8062fdd58e146100f9578063013828071461012957806301ffc9a714610145575b600080fd5b610113600480360381019061010e9190611c02565b610305565b6040516101209190611c51565b60405180910390f35b610143600480360381019061013e9190611db2565b6103ce565b005b61015f600480360381019061015a9190611e66565b61055f565b60405161016c9190611eae565b60405180910390f35b61018f600480360381019061018a9190611ec9565b610641565b60405161019c9190611f75565b60405180910390f35b6101bf60048036038101906101ba9190612100565b6106d5565b005b6101db60048036038101906101d69190611c02565b6106dc565b005b6101f760048036038101906101f29190612292565b6108d7565b60405161020491906123c8565b60405180910390f35b61022760048036038101906102229190611ec9565b6109f0565b60405161023491906123f9565b60405180910390f35b610245610a2d565b005b61024f610a41565b60405161025c91906123f9565b60405180910390f35b61027f600480360381019061027a9190612440565b610a6a565b005b61029b60048036038101906102969190611c02565b610a80565b005b6102b760048036038101906102b29190612480565b610c21565b6040516102c49190611eae565b60405180910390f35b6102e760048036038101906102e291906124c0565b610cb5565b005b61030360048036038101906102fe9190612557565b610d35565b005b60008073ffffffffffffffffffffffffffffffffffffffff168373ffffffffffffffffffffffffffffffffffffffff1603610375576040517f08c379a000000000000000000000000000000000000000000000000000000000815260040161036c906125f6565b60405180910390fd5b6001600083815260200190815260200160002060008473ffffffffffffffffffffffffffffffffffffffff1673ffffffffffffffffffffffffffffffffffffffff16815260200190815260200160002054905092915050565b6103d6610db8565b6103e06004610e36565b60006103ec6004610e4c565b905061040a8382600160405180602001604052806000815250610e5a565b826006600083815260200190815260200160002060006101000a81548173ffffffffffffffffffffffffffffffffffffffff021916908373ffffffffffffffffffffffffffffffffffffffff1602179055508160076000838152602001908152602001600020908161047c9190612822565b5060016005600083815260200190815260200160002060008573ffffffffffffffffffffffffffffffffffffffff1673ffffffffffffffffffffffffffffffffffffffff16815260200190815260200160002060006101000a81548160ff0219169083151502179055507f9f1ec8c880f76798e7b793325d625e9b60e4082a553c98f42b6cda368dd6000883826040516105179291906128f4565b60405180910390a17f115a2f20ba15585d8a0a25070f438874efaf5ea80d77acb3f7a7c8e08d25a1ca8382846040516105529392919061291d565b60405180910390a1505050565b60007fd9b67a26000000000000000000000000000000000000000000000000000000007bffffffffffffffffffffffffffffffffffffffffffffffffffffffff1916827bffffffffffffffffffffffffffffffffffffffffffffffffffffffff1916148061062a57507f0e89341c000000000000000000000000000000000000000000000000000000007bffffffffffffffffffffffffffffffffffffffffffffffffffffffff1916827bffffffffffffffffffffffffffffffffffffffffffffffffffffffff1916145b8061063a57506106398261100b565b5b9050919050565b60606003805461065090612645565b80601f016020809104026020016040519081016040528092919081815260200182805461067c90612645565b80156106c95780601f1061069e576101008083540402835291602001916106c9565b820191906000526020600020905b8154815290600101906020018083116106ac57829003601f168201915b50505050509050919050565b5050505050565b6106e4610db8565b8173ffffffffffffffffffffffffffffffffffffffff166006600083815260200190815260200160002060009054906101000a900473ffffffffffffffffffffffffffffffffffffffff1673ffffffffffffffffffffffffffffffffffffffff160361074f57600080fd5b6005600082815260200190815260200160002060008373ffffffffffffffffffffffffffffffffffffffff1673ffffffffffffffffffffffffffffffffffffffff16815260200190815260200160002060009054906101000a900460ff166107ec576040517f08c379a00000000000000000000000000000000000000000000000000000000081526004016107e3906129a7565b60405180910390fd5b6107f882826001611075565b7fcc16f5dbb4873280815c1ee09dbd06736cffcc184412cf7a71a0fdb75d397ca582826040516108299291906128f4565b60405180910390a160006005600083815260200190815260200160002060008473ffffffffffffffffffffffffffffffffffffffff1673ffffffffffffffffffffffffffffffffffffffff16815260200190815260200160002060006101000a81548160ff0219169083151502179055507f0f0bc5b519ddefdd8e5f9e6423433aa2b869738de2ae34d58ebc796fc749fa0d82826040516108cb9291906128f4565b60405180910390a15050565b6060815183511461091d576040517f08c379a000000000000000000000000000000000000000000000000000000000815260040161091490612a39565b60405180910390fd5b6000835167ffffffffffffffff81111561093a57610939611c87565b5b6040519080825280602002602001820160405280156109685781602001602082028036833780820191505090505b50905060005b84518110156109e5576109b585828151811061098d5761098c612a59565b5b60200260200101518583815181106109a8576109a7612a59565b5b6020026020010151610305565b8282815181106109c8576109c7612a59565b5b602002602001018181525050806109de90612ab7565b905061096e565b508091505092915050565b60006006600083815260200190815260200160002060009054906101000a900473ffffffffffffffffffffffffffffffffffffffff169050919050565b610a35610db8565b610a3f6000611085565b565b60008060009054906101000a900473ffffffffffffffffffffffffffffffffffffffff16905090565b610a7c610a75611149565b8383611151565b5050565b610a88610db8565b6005600082815260200190815260200160002060008373ffffffffffffffffffffffffffffffffffffffff1673ffffffffffffffffffffffffffffffffffffffff16815260200190815260200160002060009054906101000a900460ff1615610b26576040517f08c379a0000000000000000000000000000000000000000000000000000000008152600401610b1d90612b4b565b60405180910390fd5b610b4282826001604051806020016040528060008152506112bd565b7f0f6798a560793a54c3bcfe86a93cde1e73087d944c0ea20544137d41213968858282604051610b739291906128f4565b60405180910390a160016005600083815260200190815260200160002060008473ffffffffffffffffffffffffffffffffffffffff1673ffffffffffffffffffffffffffffffffffffffff16815260200190815260200160002060006101000a81548160ff0219169083151502179055507f9f1ec8c880f76798e7b793325d625e9b60e4082a553c98f42b6cda368dd600088282604051610c159291906128f4565b60405180910390a15050565b6000600260008473ffffffffffffffffffffffffffffffffffffffff1673ffffffffffffffffffffffffffffffffffffffff16815260200190815260200160002060008373ffffffffffffffffffffffffffffffffffffffff1673ffffffffffffffffffffffffffffffffffffffff16815260200190815260200160002060009054906101000a900460ff16905092915050565b84836005600082815260200190815260200160002060008373ffffffffffffffffffffffffffffffffffffffff1673ffffffffffffffffffffffffffffffffffffffff16815260200190815260200160002060009054906101000a900460ff1615610d1f57600080fd5b610d2c87878787876112cf565b50505050505050565b610d3d610db8565b600073ffffffffffffffffffffffffffffffffffffffff168173ffffffffffffffffffffffffffffffffffffffff1603610dac576040517f08c379a0000000000000000000000000000000000000000000000000000000008152600401610da390612bdd565b60405180910390fd5b610db581611085565b50565b610dc0611149565b73ffffffffffffffffffffffffffffffffffffffff16610dde610a41565b73ffffffffffffffffffffffffffffffffffffffff1614610e34576040517f08c379a0000000000000000000000000000000000000000000000000000000008152600401610e2b90612c49565b60405180910390fd5b565b6001816000016000828254019250508190555050565b600081600001549050919050565b600073ffffffffffffffffffffffffffffffffffffffff168473ffffffffffffffffffffffffffffffffffffffff1603610ec9576040517f08c379a0000000000000000000000000000000000000000000000000000000008152600401610ec090612cdb565b60405180910390fd5b6000610ed3611149565b90506000610ee085611370565b90506000610eed85611370565b9050610efe836000898585896113ea565b846001600088815260200190815260200160002060008973ffffffffffffffffffffffffffffffffffffffff1673ffffffffffffffffffffffffffffffffffffffff1681526020019081526020016000206000828254610f5e9190612cfb565b925050819055508673ffffffffffffffffffffffffffffffffffffffff16600073ffffffffffffffffffffffffffffffffffffffff168473ffffffffffffffffffffffffffffffffffffffff167fc3d58168c5ae7397731d063d5bbf3d657854427343f4c083240f7aacaa2d0f628989604051610fdc929190612d2f565b60405180910390a4610ff3836000898585896113f2565b611002836000898989896113fa565b50505050505050565b60007f01ffc9a7000000000000000000000000000000000000000000000000000000007bffffffffffffffffffffffffffffffffffffffffffffffffffffffff1916827bffffffffffffffffffffffffffffffffffffffffffffffffffffffff1916149050919050565b6110808383836115d1565b505050565b60008060009054906101000a900473ffffffffffffffffffffffffffffffffffffffff169050816000806101000a81548173ffffffffffffffffffffffffffffffffffffffff021916908373ffffffffffffffffffffffffffffffffffffffff1602179055508173ffffffffffffffffffffffffffffffffffffffff168173ffffffffffffffffffffffffffffffffffffffff167f8be0079c531659141344cd1fd0a4f28419497f9722a3daafe3b4186f6b6457e060405160405180910390a35050565b600033905090565b8173ffffffffffffffffffffffffffffffffffffffff168373ffffffffffffffffffffffffffffffffffffffff16036111bf576040517f08c379a00000000000000000000000000000000000000000000000000000000081526004016111b690612dca565b60405180910390fd5b80600260008573ffffffffffffffffffffffffffffffffffffffff1673ffffffffffffffffffffffffffffffffffffffff16815260200190815260200160002060008473ffffffffffffffffffffffffffffffffffffffff1673ffffffffffffffffffffffffffffffffffffffff16815260200190815260200160002060006101000a81548160ff0219169083151502179055508173ffffffffffffffffffffffffffffffffffffffff168373ffffffffffffffffffffffffffffffffffffffff167f17307eab39ab6107e8899845ad3d59bd9653f200f220920489ca2b5937696c31836040516112b09190611eae565b60405180910390a3505050565b6112c984848484610e5a565b50505050565b6112d7611149565b73ffffffffffffffffffffffffffffffffffffffff168573ffffffffffffffffffffffffffffffffffffffff16148061131d575061131c85611317611149565b610c21565b5b61135c576040517f08c379a000000000000000000000000000000000000000000000000000000000815260040161135390612e5c565b60405180910390fd5b6113698585858585611819565b5050505050565b60606000600167ffffffffffffffff81111561138f5761138e611c87565b5b6040519080825280602002602001820160405280156113bd5781602001602082028036833780820191505090505b50905082816000815181106113d5576113d4612a59565b5b60200260200101818152505080915050919050565b505050505050565b505050505050565b6114198473ffffffffffffffffffffffffffffffffffffffff16611899565b156115c9578373ffffffffffffffffffffffffffffffffffffffff1663f23a6e6187878686866040518663ffffffff1660e01b815260040161145f959493929190612ed1565b6020604051808303816000875af192505050801561149b57506040513d601f19601f820116820180604052508101906114989190612f40565b60015b611540576114a7612f7a565b806308c379a00361150357506114bb612f9c565b806114c65750611505565b806040517f08c379a00000000000000000000000000000000000000000000000000000000081526004016114fa9190611f75565b60405180910390fd5b505b6040517f08c379a00000000000000000000000000000000000000000000000000000000081526004016115379061309e565b60405180910390fd5b63f23a6e6160e01b7bffffffffffffffffffffffffffffffffffffffffffffffffffffffff1916817bffffffffffffffffffffffffffffffffffffffffffffffffffffffff1916146115c7576040517f08c379a00000000000000000000000000000000000000000000000000000000081526004016115be90613130565b60405180910390fd5b505b505050505050565b600073ffffffffffffffffffffffffffffffffffffffff168373ffffffffffffffffffffffffffffffffffffffff1603611640576040517f08c379a0000000000000000000000000000000000000000000000000000000008152600401611637906131c2565b60405180910390fd5b600061164a611149565b9050600061165784611370565b9050600061166484611370565b9050611684838760008585604051806020016040528060008152506113ea565b60006001600087815260200190815260200160002060008873ffffffffffffffffffffffffffffffffffffffff1673ffffffffffffffffffffffffffffffffffffffff1681526020019081526020016000205490508481101561171c576040517f08c379a000000000000000000000000000000000000000000000000000000000815260040161171390613254565b60405180910390fd5b8481036001600088815260200190815260200160002060008973ffffffffffffffffffffffffffffffffffffffff1673ffffffffffffffffffffffffffffffffffffffff16815260200190815260200160002081905550600073ffffffffffffffffffffffffffffffffffffffff168773ffffffffffffffffffffffffffffffffffffffff168573ffffffffffffffffffffffffffffffffffffffff167fc3d58168c5ae7397731d063d5bbf3d657854427343f4c083240f7aacaa2d0f6289896040516117ea929190612d2f565b60405180910390a4611810848860008686604051806020016040528060008152506113f2565b50505050505050565b84836005600082815260200190815260200160002060008373ffffffffffffffffffffffffffffffffffffffff1673ffffffffffffffffffffffffffffffffffffffff16815260200190815260200160002060009054906101000a900460ff161561188357600080fd5b61189087878787876118bc565b50505050505050565b6000808273ffffffffffffffffffffffffffffffffffffffff163b119050919050565b600073ffffffffffffffffffffffffffffffffffffffff168473ffffffffffffffffffffffffffffffffffffffff160361192b576040517f08c379a0000000000000000000000000000000000000000000000000000000008152600401611922906132e6565b60405180910390fd5b6000611935611149565b9050600061194285611370565b9050600061194f85611370565b905061195f8389898585896113ea565b60006001600088815260200190815260200160002060008a73ffffffffffffffffffffffffffffffffffffffff1673ffffffffffffffffffffffffffffffffffffffff168152602001908152602001600020549050858110156119f7576040517f08c379a00000000000000000000000000000000000000000000000000000000081526004016119ee90613378565b60405180910390fd5b8581036001600089815260200190815260200160002060008b73ffffffffffffffffffffffffffffffffffffffff1673ffffffffffffffffffffffffffffffffffffffff16815260200190815260200160002081905550856001600089815260200190815260200160002060008a73ffffffffffffffffffffffffffffffffffffffff1673ffffffffffffffffffffffffffffffffffffffff1681526020019081526020016000206000828254611aae9190612cfb565b925050819055508773ffffffffffffffffffffffffffffffffffffffff168973ffffffffffffffffffffffffffffffffffffffff168573ffffffffffffffffffffffffffffffffffffffff167fc3d58168c5ae7397731d063d5bbf3d657854427343f4c083240f7aacaa2d0f628a8a604051611b2b929190612d2f565b60405180910390a4611b41848a8a86868a6113f2565b611b4f848a8a8a8a8a6113fa565b505050505050505050565b6000604051905090565b600080fd5b600080fd5b600073ffffffffffffffffffffffffffffffffffffffff82169050919050565b6000611b9982611b6e565b9050919050565b611ba981611b8e565b8114611bb457600080fd5b50565b600081359050611bc681611ba0565b92915050565b6000819050919050565b611bdf81611bcc565b8114611bea57600080fd5b50565b600081359050611bfc81611bd6565b92915050565b60008060408385031215611c1957611c18611b64565b5b6000611c2785828601611bb7565b9250506020611c3885828601611bed565b9150509250929050565b611c4b81611bcc565b82525050565b6000602082019050611c666000830184611c42565b92915050565b600080fd5b600080fd5b6000601f19601f8301169050919050565b7f4e487b7100000000000000000000000000000000000000000000000000000000600052604160045260246000fd5b611cbf82611c76565b810181811067ffffffffffffffff82111715611cde57611cdd611c87565b5b80604052505050565b6000611cf1611b5a565b9050611cfd8282611cb6565b919050565b600067ffffffffffffffff821115611d1d57611d1c611c87565b5b611d2682611c76565b9050602081019050919050565b82818337600083830152505050565b6000611d55611d5084611d02565b611ce7565b905082815260208101848484011115611d7157611d70611c71565b5b611d7c848285611d33565b509392505050565b600082601f830112611d9957611d98611c6c565b5b8135611da9848260208601611d42565b91505092915050565b60008060408385031215611dc957611dc8611b64565b5b6000611dd785828601611bb7565b925050602083013567ffffffffffffffff811115611df857611df7611b69565b5b611e0485828601611d84565b9150509250929050565b60007fffffffff0000000000000000000000000000000000000000000000000000000082169050919050565b611e4381611e0e565b8114611e4e57600080fd5b50565b600081359050611e6081611e3a565b92915050565b600060208284031215611e7c57611e7b611b64565b5b6000611e8a84828501611e51565b91505092915050565b60008115159050919050565b611ea881611e93565b82525050565b6000602082019050611ec36000830184611e9f565b92915050565b600060208284031215611edf57611ede611b64565b5b6000611eed84828501611bed565b91505092915050565b600081519050919050565b600082825260208201905092915050565b60005b83811015611f30578082015181840152602081019050611f15565b60008484015250505050565b6000611f4782611ef6565b611f518185611f01565b9350611f61818560208601611f12565b611f6a81611c76565b840191505092915050565b60006020820190508181036000830152611f8f8184611f3c565b905092915050565b600067ffffffffffffffff821115611fb257611fb1611c87565b5b602082029050602081019050919050565b600080fd5b6000611fdb611fd684611f97565b611ce7565b90508083825260208201905060208402830185811115611ffe57611ffd611fc3565b5b835b8181101561202757806120138882611bed565b845260208401935050602081019050612000565b5050509392505050565b600082601f83011261204657612045611c6c565b5b8135612056848260208601611fc8565b91505092915050565b600067ffffffffffffffff82111561207a57612079611c87565b5b61208382611c76565b9050602081019050919050565b60006120a361209e8461205f565b611ce7565b9050828152602081018484840111156120bf576120be611c71565b5b6120ca848285611d33565b509392505050565b600082601f8301126120e7576120e6611c6c565b5b81356120f7848260208601612090565b91505092915050565b600080600080600060a0868803121561211c5761211b611b64565b5b600061212a88828901611bb7565b955050602061213b88828901611bb7565b945050604086013567ffffffffffffffff81111561215c5761215b611b69565b5b61216888828901612031565b935050606086013567ffffffffffffffff81111561218957612188611b69565b5b61219588828901612031565b925050608086013567ffffffffffffffff8111156121b6576121b5611b69565b5b6121c2888289016120d2565b9150509295509295909350565b600067ffffffffffffffff8211156121ea576121e9611c87565b5b602082029050602081019050919050565b600061220e612209846121cf565b611ce7565b9050808382526020820190506020840283018581111561223157612230611fc3565b5b835b8181101561225a57806122468882611bb7565b845260208401935050602081019050612233565b5050509392505050565b600082601f83011261227957612278611c6c565b5b81356122898482602086016121fb565b91505092915050565b600080604083850312156122a9576122a8611b64565b5b600083013567ffffffffffffffff8111156122c7576122c6611b69565b5b6122d385828601612264565b925050602083013567ffffffffffffffff8111156122f4576122f3611b69565b5b61230085828601612031565b9150509250929050565b600081519050919050565b600082825260208201905092915050565b6000819050602082019050919050565b61233f81611bcc565b82525050565b60006123518383612336565b60208301905092915050565b6000602082019050919050565b60006123758261230a565b61237f8185612315565b935061238a83612326565b8060005b838110156123bb5781516123a28882612345565b97506123ad8361235d565b92505060018101905061238e565b5085935050505092915050565b600060208201905081810360008301526123e2818461236a565b905092915050565b6123f381611b8e565b82525050565b600060208201905061240e60008301846123ea565b92915050565b61241d81611e93565b811461242857600080fd5b50565b60008135905061243a81612414565b92915050565b6000806040838503121561245757612456611b64565b5b600061246585828601611bb7565b92505060206124768582860161242b565b9150509250929050565b6000806040838503121561249757612496611b64565b5b60006124a585828601611bb7565b92505060206124b685828601611bb7565b9150509250929050565b600080600080600060a086880312156124dc576124db611b64565b5b60006124ea88828901611bb7565b95505060206124fb88828901611bb7565b945050604061250c88828901611bed565b935050606061251d88828901611bed565b925050608086013567ffffffffffffffff81111561253e5761253d611b69565b5b61254a888289016120d2565b9150509295509295909350565b60006020828403121561256d5761256c611b64565b5b600061257b84828501611bb7565b91505092915050565b7f455243313135353a2061646472657373207a65726f206973206e6f742061207660008201527f616c6964206f776e657200000000000000000000000000000000000000000000602082015250565b60006125e0602a83611f01565b91506125eb82612584565b604082019050919050565b6000602082019050818103600083015261260f816125d3565b9050919050565b7f4e487b7100000000000000000000000000000000000000000000000000000000600052602260045260246000fd5b6000600282049050600182168061265d57607f821691505b6020821081036126705761266f612616565b5b50919050565b60008190508160005260206000209050919050565b60006020601f8301049050919050565b600082821b905092915050565b6000600883026126d87fffffffffffffffffffffffffffffffffffffffffffffffffffffffffffffffff8261269b565b6126e2868361269b565b95508019841693508086168417925050509392505050565b6000819050919050565b600061271f61271a61271584611bcc565b6126fa565b611bcc565b9050919050565b6000819050919050565b61273983612704565b61274d61274582612726565b8484546126a8565b825550505050565b600090565b612762612755565b61276d818484612730565b505050565b5b818110156127915761278660008261275a565b600181019050612773565b5050565b601f8211156127d6576127a781612676565b6127b08461268b565b810160208510156127bf578190505b6127d36127cb8561268b565b830182612772565b50505b505050565b600082821c905092915050565b60006127f9600019846008026127db565b1980831691505092915050565b600061281283836127e8565b9150826002028217905092915050565b61282b82611ef6565b67ffffffffffffffff81111561284457612843611c87565b5b61284e8254612645565b612859828285612795565b600060209050601f83116001811461288c576000841561287a578287015190505b6128848582612806565b8655506128ec565b601f19841661289a86612676565b60005b828110156128c25784890151825560018201915060208501945060208101905061289d565b868310156128df57848901516128db601f8916826127e8565b8355505b6001600288020188555050505b505050505050565b600060408201905061290960008301856123ea565b6129166020830184611c42565b9392505050565b600060608201905061293260008301866123ea565b61293f6020830185611c42565b81810360408301526129518184611f3c565b9050949350505050565b7f6e6f742068617320746f6b656e00000000000000000000000000000000000000600082015250565b6000612991600d83611f01565b915061299c8261295b565b602082019050919050565b600060208201905081810360008301526129c081612984565b9050919050565b7f455243313135353a206163636f756e747320616e6420696473206c656e67746860008201527f206d69736d617463680000000000000000000000000000000000000000000000602082015250565b6000612a23602983611f01565b9150612a2e826129c7565b604082019050919050565b60006020820190508181036000830152612a5281612a16565b9050919050565b7f4e487b7100000000000000000000000000000000000000000000000000000000600052603260045260246000fd5b7f4e487b7100000000000000000000000000000000000000000000000000000000600052601160045260246000fd5b6000612ac282611bcc565b91507fffffffffffffffffffffffffffffffffffffffffffffffffffffffffffffffff8203612af457612af3612a88565b5b600182019050919050565b7f616c72656164792068617320746f6b656e000000000000000000000000000000600082015250565b6000612b35601183611f01565b9150612b4082612aff565b602082019050919050565b60006020820190508181036000830152612b6481612b28565b9050919050565b7f4f776e61626c653a206e6577206f776e657220697320746865207a65726f206160008201527f6464726573730000000000000000000000000000000000000000000000000000602082015250565b6000612bc7602683611f01565b9150612bd282612b6b565b604082019050919050565b60006020820190508181036000830152612bf681612bba565b9050919050565b7f4f776e61626c653a2063616c6c6572206973206e6f7420746865206f776e6572600082015250565b6000612c33602083611f01565b9150612c3e82612bfd565b602082019050919050565b60006020820190508181036000830152612c6281612c26565b9050919050565b7f455243313135353a206d696e7420746f20746865207a65726f2061646472657360008201527f7300000000000000000000000000000000000000000000000000000000000000602082015250565b6000612cc5602183611f01565b9150612cd082612c69565b604082019050919050565b60006020820190508181036000830152612cf481612cb8565b9050919050565b6000612d0682611bcc565b9150612d1183611bcc565b9250828201905080821115612d2957612d28612a88565b5b92915050565b6000604082019050612d446000830185611c42565b612d516020830184611c42565b9392505050565b7f455243313135353a2073657474696e6720617070726f76616c2073746174757360008201527f20666f722073656c660000000000000000000000000000000000000000000000602082015250565b6000612db4602983611f01565b9150612dbf82612d58565b604082019050919050565b60006020820190508181036000830152612de381612da7565b9050919050565b7f455243313135353a2063616c6c6572206973206e6f7420746f6b656e206f776e60008201527f6572206e6f7220617070726f7665640000000000000000000000000000000000602082015250565b6000612e46602f83611f01565b9150612e5182612dea565b604082019050919050565b60006020820190508181036000830152612e7581612e39565b9050919050565b600081519050919050565b600082825260208201905092915050565b6000612ea382612e7c565b612ead8185612e87565b9350612ebd818560208601611f12565b612ec681611c76565b840191505092915050565b600060a082019050612ee660008301886123ea565b612ef360208301876123ea565b612f006040830186611c42565b612f0d6060830185611c42565b8181036080830152612f1f8184612e98565b90509695505050505050565b600081519050612f3a81611e3a565b92915050565b600060208284031215612f5657612f55611b64565b5b6000612f6484828501612f2b565b91505092915050565b60008160e01c9050919050565b600060033d1115612f995760046000803e612f96600051612f6d565b90505b90565b600060443d1061302957612fae611b5a565b60043d036004823e80513d602482011167ffffffffffffffff82111715612fd6575050613029565b808201805167ffffffffffffffff811115612ff45750505050613029565b80602083010160043d038501811115613011575050505050613029565b61302082602001850186611cb6565b82955050505050505b90565b7f455243313135353a207472616e7366657220746f206e6f6e204552433131353560008201527f526563656976657220696d706c656d656e746572000000000000000000000000602082015250565b6000613088603483611f01565b91506130938261302c565b604082019050919050565b600060208201905081810360008301526130b78161307b565b9050919050565b7f455243313135353a204552433131353552656365697665722072656a6563746560008201527f6420746f6b656e73000000000000000000000000000000000000000000000000602082015250565b600061311a602883611f01565b9150613125826130be565b604082019050919050565b600060208201905081810360008301526131498161310d565b9050919050565b7f455243313135353a206275726e2066726f6d20746865207a65726f206164647260008201527f6573730000000000000000000000000000000000000000000000000000000000602082015250565b60006131ac602383611f01565b91506131b782613150565b604082019050919050565b600060208201905081810360008301526131db8161319f565b9050919050565b7f455243313135353a206275726e20616d6f756e7420657863656564732062616c60008201527f616e636500000000000000000000000000000000000000000000000000000000602082015250565b600061323e602483611f01565b9150613249826131e2565b604082019050919050565b6000602082019050818103600083015261326d81613231565b9050919050565b7f455243313135353a207472616e7366657220746f20746865207a65726f20616460008201527f6472657373000000000000000000000000000000000000000000000000000000602082015250565b60006132d0602583611f01565b91506132db82613274565b604082019050919050565b600060208201905081810360008301526132ff816132c3565b9050919050565b7f455243313135353a20696e73756666696369656e742062616c616e636520666f60008201527f72207472616e7366657200000000000000000000000000000000000000000000602082015250565b6000613362602a83611f01565b915061336d82613306565b604082019050919050565b6000602082019050818103600083015261339181613355565b905091905056fea26469706673582212205c6853d837826c7cd5ff8ac207c07829d0dbaa9080d737df07cdc26ce5db266c64736f6c63430008110033",
  "immutableReferences": {},
  "source": "// SPDX-License-Identifier: Apache-2.0\npragma solidity ^0.8.16;\n\nimport \"./SBTVirtual.sol\";\n\ncontract SBTUser is SBTVirtual {\n\n    constructor(string memory uri) SBTVirtual(uri) {\n\n    }\n\n    event Mint(address to, uint256 tokenId);\n    event Burn(address to, uint256 tokenId);\n\n    function mintSBT(address to, uint256 tokenId) external onlyOwner {\n        require(!_locked[tokenId][to], \"already has token\");\n\n        super._mint(to, tokenId, 1, \"\");\n        emit Mint(to, tokenId);\n\n        _locked[tokenId][to] = true;\n        emit Locked(to, tokenId);\n    }\n\n    function burnSBT(address to, uint256 tokenId) external onlyOwner{\n        require(tokenOwnerOf[tokenId] != to);\n        require(_locked[tokenId][to], \"not has token\");\n\n        super._burn(to, tokenId, 1);\n        emit Burn(to, tokenId);\n\n        _locked[tokenId][to] = false;\n        emit Unlocked(to, tokenId);\n    }\n\n}",
  "sourcePath": "/Users/leekunho/Desktop/workspace/MOSTI/MOSTI_Wallet/contracts/SBTUser.sol",
  "compiler": {
    "name": "solc",
    "version": "0.8.17+commit.8df45f5f.Emscripten.clang"
  },
  "schemaVersion": "3.4.10",
  "updatedAt": "2023-09-24T13:15:41.372Z",
  "networkType": "ethereum",
  "devdoc": {
    "kind": "dev",
    "methods": {
      "balanceOf(address,uint256)": {
        "details": "See {IERC1155-balanceOf}. Requirements: - `account` cannot be the zero address."
      },
      "balanceOfBatch(address[],uint256[])": {
        "details": "See {IERC1155-balanceOfBatch}. Requirements: - `accounts` and `ids` must have the same length."
      },
      "isApprovedForAll(address,address)": {
        "details": "See {IERC1155-isApprovedForAll}."
      },
      "owner()": {
        "details": "Returns the address of the current owner."
      },
      "renounceOwnership()": {
        "details": "Leaves the contract without owner. It will not be possible to call `onlyOwner` functions anymore. Can only be called by the current owner. NOTE: Renouncing ownership will leave the contract without an owner, thereby removing any functionality that is only available to the owner."
      },
      "safeBatchTransferFrom(address,address,uint256[],uint256[],bytes)": {
        "details": "See {IERC1155-safeBatchTransferFrom}."
      },
      "safeTransferFrom(address,address,uint256,uint256,bytes)": {
        "details": "See {IERC1155-safeTransferFrom}."
      },
      "setApprovalForAll(address,bool)": {
        "details": "See {IERC1155-setApprovalForAll}."
      },
      "supportsInterface(bytes4)": {
        "details": "See {IERC165-supportsInterface}."
      },
      "transferOwnership(address)": {
        "details": "Transfers ownership of the contract to a new account (`newOwner`). Can only be called by the current owner."
      },
      "uri(uint256)": {
        "details": "See {IERC1155MetadataURI-uri}. This implementation returns the same URI for *all* token types. It relies on the token type ID substitution mechanism https://eips.ethereum.org/EIPS/eip-1155#metadata[defined in the EIP]. Clients calling this function must replace the `\\{id\\}` substring with the actual token type ID."
      }
    },
    "version": 1
  },
  "userdoc": {
    "kind": "user",
    "methods": {},
    "version": 1
  }
}