{
  "contractName": "SBTVirtual",
  "abi": [
    {
      "inputs": [
        {
          "internalType": "string",
          "name": "uri",
          "type": "string"
        }
      ],
      "stateMutability": "nonpayable",
      "type": "constructor"
    },
    {
      "anonymous": false,
      "inputs": [
        {
          "indexed": true,
          "internalType": "address",
          "name": "account",
          "type": "address"
        },
        {
          "indexed": true,
          "internalType": "address",
          "name": "operator",
          "type": "address"
        },
        {
          "indexed": false,
          "internalType": "bool",
          "name": "approved",
          "type": "bool"
        }
      ],
      "name": "ApprovalForAll",
      "type": "event"
    },
    {
      "anonymous": false,
      "inputs": [
        {
          "indexed": false,
          "internalType": "address",
          "name": "tokenOwner",
          "type": "address"
        },
        {
          "indexed": false,
          "internalType": "uint256",
          "name": "tokenId",
          "type": "uint256"
        },
        {
          "indexed": false,
          "internalType": "string",
          "name": "tokenURI",
          "type": "string"
        }
      ],
      "name": "CreateToken",
      "type": "event"
    },
    {
      "anonymous": false,
      "inputs": [
        {
          "indexed": false,
          "internalType": "address",
          "name": "to",
          "type": "address"
        },
        {
          "indexed": false,
          "internalType": "uint256",
          "name": "tokenId",
          "type": "uint256"
        }
      ],
      "name": "Locked",
      "type": "event"
    },
    {
      "anonymous": false,
      "inputs": [
        {
          "indexed": true,
          "internalType": "address",
          "name": "previousOwner",
          "type": "address"
        },
        {
          "indexed": true,
          "internalType": "address",
          "name": "newOwner",
          "type": "address"
        }
      ],
      "name": "OwnershipTransferred",
      "type": "event"
    },
    {
      "anonymous": false,
      "inputs": [
        {
          "indexed": true,
          "internalType": "address",
          "name": "operator",
          "type": "address"
        },
        {
          "indexed": true,
          "internalType": "address",
          "name": "from",
          "type": "address"
        },
        {
          "indexed": true,
          "internalType": "address",
          "name": "to",
          "type": "address"
        },
        {
          "indexed": false,
          "internalType": "uint256[]",
          "name": "ids",
          "type": "uint256[]"
        },
        {
          "indexed": false,
          "internalType": "uint256[]",
          "name": "values",
          "type": "uint256[]"
        }
      ],
      "name": "TransferBatch",
      "type": "event"
    },
    {
      "anonymous": false,
      "inputs": [
        {
          "indexed": true,
          "internalType": "address",
          "name": "operator",
          "type": "address"
        },
        {
          "indexed": true,
          "internalType": "address",
          "name": "from",
          "type": "address"
        },
        {
          "indexed": true,
          "internalType": "address",
          "name": "to",
          "type": "address"
        },
        {
          "indexed": false,
          "internalType": "uint256",
          "name": "id",
          "type": "uint256"
        },
        {
          "indexed": false,
          "internalType": "uint256",
          "name": "value",
          "type": "uint256"
        }
      ],
      "name": "TransferSingle",
      "type": "event"
    },
    {
      "anonymous": false,
      "inputs": [
        {
          "indexed": false,
          "internalType": "string",
          "name": "value",
          "type": "string"
        },
        {
          "indexed": true,
          "internalType": "uint256",
          "name": "id",
          "type": "uint256"
        }
      ],
      "name": "URI",
      "type": "event"
    },
    {
      "anonymous": false,
      "inputs": [
        {
          "indexed": false,
          "internalType": "address",
          "name": "to",
          "type": "address"
        },
        {
          "indexed": false,
          "internalType": "uint256",
          "name": "tokenId",
          "type": "uint256"
        }
      ],
      "name": "Unlocked",
      "type": "event"
    },
    {
      "inputs": [
        {
          "internalType": "address",
          "name": "account",
          "type": "address"
        },
        {
          "internalType": "uint256",
          "name": "id",
          "type": "uint256"
        }
      ],
      "name": "balanceOf",
      "outputs": [
        {
          "internalType": "uint256",
          "name": "",
          "type": "uint256"
        }
      ],
      "stateMutability": "view",
      "type": "function"
    },
    {
      "inputs": [
        {
          "internalType": "address[]",
          "name": "accounts",
          "type": "address[]"
        },
        {
          "internalType": "uint256[]",
          "name": "ids",
          "type": "uint256[]"
        }
      ],
      "name": "balanceOfBatch",
      "outputs": [
        {
          "internalType": "uint256[]",
          "name": "",
          "type": "uint256[]"
        }
      ],
      "stateMutability": "view",
      "type": "function"
    },
    {
      "inputs": [
        {
          "internalType": "address",
          "name": "account",
          "type": "address"
        },
        {
          "internalType": "address",
          "name": "operator",
          "type": "address"
        }
      ],
      "name": "isApprovedForAll",
      "outputs": [
        {
          "internalType": "bool",
          "name": "",
          "type": "bool"
        }
      ],
      "stateMutability": "view",
      "type": "function"
    },
    {
      "inputs": [],
      "name": "owner",
      "outputs": [
        {
          "internalType": "address",
          "name": "",
          "type": "address"
        }
      ],
      "stateMutability": "view",
      "type": "function"
    },
    {
      "inputs": [],
      "name": "renounceOwnership",
      "outputs": [],
      "stateMutability": "nonpayable",
      "type": "function"
    },
    {
      "inputs": [
        {
          "internalType": "address",
          "name": "operator",
          "type": "address"
        },
        {
          "internalType": "bool",
          "name": "approved",
          "type": "bool"
        }
      ],
      "name": "setApprovalForAll",
      "outputs": [],
      "stateMutability": "nonpayable",
      "type": "function"
    },
    {
      "inputs": [
        {
          "internalType": "bytes4",
          "name": "interfaceId",
          "type": "bytes4"
        }
      ],
      "name": "supportsInterface",
      "outputs": [
        {
          "internalType": "bool",
          "name": "",
          "type": "bool"
        }
      ],
      "stateMutability": "view",
      "type": "function"
    },
    {
      "inputs": [
        {
          "internalType": "address",
          "name": "newOwner",
          "type": "address"
        }
      ],
      "name": "transferOwnership",
      "outputs": [],
      "stateMutability": "nonpayable",
      "type": "function"
    },
    {
      "inputs": [
        {
          "internalType": "uint256",
          "name": "",
          "type": "uint256"
        }
      ],
      "name": "uri",
      "outputs": [
        {
          "internalType": "string",
          "name": "",
          "type": "string"
        }
      ],
      "stateMutability": "view",
      "type": "function"
    },
    {
      "inputs": [
        {
          "internalType": "address",
          "name": "tokenOwner",
          "type": "address"
        },
        {
          "internalType": "string",
          "name": "tokenURI",
          "type": "string"
        }
      ],
      "name": "createToken",
      "outputs": [],
      "stateMutability": "nonpayable",
      "type": "function"
    },
    {
      "inputs": [
        {
          "internalType": "address",
          "name": "from",
          "type": "address"
        },
        {
          "internalType": "address",
          "name": "to",
          "type": "address"
        },
        {
          "internalType": "uint256",
          "name": "id",
          "type": "uint256"
        },
        {
          "internalType": "uint256",
          "name": "amount",
          "type": "uint256"
        },
        {
          "internalType": "bytes",
          "name": "data",
          "type": "bytes"
        }
      ],
      "name": "safeTransferFrom",
      "outputs": [],
      "stateMutability": "nonpayable",
      "type": "function"
    },
    {
      "inputs": [
        {
          "internalType": "address",
          "name": "from",
          "type": "address"
        },
        {
          "internalType": "address",
          "name": "to",
          "type": "address"
        },
        {
          "internalType": "uint256[]",
          "name": "ids",
          "type": "uint256[]"
        },
        {
          "internalType": "uint256[]",
          "name": "amounts",
          "type": "uint256[]"
        },
        {
          "internalType": "bytes",
          "name": "data",
          "type": "bytes"
        }
      ],
      "name": "safeBatchTransferFrom",
      "outputs": [],
      "stateMutability": "nonpayable",
      "type": "function"
    }
  ],
  "bytecode": "0x60806040523480156200001157600080fd5b506040516200315e3803806200315e8339818101604052810190620000379190620002e5565b80620000586200004c6200007160201b60201c565b6200007960201b60201c565b62000069816200013d60201b60201c565b505062000668565b600033905090565b60008060009054906101000a900473ffffffffffffffffffffffffffffffffffffffff169050816000806101000a81548173ffffffffffffffffffffffffffffffffffffffff021916908373ffffffffffffffffffffffffffffffffffffffff1602179055508173ffffffffffffffffffffffffffffffffffffffff168173ffffffffffffffffffffffffffffffffffffffff167f8be0079c531659141344cd1fd0a4f28419497f9722a3daafe3b4186f6b6457e060405160405180910390a35050565b80600390816200014e919062000581565b5050565b6000604051905090565b600080fd5b600080fd5b600080fd5b600080fd5b6000601f19601f8301169050919050565b7f4e487b7100000000000000000000000000000000000000000000000000000000600052604160045260246000fd5b620001bb8262000170565b810181811067ffffffffffffffff82111715620001dd57620001dc62000181565b5b80604052505050565b6000620001f262000152565b9050620002008282620001b0565b919050565b600067ffffffffffffffff82111562000223576200022262000181565b5b6200022e8262000170565b9050602081019050919050565b60005b838110156200025b5780820151818401526020810190506200023e565b60008484015250505050565b60006200027e620002788462000205565b620001e6565b9050828152602081018484840111156200029d576200029c6200016b565b5b620002aa8482856200023b565b509392505050565b600082601f830112620002ca57620002c962000166565b5b8151620002dc84826020860162000267565b91505092915050565b600060208284031215620002fe57620002fd6200015c565b5b600082015167ffffffffffffffff8111156200031f576200031e62000161565b5b6200032d84828501620002b2565b91505092915050565b600081519050919050565b7f4e487b7100000000000000000000000000000000000000000000000000000000600052602260045260246000fd5b600060028204905060018216806200038957607f821691505b6020821081036200039f576200039e62000341565b5b50919050565b60008190508160005260206000209050919050565b60006020601f8301049050919050565b600082821b905092915050565b600060088302620004097fffffffffffffffffffffffffffffffffffffffffffffffffffffffffffffffff82620003ca565b620004158683620003ca565b95508019841693508086168417925050509392505050565b6000819050919050565b6000819050919050565b6000620004626200045c62000456846200042d565b62000437565b6200042d565b9050919050565b6000819050919050565b6200047e8362000441565b620004966200048d8262000469565b848454620003d7565b825550505050565b600090565b620004ad6200049e565b620004ba81848462000473565b505050565b5b81811015620004e257620004d6600082620004a3565b600181019050620004c0565b5050565b601f8211156200053157620004fb81620003a5565b6200050684620003ba565b8101602085101562000516578190505b6200052e6200052585620003ba565b830182620004bf565b50505b505050565b600082821c905092915050565b6000620005566000198460080262000536565b1980831691505092915050565b600062000571838362000543565b9150826002028217905092915050565b6200058c8262000336565b67ffffffffffffffff811115620005a857620005a762000181565b5b620005b4825462000370565b620005c1828285620004e6565b600060209050601f831160018114620005f95760008415620005e4578287015190505b620005f0858262000563565b86555062000660565b601f1984166200060986620003a5565b60005b8281101562000633578489015182556001820191506020850194506020810190506200060c565b868310156200065357848901516200064f601f89168262000543565b8355505b6001600288020188555050505b505050505050565b612ae680620006786000396000f3fe608060405234801561001057600080fd5b50600436106100b35760003560e01c8063715018a611610071578063715018a6146101b05780638da5cb5b146101ba578063a22cb465146101d8578063e985e9c5146101f4578063f242432a14610224578063f2fde38b14610240576100b3565b8062fdd58e146100b857806301382807146100e857806301ffc9a7146101045780630e89341c146101345780632eb2c2d6146101645780634e1273f414610180575b600080fd5b6100d260048036038101906100cd9190611516565b61025c565b6040516100df9190611565565b60405180910390f35b61010260048036038101906100fd91906116c6565b610325565b005b61011e6004803603810190610119919061177a565b6104b6565b60405161012b91906117c2565b60405180910390f35b61014e600480360381019061014991906117dd565b610598565b60405161015b9190611889565b60405180910390f35b61017e60048036038101906101799190611a14565b61062c565b005b61019a60048036038101906101959190611ba6565b610633565b6040516101a79190611cdc565b60405180910390f35b6101b861074c565b005b6101c2610760565b6040516101cf9190611d0d565b60405180910390f35b6101f260048036038101906101ed9190611d54565b610789565b005b61020e60048036038101906102099190611d94565b61079f565b60405161021b91906117c2565b60405180910390f35b61023e60048036038101906102399190611dd4565b610833565b005b61025a60048036038101906102559190611e6b565b6108b3565b005b60008073ffffffffffffffffffffffffffffffffffffffff168373ffffffffffffffffffffffffffffffffffffffff16036102cc576040517f08c379a00000000000000000000000000000000000000000000000000000000081526004016102c390611f0a565b60405180910390fd5b6001600083815260200190815260200160002060008473ffffffffffffffffffffffffffffffffffffffff1673ffffffffffffffffffffffffffffffffffffffff16815260200190815260200160002054905092915050565b61032d610936565b61033760046109b4565b600061034360046109ca565b905061036183826001604051806020016040528060008152506109d8565b826006600083815260200190815260200160002060006101000a81548173ffffffffffffffffffffffffffffffffffffffff021916908373ffffffffffffffffffffffffffffffffffffffff160217905550816007600083815260200190815260200160002090816103d39190612136565b5060016005600083815260200190815260200160002060008573ffffffffffffffffffffffffffffffffffffffff1673ffffffffffffffffffffffffffffffffffffffff16815260200190815260200160002060006101000a81548160ff0219169083151502179055507f9f1ec8c880f76798e7b793325d625e9b60e4082a553c98f42b6cda368dd60008838260405161046e929190612208565b60405180910390a17f115a2f20ba15585d8a0a25070f438874efaf5ea80d77acb3f7a7c8e08d25a1ca8382846040516104a993929190612231565b60405180910390a1505050565b60007fd9b67a26000000000000000000000000000000000000000000000000000000007bffffffffffffffffffffffffffffffffffffffffffffffffffffffff1916827bffffffffffffffffffffffffffffffffffffffffffffffffffffffff1916148061058157507f0e89341c000000000000000000000000000000000000000000000000000000007bffffffffffffffffffffffffffffffffffffffffffffffffffffffff1916827bffffffffffffffffffffffffffffffffffffffffffffffffffffffff1916145b80610591575061059082610b89565b5b9050919050565b6060600380546105a790611f59565b80601f01602080910402602001604051908101604052809291908181526020018280546105d390611f59565b80156106205780601f106105f557610100808354040283529160200191610620565b820191906000526020600020905b81548152906001019060200180831161060357829003601f168201915b50505050509050919050565b5050505050565b60608151835114610679576040517f08c379a0000000000000000000000000000000000000000000000000000000008152600401610670906122e1565b60405180910390fd5b6000835167ffffffffffffffff8111156106965761069561159b565b5b6040519080825280602002602001820160405280156106c45781602001602082028036833780820191505090505b50905060005b8451811015610741576107118582815181106106e9576106e8612301565b5b602002602001015185838151811061070457610703612301565b5b602002602001015161025c565b82828151811061072457610723612301565b5b6020026020010181815250508061073a9061235f565b90506106ca565b508091505092915050565b610754610936565b61075e6000610bf3565b565b60008060009054906101000a900473ffffffffffffffffffffffffffffffffffffffff16905090565b61079b610794610cb7565b8383610cbf565b5050565b6000600260008473ffffffffffffffffffffffffffffffffffffffff1673ffffffffffffffffffffffffffffffffffffffff16815260200190815260200160002060008373ffffffffffffffffffffffffffffffffffffffff1673ffffffffffffffffffffffffffffffffffffffff16815260200190815260200160002060009054906101000a900460ff16905092915050565b84836005600082815260200190815260200160002060008373ffffffffffffffffffffffffffffffffffffffff1673ffffffffffffffffffffffffffffffffffffffff16815260200190815260200160002060009054906101000a900460ff161561089d57600080fd5b6108aa8787878787610e2b565b50505050505050565b6108bb610936565b600073ffffffffffffffffffffffffffffffffffffffff168173ffffffffffffffffffffffffffffffffffffffff160361092a576040517f08c379a000000000000000000000000000000000000000000000000000000000815260040161092190612419565b60405180910390fd5b61093381610bf3565b50565b61093e610cb7565b73ffffffffffffffffffffffffffffffffffffffff1661095c610760565b73ffffffffffffffffffffffffffffffffffffffff16146109b2576040517f08c379a00000000000000000000000000000000000000000000000000000000081526004016109a990612485565b60405180910390fd5b565b6001816000016000828254019250508190555050565b600081600001549050919050565b600073ffffffffffffffffffffffffffffffffffffffff168473ffffffffffffffffffffffffffffffffffffffff1603610a47576040517f08c379a0000000000000000000000000000000000000000000000000000000008152600401610a3e90612517565b60405180910390fd5b6000610a51610cb7565b90506000610a5e85610ecc565b90506000610a6b85610ecc565b9050610a7c83600089858589610f46565b846001600088815260200190815260200160002060008973ffffffffffffffffffffffffffffffffffffffff1673ffffffffffffffffffffffffffffffffffffffff1681526020019081526020016000206000828254610adc9190612537565b925050819055508673ffffffffffffffffffffffffffffffffffffffff16600073ffffffffffffffffffffffffffffffffffffffff168473ffffffffffffffffffffffffffffffffffffffff167fc3d58168c5ae7397731d063d5bbf3d657854427343f4c083240f7aacaa2d0f628989604051610b5a92919061256b565b60405180910390a4610b7183600089858589610f4e565b610b8083600089898989610f56565b50505050505050565b60007f01ffc9a7000000000000000000000000000000000000000000000000000000007bffffffffffffffffffffffffffffffffffffffffffffffffffffffff1916827bffffffffffffffffffffffffffffffffffffffffffffffffffffffff1916149050919050565b60008060009054906101000a900473ffffffffffffffffffffffffffffffffffffffff169050816000806101000a81548173ffffffffffffffffffffffffffffffffffffffff021916908373ffffffffffffffffffffffffffffffffffffffff1602179055508173ffffffffffffffffffffffffffffffffffffffff168173ffffffffffffffffffffffffffffffffffffffff167f8be0079c531659141344cd1fd0a4f28419497f9722a3daafe3b4186f6b6457e060405160405180910390a35050565b600033905090565b8173ffffffffffffffffffffffffffffffffffffffff168373ffffffffffffffffffffffffffffffffffffffff1603610d2d576040517f08c379a0000000000000000000000000000000000000000000000000000000008152600401610d2490612606565b60405180910390fd5b80600260008573ffffffffffffffffffffffffffffffffffffffff1673ffffffffffffffffffffffffffffffffffffffff16815260200190815260200160002060008473ffffffffffffffffffffffffffffffffffffffff1673ffffffffffffffffffffffffffffffffffffffff16815260200190815260200160002060006101000a81548160ff0219169083151502179055508173ffffffffffffffffffffffffffffffffffffffff168373ffffffffffffffffffffffffffffffffffffffff167f17307eab39ab6107e8899845ad3d59bd9653f200f220920489ca2b5937696c3183604051610e1e91906117c2565b60405180910390a3505050565b610e33610cb7565b73ffffffffffffffffffffffffffffffffffffffff168573ffffffffffffffffffffffffffffffffffffffff161480610e795750610e7885610e73610cb7565b61079f565b5b610eb8576040517f08c379a0000000000000000000000000000000000000000000000000000000008152600401610eaf90612698565b60405180910390fd5b610ec5858585858561112d565b5050505050565b60606000600167ffffffffffffffff811115610eeb57610eea61159b565b5b604051908082528060200260200182016040528015610f195781602001602082028036833780820191505090505b5090508281600081518110610f3157610f30612301565b5b60200260200101818152505080915050919050565b505050505050565b505050505050565b610f758473ffffffffffffffffffffffffffffffffffffffff166111ad565b15611125578373ffffffffffffffffffffffffffffffffffffffff1663f23a6e6187878686866040518663ffffffff1660e01b8152600401610fbb95949392919061270d565b6020604051808303816000875af1925050508015610ff757506040513d601f19601f82011682018060405250810190610ff4919061277c565b60015b61109c576110036127b6565b806308c379a00361105f57506110176127d8565b806110225750611061565b806040517f08c379a00000000000000000000000000000000000000000000000000000000081526004016110569190611889565b60405180910390fd5b505b6040517f08c379a0000000000000000000000000000000000000000000000000000000008152600401611093906128da565b60405180910390fd5b63f23a6e6160e01b7bffffffffffffffffffffffffffffffffffffffffffffffffffffffff1916817bffffffffffffffffffffffffffffffffffffffffffffffffffffffff191614611123576040517f08c379a000000000000000000000000000000000000000000000000000000000815260040161111a9061296c565b60405180910390fd5b505b505050505050565b84836005600082815260200190815260200160002060008373ffffffffffffffffffffffffffffffffffffffff1673ffffffffffffffffffffffffffffffffffffffff16815260200190815260200160002060009054906101000a900460ff161561119757600080fd5b6111a487878787876111d0565b50505050505050565b6000808273ffffffffffffffffffffffffffffffffffffffff163b119050919050565b600073ffffffffffffffffffffffffffffffffffffffff168473ffffffffffffffffffffffffffffffffffffffff160361123f576040517f08c379a0000000000000000000000000000000000000000000000000000000008152600401611236906129fe565b60405180910390fd5b6000611249610cb7565b9050600061125685610ecc565b9050600061126385610ecc565b9050611273838989858589610f46565b60006001600088815260200190815260200160002060008a73ffffffffffffffffffffffffffffffffffffffff1673ffffffffffffffffffffffffffffffffffffffff1681526020019081526020016000205490508581101561130b576040517f08c379a000000000000000000000000000000000000000000000000000000000815260040161130290612a90565b60405180910390fd5b8581036001600089815260200190815260200160002060008b73ffffffffffffffffffffffffffffffffffffffff1673ffffffffffffffffffffffffffffffffffffffff16815260200190815260200160002081905550856001600089815260200190815260200160002060008a73ffffffffffffffffffffffffffffffffffffffff1673ffffffffffffffffffffffffffffffffffffffff16815260200190815260200160002060008282546113c29190612537565b925050819055508773ffffffffffffffffffffffffffffffffffffffff168973ffffffffffffffffffffffffffffffffffffffff168573ffffffffffffffffffffffffffffffffffffffff167fc3d58168c5ae7397731d063d5bbf3d657854427343f4c083240f7aacaa2d0f628a8a60405161143f92919061256b565b60405180910390a4611455848a8a86868a610f4e565b611463848a8a8a8a8a610f56565b505050505050505050565b6000604051905090565b600080fd5b600080fd5b600073ffffffffffffffffffffffffffffffffffffffff82169050919050565b60006114ad82611482565b9050919050565b6114bd816114a2565b81146114c857600080fd5b50565b6000813590506114da816114b4565b92915050565b6000819050919050565b6114f3816114e0565b81146114fe57600080fd5b50565b600081359050611510816114ea565b92915050565b6000806040838503121561152d5761152c611478565b5b600061153b858286016114cb565b925050602061154c85828601611501565b9150509250929050565b61155f816114e0565b82525050565b600060208201905061157a6000830184611556565b92915050565b600080fd5b600080fd5b6000601f19601f8301169050919050565b7f4e487b7100000000000000000000000000000000000000000000000000000000600052604160045260246000fd5b6115d38261158a565b810181811067ffffffffffffffff821117156115f2576115f161159b565b5b80604052505050565b600061160561146e565b905061161182826115ca565b919050565b600067ffffffffffffffff8211156116315761163061159b565b5b61163a8261158a565b9050602081019050919050565b82818337600083830152505050565b600061166961166484611616565b6115fb565b90508281526020810184848401111561168557611684611585565b5b611690848285611647565b509392505050565b600082601f8301126116ad576116ac611580565b5b81356116bd848260208601611656565b91505092915050565b600080604083850312156116dd576116dc611478565b5b60006116eb858286016114cb565b925050602083013567ffffffffffffffff81111561170c5761170b61147d565b5b61171885828601611698565b9150509250929050565b60007fffffffff0000000000000000000000000000000000000000000000000000000082169050919050565b61175781611722565b811461176257600080fd5b50565b6000813590506117748161174e565b92915050565b6000602082840312156117905761178f611478565b5b600061179e84828501611765565b91505092915050565b60008115159050919050565b6117bc816117a7565b82525050565b60006020820190506117d760008301846117b3565b92915050565b6000602082840312156117f3576117f2611478565b5b600061180184828501611501565b91505092915050565b600081519050919050565b600082825260208201905092915050565b60005b83811015611844578082015181840152602081019050611829565b60008484015250505050565b600061185b8261180a565b6118658185611815565b9350611875818560208601611826565b61187e8161158a565b840191505092915050565b600060208201905081810360008301526118a38184611850565b905092915050565b600067ffffffffffffffff8211156118c6576118c561159b565b5b602082029050602081019050919050565b600080fd5b60006118ef6118ea846118ab565b6115fb565b90508083825260208201905060208402830185811115611912576119116118d7565b5b835b8181101561193b57806119278882611501565b845260208401935050602081019050611914565b5050509392505050565b600082601f83011261195a57611959611580565b5b813561196a8482602086016118dc565b91505092915050565b600067ffffffffffffffff82111561198e5761198d61159b565b5b6119978261158a565b9050602081019050919050565b60006119b76119b284611973565b6115fb565b9050828152602081018484840111156119d3576119d2611585565b5b6119de848285611647565b509392505050565b600082601f8301126119fb576119fa611580565b5b8135611a0b8482602086016119a4565b91505092915050565b600080600080600060a08688031215611a3057611a2f611478565b5b6000611a3e888289016114cb565b9550506020611a4f888289016114cb565b945050604086013567ffffffffffffffff811115611a7057611a6f61147d565b5b611a7c88828901611945565b935050606086013567ffffffffffffffff811115611a9d57611a9c61147d565b5b611aa988828901611945565b925050608086013567ffffffffffffffff811115611aca57611ac961147d565b5b611ad6888289016119e6565b9150509295509295909350565b600067ffffffffffffffff821115611afe57611afd61159b565b5b602082029050602081019050919050565b6000611b22611b1d84611ae3565b6115fb565b90508083825260208201905060208402830185811115611b4557611b446118d7565b5b835b81811015611b6e5780611b5a88826114cb565b845260208401935050602081019050611b47565b5050509392505050565b600082601f830112611b8d57611b8c611580565b5b8135611b9d848260208601611b0f565b91505092915050565b60008060408385031215611bbd57611bbc611478565b5b600083013567ffffffffffffffff811115611bdb57611bda61147d565b5b611be785828601611b78565b925050602083013567ffffffffffffffff811115611c0857611c0761147d565b5b611c1485828601611945565b9150509250929050565b600081519050919050565b600082825260208201905092915050565b6000819050602082019050919050565b611c53816114e0565b82525050565b6000611c658383611c4a565b60208301905092915050565b6000602082019050919050565b6000611c8982611c1e565b611c938185611c29565b9350611c9e83611c3a565b8060005b83811015611ccf578151611cb68882611c59565b9750611cc183611c71565b925050600181019050611ca2565b5085935050505092915050565b60006020820190508181036000830152611cf68184611c7e565b905092915050565b611d07816114a2565b82525050565b6000602082019050611d226000830184611cfe565b92915050565b611d31816117a7565b8114611d3c57600080fd5b50565b600081359050611d4e81611d28565b92915050565b60008060408385031215611d6b57611d6a611478565b5b6000611d79858286016114cb565b9250506020611d8a85828601611d3f565b9150509250929050565b60008060408385031215611dab57611daa611478565b5b6000611db9858286016114cb565b9250506020611dca858286016114cb565b9150509250929050565b600080600080600060a08688031215611df057611def611478565b5b6000611dfe888289016114cb565b9550506020611e0f888289016114cb565b9450506040611e2088828901611501565b9350506060611e3188828901611501565b925050608086013567ffffffffffffffff811115611e5257611e5161147d565b5b611e5e888289016119e6565b9150509295509295909350565b600060208284031215611e8157611e80611478565b5b6000611e8f848285016114cb565b91505092915050565b7f455243313135353a2061646472657373207a65726f206973206e6f742061207660008201527f616c6964206f776e657200000000000000000000000000000000000000000000602082015250565b6000611ef4602a83611815565b9150611eff82611e98565b604082019050919050565b60006020820190508181036000830152611f2381611ee7565b9050919050565b7f4e487b7100000000000000000000000000000000000000000000000000000000600052602260045260246000fd5b60006002820490506001821680611f7157607f821691505b602082108103611f8457611f83611f2a565b5b50919050565b60008190508160005260206000209050919050565b60006020601f8301049050919050565b600082821b905092915050565b600060088302611fec7fffffffffffffffffffffffffffffffffffffffffffffffffffffffffffffffff82611faf565b611ff68683611faf565b95508019841693508086168417925050509392505050565b6000819050919050565b600061203361202e612029846114e0565b61200e565b6114e0565b9050919050565b6000819050919050565b61204d83612018565b6120616120598261203a565b848454611fbc565b825550505050565b600090565b612076612069565b612081818484612044565b505050565b5b818110156120a55761209a60008261206e565b600181019050612087565b5050565b601f8211156120ea576120bb81611f8a565b6120c484611f9f565b810160208510156120d3578190505b6120e76120df85611f9f565b830182612086565b50505b505050565b600082821c905092915050565b600061210d600019846008026120ef565b1980831691505092915050565b600061212683836120fc565b9150826002028217905092915050565b61213f8261180a565b67ffffffffffffffff8111156121585761215761159b565b5b6121628254611f59565b61216d8282856120a9565b600060209050601f8311600181146121a0576000841561218e578287015190505b612198858261211a565b865550612200565b601f1984166121ae86611f8a565b60005b828110156121d6578489015182556001820191506020850194506020810190506121b1565b868310156121f357848901516121ef601f8916826120fc565b8355505b6001600288020188555050505b505050505050565b600060408201905061221d6000830185611cfe565b61222a6020830184611556565b9392505050565b60006060820190506122466000830186611cfe565b6122536020830185611556565b81810360408301526122658184611850565b9050949350505050565b7f455243313135353a206163636f756e747320616e6420696473206c656e67746860008201527f206d69736d617463680000000000000000000000000000000000000000000000602082015250565b60006122cb602983611815565b91506122d68261226f565b604082019050919050565b600060208201905081810360008301526122fa816122be565b9050919050565b7f4e487b7100000000000000000000000000000000000000000000000000000000600052603260045260246000fd5b7f4e487b7100000000000000000000000000000000000000000000000000000000600052601160045260246000fd5b600061236a826114e0565b91507fffffffffffffffffffffffffffffffffffffffffffffffffffffffffffffffff820361239c5761239b612330565b5b600182019050919050565b7f4f776e61626c653a206e6577206f776e657220697320746865207a65726f206160008201527f6464726573730000000000000000000000000000000000000000000000000000602082015250565b6000612403602683611815565b915061240e826123a7565b604082019050919050565b60006020820190508181036000830152612432816123f6565b9050919050565b7f4f776e61626c653a2063616c6c6572206973206e6f7420746865206f776e6572600082015250565b600061246f602083611815565b915061247a82612439565b602082019050919050565b6000602082019050818103600083015261249e81612462565b9050919050565b7f455243313135353a206d696e7420746f20746865207a65726f2061646472657360008201527f7300000000000000000000000000000000000000000000000000000000000000602082015250565b6000612501602183611815565b915061250c826124a5565b604082019050919050565b60006020820190508181036000830152612530816124f4565b9050919050565b6000612542826114e0565b915061254d836114e0565b925082820190508082111561256557612564612330565b5b92915050565b60006040820190506125806000830185611556565b61258d6020830184611556565b9392505050565b7f455243313135353a2073657474696e6720617070726f76616c2073746174757360008201527f20666f722073656c660000000000000000000000000000000000000000000000602082015250565b60006125f0602983611815565b91506125fb82612594565b604082019050919050565b6000602082019050818103600083015261261f816125e3565b9050919050565b7f455243313135353a2063616c6c6572206973206e6f7420746f6b656e206f776e60008201527f6572206e6f7220617070726f7665640000000000000000000000000000000000602082015250565b6000612682602f83611815565b915061268d82612626565b604082019050919050565b600060208201905081810360008301526126b181612675565b9050919050565b600081519050919050565b600082825260208201905092915050565b60006126df826126b8565b6126e981856126c3565b93506126f9818560208601611826565b6127028161158a565b840191505092915050565b600060a0820190506127226000830188611cfe565b61272f6020830187611cfe565b61273c6040830186611556565b6127496060830185611556565b818103608083015261275b81846126d4565b90509695505050505050565b6000815190506127768161174e565b92915050565b60006020828403121561279257612791611478565b5b60006127a084828501612767565b91505092915050565b60008160e01c9050919050565b600060033d11156127d55760046000803e6127d26000516127a9565b90505b90565b600060443d10612865576127ea61146e565b60043d036004823e80513d602482011167ffffffffffffffff82111715612812575050612865565b808201805167ffffffffffffffff8111156128305750505050612865565b80602083010160043d03850181111561284d575050505050612865565b61285c826020018501866115ca565b82955050505050505b90565b7f455243313135353a207472616e7366657220746f206e6f6e204552433131353560008201527f526563656976657220696d706c656d656e746572000000000000000000000000602082015250565b60006128c4603483611815565b91506128cf82612868565b604082019050919050565b600060208201905081810360008301526128f3816128b7565b9050919050565b7f455243313135353a204552433131353552656365697665722072656a6563746560008201527f6420746f6b656e73000000000000000000000000000000000000000000000000602082015250565b6000612956602883611815565b9150612961826128fa565b604082019050919050565b6000602082019050818103600083015261298581612949565b9050919050565b7f455243313135353a207472616e7366657220746f20746865207a65726f20616460008201527f6472657373000000000000000000000000000000000000000000000000000000602082015250565b60006129e8602583611815565b91506129f38261298c565b604082019050919050565b60006020820190508181036000830152612a17816129db565b9050919050565b7f455243313135353a20696e73756666696369656e742062616c616e636520666f60008201527f72207472616e7366657200000000000000000000000000000000000000000000602082015250565b6000612a7a602a83611815565b9150612a8582612a1e565b604082019050919050565b60006020820190508181036000830152612aa981612a6d565b905091905056fea26469706673582212206e4ac10da13f17623336c665b5bd8f53b8b76ce47186c6a683f47e7664673b5864736f6c63430008110033",
  "immutableReferences": {},
  "source": "// SPDX-License-Identifier: Apache-2.0\npragma solidity ^0.8.16;\n\nimport \"@openzeppelin/contracts/access/Ownable.sol\";\nimport \"@openzeppelin/contracts/token/erc1155/ERC1155.sol\";\nimport \"@openzeppelin/contracts/utils/Counters.sol\";\n\ncontract SBTVirtual is Ownable, ERC1155 {\n\n    constructor(string memory uri) ERC1155(uri) {\n\n    }\n\n    //Token\n    using Counters for Counters.Counter;\n    Counters.Counter private _tokenIdCounter;\n\n    mapping(uint256 => mapping(address => bool)) _locked;\n    mapping(uint256 => address) tokenOwnerOf;\n    mapping(uint256 => string) tokenURIs;\n\n    event Locked(address to, uint256 tokenId);\n    event Unlocked(address to, uint256 tokenId);\n    event CreateToken(address tokenOwner, uint256 tokenId, string tokenURI);\n\n    function _mint(address to, uint256 tokenId, uint256 amount, bytes memory data) override(ERC1155) internal {\n        super._mint(to, tokenId, amount, data);\n    }\n\n    function _burn(address from, uint256 id, uint256 amount) override(ERC1155) internal {\n        super._burn(from, id, amount);\n    }\n\n    function createToken(address tokenOwner, string memory tokenURI) external onlyOwner{\n        _tokenIdCounter.increment();\n\n        uint256 tokenId = _tokenIdCounter.current();\n        super._mint(tokenOwner, tokenId, 1, \"\");\n\n        tokenOwnerOf[tokenId] = tokenOwner;\n        tokenURIs[tokenId] = tokenURI;\n\n        _locked[tokenId][tokenOwner] = true;\n        emit Locked(tokenOwner, tokenId);\n\n        emit CreateToken(tokenOwner, tokenId, tokenURI);\n    }\n\n\n\n    //Transfer, Batch \n    modifier IsTransferAllowed(address soulOwner, uint256 tokenId) {\n        require(!_locked[tokenId][soulOwner]);\n        _;\n    }\n\n    function _burnBatch(\n        address from,\n        uint256[] memory ids,\n        uint256[] memory amounts\n    ) internal virtual override(ERC1155) {}\n\n    function _mintBatch(\n        address to,\n        uint256[] memory ids,\n        uint256[] memory amounts,\n        bytes memory data\n    ) internal virtual override(ERC1155) {\n    }\n\n    function safeTransferFrom(\n        address from,\n        address to,\n        uint256 id,\n        uint256 amount,\n        bytes memory data\n    ) public virtual override (ERC1155) IsTransferAllowed(from, id) {\n        super.safeTransferFrom(from, to, id, amount, data);\n    }\n\n    function safeBatchTransferFrom(\n        address from,\n        address to,\n        uint256[] memory ids,\n        uint256[] memory amounts,\n        bytes memory data\n    ) public virtual override (ERC1155) {}\n\n    function _safeTransferFrom(\n        address from,\n        address to,\n        uint256 id,\n        uint256 amount,\n        bytes memory data\n    ) internal virtual override(ERC1155) IsTransferAllowed(from, id) {\n        super._safeTransferFrom(from, to, id, amount, data);\n    }\n\n    function _safeBatchTransferFrom(\n        address from,\n        address to,\n        uint256[] memory ids,\n        uint256[] memory amounts,\n        bytes memory data\n    ) internal virtual override(ERC1155) {}\n\n    function _beforeTokenTransfer(\n        address operator,\n        address from,\n        address to,\n        uint256[] memory ids,\n        uint256[] memory amounts,\n        bytes memory data\n    ) internal virtual override(ERC1155) {}\n\n    function _afterTokenTransfer(\n        address operator,\n        address from,\n        address to,\n        uint256[] memory ids,\n        uint256[] memory amounts,\n        bytes memory data\n    ) internal virtual override(ERC1155) {}\n\n\n}",
  "sourcePath": "/Users/leekunho/Desktop/workspace/MOSTI/MOSTI_Wallet/contracts/SBTVirtual.sol",
  "compiler": {
    "name": "solc",
    "version": "0.8.17+commit.8df45f5f.Emscripten.clang"
  },
  "schemaVersion": "3.4.10",
  "updatedAt": "2023-04-04T01:42:59.008Z",
  "devdoc": {
    "kind": "dev",
    "methods": {
      "balanceOf(address,uint256)": {
        "details": "See {IERC1155-balanceOf}. Requirements: - `account` cannot be the zero address."
      },
      "balanceOfBatch(address[],uint256[])": {
        "details": "See {IERC1155-balanceOfBatch}. Requirements: - `accounts` and `ids` must have the same length."
      },
      "isApprovedForAll(address,address)": {
        "details": "See {IERC1155-isApprovedForAll}."
      },
      "owner()": {
        "details": "Returns the address of the current owner."
      },
      "renounceOwnership()": {
        "details": "Leaves the contract without owner. It will not be possible to call `onlyOwner` functions anymore. Can only be called by the current owner. NOTE: Renouncing ownership will leave the contract without an owner, thereby removing any functionality that is only available to the owner."
      },
      "safeBatchTransferFrom(address,address,uint256[],uint256[],bytes)": {
        "details": "See {IERC1155-safeBatchTransferFrom}."
      },
      "safeTransferFrom(address,address,uint256,uint256,bytes)": {
        "details": "See {IERC1155-safeTransferFrom}."
      },
      "setApprovalForAll(address,bool)": {
        "details": "See {IERC1155-setApprovalForAll}."
      },
      "supportsInterface(bytes4)": {
        "details": "See {IERC165-supportsInterface}."
      },
      "transferOwnership(address)": {
        "details": "Transfers ownership of the contract to a new account (`newOwner`). Can only be called by the current owner."
      },
      "uri(uint256)": {
        "details": "See {IERC1155MetadataURI-uri}. This implementation returns the same URI for *all* token types. It relies on the token type ID substitution mechanism https://eips.ethereum.org/EIPS/eip-1155#metadata[defined in the EIP]. Clients calling this function must replace the `\\{id\\}` substring with the actual token type ID."
      }
    },
    "version": 1
  },
  "userdoc": {
    "kind": "user",
    "methods": {},
    "version": 1
  }
}