{
  "contractName": "SBTVirtual",
  "abi": [
    {
      "inputs": [
        {
          "internalType": "string",
          "name": "uri",
          "type": "string"
        }
      ],
      "stateMutability": "nonpayable",
      "type": "constructor"
    },
    {
      "anonymous": false,
      "inputs": [
        {
          "indexed": true,
          "internalType": "address",
          "name": "account",
          "type": "address"
        },
        {
          "indexed": true,
          "internalType": "address",
          "name": "operator",
          "type": "address"
        },
        {
          "indexed": false,
          "internalType": "bool",
          "name": "approved",
          "type": "bool"
        }
      ],
      "name": "ApprovalForAll",
      "type": "event"
    },
    {
      "anonymous": false,
      "inputs": [
        {
          "indexed": false,
          "internalType": "address",
          "name": "tokenOwner",
          "type": "address"
        },
        {
          "indexed": false,
          "internalType": "uint256",
          "name": "tokenId",
          "type": "uint256"
        }
      ],
      "name": "CreateToken",
      "type": "event"
    },
    {
      "anonymous": false,
      "inputs": [
        {
          "indexed": false,
          "internalType": "address",
          "name": "to",
          "type": "address"
        },
        {
          "indexed": false,
          "internalType": "uint256",
          "name": "tokenId",
          "type": "uint256"
        }
      ],
      "name": "Locked",
      "type": "event"
    },
    {
      "anonymous": false,
      "inputs": [
        {
          "indexed": true,
          "internalType": "address",
          "name": "previousOwner",
          "type": "address"
        },
        {
          "indexed": true,
          "internalType": "address",
          "name": "newOwner",
          "type": "address"
        }
      ],
      "name": "OwnershipTransferred",
      "type": "event"
    },
    {
      "anonymous": false,
      "inputs": [
        {
          "indexed": true,
          "internalType": "address",
          "name": "operator",
          "type": "address"
        },
        {
          "indexed": true,
          "internalType": "address",
          "name": "from",
          "type": "address"
        },
        {
          "indexed": true,
          "internalType": "address",
          "name": "to",
          "type": "address"
        },
        {
          "indexed": false,
          "internalType": "uint256[]",
          "name": "ids",
          "type": "uint256[]"
        },
        {
          "indexed": false,
          "internalType": "uint256[]",
          "name": "values",
          "type": "uint256[]"
        }
      ],
      "name": "TransferBatch",
      "type": "event"
    },
    {
      "anonymous": false,
      "inputs": [
        {
          "indexed": true,
          "internalType": "address",
          "name": "operator",
          "type": "address"
        },
        {
          "indexed": true,
          "internalType": "address",
          "name": "from",
          "type": "address"
        },
        {
          "indexed": true,
          "internalType": "address",
          "name": "to",
          "type": "address"
        },
        {
          "indexed": false,
          "internalType": "uint256",
          "name": "id",
          "type": "uint256"
        },
        {
          "indexed": false,
          "internalType": "uint256",
          "name": "value",
          "type": "uint256"
        }
      ],
      "name": "TransferSingle",
      "type": "event"
    },
    {
      "anonymous": false,
      "inputs": [
        {
          "indexed": false,
          "internalType": "string",
          "name": "value",
          "type": "string"
        },
        {
          "indexed": true,
          "internalType": "uint256",
          "name": "id",
          "type": "uint256"
        }
      ],
      "name": "URI",
      "type": "event"
    },
    {
      "anonymous": false,
      "inputs": [
        {
          "indexed": false,
          "internalType": "address",
          "name": "to",
          "type": "address"
        },
        {
          "indexed": false,
          "internalType": "uint256",
          "name": "tokenId",
          "type": "uint256"
        }
      ],
      "name": "Unlocked",
      "type": "event"
    },
    {
      "inputs": [
        {
          "internalType": "address",
          "name": "account",
          "type": "address"
        },
        {
          "internalType": "uint256",
          "name": "id",
          "type": "uint256"
        }
      ],
      "name": "balanceOf",
      "outputs": [
        {
          "internalType": "uint256",
          "name": "",
          "type": "uint256"
        }
      ],
      "stateMutability": "view",
      "type": "function"
    },
    {
      "inputs": [
        {
          "internalType": "address[]",
          "name": "accounts",
          "type": "address[]"
        },
        {
          "internalType": "uint256[]",
          "name": "ids",
          "type": "uint256[]"
        }
      ],
      "name": "balanceOfBatch",
      "outputs": [
        {
          "internalType": "uint256[]",
          "name": "",
          "type": "uint256[]"
        }
      ],
      "stateMutability": "view",
      "type": "function"
    },
    {
      "inputs": [
        {
          "internalType": "address",
          "name": "account",
          "type": "address"
        },
        {
          "internalType": "address",
          "name": "operator",
          "type": "address"
        }
      ],
      "name": "isApprovedForAll",
      "outputs": [
        {
          "internalType": "bool",
          "name": "",
          "type": "bool"
        }
      ],
      "stateMutability": "view",
      "type": "function"
    },
    {
      "inputs": [],
      "name": "owner",
      "outputs": [
        {
          "internalType": "address",
          "name": "",
          "type": "address"
        }
      ],
      "stateMutability": "view",
      "type": "function"
    },
    {
      "inputs": [],
      "name": "renounceOwnership",
      "outputs": [],
      "stateMutability": "nonpayable",
      "type": "function"
    },
    {
      "inputs": [
        {
          "internalType": "address",
          "name": "operator",
          "type": "address"
        },
        {
          "internalType": "bool",
          "name": "approved",
          "type": "bool"
        }
      ],
      "name": "setApprovalForAll",
      "outputs": [],
      "stateMutability": "nonpayable",
      "type": "function"
    },
    {
      "inputs": [
        {
          "internalType": "bytes4",
          "name": "interfaceId",
          "type": "bytes4"
        }
      ],
      "name": "supportsInterface",
      "outputs": [
        {
          "internalType": "bool",
          "name": "",
          "type": "bool"
        }
      ],
      "stateMutability": "view",
      "type": "function"
    },
    {
      "inputs": [
        {
          "internalType": "address",
          "name": "newOwner",
          "type": "address"
        }
      ],
      "name": "transferOwnership",
      "outputs": [],
      "stateMutability": "nonpayable",
      "type": "function"
    },
    {
      "inputs": [
        {
          "internalType": "uint256",
          "name": "",
          "type": "uint256"
        }
      ],
      "name": "uri",
      "outputs": [
        {
          "internalType": "string",
          "name": "",
          "type": "string"
        }
      ],
      "stateMutability": "view",
      "type": "function"
    },
    {
      "inputs": [
        {
          "internalType": "address",
          "name": "tokenOwner",
          "type": "address"
        }
      ],
      "name": "createToken",
      "outputs": [],
      "stateMutability": "nonpayable",
      "type": "function"
    },
    {
      "inputs": [
        {
          "internalType": "address",
          "name": "from",
          "type": "address"
        },
        {
          "internalType": "address",
          "name": "to",
          "type": "address"
        },
        {
          "internalType": "uint256",
          "name": "id",
          "type": "uint256"
        },
        {
          "internalType": "uint256",
          "name": "amount",
          "type": "uint256"
        },
        {
          "internalType": "bytes",
          "name": "data",
          "type": "bytes"
        }
      ],
      "name": "safeTransferFrom",
      "outputs": [],
      "stateMutability": "nonpayable",
      "type": "function"
    },
    {
      "inputs": [
        {
          "internalType": "address",
          "name": "from",
          "type": "address"
        },
        {
          "internalType": "address",
          "name": "to",
          "type": "address"
        },
        {
          "internalType": "uint256[]",
          "name": "ids",
          "type": "uint256[]"
        },
        {
          "internalType": "uint256[]",
          "name": "amounts",
          "type": "uint256[]"
        },
        {
          "internalType": "bytes",
          "name": "data",
          "type": "bytes"
        }
      ],
      "name": "safeBatchTransferFrom",
      "outputs": [],
      "stateMutability": "nonpayable",
      "type": "function"
    }
  ],
  "bytecode": "0x60806040523480156200001157600080fd5b5060405162002d8138038062002d818339818101604052810190620000379190620002e5565b80620000586200004c6200007160201b60201c565b6200007960201b60201c565b62000069816200013d60201b60201c565b505062000668565b600033905090565b60008060009054906101000a900473ffffffffffffffffffffffffffffffffffffffff169050816000806101000a81548173ffffffffffffffffffffffffffffffffffffffff021916908373ffffffffffffffffffffffffffffffffffffffff1602179055508173ffffffffffffffffffffffffffffffffffffffff168173ffffffffffffffffffffffffffffffffffffffff167f8be0079c531659141344cd1fd0a4f28419497f9722a3daafe3b4186f6b6457e060405160405180910390a35050565b80600390816200014e919062000581565b5050565b6000604051905090565b600080fd5b600080fd5b600080fd5b600080fd5b6000601f19601f8301169050919050565b7f4e487b7100000000000000000000000000000000000000000000000000000000600052604160045260246000fd5b620001bb8262000170565b810181811067ffffffffffffffff82111715620001dd57620001dc62000181565b5b80604052505050565b6000620001f262000152565b9050620002008282620001b0565b919050565b600067ffffffffffffffff82111562000223576200022262000181565b5b6200022e8262000170565b9050602081019050919050565b60005b838110156200025b5780820151818401526020810190506200023e565b60008484015250505050565b60006200027e620002788462000205565b620001e6565b9050828152602081018484840111156200029d576200029c6200016b565b5b620002aa8482856200023b565b509392505050565b600082601f830112620002ca57620002c962000166565b5b8151620002dc84826020860162000267565b91505092915050565b600060208284031215620002fe57620002fd6200015c565b5b600082015167ffffffffffffffff8111156200031f576200031e62000161565b5b6200032d84828501620002b2565b91505092915050565b600081519050919050565b7f4e487b7100000000000000000000000000000000000000000000000000000000600052602260045260246000fd5b600060028204905060018216806200038957607f821691505b6020821081036200039f576200039e62000341565b5b50919050565b60008190508160005260206000209050919050565b60006020601f8301049050919050565b600082821b905092915050565b600060088302620004097fffffffffffffffffffffffffffffffffffffffffffffffffffffffffffffffff82620003ca565b620004158683620003ca565b95508019841693508086168417925050509392505050565b6000819050919050565b6000819050919050565b6000620004626200045c62000456846200042d565b62000437565b6200042d565b9050919050565b6000819050919050565b6200047e8362000441565b620004966200048d8262000469565b848454620003d7565b825550505050565b600090565b620004ad6200049e565b620004ba81848462000473565b505050565b5b81811015620004e257620004d6600082620004a3565b600181019050620004c0565b5050565b601f8211156200053157620004fb81620003a5565b6200050684620003ba565b8101602085101562000516578190505b6200052e6200052585620003ba565b830182620004bf565b50505b505050565b600082821c905092915050565b6000620005566000198460080262000536565b1980831691505092915050565b600062000571838362000543565b9150826002028217905092915050565b6200058c8262000336565b67ffffffffffffffff811115620005a857620005a762000181565b5b620005b4825462000370565b620005c1828285620004e6565b600060209050601f831160018114620005f95760008415620005e4578287015190505b620005f0858262000563565b86555062000660565b601f1984166200060986620003a5565b60005b8281101562000633578489015182556001820191506020850194506020810190506200060c565b868310156200065357848901516200064f601f89168262000543565b8355505b6001600288020188555050505b505050505050565b61270980620006786000396000f3fe608060405234801561001057600080fd5b50600436106100b35760003560e01c80638da5cb5b116100715780638da5cb5b1461019e578063a22cb465146101bc578063c21ab7f9146101d8578063e985e9c5146101f4578063f242432a14610224578063f2fde38b14610240576100b3565b8062fdd58e146100b857806301ffc9a7146100e85780630e89341c146101185780632eb2c2d6146101485780634e1273f414610164578063715018a614610194575b600080fd5b6100d260048036038101906100cd91906114f2565b61025c565b6040516100df9190611541565b60405180910390f35b61010260048036038101906100fd91906115b4565b610325565b60405161010f91906115fc565b60405180910390f35b610132600480360381019061012d9190611617565b610407565b60405161013f91906116d4565b60405180910390f35b610162600480360381019061015d91906118f3565b61049b565b005b61017e60048036038101906101799190611a85565b6104a2565b60405161018b9190611bbb565b60405180910390f35b61019c6105bb565b005b6101a66105cf565b6040516101b39190611bec565b60405180910390f35b6101d660048036038101906101d19190611c33565b6105f8565b005b6101f260048036038101906101ed9190611c73565b61060e565b005b61020e60048036038101906102099190611ca0565b61077b565b60405161021b91906115fc565b60405180910390f35b61023e60048036038101906102399190611ce0565b61080f565b005b61025a60048036038101906102559190611c73565b61088f565b005b60008073ffffffffffffffffffffffffffffffffffffffff168373ffffffffffffffffffffffffffffffffffffffff16036102cc576040517f08c379a00000000000000000000000000000000000000000000000000000000081526004016102c390611de9565b60405180910390fd5b6001600083815260200190815260200160002060008473ffffffffffffffffffffffffffffffffffffffff1673ffffffffffffffffffffffffffffffffffffffff16815260200190815260200160002054905092915050565b60007fd9b67a26000000000000000000000000000000000000000000000000000000007bffffffffffffffffffffffffffffffffffffffffffffffffffffffff1916827bffffffffffffffffffffffffffffffffffffffffffffffffffffffff191614806103f057507f0e89341c000000000000000000000000000000000000000000000000000000007bffffffffffffffffffffffffffffffffffffffffffffffffffffffff1916827bffffffffffffffffffffffffffffffffffffffffffffffffffffffff1916145b8061040057506103ff82610912565b5b9050919050565b60606003805461041690611e38565b80601f016020809104026020016040519081016040528092919081815260200182805461044290611e38565b801561048f5780601f106104645761010080835404028352916020019161048f565b820191906000526020600020905b81548152906001019060200180831161047257829003601f168201915b50505050509050919050565b5050505050565b606081518351146104e8576040517f08c379a00000000000000000000000000000000000000000000000000000000081526004016104df90611edb565b60405180910390fd5b6000835167ffffffffffffffff811115610505576105046116fb565b5b6040519080825280602002602001820160405280156105335781602001602082028036833780820191505090505b50905060005b84518110156105b05761058085828151811061055857610557611efb565b5b602002602001015185838151811061057357610572611efb565b5b602002602001015161025c565b82828151811061059357610592611efb565b5b602002602001018181525050806105a990611f59565b9050610539565b508091505092915050565b6105c361097c565b6105cd60006109fa565b565b60008060009054906101000a900473ffffffffffffffffffffffffffffffffffffffff16905090565b61060a610603610abe565b8383610ac6565b5050565b61061661097c565b6106206004610c32565b600061062c6004610c48565b905061064a8282600160405180602001604052806000815250610c56565b816006600083815260200190815260200160002060006101000a81548173ffffffffffffffffffffffffffffffffffffffff021916908373ffffffffffffffffffffffffffffffffffffffff16021790555060016005600083815260200190815260200160002060008473ffffffffffffffffffffffffffffffffffffffff1673ffffffffffffffffffffffffffffffffffffffff16815260200190815260200160002060006101000a81548160ff0219169083151502179055507f9f1ec8c880f76798e7b793325d625e9b60e4082a553c98f42b6cda368dd600088282604051610736929190611fa1565b60405180910390a17fb378e89b40ac5bbe0e2241b596fbe1adc3cf1fb7c982aa1b4560165cf264ee93828260405161076f929190611fa1565b60405180910390a15050565b6000600260008473ffffffffffffffffffffffffffffffffffffffff1673ffffffffffffffffffffffffffffffffffffffff16815260200190815260200160002060008373ffffffffffffffffffffffffffffffffffffffff1673ffffffffffffffffffffffffffffffffffffffff16815260200190815260200160002060009054906101000a900460ff16905092915050565b84836005600082815260200190815260200160002060008373ffffffffffffffffffffffffffffffffffffffff1673ffffffffffffffffffffffffffffffffffffffff16815260200190815260200160002060009054906101000a900460ff161561087957600080fd5b6108868787878787610e07565b50505050505050565b61089761097c565b600073ffffffffffffffffffffffffffffffffffffffff168173ffffffffffffffffffffffffffffffffffffffff1603610906576040517f08c379a00000000000000000000000000000000000000000000000000000000081526004016108fd9061203c565b60405180910390fd5b61090f816109fa565b50565b60007f01ffc9a7000000000000000000000000000000000000000000000000000000007bffffffffffffffffffffffffffffffffffffffffffffffffffffffff1916827bffffffffffffffffffffffffffffffffffffffffffffffffffffffff1916149050919050565b610984610abe565b73ffffffffffffffffffffffffffffffffffffffff166109a26105cf565b73ffffffffffffffffffffffffffffffffffffffff16146109f8576040517f08c379a00000000000000000000000000000000000000000000000000000000081526004016109ef906120a8565b60405180910390fd5b565b60008060009054906101000a900473ffffffffffffffffffffffffffffffffffffffff169050816000806101000a81548173ffffffffffffffffffffffffffffffffffffffff021916908373ffffffffffffffffffffffffffffffffffffffff1602179055508173ffffffffffffffffffffffffffffffffffffffff168173ffffffffffffffffffffffffffffffffffffffff167f8be0079c531659141344cd1fd0a4f28419497f9722a3daafe3b4186f6b6457e060405160405180910390a35050565b600033905090565b8173ffffffffffffffffffffffffffffffffffffffff168373ffffffffffffffffffffffffffffffffffffffff1603610b34576040517f08c379a0000000000000000000000000000000000000000000000000000000008152600401610b2b9061213a565b60405180910390fd5b80600260008573ffffffffffffffffffffffffffffffffffffffff1673ffffffffffffffffffffffffffffffffffffffff16815260200190815260200160002060008473ffffffffffffffffffffffffffffffffffffffff1673ffffffffffffffffffffffffffffffffffffffff16815260200190815260200160002060006101000a81548160ff0219169083151502179055508173ffffffffffffffffffffffffffffffffffffffff168373ffffffffffffffffffffffffffffffffffffffff167f17307eab39ab6107e8899845ad3d59bd9653f200f220920489ca2b5937696c3183604051610c2591906115fc565b60405180910390a3505050565b6001816000016000828254019250508190555050565b600081600001549050919050565b600073ffffffffffffffffffffffffffffffffffffffff168473ffffffffffffffffffffffffffffffffffffffff1603610cc5576040517f08c379a0000000000000000000000000000000000000000000000000000000008152600401610cbc906121cc565b60405180910390fd5b6000610ccf610abe565b90506000610cdc85610ea8565b90506000610ce985610ea8565b9050610cfa83600089858589610f22565b846001600088815260200190815260200160002060008973ffffffffffffffffffffffffffffffffffffffff1673ffffffffffffffffffffffffffffffffffffffff1681526020019081526020016000206000828254610d5a91906121ec565b925050819055508673ffffffffffffffffffffffffffffffffffffffff16600073ffffffffffffffffffffffffffffffffffffffff168473ffffffffffffffffffffffffffffffffffffffff167fc3d58168c5ae7397731d063d5bbf3d657854427343f4c083240f7aacaa2d0f628989604051610dd8929190612220565b60405180910390a4610def83600089858589610f2a565b610dfe83600089898989610f32565b50505050505050565b610e0f610abe565b73ffffffffffffffffffffffffffffffffffffffff168573ffffffffffffffffffffffffffffffffffffffff161480610e555750610e5485610e4f610abe565b61077b565b5b610e94576040517f08c379a0000000000000000000000000000000000000000000000000000000008152600401610e8b906122bb565b60405180910390fd5b610ea18585858585611109565b5050505050565b60606000600167ffffffffffffffff811115610ec757610ec66116fb565b5b604051908082528060200260200182016040528015610ef55781602001602082028036833780820191505090505b5090508281600081518110610f0d57610f0c611efb565b5b60200260200101818152505080915050919050565b505050505050565b505050505050565b610f518473ffffffffffffffffffffffffffffffffffffffff16611189565b15611101578373ffffffffffffffffffffffffffffffffffffffff1663f23a6e6187878686866040518663ffffffff1660e01b8152600401610f97959493929190612330565b6020604051808303816000875af1925050508015610fd357506040513d601f19601f82011682018060405250810190610fd0919061239f565b60015b61107857610fdf6123d9565b806308c379a00361103b5750610ff36123fb565b80610ffe575061103d565b806040517f08c379a000000000000000000000000000000000000000000000000000000000815260040161103291906116d4565b60405180910390fd5b505b6040517f08c379a000000000000000000000000000000000000000000000000000000000815260040161106f906124fd565b60405180910390fd5b63f23a6e6160e01b7bffffffffffffffffffffffffffffffffffffffffffffffffffffffff1916817bffffffffffffffffffffffffffffffffffffffffffffffffffffffff1916146110ff576040517f08c379a00000000000000000000000000000000000000000000000000000000081526004016110f69061258f565b60405180910390fd5b505b505050505050565b84836005600082815260200190815260200160002060008373ffffffffffffffffffffffffffffffffffffffff1673ffffffffffffffffffffffffffffffffffffffff16815260200190815260200160002060009054906101000a900460ff161561117357600080fd5b61118087878787876111ac565b50505050505050565b6000808273ffffffffffffffffffffffffffffffffffffffff163b119050919050565b600073ffffffffffffffffffffffffffffffffffffffff168473ffffffffffffffffffffffffffffffffffffffff160361121b576040517f08c379a000000000000000000000000000000000000000000000000000000000815260040161121290612621565b60405180910390fd5b6000611225610abe565b9050600061123285610ea8565b9050600061123f85610ea8565b905061124f838989858589610f22565b60006001600088815260200190815260200160002060008a73ffffffffffffffffffffffffffffffffffffffff1673ffffffffffffffffffffffffffffffffffffffff168152602001908152602001600020549050858110156112e7576040517f08c379a00000000000000000000000000000000000000000000000000000000081526004016112de906126b3565b60405180910390fd5b8581036001600089815260200190815260200160002060008b73ffffffffffffffffffffffffffffffffffffffff1673ffffffffffffffffffffffffffffffffffffffff16815260200190815260200160002081905550856001600089815260200190815260200160002060008a73ffffffffffffffffffffffffffffffffffffffff1673ffffffffffffffffffffffffffffffffffffffff168152602001908152602001600020600082825461139e91906121ec565b925050819055508773ffffffffffffffffffffffffffffffffffffffff168973ffffffffffffffffffffffffffffffffffffffff168573ffffffffffffffffffffffffffffffffffffffff167fc3d58168c5ae7397731d063d5bbf3d657854427343f4c083240f7aacaa2d0f628a8a60405161141b929190612220565b60405180910390a4611431848a8a86868a610f2a565b61143f848a8a8a8a8a610f32565b505050505050505050565b6000604051905090565b600080fd5b600080fd5b600073ffffffffffffffffffffffffffffffffffffffff82169050919050565b60006114898261145e565b9050919050565b6114998161147e565b81146114a457600080fd5b50565b6000813590506114b681611490565b92915050565b6000819050919050565b6114cf816114bc565b81146114da57600080fd5b50565b6000813590506114ec816114c6565b92915050565b6000806040838503121561150957611508611454565b5b6000611517858286016114a7565b9250506020611528858286016114dd565b9150509250929050565b61153b816114bc565b82525050565b60006020820190506115566000830184611532565b92915050565b60007fffffffff0000000000000000000000000000000000000000000000000000000082169050919050565b6115918161155c565b811461159c57600080fd5b50565b6000813590506115ae81611588565b92915050565b6000602082840312156115ca576115c9611454565b5b60006115d88482850161159f565b91505092915050565b60008115159050919050565b6115f6816115e1565b82525050565b600060208201905061161160008301846115ed565b92915050565b60006020828403121561162d5761162c611454565b5b600061163b848285016114dd565b91505092915050565b600081519050919050565b600082825260208201905092915050565b60005b8381101561167e578082015181840152602081019050611663565b60008484015250505050565b6000601f19601f8301169050919050565b60006116a682611644565b6116b0818561164f565b93506116c0818560208601611660565b6116c98161168a565b840191505092915050565b600060208201905081810360008301526116ee818461169b565b905092915050565b600080fd5b7f4e487b7100000000000000000000000000000000000000000000000000000000600052604160045260246000fd5b6117338261168a565b810181811067ffffffffffffffff82111715611752576117516116fb565b5b80604052505050565b600061176561144a565b9050611771828261172a565b919050565b600067ffffffffffffffff821115611791576117906116fb565b5b602082029050602081019050919050565b600080fd5b60006117ba6117b584611776565b61175b565b905080838252602082019050602084028301858111156117dd576117dc6117a2565b5b835b8181101561180657806117f288826114dd565b8452602084019350506020810190506117df565b5050509392505050565b600082601f830112611825576118246116f6565b5b81356118358482602086016117a7565b91505092915050565b600080fd5b600067ffffffffffffffff82111561185e5761185d6116fb565b5b6118678261168a565b9050602081019050919050565b82818337600083830152505050565b600061189661189184611843565b61175b565b9050828152602081018484840111156118b2576118b161183e565b5b6118bd848285611874565b509392505050565b600082601f8301126118da576118d96116f6565b5b81356118ea848260208601611883565b91505092915050565b600080600080600060a0868803121561190f5761190e611454565b5b600061191d888289016114a7565b955050602061192e888289016114a7565b945050604086013567ffffffffffffffff81111561194f5761194e611459565b5b61195b88828901611810565b935050606086013567ffffffffffffffff81111561197c5761197b611459565b5b61198888828901611810565b925050608086013567ffffffffffffffff8111156119a9576119a8611459565b5b6119b5888289016118c5565b9150509295509295909350565b600067ffffffffffffffff8211156119dd576119dc6116fb565b5b602082029050602081019050919050565b6000611a016119fc846119c2565b61175b565b90508083825260208201905060208402830185811115611a2457611a236117a2565b5b835b81811015611a4d5780611a3988826114a7565b845260208401935050602081019050611a26565b5050509392505050565b600082601f830112611a6c57611a6b6116f6565b5b8135611a7c8482602086016119ee565b91505092915050565b60008060408385031215611a9c57611a9b611454565b5b600083013567ffffffffffffffff811115611aba57611ab9611459565b5b611ac685828601611a57565b925050602083013567ffffffffffffffff811115611ae757611ae6611459565b5b611af385828601611810565b9150509250929050565b600081519050919050565b600082825260208201905092915050565b6000819050602082019050919050565b611b32816114bc565b82525050565b6000611b448383611b29565b60208301905092915050565b6000602082019050919050565b6000611b6882611afd565b611b728185611b08565b9350611b7d83611b19565b8060005b83811015611bae578151611b958882611b38565b9750611ba083611b50565b925050600181019050611b81565b5085935050505092915050565b60006020820190508181036000830152611bd58184611b5d565b905092915050565b611be68161147e565b82525050565b6000602082019050611c016000830184611bdd565b92915050565b611c10816115e1565b8114611c1b57600080fd5b50565b600081359050611c2d81611c07565b92915050565b60008060408385031215611c4a57611c49611454565b5b6000611c58858286016114a7565b9250506020611c6985828601611c1e565b9150509250929050565b600060208284031215611c8957611c88611454565b5b6000611c97848285016114a7565b91505092915050565b60008060408385031215611cb757611cb6611454565b5b6000611cc5858286016114a7565b9250506020611cd6858286016114a7565b9150509250929050565b600080600080600060a08688031215611cfc57611cfb611454565b5b6000611d0a888289016114a7565b9550506020611d1b888289016114a7565b9450506040611d2c888289016114dd565b9350506060611d3d888289016114dd565b925050608086013567ffffffffffffffff811115611d5e57611d5d611459565b5b611d6a888289016118c5565b9150509295509295909350565b7f455243313135353a2061646472657373207a65726f206973206e6f742061207660008201527f616c6964206f776e657200000000000000000000000000000000000000000000602082015250565b6000611dd3602a8361164f565b9150611dde82611d77565b604082019050919050565b60006020820190508181036000830152611e0281611dc6565b9050919050565b7f4e487b7100000000000000000000000000000000000000000000000000000000600052602260045260246000fd5b60006002820490506001821680611e5057607f821691505b602082108103611e6357611e62611e09565b5b50919050565b7f455243313135353a206163636f756e747320616e6420696473206c656e67746860008201527f206d69736d617463680000000000000000000000000000000000000000000000602082015250565b6000611ec560298361164f565b9150611ed082611e69565b604082019050919050565b60006020820190508181036000830152611ef481611eb8565b9050919050565b7f4e487b7100000000000000000000000000000000000000000000000000000000600052603260045260246000fd5b7f4e487b7100000000000000000000000000000000000000000000000000000000600052601160045260246000fd5b6000611f64826114bc565b91507fffffffffffffffffffffffffffffffffffffffffffffffffffffffffffffffff8203611f9657611f95611f2a565b5b600182019050919050565b6000604082019050611fb66000830185611bdd565b611fc36020830184611532565b9392505050565b7f4f776e61626c653a206e6577206f776e657220697320746865207a65726f206160008201527f6464726573730000000000000000000000000000000000000000000000000000602082015250565b600061202660268361164f565b915061203182611fca565b604082019050919050565b6000602082019050818103600083015261205581612019565b9050919050565b7f4f776e61626c653a2063616c6c6572206973206e6f7420746865206f776e6572600082015250565b600061209260208361164f565b915061209d8261205c565b602082019050919050565b600060208201905081810360008301526120c181612085565b9050919050565b7f455243313135353a2073657474696e6720617070726f76616c2073746174757360008201527f20666f722073656c660000000000000000000000000000000000000000000000602082015250565b600061212460298361164f565b915061212f826120c8565b604082019050919050565b6000602082019050818103600083015261215381612117565b9050919050565b7f455243313135353a206d696e7420746f20746865207a65726f2061646472657360008201527f7300000000000000000000000000000000000000000000000000000000000000602082015250565b60006121b660218361164f565b91506121c18261215a565b604082019050919050565b600060208201905081810360008301526121e5816121a9565b9050919050565b60006121f7826114bc565b9150612202836114bc565b925082820190508082111561221a57612219611f2a565b5b92915050565b60006040820190506122356000830185611532565b6122426020830184611532565b9392505050565b7f455243313135353a2063616c6c6572206973206e6f7420746f6b656e206f776e60008201527f6572206e6f7220617070726f7665640000000000000000000000000000000000602082015250565b60006122a5602f8361164f565b91506122b082612249565b604082019050919050565b600060208201905081810360008301526122d481612298565b9050919050565b600081519050919050565b600082825260208201905092915050565b6000612302826122db565b61230c81856122e6565b935061231c818560208601611660565b6123258161168a565b840191505092915050565b600060a0820190506123456000830188611bdd565b6123526020830187611bdd565b61235f6040830186611532565b61236c6060830185611532565b818103608083015261237e81846122f7565b90509695505050505050565b60008151905061239981611588565b92915050565b6000602082840312156123b5576123b4611454565b5b60006123c38482850161238a565b91505092915050565b60008160e01c9050919050565b600060033d11156123f85760046000803e6123f56000516123cc565b90505b90565b600060443d106124885761240d61144a565b60043d036004823e80513d602482011167ffffffffffffffff82111715612435575050612488565b808201805167ffffffffffffffff8111156124535750505050612488565b80602083010160043d038501811115612470575050505050612488565b61247f8260200185018661172a565b82955050505050505b90565b7f455243313135353a207472616e7366657220746f206e6f6e204552433131353560008201527f526563656976657220696d706c656d656e746572000000000000000000000000602082015250565b60006124e760348361164f565b91506124f28261248b565b604082019050919050565b60006020820190508181036000830152612516816124da565b9050919050565b7f455243313135353a204552433131353552656365697665722072656a6563746560008201527f6420746f6b656e73000000000000000000000000000000000000000000000000602082015250565b600061257960288361164f565b91506125848261251d565b604082019050919050565b600060208201905081810360008301526125a88161256c565b9050919050565b7f455243313135353a207472616e7366657220746f20746865207a65726f20616460008201527f6472657373000000000000000000000000000000000000000000000000000000602082015250565b600061260b60258361164f565b9150612616826125af565b604082019050919050565b6000602082019050818103600083015261263a816125fe565b9050919050565b7f455243313135353a20696e73756666696369656e742062616c616e636520666f60008201527f72207472616e7366657200000000000000000000000000000000000000000000602082015250565b600061269d602a8361164f565b91506126a882612641565b604082019050919050565b600060208201905081810360008301526126cc81612690565b905091905056fea2646970667358221220f3e8699576372fc115e1b840bdf3cdef8fad86438c5947e6e35bdc6dd7b4aaa364736f6c63430008110033",
  "immutableReferences": {},
  "source": "// SPDX-License-Identifier: Apache-2.0\npragma solidity ^0.8.16;\n\nimport \"@openzeppelin/contracts/access/Ownable.sol\";\nimport \"@openzeppelin/contracts/token/erc1155/ERC1155.sol\";\nimport \"@openzeppelin/contracts/utils/Counters.sol\";\n\ncontract SBTVirtual is Ownable, ERC1155 {\n\n    constructor(string memory uri) ERC1155(uri) {\n\n    }\n\n    //Token\n    using Counters for Counters.Counter;\n    Counters.Counter private _tokenIdCounter;\n\n    mapping(uint256 => mapping(address => bool)) _locked;\n    mapping(uint256 => address) tokenOwnerOf;\n\n    event Locked(address to, uint256 tokenId);\n    event Unlocked(address to, uint256 tokenId);\n    event CreateToken(address tokenOwner, uint256 tokenId);\n\n    function _mint(address to, uint256 tokenId, uint256 amount, bytes memory data) override(ERC1155) internal {\n        super._mint(to, tokenId, amount, data);\n    }\n\n    function _burn(address from, uint256 id, uint256 amount) override(ERC1155) internal {\n        super._burn(from, id, amount);\n    }\n\n    function createToken(address tokenOwner) external onlyOwner{\n        _tokenIdCounter.increment();\n\n        uint256 tokenId = _tokenIdCounter.current();\n        super._mint(tokenOwner, tokenId, 1, \"\");\n\n        tokenOwnerOf[tokenId] = tokenOwner;\n\n        _locked[tokenId][tokenOwner] = true;\n        emit Locked(tokenOwner, tokenId);\n\n        emit CreateToken(tokenOwner, tokenId);\n    }\n\n\n\n    //Transfer, Batch \n    modifier IsTransferAllowed(address soulOwner, uint256 tokenId) {\n        require(!_locked[tokenId][soulOwner]);\n        _;\n    }\n\n    function _burnBatch(\n        address from,\n        uint256[] memory ids,\n        uint256[] memory amounts\n    ) internal virtual override(ERC1155) {}\n\n    function _mintBatch(\n        address to,\n        uint256[] memory ids,\n        uint256[] memory amounts,\n        bytes memory data\n    ) internal virtual override(ERC1155) {\n    }\n\n    function safeTransferFrom(\n        address from,\n        address to,\n        uint256 id,\n        uint256 amount,\n        bytes memory data\n    ) public virtual override (ERC1155) IsTransferAllowed(from, id) {\n        super.safeTransferFrom(from, to, id, amount, data);\n    }\n\n    function safeBatchTransferFrom(\n        address from,\n        address to,\n        uint256[] memory ids,\n        uint256[] memory amounts,\n        bytes memory data\n    ) public virtual override (ERC1155) {}\n\n    function _safeTransferFrom(\n        address from,\n        address to,\n        uint256 id,\n        uint256 amount,\n        bytes memory data\n    ) internal virtual override(ERC1155) IsTransferAllowed(from, id) {\n        super._safeTransferFrom(from, to, id, amount, data);\n    }\n\n    function _safeBatchTransferFrom(\n        address from,\n        address to,\n        uint256[] memory ids,\n        uint256[] memory amounts,\n        bytes memory data\n    ) internal virtual override(ERC1155) {}\n\n    function _beforeTokenTransfer(\n        address operator,\n        address from,\n        address to,\n        uint256[] memory ids,\n        uint256[] memory amounts,\n        bytes memory data\n    ) internal virtual override(ERC1155) {}\n\n    function _afterTokenTransfer(\n        address operator,\n        address from,\n        address to,\n        uint256[] memory ids,\n        uint256[] memory amounts,\n        bytes memory data\n    ) internal virtual override(ERC1155) {}\n\n\n}",
  "sourcePath": "/Users/leekunho/Desktop/workspace/MOSTI/MOSTI_Wallet/contracts/SBTVirtual.sol",
  "compiler": {
    "name": "solc",
    "version": "0.8.17+commit.8df45f5f.Emscripten.clang"
  },
  "schemaVersion": "3.4.10",
  "updatedAt": "2023-03-29T04:23:01.290Z",
  "devdoc": {
    "kind": "dev",
    "methods": {
      "balanceOf(address,uint256)": {
        "details": "See {IERC1155-balanceOf}. Requirements: - `account` cannot be the zero address."
      },
      "balanceOfBatch(address[],uint256[])": {
        "details": "See {IERC1155-balanceOfBatch}. Requirements: - `accounts` and `ids` must have the same length."
      },
      "isApprovedForAll(address,address)": {
        "details": "See {IERC1155-isApprovedForAll}."
      },
      "owner()": {
        "details": "Returns the address of the current owner."
      },
      "renounceOwnership()": {
        "details": "Leaves the contract without owner. It will not be possible to call `onlyOwner` functions anymore. Can only be called by the current owner. NOTE: Renouncing ownership will leave the contract without an owner, thereby removing any functionality that is only available to the owner."
      },
      "safeBatchTransferFrom(address,address,uint256[],uint256[],bytes)": {
        "details": "See {IERC1155-safeBatchTransferFrom}."
      },
      "safeTransferFrom(address,address,uint256,uint256,bytes)": {
        "details": "See {IERC1155-safeTransferFrom}."
      },
      "setApprovalForAll(address,bool)": {
        "details": "See {IERC1155-setApprovalForAll}."
      },
      "supportsInterface(bytes4)": {
        "details": "See {IERC165-supportsInterface}."
      },
      "transferOwnership(address)": {
        "details": "Transfers ownership of the contract to a new account (`newOwner`). Can only be called by the current owner."
      },
      "uri(uint256)": {
        "details": "See {IERC1155MetadataURI-uri}. This implementation returns the same URI for *all* token types. It relies on the token type ID substitution mechanism https://eips.ethereum.org/EIPS/eip-1155#metadata[defined in the EIP]. Clients calling this function must replace the `\\{id\\}` substring with the actual token type ID."
      }
    },
    "version": 1
  },
  "userdoc": {
    "kind": "user",
    "methods": {},
    "version": 1
  }
}