{
  "contractName": "SoulManager",
  "abi": [
    {
      "inputs": [
        {
          "internalType": "string",
          "name": "_name",
          "type": "string"
        },
        {
          "internalType": "uint8",
          "name": "_size",
          "type": "uint8"
        },
        {
          "internalType": "string",
          "name": "uri",
          "type": "string"
        }
      ],
      "stateMutability": "nonpayable",
      "type": "constructor"
    },
    {
      "anonymous": false,
      "inputs": [
        {
          "indexed": true,
          "internalType": "address",
          "name": "account",
          "type": "address"
        },
        {
          "indexed": true,
          "internalType": "address",
          "name": "operator",
          "type": "address"
        },
        {
          "indexed": false,
          "internalType": "bool",
          "name": "approved",
          "type": "bool"
        }
      ],
      "name": "ApprovalForAll",
      "type": "event"
    },
    {
      "anonymous": false,
      "inputs": [
        {
          "indexed": false,
          "internalType": "address",
          "name": "owner",
          "type": "address"
        },
        {
          "indexed": false,
          "internalType": "uint8",
          "name": "index",
          "type": "uint8"
        },
        {
          "indexed": false,
          "internalType": "uint256",
          "name": "tokenID",
          "type": "uint256"
        }
      ],
      "name": "Burn",
      "type": "event"
    },
    {
      "anonymous": false,
      "inputs": [
        {
          "indexed": false,
          "internalType": "address",
          "name": "owner",
          "type": "address"
        },
        {
          "indexed": false,
          "internalType": "address",
          "name": "to",
          "type": "address"
        },
        {
          "indexed": false,
          "internalType": "uint256",
          "name": "tokenID",
          "type": "uint256"
        }
      ],
      "name": "Burn",
      "type": "event"
    },
    {
      "anonymous": false,
      "inputs": [
        {
          "indexed": false,
          "internalType": "address",
          "name": "soulOwner",
          "type": "address"
        },
        {
          "indexed": false,
          "internalType": "uint256",
          "name": "tokenId",
          "type": "uint256"
        }
      ],
      "name": "BurnPublicChain",
      "type": "event"
    },
    {
      "anonymous": false,
      "inputs": [
        {
          "indexed": false,
          "internalType": "address",
          "name": "owner",
          "type": "address"
        },
        {
          "indexed": false,
          "internalType": "uint8",
          "name": "size",
          "type": "uint8"
        }
      ],
      "name": "Create",
      "type": "event"
    },
    {
      "anonymous": false,
      "inputs": [
        {
          "indexed": false,
          "internalType": "address",
          "name": "tokenOwner",
          "type": "address"
        },
        {
          "indexed": false,
          "internalType": "uint256",
          "name": "tokenId",
          "type": "uint256"
        }
      ],
      "name": "CreateToken",
      "type": "event"
    },
    {
      "anonymous": false,
      "inputs": [
        {
          "indexed": false,
          "internalType": "address",
          "name": "owner",
          "type": "address"
        },
        {
          "indexed": false,
          "internalType": "uint8",
          "name": "index",
          "type": "uint8"
        }
      ],
      "name": "Delete",
      "type": "event"
    },
    {
      "anonymous": false,
      "inputs": [
        {
          "indexed": false,
          "internalType": "address",
          "name": "soulOwner",
          "type": "address"
        },
        {
          "indexed": false,
          "internalType": "uint256",
          "name": "tokenId",
          "type": "uint256"
        }
      ],
      "name": "Locked",
      "type": "event"
    },
    {
      "anonymous": false,
      "inputs": [
        {
          "indexed": false,
          "internalType": "address",
          "name": "owner",
          "type": "address"
        },
        {
          "indexed": false,
          "internalType": "uint8",
          "name": "index",
          "type": "uint8"
        },
        {
          "indexed": false,
          "internalType": "uint256",
          "name": "tokenID",
          "type": "uint256"
        }
      ],
      "name": "Mint",
      "type": "event"
    },
    {
      "anonymous": false,
      "inputs": [
        {
          "indexed": false,
          "internalType": "address",
          "name": "soulOwner",
          "type": "address"
        },
        {
          "indexed": false,
          "internalType": "uint256",
          "name": "tokenId",
          "type": "uint256"
        }
      ],
      "name": "MintPublicChain",
      "type": "event"
    },
    {
      "anonymous": false,
      "inputs": [
        {
          "indexed": true,
          "internalType": "address",
          "name": "previousOwner",
          "type": "address"
        },
        {
          "indexed": true,
          "internalType": "address",
          "name": "newOwner",
          "type": "address"
        }
      ],
      "name": "OwnershipTransferred",
      "type": "event"
    },
    {
      "anonymous": false,
      "inputs": [
        {
          "indexed": true,
          "internalType": "address",
          "name": "operator",
          "type": "address"
        },
        {
          "indexed": true,
          "internalType": "address",
          "name": "from",
          "type": "address"
        },
        {
          "indexed": true,
          "internalType": "address",
          "name": "to",
          "type": "address"
        },
        {
          "indexed": false,
          "internalType": "uint256[]",
          "name": "ids",
          "type": "uint256[]"
        },
        {
          "indexed": false,
          "internalType": "uint256[]",
          "name": "values",
          "type": "uint256[]"
        }
      ],
      "name": "TransferBatch",
      "type": "event"
    },
    {
      "anonymous": false,
      "inputs": [
        {
          "indexed": true,
          "internalType": "address",
          "name": "operator",
          "type": "address"
        },
        {
          "indexed": true,
          "internalType": "address",
          "name": "from",
          "type": "address"
        },
        {
          "indexed": true,
          "internalType": "address",
          "name": "to",
          "type": "address"
        },
        {
          "indexed": false,
          "internalType": "uint256",
          "name": "id",
          "type": "uint256"
        },
        {
          "indexed": false,
          "internalType": "uint256",
          "name": "value",
          "type": "uint256"
        }
      ],
      "name": "TransferSingle",
      "type": "event"
    },
    {
      "anonymous": false,
      "inputs": [
        {
          "indexed": false,
          "internalType": "string",
          "name": "value",
          "type": "string"
        },
        {
          "indexed": true,
          "internalType": "uint256",
          "name": "id",
          "type": "uint256"
        }
      ],
      "name": "URI",
      "type": "event"
    },
    {
      "anonymous": false,
      "inputs": [
        {
          "indexed": false,
          "internalType": "address",
          "name": "soulOnwer",
          "type": "address"
        },
        {
          "indexed": false,
          "internalType": "uint256",
          "name": "tokenId",
          "type": "uint256"
        }
      ],
      "name": "Unlocked",
      "type": "event"
    },
    {
      "inputs": [
        {
          "internalType": "address",
          "name": "account",
          "type": "address"
        },
        {
          "internalType": "uint256",
          "name": "id",
          "type": "uint256"
        }
      ],
      "name": "balanceOf",
      "outputs": [
        {
          "internalType": "uint256",
          "name": "",
          "type": "uint256"
        }
      ],
      "stateMutability": "view",
      "type": "function",
      "constant": true
    },
    {
      "inputs": [
        {
          "internalType": "address[]",
          "name": "accounts",
          "type": "address[]"
        },
        {
          "internalType": "uint256[]",
          "name": "ids",
          "type": "uint256[]"
        }
      ],
      "name": "balanceOfBatch",
      "outputs": [
        {
          "internalType": "uint256[]",
          "name": "",
          "type": "uint256[]"
        }
      ],
      "stateMutability": "view",
      "type": "function",
      "constant": true
    },
    {
      "inputs": [
        {
          "internalType": "address",
          "name": "account",
          "type": "address"
        },
        {
          "internalType": "address",
          "name": "operator",
          "type": "address"
        }
      ],
      "name": "isApprovedForAll",
      "outputs": [
        {
          "internalType": "bool",
          "name": "",
          "type": "bool"
        }
      ],
      "stateMutability": "view",
      "type": "function",
      "constant": true
    },
    {
      "inputs": [],
      "name": "owner",
      "outputs": [
        {
          "internalType": "address",
          "name": "",
          "type": "address"
        }
      ],
      "stateMutability": "view",
      "type": "function",
      "constant": true
    },
    {
      "inputs": [],
      "name": "renounceOwnership",
      "outputs": [],
      "stateMutability": "nonpayable",
      "type": "function"
    },
    {
      "inputs": [
        {
          "internalType": "address",
          "name": "operator",
          "type": "address"
        },
        {
          "internalType": "bool",
          "name": "approved",
          "type": "bool"
        }
      ],
      "name": "setApprovalForAll",
      "outputs": [],
      "stateMutability": "nonpayable",
      "type": "function"
    },
    {
      "inputs": [
        {
          "internalType": "bytes4",
          "name": "interfaceId",
          "type": "bytes4"
        }
      ],
      "name": "supportsInterface",
      "outputs": [
        {
          "internalType": "bool",
          "name": "",
          "type": "bool"
        }
      ],
      "stateMutability": "view",
      "type": "function",
      "constant": true
    },
    {
      "inputs": [
        {
          "internalType": "address",
          "name": "newOwner",
          "type": "address"
        }
      ],
      "name": "transferOwnership",
      "outputs": [],
      "stateMutability": "nonpayable",
      "type": "function"
    },
    {
      "inputs": [
        {
          "internalType": "uint256",
          "name": "",
          "type": "uint256"
        }
      ],
      "name": "uri",
      "outputs": [
        {
          "internalType": "string",
          "name": "",
          "type": "string"
        }
      ],
      "stateMutability": "view",
      "type": "function",
      "constant": true
    },
    {
      "inputs": [
        {
          "internalType": "address",
          "name": "soulOwner",
          "type": "address"
        },
        {
          "internalType": "uint256",
          "name": "tokenId",
          "type": "uint256"
        }
      ],
      "name": "locked",
      "outputs": [
        {
          "internalType": "bool",
          "name": "",
          "type": "bool"
        }
      ],
      "stateMutability": "view",
      "type": "function",
      "constant": true
    },
    {
      "inputs": [
        {
          "internalType": "address",
          "name": "soulOwner",
          "type": "address"
        }
      ],
      "name": "createSoul",
      "outputs": [],
      "stateMutability": "nonpayable",
      "type": "function"
    },
    {
      "inputs": [
        {
          "internalType": "address",
          "name": "soulOwner",
          "type": "address"
        },
        {
          "internalType": "uint8",
          "name": "arrayIndex",
          "type": "uint8"
        }
      ],
      "name": "deleteSoul",
      "outputs": [],
      "stateMutability": "nonpayable",
      "type": "function"
    },
    {
      "inputs": [
        {
          "internalType": "address",
          "name": "tokenOwner",
          "type": "address"
        },
        {
          "internalType": "address",
          "name": "to",
          "type": "address"
        },
        {
          "internalType": "uint8",
          "name": "arrayIndex",
          "type": "uint8"
        },
        {
          "internalType": "uint256",
          "name": "tokenId",
          "type": "uint256"
        }
      ],
      "name": "mintSoulToken",
      "outputs": [],
      "stateMutability": "nonpayable",
      "type": "function"
    },
    {
      "inputs": [
        {
          "internalType": "address",
          "name": "tokenOwner",
          "type": "address"
        },
        {
          "internalType": "address",
          "name": "to",
          "type": "address"
        },
        {
          "internalType": "uint256",
          "name": "tokenId",
          "type": "uint256"
        }
      ],
      "name": "burnSoulToken",
      "outputs": [],
      "stateMutability": "nonpayable",
      "type": "function"
    },
    {
      "inputs": [
        {
          "internalType": "address",
          "name": "soulOwner",
          "type": "address"
        },
        {
          "internalType": "uint8",
          "name": "arrayIndex",
          "type": "uint8"
        },
        {
          "internalType": "uint256",
          "name": "tokenId",
          "type": "uint256"
        }
      ],
      "name": "deleteSoulToken",
      "outputs": [],
      "stateMutability": "nonpayable",
      "type": "function"
    },
    {
      "inputs": [
        {
          "internalType": "address",
          "name": "soulOwner",
          "type": "address"
        },
        {
          "internalType": "uint8",
          "name": "arrayIndex",
          "type": "uint8"
        },
        {
          "internalType": "uint256",
          "name": "tokenID",
          "type": "uint256"
        }
      ],
      "name": "mintTokenPublicChain",
      "outputs": [],
      "stateMutability": "nonpayable",
      "type": "function"
    },
    {
      "inputs": [
        {
          "internalType": "address",
          "name": "soulOwner",
          "type": "address"
        },
        {
          "internalType": "uint8",
          "name": "arrayIndex",
          "type": "uint8"
        },
        {
          "internalType": "uint256",
          "name": "tokenID",
          "type": "uint256"
        }
      ],
      "name": "burnTokenPublicChain",
      "outputs": [],
      "stateMutability": "nonpayable",
      "type": "function"
    },
    {
      "inputs": [
        {
          "internalType": "address",
          "name": "tokenOwner",
          "type": "address"
        }
      ],
      "name": "createToken",
      "outputs": [],
      "stateMutability": "nonpayable",
      "type": "function"
    },
    {
      "inputs": [
        {
          "internalType": "address",
          "name": "soulOwner",
          "type": "address"
        }
      ],
      "name": "getSouls",
      "outputs": [
        {
          "internalType": "bytes32[]",
          "name": "",
          "type": "bytes32[]"
        }
      ],
      "stateMutability": "view",
      "type": "function",
      "constant": true
    },
    {
      "inputs": [
        {
          "internalType": "address",
          "name": "soulOwner",
          "type": "address"
        },
        {
          "internalType": "uint8",
          "name": "arrayIndex",
          "type": "uint8"
        },
        {
          "internalType": "uint256",
          "name": "tokenId",
          "type": "uint256"
        }
      ],
      "name": "getToken",
      "outputs": [
        {
          "components": [
            {
              "internalType": "bytes32",
              "name": "soulKey",
              "type": "bytes32"
            },
            {
              "internalType": "uint256",
              "name": "mintTimeStamp",
              "type": "uint256"
            },
            {
              "internalType": "uint256",
              "name": "burnTimeStamp",
              "type": "uint256"
            }
          ],
          "internalType": "struct SoulManager.SoulToken",
          "name": "",
          "type": "tuple"
        }
      ],
      "stateMutability": "view",
      "type": "function",
      "constant": true
    },
    {
      "inputs": [
        {
          "internalType": "address",
          "name": "from",
          "type": "address"
        },
        {
          "internalType": "address",
          "name": "to",
          "type": "address"
        },
        {
          "internalType": "uint256",
          "name": "id",
          "type": "uint256"
        },
        {
          "internalType": "uint256",
          "name": "amount",
          "type": "uint256"
        },
        {
          "internalType": "bytes",
          "name": "data",
          "type": "bytes"
        }
      ],
      "name": "safeTransferFrom",
      "outputs": [],
      "stateMutability": "nonpayable",
      "type": "function"
    },
    {
      "inputs": [
        {
          "internalType": "address",
          "name": "from",
          "type": "address"
        },
        {
          "internalType": "address",
          "name": "to",
          "type": "address"
        },
        {
          "internalType": "uint256[]",
          "name": "ids",
          "type": "uint256[]"
        },
        {
          "internalType": "uint256[]",
          "name": "amounts",
          "type": "uint256[]"
        },
        {
          "internalType": "bytes",
          "name": "data",
          "type": "bytes"
        }
      ],
      "name": "safeBatchTransferFrom",
      "outputs": [],
      "stateMutability": "nonpayable",
      "type": "function"
    }
  ],
  "bytecode": "0x60806040523480156200001157600080fd5b506040516200538938038062005389833981810160405281019062000037919062000352565b80620000586200004c620000a060201b60201c565b620000a860201b60201c565b62000069816200016c60201b60201c565b5082600a90816200007b919062000637565b5081600b60006101000a81548160ff021916908360ff1602179055505050506200071e565b600033905090565b60008060009054906101000a900473ffffffffffffffffffffffffffffffffffffffff169050816000806101000a81548173ffffffffffffffffffffffffffffffffffffffff021916908373ffffffffffffffffffffffffffffffffffffffff1602179055508173ffffffffffffffffffffffffffffffffffffffff168173ffffffffffffffffffffffffffffffffffffffff167f8be0079c531659141344cd1fd0a4f28419497f9722a3daafe3b4186f6b6457e060405160405180910390a35050565b80600390816200017d919062000637565b5050565b6000604051905090565b600080fd5b600080fd5b600080fd5b600080fd5b6000601f19601f8301169050919050565b7f4e487b7100000000000000000000000000000000000000000000000000000000600052604160045260246000fd5b620001ea826200019f565b810181811067ffffffffffffffff821117156200020c576200020b620001b0565b5b80604052505050565b60006200022162000181565b90506200022f8282620001df565b919050565b600067ffffffffffffffff821115620002525762000251620001b0565b5b6200025d826200019f565b9050602081019050919050565b60005b838110156200028a5780820151818401526020810190506200026d565b60008484015250505050565b6000620002ad620002a78462000234565b62000215565b905082815260208101848484011115620002cc57620002cb6200019a565b5b620002d98482856200026a565b509392505050565b600082601f830112620002f957620002f862000195565b5b81516200030b84826020860162000296565b91505092915050565b600060ff82169050919050565b6200032c8162000314565b81146200033857600080fd5b50565b6000815190506200034c8162000321565b92915050565b6000806000606084860312156200036e576200036d6200018b565b5b600084015167ffffffffffffffff8111156200038f576200038e62000190565b5b6200039d86828701620002e1565b9350506020620003b0868287016200033b565b925050604084015167ffffffffffffffff811115620003d457620003d362000190565b5b620003e286828701620002e1565b9150509250925092565b600081519050919050565b7f4e487b7100000000000000000000000000000000000000000000000000000000600052602260045260246000fd5b600060028204905060018216806200043f57607f821691505b602082108103620004555762000454620003f7565b5b50919050565b60008190508160005260206000209050919050565b60006020601f8301049050919050565b600082821b905092915050565b600060088302620004bf7fffffffffffffffffffffffffffffffffffffffffffffffffffffffffffffffff8262000480565b620004cb868362000480565b95508019841693508086168417925050509392505050565b6000819050919050565b6000819050919050565b600062000518620005126200050c84620004e3565b620004ed565b620004e3565b9050919050565b6000819050919050565b6200053483620004f7565b6200054c62000543826200051f565b8484546200048d565b825550505050565b600090565b6200056362000554565b6200057081848462000529565b505050565b5b8181101562000598576200058c60008262000559565b60018101905062000576565b5050565b601f821115620005e757620005b1816200045b565b620005bc8462000470565b81016020851015620005cc578190505b620005e4620005db8562000470565b83018262000575565b50505b505050565b600082821c905092915050565b60006200060c60001984600802620005ec565b1980831691505092915050565b6000620006278383620005f9565b9150826002028217905092915050565b6200064282620003ec565b67ffffffffffffffff8111156200065e576200065d620001b0565b5b6200066a825462000426565b620006778282856200059c565b600060209050601f831160018114620006af57600084156200069a578287015190505b620006a6858262000619565b86555062000716565b601f198416620006bf866200045b565b60005b82811015620006e957848901518255600182019150602085019450602081019050620006c2565b8683101562000709578489015162000705601f891682620005f9565b8355505b6001600288020188555050505b505050505050565b614c5b806200072e6000396000f3fe608060405234801561001057600080fd5b50600436106101415760003560e01c8063a2ff472a116100b8578063c21ab7f91161007c578063c21ab7f91461036e578063c84c08051461038a578063e4b51872146103ba578063e985e9c5146103d6578063f242432a14610406578063f2fde38b1461042257610141565b8063a2ff472a146102ba578063a33ddc78146102d6578063a42a028f146102f2578063bcd4282014610322578063bf7bab731461033e57610141565b80632eb2c2d61161010a5780632eb2c2d61461020e5780634e1273f41461022a578063715018a61461025a578063892c9092146102645780638da5cb5b14610280578063a22cb4651461029e57610141565b8062fdd58e1461014657806301ffc9a7146101765780630e89341c146101a657806316ccdf1e146101d65780632aac9fdd146101f2575b600080fd5b610160600480360381019061015b9190613048565b61043e565b60405161016d9190613097565b60405180910390f35b610190600480360381019061018b919061310a565b610507565b60405161019d9190613152565b60405180910390f35b6101c060048036038101906101bb919061316d565b6105e9565b6040516101cd919061322a565b60405180910390f35b6101f060048036038101906101eb9190613285565b61067d565b005b61020c60048036038101906102079190613285565b61093c565b005b610228600480360381019061022391906134d5565b610a88565b005b610244600480360381019061023f9190613667565b610a8f565b604051610251919061379d565b60405180910390f35b610262610ba8565b005b61027e60048036038101906102799190613285565b610bbc565b005b610288610e8c565b60405161029591906137ce565b60405180910390f35b6102b860048036038101906102b39190613815565b610eb5565b005b6102d460048036038101906102cf9190613855565b610ecb565b005b6102f060048036038101906102eb9190613895565b6111fe565b005b61030c60048036038101906103079190613895565b61141e565b604051610319919061398a565b60405180910390f35b61033c600480360381019061033791906139ac565b6114b5565b005b61035860048036038101906103539190613048565b611794565b6040516103659190613152565b60405180910390f35b61038860048036038101906103839190613895565b6117fc565b005b6103a4600480360381019061039f9190613285565b611961565b6040516103b19190613a41565b60405180910390f35b6103d460048036038101906103cf9190613a5c565b611ad8565b005b6103f060048036038101906103eb9190613ac3565b611e92565b6040516103fd9190613152565b60405180910390f35b610420600480360381019061041b9190613b03565b611f26565b005b61043c60048036038101906104379190613895565b611fa6565b005b60008073ffffffffffffffffffffffffffffffffffffffff168373ffffffffffffffffffffffffffffffffffffffff16036104ae576040517f08c379a00000000000000000000000000000000000000000000000000000000081526004016104a590613c0c565b60405180910390fd5b6001600083815260200190815260200160002060008473ffffffffffffffffffffffffffffffffffffffff1673ffffffffffffffffffffffffffffffffffffffff16815260200190815260200160002054905092915050565b60007fd9b67a26000000000000000000000000000000000000000000000000000000007bffffffffffffffffffffffffffffffffffffffffffffffffffffffff1916827bffffffffffffffffffffffffffffffffffffffffffffffffffffffff191614806105d257507f0e89341c000000000000000000000000000000000000000000000000000000007bffffffffffffffffffffffffffffffffffffffffffffffffffffffff1916827bffffffffffffffffffffffffffffffffffffffffffffffffffffffff1916145b806105e257506105e182612029565b5b9050919050565b6060600380546105f890613c5b565b80601f016020809104026020016040519081016040528092919081815260200182805461062490613c5b565b80156106715780601f1061064657610100808354040283529160200191610671565b820191906000526020600020905b81548152906001019060200180831161065457829003601f168201915b50505050509050919050565b600d600082815260200190815260200160002060008473ffffffffffffffffffffffffffffffffffffffff1673ffffffffffffffffffffffffffffffffffffffff16815260200190815260200160002060009054906101000a900460ff1661071a576040517f08c379a000000000000000000000000000000000000000000000000000000000815260040161071190613cd8565b60405180910390fd5b6000600560008573ffffffffffffffffffffffffffffffffffffffff1673ffffffffffffffffffffffffffffffffffffffff1681526020019081526020016000208360ff16815481106107705761076f613cf8565b5b9060005260206000200154905060006006600083815260200190815260200160002060009054906101000a900460ff16905081600460008773ffffffffffffffffffffffffffffffffffffffff1673ffffffffffffffffffffffffffffffffffffffff16815260200190815260200160002060008360ff1660ff1681526020019081526020016000206000858152602001908152602001600020600001541461084e576040517f08c379a000000000000000000000000000000000000000000000000000000000815260040161084590613d73565b60405180910390fd5b6000600d600085815260200190815260200160002060008773ffffffffffffffffffffffffffffffffffffffff1673ffffffffffffffffffffffffffffffffffffffff16815260200190815260200160002060006101000a81548160ff0219169083151502179055507f0f0bc5b519ddefdd8e5f9e6423433aa2b869738de2ae34d58ebc796fc749fa0d85846040516108e8929190613d93565b60405180910390a16108fc85846001612093565b7f3b621ab6bad86ab728b782534f3956c589acaafc83e3b5e3b3178fba988325f6858460405161092d929190613d93565b60405180910390a15050505050565b6000600560008573ffffffffffffffffffffffffffffffffffffffff1673ffffffffffffffffffffffffffffffffffffffff1681526020019081526020016000208360ff168154811061099257610991613cf8565b5b9060005260206000200154905060006006600083815260200190815260200160002060009054906101000a900460ff169050600460008673ffffffffffffffffffffffffffffffffffffffff1673ffffffffffffffffffffffffffffffffffffffff16815260200190815260200160002060008260ff1660ff16815260200190815260200160002060008481526020019081526020016000206000808201600090556001820160009055600282016000905550507fc636986af0b827e3e4ada15322a43b6ce78d917eac82abea24ab2e45ac84172c858285604051610a7993929190613dcb565b60405180910390a15050505050565b5050505050565b60608151835114610ad5576040517f08c379a0000000000000000000000000000000000000000000000000000000008152600401610acc90613e74565b60405180910390fd5b6000835167ffffffffffffffff811115610af257610af16132dd565b5b604051908082528060200260200182016040528015610b205781602001602082028036833780820191505090505b50905060005b8451811015610b9d57610b6d858281518110610b4557610b44613cf8565b5b6020026020010151858381518110610b6057610b5f613cf8565b5b602002602001015161043e565b828281518110610b8057610b7f613cf8565b5b60200260200101818152505080610b9690613ec3565b9050610b26565b508091505092915050565b610bb06122db565b610bba6000612359565b565b600d600082815260200190815260200160002060008473ffffffffffffffffffffffffffffffffffffffff1673ffffffffffffffffffffffffffffffffffffffff16815260200190815260200160002060009054906101000a900460ff1615610c5a576040517f08c379a0000000000000000000000000000000000000000000000000000000008152600401610c5190613f7d565b60405180910390fd5b6000600560008573ffffffffffffffffffffffffffffffffffffffff1673ffffffffffffffffffffffffffffffffffffffff1681526020019081526020016000208360ff1681548110610cb057610caf613cf8565b5b9060005260206000200154905060006006600083815260200190815260200160002060009054906101000a900460ff16905081600460008773ffffffffffffffffffffffffffffffffffffffff1673ffffffffffffffffffffffffffffffffffffffff16815260200190815260200160002060008360ff1660ff16815260200190815260200160002060008581526020019081526020016000206000015414610d8e576040517f08c379a0000000000000000000000000000000000000000000000000000000008152600401610d8590613d73565b60405180910390fd5b610daa858460016040518060200160405280600081525061241d565b7f4475a35547212e4a5e5e6bef50e35aa956fa2f3bd3b1b092c88371c75f9952af8584604051610ddb929190613d93565b60405180910390a16001600d600085815260200190815260200160002060008773ffffffffffffffffffffffffffffffffffffffff1673ffffffffffffffffffffffffffffffffffffffff16815260200190815260200160002060006101000a81548160ff0219169083151502179055507f9f1ec8c880f76798e7b793325d625e9b60e4082a553c98f42b6cda368dd600088584604051610e7d929190613d93565b60405180910390a15050505050565b60008060009054906101000a900473ffffffffffffffffffffffffffffffffffffffff16905090565b610ec7610ec06125ce565b83836125d6565b5050565b610ed36122db565b6000600560008473ffffffffffffffffffffffffffffffffffffffff1673ffffffffffffffffffffffffffffffffffffffff16815260200190815260200160002080549050905060018111610f5d576040517f08c379a0000000000000000000000000000000000000000000000000000000008152600401610f5490613fe9565b60405180910390fd5b808260ff1610610fa2576040517f08c379a0000000000000000000000000000000000000000000000000000000008152600401610f9990614055565b60405180910390fd5b6000600560008573ffffffffffffffffffffffffffffffffffffffff1673ffffffffffffffffffffffffffffffffffffffff1681526020019081526020016000208360ff1681548110610ff857610ff7613cf8565b5b9060005260206000200154905060006006600083815260200190815260200160002060009054906101000a900460ff16905061103685826000612742565b6007600083815260200190815260200160002060006101000a81549073ffffffffffffffffffffffffffffffffffffffff02191690556006600083815260200190815260200160002060006101000a81549060ff0219169055600560008673ffffffffffffffffffffffffffffffffffffffff1673ffffffffffffffffffffffffffffffffffffffff1681526020019081526020016000206001846110db9190614075565b815481106110ec576110eb613cf8565b5b9060005260206000200154600560008773ffffffffffffffffffffffffffffffffffffffff1673ffffffffffffffffffffffffffffffffffffffff1681526020019081526020016000208560ff168154811061114b5761114a613cf8565b5b9060005260206000200181905550600560008673ffffffffffffffffffffffffffffffffffffffff1673ffffffffffffffffffffffffffffffffffffffff1681526020019081526020016000208054806111a8576111a76140a9565b5b600190038181906000526020600020016000905590557fd0ef017ddfa0035239d5d5015aa54264da6e535650bc1b2805bfc08ca437c57085826040516111ef9291906140d8565b60405180910390a15050505050565b6112066122db565b6000611211826127b5565b9050600b60009054906101000a900460ff1660ff168160ff161061126a576040517f08c379a00000000000000000000000000000000000000000000000000000000081526004016112619061414d565b60405180910390fd5b600060405180606001604052808473ffffffffffffffffffffffffffffffffffffffff1681526020018360ff1681526020016112a585612875565b8152506040516020016112b891906141cd565b604051602081830303815290604052805190602001209050600560008473ffffffffffffffffffffffffffffffffffffffff1673ffffffffffffffffffffffffffffffffffffffff168152602001908152602001600020819080600181540180825580915050600190039060005260206000200160009091909190915055816006600083815260200190815260200160002060006101000a81548160ff021916908360ff160217905550826007600083815260200190815260200160002060006101000a81548173ffffffffffffffffffffffffffffffffffffffff021916908373ffffffffffffffffffffffffffffffffffffffff1602179055506113c083836001612742565b7ff707a0e0de2db91ebebf1dd4c11195a1284db850cdd1ea6f594a304aecb2da52836006600084815260200190815260200160002060009054906101000a900460ff166040516114119291906140d8565b60405180910390a1505050565b6060600560008373ffffffffffffffffffffffffffffffffffffffff1673ffffffffffffffffffffffffffffffffffffffff1681526020019081526020016000208054806020026020016040519081016040528092919081815260200182805480156114a957602002820191906000526020600020905b815481526020019060010190808311611495575b50505050509050919050565b8273ffffffffffffffffffffffffffffffffffffffff16600e600083815260200190815260200160002060009054906101000a900473ffffffffffffffffffffffffffffffffffffffff1673ffffffffffffffffffffffffffffffffffffffff1614611556576040517f08c379a000000000000000000000000000000000000000000000000000000000815260040161154d90614234565b60405180910390fd5b6000600560008473ffffffffffffffffffffffffffffffffffffffff1673ffffffffffffffffffffffffffffffffffffffff168152602001908152602001600020805490509050600081116115e0576040517f08c379a00000000000000000000000000000000000000000000000000000000081526004016115d7906142a0565b60405180910390fd5b60005b818160ff161015611752576000600460008673ffffffffffffffffffffffffffffffffffffffff1673ffffffffffffffffffffffffffffffffffffffff16815260200190815260200160002060008360ff1660ff168152602001908152602001600020600085815260200190815260200160002060000154905060006007600083815260200190815260200160002060009054906101000a900473ffffffffffffffffffffffffffffffffffffffff1690508573ffffffffffffffffffffffffffffffffffffffff168173ffffffffffffffffffffffffffffffffffffffff16146116cf575050611741565b42600460008873ffffffffffffffffffffffffffffffffffffffff1673ffffffffffffffffffffffffffffffffffffffff16815260200190815260200160002060008560ff1660ff16815260200190815260200160002060008781526020019081526020016000206002018190555050505b8061174b906142c0565b90506115e3565b507fbac40739b0d4ca32fa2d82fc91630465ba3eddd1598da6fca393b26fb63b9453848484604051611786939291906142e9565b60405180910390a150505050565b6000600d600083815260200190815260200160002060008473ffffffffffffffffffffffffffffffffffffffff1673ffffffffffffffffffffffffffffffffffffffff16815260200190815260200160002060009054906101000a900460ff16905092915050565b611806600c612915565b6000611812600c61292b565b905081600e600083815260200190815260200160002060006101000a81548173ffffffffffffffffffffffffffffffffffffffff021916908373ffffffffffffffffffffffffffffffffffffffff160217905550611882828260016040518060200160405280600081525061241d565b7fb378e89b40ac5bbe0e2241b596fbe1adc3cf1fb7c982aa1b4560165cf264ee9382826040516118b3929190613d93565b60405180910390a16001600d600083815260200190815260200160002060008473ffffffffffffffffffffffffffffffffffffffff1673ffffffffffffffffffffffffffffffffffffffff16815260200190815260200160002060006101000a81548160ff0219169083151502179055507f9f1ec8c880f76798e7b793325d625e9b60e4082a553c98f42b6cda368dd600088282604051611955929190613d93565b60405180910390a15050565b611969612f7c565b6000600560008673ffffffffffffffffffffffffffffffffffffffff1673ffffffffffffffffffffffffffffffffffffffff1681526020019081526020016000208460ff16815481106119bf576119be613cf8565b5b9060005260206000200154905060006006600083815260200190815260200160002060009054906101000a900460ff1690506000600460008873ffffffffffffffffffffffffffffffffffffffff1673ffffffffffffffffffffffffffffffffffffffff16815260200190815260200160002060008360ff1660ff16815260200190815260200160002060008681526020019081526020016000206040518060600160405290816000820154815260200160018201548152602001600282015481525050905082816000015114611acb576040517f08c379a0000000000000000000000000000000000000000000000000000000008152600401611ac29061436c565b60405180910390fd5b8093505050509392505050565b611ae06122db565b8373ffffffffffffffffffffffffffffffffffffffff16600e600083815260200190815260200160002060009054906101000a900473ffffffffffffffffffffffffffffffffffffffff1673ffffffffffffffffffffffffffffffffffffffff1614611b81576040517f08c379a0000000000000000000000000000000000000000000000000000000008152600401611b7890614234565b60405180910390fd5b6000600560008573ffffffffffffffffffffffffffffffffffffffff1673ffffffffffffffffffffffffffffffffffffffff1681526020019081526020016000208360ff1681548110611bd757611bd6613cf8565b5b9060005260206000200154905060006006600083815260200190815260200160002060009054906101000a900460ff1690506000801b8203611c4e576040517f08c379a0000000000000000000000000000000000000000000000000000000008152600401611c45906142a0565b60405180910390fd5b81600460008773ffffffffffffffffffffffffffffffffffffffff1673ffffffffffffffffffffffffffffffffffffffff16815260200190815260200160002060008360ff1660ff168152602001908152602001600020600085815260200190815260200160002060000154141580611da7575081600460008773ffffffffffffffffffffffffffffffffffffffff1673ffffffffffffffffffffffffffffffffffffffff16815260200190815260200160002060008360ff1660ff168152602001908152602001600020600085815260200190815260200160002060000154148015611da657506000600460008773ffffffffffffffffffffffffffffffffffffffff1673ffffffffffffffffffffffffffffffffffffffff16815260200190815260200160002060008360ff1660ff16815260200190815260200160002060008581526020019081526020016000206002015414155b5b611de6576040517f08c379a0000000000000000000000000000000000000000000000000000000008152600401611ddd906143d8565b60405180910390fd5b60405180606001604052808381526020014281526020016000815250600460008773ffffffffffffffffffffffffffffffffffffffff1673ffffffffffffffffffffffffffffffffffffffff16815260200190815260200160002060008360ff1660ff1681526020019081526020016000206000858152602001908152602001600020600082015181600001556020820151816001015560408201518160020155905050505050505050565b6000600260008473ffffffffffffffffffffffffffffffffffffffff1673ffffffffffffffffffffffffffffffffffffffff16815260200190815260200160002060008373ffffffffffffffffffffffffffffffffffffffff1673ffffffffffffffffffffffffffffffffffffffff16815260200190815260200160002060009054906101000a900460ff16905092915050565b8483600d600082815260200190815260200160002060008373ffffffffffffffffffffffffffffffffffffffff1673ffffffffffffffffffffffffffffffffffffffff16815260200190815260200160002060009054906101000a900460ff1615611f9057600080fd5b611f9d8787878787612939565b50505050505050565b611fae6122db565b600073ffffffffffffffffffffffffffffffffffffffff168173ffffffffffffffffffffffffffffffffffffffff160361201d576040517f08c379a00000000000000000000000000000000000000000000000000000000081526004016120149061446a565b60405180910390fd5b61202681612359565b50565b60007f01ffc9a7000000000000000000000000000000000000000000000000000000007bffffffffffffffffffffffffffffffffffffffffffffffffffffffff1916827bffffffffffffffffffffffffffffffffffffffffffffffffffffffff1916149050919050565b600073ffffffffffffffffffffffffffffffffffffffff168373ffffffffffffffffffffffffffffffffffffffff1603612102576040517f08c379a00000000000000000000000000000000000000000000000000000000081526004016120f9906144fc565b60405180910390fd5b600061210c6125ce565b90506000612119846129da565b90506000612126846129da565b905061214683876000858560405180602001604052806000815250612a54565b60006001600087815260200190815260200160002060008873ffffffffffffffffffffffffffffffffffffffff1673ffffffffffffffffffffffffffffffffffffffff168152602001908152602001600020549050848110156121de576040517f08c379a00000000000000000000000000000000000000000000000000000000081526004016121d59061458e565b60405180910390fd5b8481036001600088815260200190815260200160002060008973ffffffffffffffffffffffffffffffffffffffff1673ffffffffffffffffffffffffffffffffffffffff16815260200190815260200160002081905550600073ffffffffffffffffffffffffffffffffffffffff168773ffffffffffffffffffffffffffffffffffffffff168573ffffffffffffffffffffffffffffffffffffffff167fc3d58168c5ae7397731d063d5bbf3d657854427343f4c083240f7aacaa2d0f6289896040516122ac9291906145ae565b60405180910390a46122d284886000868660405180602001604052806000815250612a5c565b50505050505050565b6122e36125ce565b73ffffffffffffffffffffffffffffffffffffffff16612301610e8c565b73ffffffffffffffffffffffffffffffffffffffff1614612357576040517f08c379a000000000000000000000000000000000000000000000000000000000815260040161234e90614623565b60405180910390fd5b565b60008060009054906101000a900473ffffffffffffffffffffffffffffffffffffffff169050816000806101000a81548173ffffffffffffffffffffffffffffffffffffffff021916908373ffffffffffffffffffffffffffffffffffffffff1602179055508173ffffffffffffffffffffffffffffffffffffffff168173ffffffffffffffffffffffffffffffffffffffff167f8be0079c531659141344cd1fd0a4f28419497f9722a3daafe3b4186f6b6457e060405160405180910390a35050565b600073ffffffffffffffffffffffffffffffffffffffff168473ffffffffffffffffffffffffffffffffffffffff160361248c576040517f08c379a0000000000000000000000000000000000000000000000000000000008152600401612483906146b5565b60405180910390fd5b60006124966125ce565b905060006124a3856129da565b905060006124b0856129da565b90506124c183600089858589612a54565b846001600088815260200190815260200160002060008973ffffffffffffffffffffffffffffffffffffffff1673ffffffffffffffffffffffffffffffffffffffff168152602001908152602001600020600082825461252191906146d5565b925050819055508673ffffffffffffffffffffffffffffffffffffffff16600073ffffffffffffffffffffffffffffffffffffffff168473ffffffffffffffffffffffffffffffffffffffff167fc3d58168c5ae7397731d063d5bbf3d657854427343f4c083240f7aacaa2d0f62898960405161259f9291906145ae565b60405180910390a46125b683600089858589612a5c565b6125c583600089898989612a64565b50505050505050565b600033905090565b8173ffffffffffffffffffffffffffffffffffffffff168373ffffffffffffffffffffffffffffffffffffffff1603612644576040517f08c379a000000000000000000000000000000000000000000000000000000000815260040161263b9061477b565b60405180910390fd5b80600260008573ffffffffffffffffffffffffffffffffffffffff1673ffffffffffffffffffffffffffffffffffffffff16815260200190815260200160002060008473ffffffffffffffffffffffffffffffffffffffff1673ffffffffffffffffffffffffffffffffffffffff16815260200190815260200160002060006101000a81548160ff0219169083151502179055508173ffffffffffffffffffffffffffffffffffffffff168373ffffffffffffffffffffffffffffffffffffffff167f17307eab39ab6107e8899845ad3d59bd9653f200f220920489ca2b5937696c31836040516127359190613152565b60405180910390a3505050565b80600860008573ffffffffffffffffffffffffffffffffffffffff1673ffffffffffffffffffffffffffffffffffffffff16815260200190815260200160002060008460ff1660ff16815260200190815260200160002060006101000a81548160ff021916908315150217905550505050565b600080600b60009054906101000a900460ff16905060005b600b60009054906101000a900460ff1660ff168160ff16101561286b57600860008573ffffffffffffffffffffffffffffffffffffffff1673ffffffffffffffffffffffffffffffffffffffff16815260200190815260200160002060008260ff1660ff16815260200190815260200160002060009054906101000a900460ff1661285a5780915061286b565b80612864906142c0565b90506127cd565b5080915050919050565b60006001600960008473ffffffffffffffffffffffffffffffffffffffff1673ffffffffffffffffffffffffffffffffffffffff16815260200190815260200160002060008282546128c791906146d5565b92505081905550600960008373ffffffffffffffffffffffffffffffffffffffff1673ffffffffffffffffffffffffffffffffffffffff168152602001908152602001600020549050919050565b6001816000016000828254019250508190555050565b600081600001549050919050565b6129416125ce565b73ffffffffffffffffffffffffffffffffffffffff168573ffffffffffffffffffffffffffffffffffffffff1614806129875750612986856129816125ce565b611e92565b5b6129c6576040517f08c379a00000000000000000000000000000000000000000000000000000000081526004016129bd9061480d565b60405180910390fd5b6129d38585858585612c3b565b5050505050565b60606000600167ffffffffffffffff8111156129f9576129f86132dd565b5b604051908082528060200260200182016040528015612a275781602001602082028036833780820191505090505b5090508281600081518110612a3f57612a3e613cf8565b5b60200260200101818152505080915050919050565b505050505050565b505050505050565b612a838473ffffffffffffffffffffffffffffffffffffffff16612cbb565b15612c33578373ffffffffffffffffffffffffffffffffffffffff1663f23a6e6187878686866040518663ffffffff1660e01b8152600401612ac9959493929190614882565b6020604051808303816000875af1925050508015612b0557506040513d601f19601f82011682018060405250810190612b0291906148f1565b60015b612baa57612b1161492b565b806308c379a003612b6d5750612b2561494d565b80612b305750612b6f565b806040517f08c379a0000000000000000000000000000000000000000000000000000000008152600401612b64919061322a565b60405180910390fd5b505b6040517f08c379a0000000000000000000000000000000000000000000000000000000008152600401612ba190614a4f565b60405180910390fd5b63f23a6e6160e01b7bffffffffffffffffffffffffffffffffffffffffffffffffffffffff1916817bffffffffffffffffffffffffffffffffffffffffffffffffffffffff191614612c31576040517f08c379a0000000000000000000000000000000000000000000000000000000008152600401612c2890614ae1565b60405180910390fd5b505b505050505050565b8483600d600082815260200190815260200160002060008373ffffffffffffffffffffffffffffffffffffffff1673ffffffffffffffffffffffffffffffffffffffff16815260200190815260200160002060009054906101000a900460ff1615612ca557600080fd5b612cb28787878787612cde565b50505050505050565b6000808273ffffffffffffffffffffffffffffffffffffffff163b119050919050565b600073ffffffffffffffffffffffffffffffffffffffff168473ffffffffffffffffffffffffffffffffffffffff1603612d4d576040517f08c379a0000000000000000000000000000000000000000000000000000000008152600401612d4490614b73565b60405180910390fd5b6000612d576125ce565b90506000612d64856129da565b90506000612d71856129da565b9050612d81838989858589612a54565b60006001600088815260200190815260200160002060008a73ffffffffffffffffffffffffffffffffffffffff1673ffffffffffffffffffffffffffffffffffffffff16815260200190815260200160002054905085811015612e19576040517f08c379a0000000000000000000000000000000000000000000000000000000008152600401612e1090614c05565b60405180910390fd5b8581036001600089815260200190815260200160002060008b73ffffffffffffffffffffffffffffffffffffffff1673ffffffffffffffffffffffffffffffffffffffff16815260200190815260200160002081905550856001600089815260200190815260200160002060008a73ffffffffffffffffffffffffffffffffffffffff1673ffffffffffffffffffffffffffffffffffffffff1681526020019081526020016000206000828254612ed091906146d5565b925050819055508773ffffffffffffffffffffffffffffffffffffffff168973ffffffffffffffffffffffffffffffffffffffff168573ffffffffffffffffffffffffffffffffffffffff167fc3d58168c5ae7397731d063d5bbf3d657854427343f4c083240f7aacaa2d0f628a8a604051612f4d9291906145ae565b60405180910390a4612f63848a8a86868a612a5c565b612f71848a8a8a8a8a612a64565b505050505050505050565b60405180606001604052806000801916815260200160008152602001600081525090565b6000604051905090565b600080fd5b600080fd5b600073ffffffffffffffffffffffffffffffffffffffff82169050919050565b6000612fdf82612fb4565b9050919050565b612fef81612fd4565b8114612ffa57600080fd5b50565b60008135905061300c81612fe6565b92915050565b6000819050919050565b61302581613012565b811461303057600080fd5b50565b6000813590506130428161301c565b92915050565b6000806040838503121561305f5761305e612faa565b5b600061306d85828601612ffd565b925050602061307e85828601613033565b9150509250929050565b61309181613012565b82525050565b60006020820190506130ac6000830184613088565b92915050565b60007fffffffff0000000000000000000000000000000000000000000000000000000082169050919050565b6130e7816130b2565b81146130f257600080fd5b50565b600081359050613104816130de565b92915050565b6000602082840312156131205761311f612faa565b5b600061312e848285016130f5565b91505092915050565b60008115159050919050565b61314c81613137565b82525050565b60006020820190506131676000830184613143565b92915050565b60006020828403121561318357613182612faa565b5b600061319184828501613033565b91505092915050565b600081519050919050565b600082825260208201905092915050565b60005b838110156131d45780820151818401526020810190506131b9565b60008484015250505050565b6000601f19601f8301169050919050565b60006131fc8261319a565b61320681856131a5565b93506132168185602086016131b6565b61321f816131e0565b840191505092915050565b6000602082019050818103600083015261324481846131f1565b905092915050565b600060ff82169050919050565b6132628161324c565b811461326d57600080fd5b50565b60008135905061327f81613259565b92915050565b60008060006060848603121561329e5761329d612faa565b5b60006132ac86828701612ffd565b93505060206132bd86828701613270565b92505060406132ce86828701613033565b9150509250925092565b600080fd5b7f4e487b7100000000000000000000000000000000000000000000000000000000600052604160045260246000fd5b613315826131e0565b810181811067ffffffffffffffff82111715613334576133336132dd565b5b80604052505050565b6000613347612fa0565b9050613353828261330c565b919050565b600067ffffffffffffffff821115613373576133726132dd565b5b602082029050602081019050919050565b600080fd5b600061339c61339784613358565b61333d565b905080838252602082019050602084028301858111156133bf576133be613384565b5b835b818110156133e857806133d48882613033565b8452602084019350506020810190506133c1565b5050509392505050565b600082601f830112613407576134066132d8565b5b8135613417848260208601613389565b91505092915050565b600080fd5b600067ffffffffffffffff8211156134405761343f6132dd565b5b613449826131e0565b9050602081019050919050565b82818337600083830152505050565b600061347861347384613425565b61333d565b90508281526020810184848401111561349457613493613420565b5b61349f848285613456565b509392505050565b600082601f8301126134bc576134bb6132d8565b5b81356134cc848260208601613465565b91505092915050565b600080600080600060a086880312156134f1576134f0612faa565b5b60006134ff88828901612ffd565b955050602061351088828901612ffd565b945050604086013567ffffffffffffffff81111561353157613530612faf565b5b61353d888289016133f2565b935050606086013567ffffffffffffffff81111561355e5761355d612faf565b5b61356a888289016133f2565b925050608086013567ffffffffffffffff81111561358b5761358a612faf565b5b613597888289016134a7565b9150509295509295909350565b600067ffffffffffffffff8211156135bf576135be6132dd565b5b602082029050602081019050919050565b60006135e36135de846135a4565b61333d565b9050808382526020820190506020840283018581111561360657613605613384565b5b835b8181101561362f578061361b8882612ffd565b845260208401935050602081019050613608565b5050509392505050565b600082601f83011261364e5761364d6132d8565b5b813561365e8482602086016135d0565b91505092915050565b6000806040838503121561367e5761367d612faa565b5b600083013567ffffffffffffffff81111561369c5761369b612faf565b5b6136a885828601613639565b925050602083013567ffffffffffffffff8111156136c9576136c8612faf565b5b6136d5858286016133f2565b9150509250929050565b600081519050919050565b600082825260208201905092915050565b6000819050602082019050919050565b61371481613012565b82525050565b6000613726838361370b565b60208301905092915050565b6000602082019050919050565b600061374a826136df565b61375481856136ea565b935061375f836136fb565b8060005b83811015613790578151613777888261371a565b975061378283613732565b925050600181019050613763565b5085935050505092915050565b600060208201905081810360008301526137b7818461373f565b905092915050565b6137c881612fd4565b82525050565b60006020820190506137e360008301846137bf565b92915050565b6137f281613137565b81146137fd57600080fd5b50565b60008135905061380f816137e9565b92915050565b6000806040838503121561382c5761382b612faa565b5b600061383a85828601612ffd565b925050602061384b85828601613800565b9150509250929050565b6000806040838503121561386c5761386b612faa565b5b600061387a85828601612ffd565b925050602061388b85828601613270565b9150509250929050565b6000602082840312156138ab576138aa612faa565b5b60006138b984828501612ffd565b91505092915050565b600081519050919050565b600082825260208201905092915050565b6000819050602082019050919050565b6000819050919050565b613901816138ee565b82525050565b600061391383836138f8565b60208301905092915050565b6000602082019050919050565b6000613937826138c2565b61394181856138cd565b935061394c836138de565b8060005b8381101561397d5781516139648882613907565b975061396f8361391f565b925050600181019050613950565b5085935050505092915050565b600060208201905081810360008301526139a4818461392c565b905092915050565b6000806000606084860312156139c5576139c4612faa565b5b60006139d386828701612ffd565b93505060206139e486828701612ffd565b92505060406139f586828701613033565b9150509250925092565b606082016000820151613a1560008501826138f8565b506020820151613a28602085018261370b565b506040820151613a3b604085018261370b565b50505050565b6000606082019050613a5660008301846139ff565b92915050565b60008060008060808587031215613a7657613a75612faa565b5b6000613a8487828801612ffd565b9450506020613a9587828801612ffd565b9350506040613aa687828801613270565b9250506060613ab787828801613033565b91505092959194509250565b60008060408385031215613ada57613ad9612faa565b5b6000613ae885828601612ffd565b9250506020613af985828601612ffd565b9150509250929050565b600080600080600060a08688031215613b1f57613b1e612faa565b5b6000613b2d88828901612ffd565b9550506020613b3e88828901612ffd565b9450506040613b4f88828901613033565b9350506060613b6088828901613033565b925050608086013567ffffffffffffffff811115613b8157613b80612faf565b5b613b8d888289016134a7565b9150509295509295909350565b7f455243313135353a2061646472657373207a65726f206973206e6f742061207660008201527f616c6964206f776e657200000000000000000000000000000000000000000000602082015250565b6000613bf6602a836131a5565b9150613c0182613b9a565b604082019050919050565b60006020820190508181036000830152613c2581613be9565b9050919050565b7f4e487b7100000000000000000000000000000000000000000000000000000000600052602260045260246000fd5b60006002820490506001821680613c7357607f821691505b602082108103613c8657613c85613c2c565b5b50919050565b7f6e6f742068617320746f6b656e20696e207075626c696320636861696e000000600082015250565b6000613cc2601d836131a5565b9150613ccd82613c8c565b602082019050919050565b60006020820190508181036000830152613cf181613cb5565b9050919050565b7f4e487b7100000000000000000000000000000000000000000000000000000000600052603260045260246000fd5b7f546f6b656e206973206e6f74206d696e65000000000000000000000000000000600082015250565b6000613d5d6011836131a5565b9150613d6882613d27565b602082019050919050565b60006020820190508181036000830152613d8c81613d50565b9050919050565b6000604082019050613da860008301856137bf565b613db56020830184613088565b9392505050565b613dc58161324c565b82525050565b6000606082019050613de060008301866137bf565b613ded6020830185613dbc565b613dfa6040830184613088565b949350505050565b7f455243313135353a206163636f756e747320616e6420696473206c656e67746860008201527f206d69736d617463680000000000000000000000000000000000000000000000602082015250565b6000613e5e6029836131a5565b9150613e6982613e02565b604082019050919050565b60006020820190508181036000830152613e8d81613e51565b9050919050565b7f4e487b7100000000000000000000000000000000000000000000000000000000600052601160045260246000fd5b6000613ece82613012565b91507fffffffffffffffffffffffffffffffffffffffffffffffffffffffffffffffff8203613f0057613eff613e94565b5b600182019050919050565b7f616c72656164792068617320746f6b656e20696e207075626c6963206368616960008201527f6e00000000000000000000000000000000000000000000000000000000000000602082015250565b6000613f676021836131a5565b9150613f7282613f0b565b604082019050919050565b60006020820190508181036000830152613f9681613f5a565b9050919050565b7f4d757374206861766520536f756c000000000000000000000000000000000000600082015250565b6000613fd3600e836131a5565b9150613fde82613f9d565b602082019050919050565b6000602082019050818103600083015261400281613fc6565b9050919050565b7f417272617920496e64657820457863657074696f6e0000000000000000000000600082015250565b600061403f6015836131a5565b915061404a82614009565b602082019050919050565b6000602082019050818103600083015261406e81614032565b9050919050565b600061408082613012565b915061408b83613012565b92508282039050818111156140a3576140a2613e94565b5b92915050565b7f4e487b7100000000000000000000000000000000000000000000000000000000600052603160045260246000fd5b60006040820190506140ed60008301856137bf565b6140fa6020830184613dbc565b9392505050565b7f536f756c2053697a6520457863657074696f6e00000000000000000000000000600082015250565b60006141376013836131a5565b915061414282614101565b602082019050919050565b600060208201905081810360008301526141668161412a565b9050919050565b61417681612fd4565b82525050565b6141858161324c565b82525050565b6060820160008201516141a1600085018261416d565b5060208201516141b4602085018261417c565b5060408201516141c7604085018261370b565b50505050565b60006060820190506141e2600083018461418b565b92915050565b7f6973206e6f7420546f6b656e204f776e65720000000000000000000000000000600082015250565b600061421e6012836131a5565b9150614229826141e8565b602082019050919050565b6000602082019050818103600083015261424d81614211565b9050919050565b7f6e6f74206861766520536f756c00000000000000000000000000000000000000600082015250565b600061428a600d836131a5565b915061429582614254565b602082019050919050565b600060208201905081810360008301526142b98161427d565b9050919050565b60006142cb8261324c565b915060ff82036142de576142dd613e94565b5b600182019050919050565b60006060820190506142fe60008301866137bf565b61430b60208301856137bf565b6143186040830184613088565b949350505050565b7f6e6f74206861766520746f6b656e000000000000000000000000000000000000600082015250565b6000614356600e836131a5565b915061436182614320565b602082019050919050565b6000602082019050818103600083015261438581614349565b9050919050565b7f416c72656164792068617320746f6b656e000000000000000000000000000000600082015250565b60006143c26011836131a5565b91506143cd8261438c565b602082019050919050565b600060208201905081810360008301526143f1816143b5565b9050919050565b7f4f776e61626c653a206e6577206f776e657220697320746865207a65726f206160008201527f6464726573730000000000000000000000000000000000000000000000000000602082015250565b60006144546026836131a5565b915061445f826143f8565b604082019050919050565b6000602082019050818103600083015261448381614447565b9050919050565b7f455243313135353a206275726e2066726f6d20746865207a65726f206164647260008201527f6573730000000000000000000000000000000000000000000000000000000000602082015250565b60006144e66023836131a5565b91506144f18261448a565b604082019050919050565b60006020820190508181036000830152614515816144d9565b9050919050565b7f455243313135353a206275726e20616d6f756e7420657863656564732062616c60008201527f616e636500000000000000000000000000000000000000000000000000000000602082015250565b60006145786024836131a5565b91506145838261451c565b604082019050919050565b600060208201905081810360008301526145a78161456b565b9050919050565b60006040820190506145c36000830185613088565b6145d06020830184613088565b9392505050565b7f4f776e61626c653a2063616c6c6572206973206e6f7420746865206f776e6572600082015250565b600061460d6020836131a5565b9150614618826145d7565b602082019050919050565b6000602082019050818103600083015261463c81614600565b9050919050565b7f455243313135353a206d696e7420746f20746865207a65726f2061646472657360008201527f7300000000000000000000000000000000000000000000000000000000000000602082015250565b600061469f6021836131a5565b91506146aa82614643565b604082019050919050565b600060208201905081810360008301526146ce81614692565b9050919050565b60006146e082613012565b91506146eb83613012565b925082820190508082111561470357614702613e94565b5b92915050565b7f455243313135353a2073657474696e6720617070726f76616c2073746174757360008201527f20666f722073656c660000000000000000000000000000000000000000000000602082015250565b60006147656029836131a5565b915061477082614709565b604082019050919050565b6000602082019050818103600083015261479481614758565b9050919050565b7f455243313135353a2063616c6c6572206973206e6f7420746f6b656e206f776e60008201527f6572206e6f7220617070726f7665640000000000000000000000000000000000602082015250565b60006147f7602f836131a5565b91506148028261479b565b604082019050919050565b60006020820190508181036000830152614826816147ea565b9050919050565b600081519050919050565b600082825260208201905092915050565b60006148548261482d565b61485e8185614838565b935061486e8185602086016131b6565b614877816131e0565b840191505092915050565b600060a08201905061489760008301886137bf565b6148a460208301876137bf565b6148b16040830186613088565b6148be6060830185613088565b81810360808301526148d08184614849565b90509695505050505050565b6000815190506148eb816130de565b92915050565b60006020828403121561490757614906612faa565b5b6000614915848285016148dc565b91505092915050565b60008160e01c9050919050565b600060033d111561494a5760046000803e61494760005161491e565b90505b90565b600060443d106149da5761495f612fa0565b60043d036004823e80513d602482011167ffffffffffffffff821117156149875750506149da565b808201805167ffffffffffffffff8111156149a557505050506149da565b80602083010160043d0385018111156149c25750505050506149da565b6149d18260200185018661330c565b82955050505050505b90565b7f455243313135353a207472616e7366657220746f206e6f6e204552433131353560008201527f526563656976657220696d706c656d656e746572000000000000000000000000602082015250565b6000614a396034836131a5565b9150614a44826149dd565b604082019050919050565b60006020820190508181036000830152614a6881614a2c565b9050919050565b7f455243313135353a204552433131353552656365697665722072656a6563746560008201527f6420746f6b656e73000000000000000000000000000000000000000000000000602082015250565b6000614acb6028836131a5565b9150614ad682614a6f565b604082019050919050565b60006020820190508181036000830152614afa81614abe565b9050919050565b7f455243313135353a207472616e7366657220746f20746865207a65726f20616460008201527f6472657373000000000000000000000000000000000000000000000000000000602082015250565b6000614b5d6025836131a5565b9150614b6882614b01565b604082019050919050565b60006020820190508181036000830152614b8c81614b50565b9050919050565b7f455243313135353a20696e73756666696369656e742062616c616e636520666f60008201527f72207472616e7366657200000000000000000000000000000000000000000000602082015250565b6000614bef602a836131a5565b9150614bfa82614b93565b604082019050919050565b60006020820190508181036000830152614c1e81614be2565b905091905056fea2646970667358221220cd44d29fc3af77691992c18aab77e7dbdb8548daed75630519b4ca4f48648bff64736f6c63430008110033",
  "immutableReferences": {},
  "source": "// SPDX-License-Identifier: Apache-2.0\npragma solidity ^0.8.16;\n\nimport \"./IERC5192.sol\";\nimport \"@openzeppelin/contracts/access/Ownable.sol\";\nimport \"@openzeppelin/contracts/token/ERC1155/ERC1155.sol\";\nimport \"@openzeppelin/contracts/utils/Counters.sol\";\n\ncontract SoulManager is Ownable, ERC1155 {\n    struct SoulToken {\n        bytes32 soulKey;\n        uint mintTimeStamp;\n        uint burnTimeStamp;\n    }\n\n    struct Soul {\n        address soulOwner;\n        uint8 index;\n        uint256 nonce;\n    }\n    //Soul\n    mapping (address => mapping(uint8 => mapping(uint256 => SoulToken))) soulTokens; // publicKey -> (soul)index -> tokenID -> tokenInfo\n    mapping (address => bytes32[]) souls; // soulKey\n    mapping (bytes32 => uint8) soulIndex; // soulKey index \n    mapping (bytes32 => address) soulOwners; // soulkey  address\n    mapping (address => mapping(uint8 => bool)) soulIndexCheck; //\n    mapping (address => uint256) nonce;\n\n\n    string name;\n    uint8 size;\n\n    event Create(address owner, uint8 size); // SoulCreate\n    event Delete(address owner, uint8 index); // SoulDelete\n    event Mint(address owner, uint8 index, uint256 tokenID); // TokenID \n    event Burn(address owner, uint8 index, uint256 tokenID); //TokenID  Token \n    event Burn(address owner, address to, uint256 tokenID);  //  Token \n\n    //Token\n    using Counters for Counters.Counter;\n    Counters.Counter private _tokenIdCounter;\n\n    mapping(uint256 => mapping(address => bool)) _locked;\n    mapping(uint256 => address) tokenOwnerOf;\n\n    event Locked(address soulOwner, uint256 tokenId);\n    event Unlocked(address soulOnwer, uint256 tokenId);\n    event MintPublicChain(address soulOwner, uint256 tokenId);\n    event BurnPublicChain(address soulOwner, uint256 tokenId);\n    event CreateToken(address tokenOwner, uint256 tokenId);\n\n    function locked(address soulOwner, uint256 tokenId) external view returns (bool) {\n        return _locked[tokenId][soulOwner];\n    }\n\n    constructor(string memory _name, uint8 _size, string memory uri) ERC1155(uri) {\n        name = _name; // Contract \n        size = _size; // Soul \n    }\n\n    function createSoul(address soulOwner) external onlyOwner {\n        uint8 index = getEmptySoulIndex(soulOwner);\n\n        require(index < size, \"Soul Size Exception\");\n\n        bytes32 soulKey = keccak256(abi.encode(Soul(soulOwner, index, getNonce(soulOwner))));\n        souls[soulOwner].push(soulKey);\n\n        soulIndex[soulKey] = index;\n        soulOwners[soulKey] = soulOwner;\n        setSoulIndex(soulOwner, index, true);\n\n        emit Create(soulOwner, soulIndex[soulKey]);\n    }\n\n    function deleteSoul(address soulOwner, uint8 arrayIndex) external onlyOwner {\n        uint256 length = souls[soulOwner].length;\n        require(length > 1, \"Must have Soul\");\n        require(arrayIndex < length, \"Array Index Exception\");\n\n        bytes32 soulKey = souls[soulOwner][arrayIndex];\n        uint8 index = soulIndex[soulKey];\n\n        setSoulIndex(soulOwner, index, false);\n        delete soulOwners[soulKey];\n        delete soulIndex[soulKey];\n\n        souls[soulOwner][arrayIndex] = souls[soulOwner][length - 1];\n        souls[soulOwner].pop();\n\n        emit Delete(soulOwner, index);\n    }\n\n    function mintSoulToken(address tokenOwner, address to, uint8 arrayIndex, uint256 tokenId) external onlyOwner {\n        require(tokenOwnerOf[tokenId] == tokenOwner, \"is not Token Owner\");\n\n        bytes32 soulKey = souls[to][arrayIndex];\n        uint8 index = soulIndex[soulKey];\n\n        require(soulKey != bytes32(0), \"not have Soul\");\n\n        require(soulTokens[to][index][tokenId].soulKey != soulKey  ||\n            (soulTokens[to][index][tokenId].soulKey == soulKey && soulTokens[to][index][tokenId].burnTimeStamp != 0)\n        , \"Already has token\");\n\n        soulTokens[to][index][tokenId] = SoulToken(soulKey, block.timestamp, 0);\n    }\n\n    function burnSoulToken(address tokenOwner, address to, uint256 tokenId) external {\n        require(tokenOwnerOf[tokenId] == tokenOwner, \"is not Token Owner\");\n\n        uint length = souls[to].length;\n        require(length > 0, \"not have Soul\");\n\n        for(uint8 i = 0; i < length; ++i) {\n\n            bytes32 soulKey = soulTokens[to][i][tokenId].soulKey;\n            address soulOwner = soulOwners[soulKey];\n            if(soulOwner != to) {\n                continue;\n            }\n\n            soulTokens[to][i][tokenId].burnTimeStamp = block.timestamp;\n        }\n\n        emit Burn(tokenOwner, to, tokenId);\n    }\n\n    function deleteSoulToken(address soulOwner, uint8 arrayIndex, uint256 tokenId) external {\n        bytes32 soulKey = souls[soulOwner][arrayIndex];\n        uint8 index = soulIndex[soulKey];\n\n        delete soulTokens[soulOwner][index][tokenId];\n\n        emit Burn(soulOwner, index, tokenId);\n    }\n\n    function mintTokenPublicChain(address soulOwner, uint8 arrayIndex, uint256 tokenID) external {\n        require(!_locked[tokenID][soulOwner], \"already has token in public chain\");\n\n        bytes32 soulKey = souls[soulOwner][arrayIndex];\n        uint8 index = soulIndex[soulKey];\n\n        require(soulTokens[soulOwner][index][tokenID].soulKey == soulKey, \"Token is not mine\");\n\n        //Mint ERC1155\n        _mint(soulOwner, tokenID, 1, \"\");\n        emit MintPublicChain(soulOwner, tokenID);\n\n        _locked[tokenID][soulOwner] =  true;\n        emit Locked(soulOwner, tokenID);\n    }\n\n    function burnTokenPublicChain(address soulOwner, uint8 arrayIndex, uint256 tokenID) external {\n        require(_locked[tokenID][soulOwner], \"not has token in public chain\");\n\n        bytes32 soulKey = souls[soulOwner][arrayIndex];\n        uint8 index = soulIndex[soulKey];\n\n        require(soulTokens[soulOwner][index][tokenID].soulKey == soulKey, \"Token is not mine\");\n\n        _locked[tokenID][soulOwner] =  false;\n        emit Unlocked(soulOwner, tokenID);\n\n        //burn ERC1155\n        _burn(soulOwner, tokenID, 1);\n        emit BurnPublicChain(soulOwner, tokenID);\n    }\n\n    function createToken(address tokenOwner) external {\n        _tokenIdCounter.increment();\n\n        uint256 newTokenId = _tokenIdCounter.current();\n        tokenOwnerOf[newTokenId] = tokenOwner;\n\n        _mint(tokenOwner, newTokenId, 1, \"\");\n        emit CreateToken(tokenOwner, newTokenId);\n\n        _locked[newTokenId][tokenOwner] =  true;\n        emit Locked(tokenOwner, newTokenId);\n    }\n\n    function getEmptySoulIndex(address soulOwner) private view returns(uint8) {\n        uint8 output = size;\n\n        for(uint8 i = 0; i < size; ++i) {\n            if(!soulIndexCheck[soulOwner][i]) {\n                output = i;\n                break;\n            }\n        }\n\n        return output;\n    }\n    function setSoulIndex(address soulOwner, uint8 index, bool isFill) private {\n        soulIndexCheck[soulOwner][index] = isFill;\n    }\n\n    function getNonce(address soulOwner) private returns(uint256) {\n        nonce[soulOwner] += 1;\n        return nonce[soulOwner];\n    }\n\n    function getSouls(address soulOwner) external view returns(bytes32[] memory) {\n        return souls[soulOwner];\n    }\n\n    function getToken(address soulOwner, uint8 arrayIndex, uint256 tokenId) external view returns(SoulToken memory) {\n        bytes32 soulKey = souls[soulOwner][arrayIndex];\n        uint8 index = soulIndex[soulKey];\n\n        SoulToken memory token = soulTokens[soulOwner][index][tokenId];\n\n        require(token.soulKey == soulKey, \"not have token\");\n\n        return token;\n    }\n\n    //Transfer, Batch \n    modifier IsTransferAllowed(address soulOwner, uint256 tokenId) {\n        require(!_locked[tokenId][soulOwner]);\n        _;\n    }\n\n    function _burnBatch(\n        address from,\n        uint256[] memory ids,\n        uint256[] memory amounts\n    ) internal virtual override(ERC1155) {}\n\n    function _mintBatch(\n        address to,\n        uint256[] memory ids,\n        uint256[] memory amounts,\n        bytes memory data\n    ) internal virtual override(ERC1155) {\n    }\n\n    function safeTransferFrom(\n        address from,\n        address to,\n        uint256 id,\n        uint256 amount,\n        bytes memory data\n    ) public virtual override (ERC1155) IsTransferAllowed(from, id) {\n        super.safeTransferFrom(from, to, id, amount, data);\n    }\n\n    function safeBatchTransferFrom(\n        address from,\n        address to,\n        uint256[] memory ids,\n        uint256[] memory amounts,\n        bytes memory data\n    ) public virtual override (ERC1155) {}\n\n    function _safeTransferFrom(\n        address from,\n        address to,\n        uint256 id,\n        uint256 amount,\n        bytes memory data\n    ) internal virtual override(ERC1155) IsTransferAllowed(from, id) {\n        super._safeTransferFrom(from, to, id, amount, data);\n    }\n\n    function _safeBatchTransferFrom(\n        address from,\n        address to,\n        uint256[] memory ids,\n        uint256[] memory amounts,\n        bytes memory data\n    ) internal virtual override(ERC1155) {}\n\n    function _beforeTokenTransfer(\n        address operator,\n        address from,\n        address to,\n        uint256[] memory ids,\n        uint256[] memory amounts,\n        bytes memory data\n    ) internal virtual override(ERC1155) {}\n\n    function _afterTokenTransfer(\n        address operator,\n        address from,\n        address to,\n        uint256[] memory ids,\n        uint256[] memory amounts,\n        bytes memory data\n    ) internal virtual override(ERC1155) {}\n\n\n}",
  "sourcePath": "/Users/leekunho/Desktop/workspace/MOSTI/MOSTI_Wallet/contracts/SoulManager.sol",
  "compiler": {
    "name": "solc",
    "version": "0.8.17+commit.8df45f5f.Emscripten.clang"
  },
  "schemaVersion": "3.4.10",
  "updatedAt": "2023-03-28T01:13:29.127Z",
  "networkType": "ethereum",
  "devdoc": {
    "kind": "dev",
    "methods": {
      "balanceOf(address,uint256)": {
        "details": "See {IERC1155-balanceOf}. Requirements: - `account` cannot be the zero address."
      },
      "balanceOfBatch(address[],uint256[])": {
        "details": "See {IERC1155-balanceOfBatch}. Requirements: - `accounts` and `ids` must have the same length."
      },
      "isApprovedForAll(address,address)": {
        "details": "See {IERC1155-isApprovedForAll}."
      },
      "owner()": {
        "details": "Returns the address of the current owner."
      },
      "renounceOwnership()": {
        "details": "Leaves the contract without owner. It will not be possible to call `onlyOwner` functions anymore. Can only be called by the current owner. NOTE: Renouncing ownership will leave the contract without an owner, thereby removing any functionality that is only available to the owner."
      },
      "safeBatchTransferFrom(address,address,uint256[],uint256[],bytes)": {
        "details": "See {IERC1155-safeBatchTransferFrom}."
      },
      "safeTransferFrom(address,address,uint256,uint256,bytes)": {
        "details": "See {IERC1155-safeTransferFrom}."
      },
      "setApprovalForAll(address,bool)": {
        "details": "See {IERC1155-setApprovalForAll}."
      },
      "supportsInterface(bytes4)": {
        "details": "See {IERC165-supportsInterface}."
      },
      "transferOwnership(address)": {
        "details": "Transfers ownership of the contract to a new account (`newOwner`). Can only be called by the current owner."
      },
      "uri(uint256)": {
        "details": "See {IERC1155MetadataURI-uri}. This implementation returns the same URI for *all* token types. It relies on the token type ID substitution mechanism https://eips.ethereum.org/EIPS/eip-1155#metadata[defined in the EIP]. Clients calling this function must replace the `\\{id\\}` substring with the actual token type ID."
      }
    },
    "version": 1
  },
  "userdoc": {
    "kind": "user",
    "methods": {},
    "version": 1
  }
}