{
  "contractName": "UserRightNFT",
  "abi": [
    {
      "inputs": [],
      "stateMutability": "nonpayable",
      "type": "constructor"
    },
    {
      "anonymous": false,
      "inputs": [
        {
          "indexed": true,
          "internalType": "address",
          "name": "account",
          "type": "address"
        },
        {
          "indexed": true,
          "internalType": "address",
          "name": "operator",
          "type": "address"
        },
        {
          "indexed": false,
          "internalType": "bool",
          "name": "approved",
          "type": "bool"
        }
      ],
      "name": "ApprovalForAll",
      "type": "event"
    },
    {
      "anonymous": false,
      "inputs": [
        {
          "indexed": true,
          "internalType": "address",
          "name": "previousOwner",
          "type": "address"
        },
        {
          "indexed": true,
          "internalType": "address",
          "name": "newOwner",
          "type": "address"
        }
      ],
      "name": "OwnershipTransferred",
      "type": "event"
    },
    {
      "anonymous": false,
      "inputs": [
        {
          "indexed": true,
          "internalType": "address",
          "name": "operator",
          "type": "address"
        },
        {
          "indexed": true,
          "internalType": "address",
          "name": "from",
          "type": "address"
        },
        {
          "indexed": true,
          "internalType": "address",
          "name": "to",
          "type": "address"
        },
        {
          "indexed": false,
          "internalType": "uint256[]",
          "name": "ids",
          "type": "uint256[]"
        },
        {
          "indexed": false,
          "internalType": "uint256[]",
          "name": "values",
          "type": "uint256[]"
        }
      ],
      "name": "TransferBatch",
      "type": "event"
    },
    {
      "anonymous": false,
      "inputs": [
        {
          "indexed": true,
          "internalType": "address",
          "name": "operator",
          "type": "address"
        },
        {
          "indexed": true,
          "internalType": "address",
          "name": "from",
          "type": "address"
        },
        {
          "indexed": true,
          "internalType": "address",
          "name": "to",
          "type": "address"
        },
        {
          "indexed": false,
          "internalType": "uint256",
          "name": "id",
          "type": "uint256"
        },
        {
          "indexed": false,
          "internalType": "uint256",
          "name": "value",
          "type": "uint256"
        }
      ],
      "name": "TransferSingle",
      "type": "event"
    },
    {
      "anonymous": false,
      "inputs": [
        {
          "indexed": false,
          "internalType": "string",
          "name": "value",
          "type": "string"
        },
        {
          "indexed": true,
          "internalType": "uint256",
          "name": "id",
          "type": "uint256"
        }
      ],
      "name": "URI",
      "type": "event"
    },
    {
      "anonymous": false,
      "inputs": [
        {
          "indexed": false,
          "internalType": "string",
          "name": "_name",
          "type": "string"
        },
        {
          "indexed": false,
          "internalType": "string",
          "name": "_err",
          "type": "string"
        }
      ],
      "name": "catchErr",
      "type": "event"
    },
    {
      "inputs": [
        {
          "internalType": "address",
          "name": "account",
          "type": "address"
        },
        {
          "internalType": "uint256",
          "name": "id",
          "type": "uint256"
        }
      ],
      "name": "balanceOf",
      "outputs": [
        {
          "internalType": "uint256",
          "name": "",
          "type": "uint256"
        }
      ],
      "stateMutability": "view",
      "type": "function",
      "constant": true
    },
    {
      "inputs": [
        {
          "internalType": "address[]",
          "name": "accounts",
          "type": "address[]"
        },
        {
          "internalType": "uint256[]",
          "name": "ids",
          "type": "uint256[]"
        }
      ],
      "name": "balanceOfBatch",
      "outputs": [
        {
          "internalType": "uint256[]",
          "name": "",
          "type": "uint256[]"
        }
      ],
      "stateMutability": "view",
      "type": "function",
      "constant": true
    },
    {
      "inputs": [
        {
          "internalType": "address",
          "name": "account",
          "type": "address"
        },
        {
          "internalType": "address",
          "name": "operator",
          "type": "address"
        }
      ],
      "name": "isApprovedForAll",
      "outputs": [
        {
          "internalType": "bool",
          "name": "",
          "type": "bool"
        }
      ],
      "stateMutability": "view",
      "type": "function",
      "constant": true
    },
    {
      "inputs": [],
      "name": "owner",
      "outputs": [
        {
          "internalType": "address",
          "name": "",
          "type": "address"
        }
      ],
      "stateMutability": "view",
      "type": "function",
      "constant": true
    },
    {
      "inputs": [],
      "name": "renounceOwnership",
      "outputs": [],
      "stateMutability": "nonpayable",
      "type": "function"
    },
    {
      "inputs": [
        {
          "internalType": "address",
          "name": "from",
          "type": "address"
        },
        {
          "internalType": "address",
          "name": "to",
          "type": "address"
        },
        {
          "internalType": "uint256[]",
          "name": "ids",
          "type": "uint256[]"
        },
        {
          "internalType": "uint256[]",
          "name": "amounts",
          "type": "uint256[]"
        },
        {
          "internalType": "bytes",
          "name": "data",
          "type": "bytes"
        }
      ],
      "name": "safeBatchTransferFrom",
      "outputs": [],
      "stateMutability": "nonpayable",
      "type": "function"
    },
    {
      "inputs": [
        {
          "internalType": "address",
          "name": "from",
          "type": "address"
        },
        {
          "internalType": "address",
          "name": "to",
          "type": "address"
        },
        {
          "internalType": "uint256",
          "name": "id",
          "type": "uint256"
        },
        {
          "internalType": "uint256",
          "name": "amount",
          "type": "uint256"
        },
        {
          "internalType": "bytes",
          "name": "data",
          "type": "bytes"
        }
      ],
      "name": "safeTransferFrom",
      "outputs": [],
      "stateMutability": "nonpayable",
      "type": "function"
    },
    {
      "inputs": [
        {
          "internalType": "address",
          "name": "operator",
          "type": "address"
        },
        {
          "internalType": "bool",
          "name": "approved",
          "type": "bool"
        }
      ],
      "name": "setApprovalForAll",
      "outputs": [],
      "stateMutability": "nonpayable",
      "type": "function"
    },
    {
      "inputs": [
        {
          "internalType": "bytes4",
          "name": "interfaceId",
          "type": "bytes4"
        }
      ],
      "name": "supportsInterface",
      "outputs": [
        {
          "internalType": "bool",
          "name": "",
          "type": "bool"
        }
      ],
      "stateMutability": "view",
      "type": "function",
      "constant": true
    },
    {
      "inputs": [
        {
          "internalType": "address",
          "name": "newOwner",
          "type": "address"
        }
      ],
      "name": "transferOwnership",
      "outputs": [],
      "stateMutability": "nonpayable",
      "type": "function"
    },
    {
      "inputs": [
        {
          "internalType": "uint256",
          "name": "",
          "type": "uint256"
        }
      ],
      "name": "uri",
      "outputs": [
        {
          "internalType": "string",
          "name": "",
          "type": "string"
        }
      ],
      "stateMutability": "view",
      "type": "function",
      "constant": true
    },
    {
      "inputs": [],
      "name": "symbol",
      "outputs": [
        {
          "internalType": "string",
          "name": "",
          "type": "string"
        }
      ],
      "stateMutability": "view",
      "type": "function",
      "constant": true
    },
    {
      "inputs": [],
      "name": "name",
      "outputs": [
        {
          "internalType": "string",
          "name": "",
          "type": "string"
        }
      ],
      "stateMutability": "view",
      "type": "function",
      "constant": true
    },
    {
      "inputs": [
        {
          "internalType": "uint256",
          "name": "tokenId",
          "type": "uint256"
        }
      ],
      "name": "tokenURI",
      "outputs": [
        {
          "internalType": "string",
          "name": "",
          "type": "string"
        }
      ],
      "stateMutability": "view",
      "type": "function",
      "constant": true
    },
    {
      "inputs": [
        {
          "internalType": "address",
          "name": "ownerShipAddress",
          "type": "address"
        },
        {
          "internalType": "uint256",
          "name": "tokenId",
          "type": "uint256"
        },
        {
          "internalType": "uint256",
          "name": "amount",
          "type": "uint256"
        },
        {
          "internalType": "string",
          "name": "tokenURI",
          "type": "string"
        },
        {
          "internalType": "string",
          "name": "data",
          "type": "string"
        }
      ],
      "name": "mintNFT",
      "outputs": [],
      "stateMutability": "nonpayable",
      "type": "function"
    },
    {
      "inputs": [
        {
          "internalType": "address",
          "name": "ownerAddress",
          "type": "address"
        }
      ],
      "name": "getPurchaseList",
      "outputs": [
        {
          "components": [
            {
              "internalType": "uint256",
              "name": "tokenId",
              "type": "uint256"
            },
            {
              "internalType": "uint256",
              "name": "amount",
              "type": "uint256"
            }
          ],
          "internalType": "struct UserRightNFT.Purchase[]",
          "name": "",
          "type": "tuple[]"
        }
      ],
      "stateMutability": "view",
      "type": "function",
      "constant": true
    },
    {
      "inputs": [
        {
          "internalType": "uint256",
          "name": "tokenId",
          "type": "uint256"
        }
      ],
      "name": "getHolderList",
      "outputs": [
        {
          "components": [
            {
              "internalType": "address",
              "name": "buyAddress",
              "type": "address"
            },
            {
              "internalType": "uint256",
              "name": "amount",
              "type": "uint256"
            }
          ],
          "internalType": "struct UserRightNFT.Holder[]",
          "name": "",
          "type": "tuple[]"
        }
      ],
      "stateMutability": "view",
      "type": "function",
      "constant": true
    }
  ],
  "bytecode": "0x60806040523480156200001157600080fd5b50604051806060016040528060348152602001620041ad603491396200003d816200010060201b60201c565b506200005e620000526200011c60201b60201c565b6200012460201b60201c565b6040518060400160405280600d81526020017f757365207269676874206e66740000000000000000000000000000000000000081525060049080519060200190620000ab929190620001ea565b506040518060400160405280600381526020017f55524e000000000000000000000000000000000000000000000000000000000081525060059080519060200190620000f9929190620001ea565b50620002ff565b806002908051906020019062000118929190620001ea565b5050565b600033905090565b6000600360009054906101000a900473ffffffffffffffffffffffffffffffffffffffff16905081600360006101000a81548173ffffffffffffffffffffffffffffffffffffffff021916908373ffffffffffffffffffffffffffffffffffffffff1602179055508173ffffffffffffffffffffffffffffffffffffffff168173ffffffffffffffffffffffffffffffffffffffff167f8be0079c531659141344cd1fd0a4f28419497f9722a3daafe3b4186f6b6457e060405160405180910390a35050565b828054620001f8906200029a565b90600052602060002090601f0160209004810192826200021c576000855562000268565b82601f106200023757805160ff191683800117855562000268565b8280016001018555821562000268579182015b82811115620002675782518255916020019190600101906200024a565b5b5090506200027791906200027b565b5090565b5b80821115620002965760008160009055506001016200027c565b5090565b60006002820490506001821680620002b357607f821691505b60208210811415620002ca57620002c9620002d0565b5b50919050565b7f4e487b7100000000000000000000000000000000000000000000000000000000600052602260045260246000fd5b613e9e806200030f6000396000f3fe608060405234801561001057600080fd5b506004361061010a5760003560e01c806389e8ee27116100a2578063c87b56dd11610071578063c87b56dd146102b7578063d3f1e30e146102e7578063e985e9c514610317578063f242432a14610347578063f2fde38b146103635761010a565b806389e8ee271461022f5780638da5cb5b1461025f57806395d89b411461027d578063a22cb4651461029b5761010a565b80632eb2c2d6116100de5780632eb2c2d6146101bd5780634e1273f4146101d95780634f8b460914610209578063715018a6146102255761010a565b8062fdd58e1461010f57806301ffc9a71461013f57806306fdde031461016f5780630e89341c1461018d575b600080fd5b61012960048036038101906101249190612c3b565b61037f565b604051610136919061355d565b60405180910390f35b61015960048036038101906101549190612d8a565b610448565b60405161016691906133a0565b60405180910390f35b61017761052a565b60405161018491906133bb565b60405180910390f35b6101a760048036038101906101a29190612ddc565b6105bc565b6040516101b491906133bb565b60405180910390f35b6101d760048036038101906101d29190612ab1565b610650565b005b6101f360048036038101906101ee9190612d1e565b6106f1565b6040516102009190613347565b60405180910390f35b610223600480360381019061021e9190612c77565b6108a2565b005b61022d6108d5565b005b61024960048036038101906102449190612ddc565b6108e9565b6040516102569190613303565b60405180910390f35b6102676109bb565b6040516102749190613226565b60405180910390f35b6102856109e5565b60405161029291906133bb565b60405180910390f35b6102b560048036038101906102b09190612bff565b610a77565b005b6102d160048036038101906102cc9190612ddc565b610a8d565b6040516102de91906133bb565b60405180910390f35b61030160048036038101906102fc9190612a4c565b610b38565b60405161030e9190613325565b60405180910390f35b610331600480360381019061032c9190612a75565b610bea565b60405161033e91906133a0565b60405180910390f35b610361600480360381019061035c9190612b70565b610c7e565b005b61037d60048036038101906103789190612a4c565b610d1f565b005b60008073ffffffffffffffffffffffffffffffffffffffff168373ffffffffffffffffffffffffffffffffffffffff1614156103f0576040517f08c379a00000000000000000000000000000000000000000000000000000000081526004016103e79061345d565b60405180910390fd5b60008083815260200190815260200160002060008473ffffffffffffffffffffffffffffffffffffffff1673ffffffffffffffffffffffffffffffffffffffff16815260200190815260200160002054905092915050565b60007fd9b67a26000000000000000000000000000000000000000000000000000000007bffffffffffffffffffffffffffffffffffffffffffffffffffffffff1916827bffffffffffffffffffffffffffffffffffffffffffffffffffffffff1916148061051357507f0e89341c000000000000000000000000000000000000000000000000000000007bffffffffffffffffffffffffffffffffffffffffffffffffffffffff1916827bffffffffffffffffffffffffffffffffffffffffffffffffffffffff1916145b80610523575061052282610da3565b5b9050919050565b6060600480546105399061386f565b80601f01602080910402602001604051908101604052809291908181526020018280546105659061386f565b80156105b25780601f10610587576101008083540402835291602001916105b2565b820191906000526020600020905b81548152906001019060200180831161059557829003601f168201915b5050505050905090565b6060600280546105cb9061386f565b80601f01602080910402602001604051908101604052809291908181526020018280546105f79061386f565b80156106445780601f1061061957610100808354040283529160200191610644565b820191906000526020600020905b81548152906001019060200180831161062757829003601f168201915b50505050509050919050565b610658610e0d565b73ffffffffffffffffffffffffffffffffffffffff168573ffffffffffffffffffffffffffffffffffffffff16148061069e575061069d85610698610e0d565b610bea565b5b6106dd576040517f08c379a00000000000000000000000000000000000000000000000000000000081526004016106d4906133fd565b60405180910390fd5b6106ea8585858585610e15565b5050505050565b60608151835114610737576040517f08c379a000000000000000000000000000000000000000000000000000000000815260040161072e906134fd565b60405180910390fd5b6000835167ffffffffffffffff81111561077a577f4e487b7100000000000000000000000000000000000000000000000000000000600052604160045260246000fd5b6040519080825280602002602001820160405280156107a85781602001602082028036833780820191505090505b50905060005b8451811015610897576108418582815181106107f3577f4e487b7100000000000000000000000000000000000000000000000000000000600052603260045260246000fd5b6020026020010151858381518110610834577f4e487b7100000000000000000000000000000000000000000000000000000000600052603260045260246000fd5b602002602001015161037f565b82828151811061087a577f4e487b7100000000000000000000000000000000000000000000000000000000600052603260045260246000fd5b60200260200101818152505080610890906138d2565b90506107ae565b508091505092915050565b6108aa611183565b6108b384611201565b6108c2576108c1848361122c565b5b6108ce85858584611258565b5050505050565b6108dd611183565b6108e76000611409565b565b606060076000838152602001908152602001600020805480602002602001604051908101604052809291908181526020016000905b828210156109b057838290600052602060002090600202016040518060400160405290816000820160009054906101000a900473ffffffffffffffffffffffffffffffffffffffff1673ffffffffffffffffffffffffffffffffffffffff1673ffffffffffffffffffffffffffffffffffffffff1681526020016001820154815250508152602001906001019061091e565b505050509050919050565b6000600360009054906101000a900473ffffffffffffffffffffffffffffffffffffffff16905090565b6060600580546109f49061386f565b80601f0160208091040260200160405190810160405280929190818152602001828054610a209061386f565b8015610a6d5780601f10610a4257610100808354040283529160200191610a6d565b820191906000526020600020905b815481529060010190602001808311610a5057829003601f168201915b5050505050905090565b610a89610a82610e0d565b83836114cf565b5050565b60606000600660008481526020019081526020016000208054610aaf9061386f565b80601f0160208091040260200160405190810160405280929190818152602001828054610adb9061386f565b8015610b285780601f10610afd57610100808354040283529160200191610b28565b820191906000526020600020905b815481529060010190602001808311610b0b57829003601f168201915b5050505050905080915050919050565b6060600860008373ffffffffffffffffffffffffffffffffffffffff1673ffffffffffffffffffffffffffffffffffffffff168152602001908152602001600020805480602002602001604051908101604052809291908181526020016000905b82821015610bdf57838290600052602060002090600202016040518060400160405290816000820154815260200160018201548152505081526020019060010190610b99565b505050509050919050565b6000600160008473ffffffffffffffffffffffffffffffffffffffff1673ffffffffffffffffffffffffffffffffffffffff16815260200190815260200160002060008373ffffffffffffffffffffffffffffffffffffffff1673ffffffffffffffffffffffffffffffffffffffff16815260200190815260200160002060009054906101000a900460ff16905092915050565b610c86610e0d565b73ffffffffffffffffffffffffffffffffffffffff168573ffffffffffffffffffffffffffffffffffffffff161480610ccc5750610ccb85610cc6610e0d565b610bea565b5b610d0b576040517f08c379a0000000000000000000000000000000000000000000000000000000008152600401610d02906133fd565b60405180910390fd5b610d18858585858561163c565b5050505050565b610d27611183565b600073ffffffffffffffffffffffffffffffffffffffff168173ffffffffffffffffffffffffffffffffffffffff161415610d97576040517f08c379a0000000000000000000000000000000000000000000000000000000008152600401610d8e9061343d565b60405180910390fd5b610da081611409565b50565b60007f01ffc9a7000000000000000000000000000000000000000000000000000000007bffffffffffffffffffffffffffffffffffffffffffffffffffffffff1916827bffffffffffffffffffffffffffffffffffffffffffffffffffffffff1916149050919050565b600033905090565b8151835114610e59576040517f08c379a0000000000000000000000000000000000000000000000000000000008152600401610e509061351d565b60405180910390fd5b600073ffffffffffffffffffffffffffffffffffffffff168473ffffffffffffffffffffffffffffffffffffffff161415610ec9576040517f08c379a0000000000000000000000000000000000000000000000000000000008152600401610ec09061347d565b60405180910390fd5b6000610ed3610e0d565b9050610ee38187878787876118d8565b60005b84518110156110e0576000858281518110610f2a577f4e487b7100000000000000000000000000000000000000000000000000000000600052603260045260246000fd5b602002602001015190506000858381518110610f6f577f4e487b7100000000000000000000000000000000000000000000000000000000600052603260045260246000fd5b60200260200101519050600080600084815260200190815260200160002060008b73ffffffffffffffffffffffffffffffffffffffff1673ffffffffffffffffffffffffffffffffffffffff16815260200190815260200160002054905081811015611010576040517f08c379a00000000000000000000000000000000000000000000000000000000081526004016110079061349d565b60405180910390fd5b81810360008085815260200190815260200160002060008c73ffffffffffffffffffffffffffffffffffffffff1673ffffffffffffffffffffffffffffffffffffffff168152602001908152602001600020819055508160008085815260200190815260200160002060008b73ffffffffffffffffffffffffffffffffffffffff1673ffffffffffffffffffffffffffffffffffffffff16815260200190815260200160002060008282546110c59190613763565b92505081905550505050806110d9906138d2565b9050610ee6565b508473ffffffffffffffffffffffffffffffffffffffff168673ffffffffffffffffffffffffffffffffffffffff168273ffffffffffffffffffffffffffffffffffffffff167f4a39dc06d4c0dbc64b70af90fd698a233a518aa5d07e595d983b8c0526c8f7fb8787604051611157929190613369565b60405180910390a461116d8187878787876118e0565b61117b818787878787612285565b505050505050565b61118b610e0d565b73ffffffffffffffffffffffffffffffffffffffff166111a96109bb565b73ffffffffffffffffffffffffffffffffffffffff16146111ff576040517f08c379a00000000000000000000000000000000000000000000000000000000081526004016111f6906134bd565b60405180910390fd5b565b6000806006600084815260200190815260200160002080546112229061386f565b9050119050919050565b80600660008481526020019081526020016000209080519060200190611253929190612744565b505050565b600073ffffffffffffffffffffffffffffffffffffffff168473ffffffffffffffffffffffffffffffffffffffff1614156112c8576040517f08c379a00000000000000000000000000000000000000000000000000000000081526004016112bf9061353d565b60405180910390fd5b60006112d2610e0d565b905060006112df8561246c565b905060006112ec8561246c565b90506112fd836000898585896118d8565b8460008088815260200190815260200160002060008973ffffffffffffffffffffffffffffffffffffffff1673ffffffffffffffffffffffffffffffffffffffff168152602001908152602001600020600082825461135c9190613763565b925050819055508673ffffffffffffffffffffffffffffffffffffffff16600073ffffffffffffffffffffffffffffffffffffffff168473ffffffffffffffffffffffffffffffffffffffff167fc3d58168c5ae7397731d063d5bbf3d657854427343f4c083240f7aacaa2d0f6289896040516113da929190613578565b60405180910390a46113f1836000898585896118e0565b61140083600089898989612532565b50505050505050565b6000600360009054906101000a900473ffffffffffffffffffffffffffffffffffffffff16905081600360006101000a81548173ffffffffffffffffffffffffffffffffffffffff021916908373ffffffffffffffffffffffffffffffffffffffff1602179055508173ffffffffffffffffffffffffffffffffffffffff168173ffffffffffffffffffffffffffffffffffffffff167f8be0079c531659141344cd1fd0a4f28419497f9722a3daafe3b4186f6b6457e060405160405180910390a35050565b8173ffffffffffffffffffffffffffffffffffffffff168373ffffffffffffffffffffffffffffffffffffffff16141561153e576040517f08c379a0000000000000000000000000000000000000000000000000000000008152600401611535906134dd565b60405180910390fd5b80600160008573ffffffffffffffffffffffffffffffffffffffff1673ffffffffffffffffffffffffffffffffffffffff16815260200190815260200160002060008473ffffffffffffffffffffffffffffffffffffffff1673ffffffffffffffffffffffffffffffffffffffff16815260200190815260200160002060006101000a81548160ff0219169083151502179055508173ffffffffffffffffffffffffffffffffffffffff168373ffffffffffffffffffffffffffffffffffffffff167f17307eab39ab6107e8899845ad3d59bd9653f200f220920489ca2b5937696c318360405161162f91906133a0565b60405180910390a3505050565b600073ffffffffffffffffffffffffffffffffffffffff168473ffffffffffffffffffffffffffffffffffffffff1614156116ac576040517f08c379a00000000000000000000000000000000000000000000000000000000081526004016116a39061347d565b60405180910390fd5b60006116b6610e0d565b905060006116c38561246c565b905060006116d08561246c565b90506116e08389898585896118d8565b600080600088815260200190815260200160002060008a73ffffffffffffffffffffffffffffffffffffffff1673ffffffffffffffffffffffffffffffffffffffff16815260200190815260200160002054905085811015611777576040517f08c379a000000000000000000000000000000000000000000000000000000000815260040161176e9061349d565b60405180910390fd5b85810360008089815260200190815260200160002060008b73ffffffffffffffffffffffffffffffffffffffff1673ffffffffffffffffffffffffffffffffffffffff168152602001908152602001600020819055508560008089815260200190815260200160002060008a73ffffffffffffffffffffffffffffffffffffffff1673ffffffffffffffffffffffffffffffffffffffff168152602001908152602001600020600082825461182c9190613763565b925050819055508773ffffffffffffffffffffffffffffffffffffffff168973ffffffffffffffffffffffffffffffffffffffff168573ffffffffffffffffffffffffffffffffffffffff167fc3d58168c5ae7397731d063d5bbf3d657854427343f4c083240f7aacaa2d0f628a8a6040516118a9929190613578565b60405180910390a46118bf848a8a86868a6118e0565b6118cd848a8a8a8a8a612532565b505050505050505050565b505050505050565b60005b835181101561226e576000848281518110611927577f4e487b7100000000000000000000000000000000000000000000000000000000600052603260045260246000fd5b6020026020010151905060008073ffffffffffffffffffffffffffffffffffffffff168873ffffffffffffffffffffffffffffffffffffffff161461197257611970888361037f565b505b600061197e888461037f565b90506000805b6007600086815260200190815260200160002080549050811015611d3b578a73ffffffffffffffffffffffffffffffffffffffff16600760008781526020019081526020016000208281548110611a04577f4e487b7100000000000000000000000000000000000000000000000000000000600052603260045260246000fd5b906000526020600020906002020160000160009054906101000a900473ffffffffffffffffffffffffffffffffffffffff1673ffffffffffffffffffffffffffffffffffffffff16148015611a595750600084115b15611ac45783600760008781526020019081526020016000208281548110611aaa577f4e487b7100000000000000000000000000000000000000000000000000000000600052603260045260246000fd5b906000526020600020906002020160010181905550611d28565b8a73ffffffffffffffffffffffffffffffffffffffff16600760008781526020019081526020016000208281548110611b26577f4e487b7100000000000000000000000000000000000000000000000000000000600052603260045260246000fd5b906000526020600020906002020160000160009054906101000a900473ffffffffffffffffffffffffffffffffffffffff1673ffffffffffffffffffffffffffffffffffffffff16148015611b7b5750600084145b15611c1057600760008681526020019081526020016000208181548110611bcb577f4e487b7100000000000000000000000000000000000000000000000000000000600052603260045260246000fd5b9060005260206000209060020201600080820160006101000a81549073ffffffffffffffffffffffffffffffffffffffff021916905560018201600090555050611d27565b8973ffffffffffffffffffffffffffffffffffffffff16600760008781526020019081526020016000208281548110611c72577f4e487b7100000000000000000000000000000000000000000000000000000000600052603260045260246000fd5b906000526020600020906002020160000160009054906101000a900473ffffffffffffffffffffffffffffffffffffffff1673ffffffffffffffffffffffffffffffffffffffff161415611d265782600760008781526020019081526020016000208281548110611d0c577f4e487b7100000000000000000000000000000000000000000000000000000000600052603260045260246000fd5b906000526020600020906002020160010181905550600191505b5b5b8080611d33906138d2565b915050611984565b5080611e00576007600085815260200190815260200160002060405180604001604052808b73ffffffffffffffffffffffffffffffffffffffff16815260200184815250908060018154018082558091505060019003906000526020600020906002020160009091909190915060008201518160000160006101000a81548173ffffffffffffffffffffffffffffffffffffffff021916908373ffffffffffffffffffffffffffffffffffffffff160217905550602082015181600101555050600090505b60005b600860008b73ffffffffffffffffffffffffffffffffffffffff1673ffffffffffffffffffffffffffffffffffffffff168152602001908152602001600020805490508110156121bf5784600860008c73ffffffffffffffffffffffffffffffffffffffff1673ffffffffffffffffffffffffffffffffffffffff1681526020019081526020016000208281548110611ec5577f4e487b7100000000000000000000000000000000000000000000000000000000600052603260045260246000fd5b906000526020600020906002020160000154148015611ee45750600084115b15611f7b5783600860008c73ffffffffffffffffffffffffffffffffffffffff1673ffffffffffffffffffffffffffffffffffffffff1681526020019081526020016000208281548110611f61577f4e487b7100000000000000000000000000000000000000000000000000000000600052603260045260246000fd5b9060005260206000209060020201600101819055506121ac565b84600860008c73ffffffffffffffffffffffffffffffffffffffff1673ffffffffffffffffffffffffffffffffffffffff1681526020019081526020016000208281548110611ff3577f4e487b7100000000000000000000000000000000000000000000000000000000600052603260045260246000fd5b9060005260206000209060020201600001541480156120125750600084145b156120b457600860008b73ffffffffffffffffffffffffffffffffffffffff1673ffffffffffffffffffffffffffffffffffffffff168152602001908152602001600020818154811061208e577f4e487b7100000000000000000000000000000000000000000000000000000000600052603260045260246000fd5b9060005260206000209060020201600080820160009055600182016000905550506121ab565b84600860008c73ffffffffffffffffffffffffffffffffffffffff1673ffffffffffffffffffffffffffffffffffffffff168152602001908152602001600020828154811061212c577f4e487b7100000000000000000000000000000000000000000000000000000000600052603260045260246000fd5b90600052602060002090600202016000015414156121aa5782600760008781526020019081526020016000208281548110612190577f4e487b7100000000000000000000000000000000000000000000000000000000600052603260045260246000fd5b906000526020600020906002020160010181905550600191505b5b5b80806121b7906138d2565b915050611e03565b508061225957600860008a73ffffffffffffffffffffffffffffffffffffffff1673ffffffffffffffffffffffffffffffffffffffff1681526020019081526020016000206040518060400160405280868152602001848152509080600181540180825580915050600190039060005260206000209060020201600090919091909150600082015181600001556020820151816001015550505b5050505080612267906138d2565b90506118e3565b5061227d868686868686612719565b505050505050565b6122a48473ffffffffffffffffffffffffffffffffffffffff16612721565b15612464578373ffffffffffffffffffffffffffffffffffffffff1663bc197c8187878686866040518663ffffffff1660e01b81526004016122ea959493929190613241565b602060405180830381600087803b15801561230457600080fd5b505af192505050801561233557506040513d601f19601f820116820180604052508101906123329190612db3565b60015b6123db576123416139a8565b806308c379a0141561239e5750612356613d76565b8061236157506123a0565b806040517f08c379a000000000000000000000000000000000000000000000000000000000815260040161239591906133bb565b60405180910390fd5b505b6040517f08c379a00000000000000000000000000000000000000000000000000000000081526004016123d2906133dd565b60405180910390fd5b63bc197c8160e01b7bffffffffffffffffffffffffffffffffffffffffffffffffffffffff1916817bffffffffffffffffffffffffffffffffffffffffffffffffffffffff191614612462576040517f08c379a00000000000000000000000000000000000000000000000000000000081526004016124599061341d565b60405180910390fd5b505b505050505050565b60606000600167ffffffffffffffff8111156124b1577f4e487b7100000000000000000000000000000000000000000000000000000000600052604160045260246000fd5b6040519080825280602002602001820160405280156124df5781602001602082028036833780820191505090505b509050828160008151811061251d577f4e487b7100000000000000000000000000000000000000000000000000000000600052603260045260246000fd5b60200260200101818152505080915050919050565b6125518473ffffffffffffffffffffffffffffffffffffffff16612721565b15612711578373ffffffffffffffffffffffffffffffffffffffff1663f23a6e6187878686866040518663ffffffff1660e01b81526004016125979594939291906132a9565b602060405180830381600087803b1580156125b157600080fd5b505af19250505080156125e257506040513d601f19601f820116820180604052508101906125df9190612db3565b60015b612688576125ee6139a8565b806308c379a0141561264b5750612603613d76565b8061260e575061264d565b806040517f08c379a000000000000000000000000000000000000000000000000000000000815260040161264291906133bb565b60405180910390fd5b505b6040517f08c379a000000000000000000000000000000000000000000000000000000000815260040161267f906133dd565b60405180910390fd5b63f23a6e6160e01b7bffffffffffffffffffffffffffffffffffffffffffffffffffffffff1916817bffffffffffffffffffffffffffffffffffffffffffffffffffffffff19161461270f576040517f08c379a00000000000000000000000000000000000000000000000000000000081526004016127069061341d565b60405180910390fd5b505b505050505050565b505050505050565b6000808273ffffffffffffffffffffffffffffffffffffffff163b119050919050565b8280546127509061386f565b90600052602060002090601f01602090048101928261277257600085556127b9565b82601f1061278b57805160ff19168380011785556127b9565b828001600101855582156127b9579182015b828111156127b857825182559160200191906001019061279d565b5b5090506127c691906127ca565b5090565b5b808211156127e35760008160009055506001016127cb565b5090565b60006127fa6127f5846135c6565b6135a1565b9050808382526020820190508285602086028201111561281957600080fd5b60005b85811015612849578161282f888261293b565b84526020840193506020830192505060018101905061281c565b5050509392505050565b6000612866612861846135f2565b6135a1565b9050808382526020820190508285602086028201111561288557600080fd5b60005b858110156128b5578161289b8882612a37565b845260208401935060208301925050600181019050612888565b5050509392505050565b60006128d26128cd8461361e565b6135a1565b9050828152602081018484840111156128ea57600080fd5b6128f584828561382d565b509392505050565b600061291061290b8461364f565b6135a1565b90508281526020810184848401111561292857600080fd5b61293384828561382d565b509392505050565b60008135905061294a81613e0c565b92915050565b600082601f83011261296157600080fd5b81356129718482602086016127e7565b91505092915050565b600082601f83011261298b57600080fd5b813561299b848260208601612853565b91505092915050565b6000813590506129b381613e23565b92915050565b6000813590506129c881613e3a565b92915050565b6000815190506129dd81613e3a565b92915050565b600082601f8301126129f457600080fd5b8135612a048482602086016128bf565b91505092915050565b600082601f830112612a1e57600080fd5b8135612a2e8482602086016128fd565b91505092915050565b600081359050612a4681613e51565b92915050565b600060208284031215612a5e57600080fd5b6000612a6c8482850161293b565b91505092915050565b60008060408385031215612a8857600080fd5b6000612a968582860161293b565b9250506020612aa78582860161293b565b9150509250929050565b600080600080600060a08688031215612ac957600080fd5b6000612ad78882890161293b565b9550506020612ae88882890161293b565b945050604086013567ffffffffffffffff811115612b0557600080fd5b612b118882890161297a565b935050606086013567ffffffffffffffff811115612b2e57600080fd5b612b3a8882890161297a565b925050608086013567ffffffffffffffff811115612b5757600080fd5b612b63888289016129e3565b9150509295509295909350565b600080600080600060a08688031215612b8857600080fd5b6000612b968882890161293b565b9550506020612ba78882890161293b565b9450506040612bb888828901612a37565b9350506060612bc988828901612a37565b925050608086013567ffffffffffffffff811115612be657600080fd5b612bf2888289016129e3565b9150509295509295909350565b60008060408385031215612c1257600080fd5b6000612c208582860161293b565b9250506020612c31858286016129a4565b9150509250929050565b60008060408385031215612c4e57600080fd5b6000612c5c8582860161293b565b9250506020612c6d85828601612a37565b9150509250929050565b600080600080600060a08688031215612c8f57600080fd5b6000612c9d8882890161293b565b9550506020612cae88828901612a37565b9450506040612cbf88828901612a37565b935050606086013567ffffffffffffffff811115612cdc57600080fd5b612ce888828901612a0d565b925050608086013567ffffffffffffffff811115612d0557600080fd5b612d1188828901612a0d565b9150509295509295909350565b60008060408385031215612d3157600080fd5b600083013567ffffffffffffffff811115612d4b57600080fd5b612d5785828601612950565b925050602083013567ffffffffffffffff811115612d7457600080fd5b612d808582860161297a565b9150509250929050565b600060208284031215612d9c57600080fd5b6000612daa848285016129b9565b91505092915050565b600060208284031215612dc557600080fd5b6000612dd3848285016129ce565b91505092915050565b600060208284031215612dee57600080fd5b6000612dfc84828501612a37565b91505092915050565b6000612e1183836131aa565b60408301905092915050565b6000612e2983836131d9565b60408301905092915050565b6000612e418383613208565b60208301905092915050565b612e56816137b9565b82525050565b612e65816137b9565b82525050565b6000612e76826136b0565b612e80818561370e565b9350612e8b83613680565b8060005b83811015612ebc578151612ea38882612e05565b9750612eae836136e7565b925050600181019050612e8f565b5085935050505092915050565b6000612ed4826136bb565b612ede818561371f565b9350612ee983613690565b8060005b83811015612f1a578151612f018882612e1d565b9750612f0c836136f4565b925050600181019050612eed565b5085935050505092915050565b6000612f32826136c6565b612f3c8185613730565b9350612f47836136a0565b8060005b83811015612f78578151612f5f8882612e35565b9750612f6a83613701565b925050600181019050612f4b565b5085935050505092915050565b612f8e816137cb565b82525050565b6000612f9f826136d1565b612fa98185613741565b9350612fb981856020860161383c565b612fc2816139ca565b840191505092915050565b6000612fd8826136dc565b612fe28185613752565b9350612ff281856020860161383c565b612ffb816139ca565b840191505092915050565b6000613013603483613752565b915061301e826139e8565b604082019050919050565b6000613036602f83613752565b915061304182613a37565b604082019050919050565b6000613059602883613752565b915061306482613a86565b604082019050919050565b600061307c602683613752565b915061308782613ad5565b604082019050919050565b600061309f602a83613752565b91506130aa82613b24565b604082019050919050565b60006130c2602583613752565b91506130cd82613b73565b604082019050919050565b60006130e5602a83613752565b91506130f082613bc2565b604082019050919050565b6000613108602083613752565b915061311382613c11565b602082019050919050565b600061312b602983613752565b915061313682613c3a565b604082019050919050565b600061314e602983613752565b915061315982613c89565b604082019050919050565b6000613171602883613752565b915061317c82613cd8565b604082019050919050565b6000613194602183613752565b915061319f82613d27565b604082019050919050565b6040820160008201516131c06000850182612e4d565b5060208201516131d36020850182613208565b50505050565b6040820160008201516131ef6000850182613208565b5060208201516132026020850182613208565b50505050565b61321181613823565b82525050565b61322081613823565b82525050565b600060208201905061323b6000830184612e5c565b92915050565b600060a0820190506132566000830188612e5c565b6132636020830187612e5c565b81810360408301526132758186612f27565b905081810360608301526132898185612f27565b9050818103608083015261329d8184612f94565b90509695505050505050565b600060a0820190506132be6000830188612e5c565b6132cb6020830187612e5c565b6132d86040830186613217565b6132e56060830185613217565b81810360808301526132f78184612f94565b90509695505050505050565b6000602082019050818103600083015261331d8184612e6b565b905092915050565b6000602082019050818103600083015261333f8184612ec9565b905092915050565b600060208201905081810360008301526133618184612f27565b905092915050565b600060408201905081810360008301526133838185612f27565b905081810360208301526133978184612f27565b90509392505050565b60006020820190506133b56000830184612f85565b92915050565b600060208201905081810360008301526133d58184612fcd565b905092915050565b600060208201905081810360008301526133f681613006565b9050919050565b6000602082019050818103600083015261341681613029565b9050919050565b600060208201905081810360008301526134368161304c565b9050919050565b600060208201905081810360008301526134568161306f565b9050919050565b6000602082019050818103600083015261347681613092565b9050919050565b60006020820190508181036000830152613496816130b5565b9050919050565b600060208201905081810360008301526134b6816130d8565b9050919050565b600060208201905081810360008301526134d6816130fb565b9050919050565b600060208201905081810360008301526134f68161311e565b9050919050565b6000602082019050818103600083015261351681613141565b9050919050565b6000602082019050818103600083015261353681613164565b9050919050565b6000602082019050818103600083015261355681613187565b9050919050565b60006020820190506135726000830184613217565b92915050565b600060408201905061358d6000830185613217565b61359a6020830184613217565b9392505050565b60006135ab6135bc565b90506135b782826138a1565b919050565b6000604051905090565b600067ffffffffffffffff8211156135e1576135e0613979565b5b602082029050602081019050919050565b600067ffffffffffffffff82111561360d5761360c613979565b5b602082029050602081019050919050565b600067ffffffffffffffff82111561363957613638613979565b5b613642826139ca565b9050602081019050919050565b600067ffffffffffffffff82111561366a57613669613979565b5b613673826139ca565b9050602081019050919050565b6000819050602082019050919050565b6000819050602082019050919050565b6000819050602082019050919050565b600081519050919050565b600081519050919050565b600081519050919050565b600081519050919050565b600081519050919050565b6000602082019050919050565b6000602082019050919050565b6000602082019050919050565b600082825260208201905092915050565b600082825260208201905092915050565b600082825260208201905092915050565b600082825260208201905092915050565b600082825260208201905092915050565b600061376e82613823565b915061377983613823565b9250827fffffffffffffffffffffffffffffffffffffffffffffffffffffffffffffffff038211156137ae576137ad61391b565b5b828201905092915050565b60006137c482613803565b9050919050565b60008115159050919050565b60007fffffffff0000000000000000000000000000000000000000000000000000000082169050919050565b600073ffffffffffffffffffffffffffffffffffffffff82169050919050565b6000819050919050565b82818337600083830152505050565b60005b8381101561385a57808201518184015260208101905061383f565b83811115613869576000848401525b50505050565b6000600282049050600182168061388757607f821691505b6020821081141561389b5761389a61394a565b5b50919050565b6138aa826139ca565b810181811067ffffffffffffffff821117156138c9576138c8613979565b5b80604052505050565b60006138dd82613823565b91507fffffffffffffffffffffffffffffffffffffffffffffffffffffffffffffffff8214156139105761390f61391b565b5b600182019050919050565b7f4e487b7100000000000000000000000000000000000000000000000000000000600052601160045260246000fd5b7f4e487b7100000000000000000000000000000000000000000000000000000000600052602260045260246000fd5b7f4e487b7100000000000000000000000000000000000000000000000000000000600052604160045260246000fd5b600060033d11156139c75760046000803e6139c46000516139db565b90505b90565b6000601f19601f8301169050919050565b60008160e01c9050919050565b7f455243313135353a207472616e7366657220746f206e6f6e204552433131353560008201527f526563656976657220696d706c656d656e746572000000000000000000000000602082015250565b7f455243313135353a2063616c6c6572206973206e6f7420746f6b656e206f776e60008201527f6572206e6f7220617070726f7665640000000000000000000000000000000000602082015250565b7f455243313135353a204552433131353552656365697665722072656a6563746560008201527f6420746f6b656e73000000000000000000000000000000000000000000000000602082015250565b7f4f776e61626c653a206e6577206f776e657220697320746865207a65726f206160008201527f6464726573730000000000000000000000000000000000000000000000000000602082015250565b7f455243313135353a2061646472657373207a65726f206973206e6f742061207660008201527f616c6964206f776e657200000000000000000000000000000000000000000000602082015250565b7f455243313135353a207472616e7366657220746f20746865207a65726f20616460008201527f6472657373000000000000000000000000000000000000000000000000000000602082015250565b7f455243313135353a20696e73756666696369656e742062616c616e636520666f60008201527f72207472616e7366657200000000000000000000000000000000000000000000602082015250565b7f4f776e61626c653a2063616c6c6572206973206e6f7420746865206f776e6572600082015250565b7f455243313135353a2073657474696e6720617070726f76616c2073746174757360008201527f20666f722073656c660000000000000000000000000000000000000000000000602082015250565b7f455243313135353a206163636f756e747320616e6420696473206c656e67746860008201527f206d69736d617463680000000000000000000000000000000000000000000000602082015250565b7f455243313135353a2069647320616e6420616d6f756e7473206c656e6774682060008201527f6d69736d61746368000000000000000000000000000000000000000000000000602082015250565b7f455243313135353a206d696e7420746f20746865207a65726f2061646472657360008201527f7300000000000000000000000000000000000000000000000000000000000000602082015250565b600060443d1015613d8657613e09565b613d8e6135bc565b60043d036004823e80513d602482011167ffffffffffffffff82111715613db6575050613e09565b808201805167ffffffffffffffff811115613dd45750505050613e09565b80602083010160043d038501811115613df1575050505050613e09565b613e00826020018501866138a1565b82955050505050505b90565b613e15816137b9565b8114613e2057600080fd5b50565b613e2c816137cb565b8114613e3757600080fd5b50565b613e43816137d7565b8114613e4e57600080fd5b50565b613e5a81613823565b8114613e6557600080fd5b5056fea2646970667358221220eb600f051539890d38e12b917e4a8e7bc59ebd7c9e649721dfa5f9572ce48d5a64736f6c63430008010033687474703a2f2f3134302e3233382e352e3135383a333030302f6170692f76312f7573652d72696768742f7b746f6b656e49647d",
  "immutableReferences": {},
  "source": "// SPDX-License-Identifier: MIT\r\npragma solidity ^0.8.0;\r\n\r\nimport \"@openzeppelin/contracts/access/Ownable.sol\";\r\nimport \"@openzeppelin/contracts/token/ERC1155/ERC1155.sol\";\r\n\r\ncontract UserRightNFT  is ERC1155, Ownable {\r\n    struct Purchase {\r\n        uint256 tokenId;\r\n        uint256 amount;\r\n    }\r\n    struct Holder {\r\n        address buyAddress;\r\n        uint256 amount;\r\n    }\r\n    string private _name;\r\n    string private _symbol;\r\n    mapping(uint256 => string) private _tokenURIs;\r\n\r\n    mapping(uint256 =>  Holder[]) private _holderList;\r\n    mapping(address =>  Purchase[]) private _purchaseList;\r\n\r\n    constructor() public ERC1155(\"http://140.238.5.158:3000/api/v1/use-right/{tokenId}\") {\r\n        _name = \"use right nft\";\r\n        _symbol = \"URN\";\r\n    }\r\n    function symbol() public view virtual returns (string memory) {\r\n        return _symbol;\r\n    }\r\n    function name() public view virtual returns (string memory) {\r\n        return _name;\r\n    }\r\n    function tokenURI(uint256 tokenId) public view virtual returns (string memory) {\r\n        string memory _tokenURI = _tokenURIs[tokenId];\r\n        return _tokenURI;\r\n    }\r\n    function _setTokenURI(uint256 tokenId, string memory _tokenURI) internal virtual {\r\n        _tokenURIs[tokenId] = _tokenURI;\r\n    }\r\n    function _exists(uint256 tokenId) internal view virtual returns (bool) {\r\n        return bytes(_tokenURIs[tokenId]).length > 0;\r\n    }\r\n\r\n    /**\r\n     * @dev mtnftid  tokenId, amount  \r\n     */\r\n    function mintNFT(address ownerShipAddress, uint256 tokenId, uint256 amount, string memory tokenURI, string memory data) public onlyOwner{\r\n        if(!_exists(tokenId)){\r\n            _setTokenURI(tokenId, tokenURI);\r\n        }\r\n        _mint(ownerShipAddress, tokenId, amount, bytes(data));\r\n    }\r\n    function getPurchaseList(address ownerAddress)public view returns (Purchase[] memory){\r\n        return _purchaseList[ownerAddress];\r\n    }\r\n    function getHolderList(uint256 tokenId) public view returns (Holder[] memory){\r\n        return _holderList[tokenId];\r\n    }\r\n\r\n    event catchErr(string _name, string _err);\r\n\r\n    function _afterTokenTransfer(\r\n        address operator,\r\n        address from,\r\n        address to,\r\n        uint256[] memory ids,\r\n        uint256[] memory amounts,\r\n        bytes memory data\r\n    ) internal virtual override {\r\n        for (uint256 i = 0; i < ids.length; ++i) {\r\n            uint256 id = ids[i];\r\n            uint256 fromBalance = 0;\r\n            if(from != address(0))balanceOf(from, id);\r\n            uint256 toBalance = balanceOf(to, id);\r\n\r\n            bool pushFlag = false;\r\n            for(uint256 j; j < _holderList[id].length; j++){\r\n                if(_holderList[id][j].buyAddress == from && fromBalance > 0){\r\n                    _holderList[id][j].amount = fromBalance;\r\n                }else if(_holderList[id][j].buyAddress == from && fromBalance == 0 ){\r\n                    delete _holderList[id][j];\r\n                }else if(_holderList[id][j].buyAddress == to){\r\n                    _holderList[id][j].amount = toBalance;\r\n                    pushFlag = true;\r\n                }\r\n            }\r\n\r\n            if(!pushFlag){\r\n                _holderList[id].push(Holder(to,toBalance));\r\n                pushFlag=false;\r\n            }\r\n\r\n            for(uint256 j; j < _purchaseList[to].length; j++){\r\n                if(_purchaseList[to][j].tokenId == id  && fromBalance > 0){\r\n                    _purchaseList[to][j].amount = fromBalance;\r\n                }else if(_purchaseList[to][j].tokenId == id && fromBalance == 0 ){\r\n                    delete _purchaseList[to][j];\r\n                }else if(_purchaseList[to][j].tokenId == id){\r\n                    _holderList[id][j].amount = toBalance;\r\n                    pushFlag = true;\r\n                }\r\n            }\r\n            if(!pushFlag){\r\n                _purchaseList[to].push(Purchase(id,toBalance));\r\n            }\r\n        }\r\n\r\n        super._afterTokenTransfer(operator, from, to, ids, amounts, data);\r\n    }\r\n\r\n}\r\n",
  "sourcePath": "D:\\workspace\\emb_projects\\dg\\mint_nft\\contracts\\UserRightNFT.sol",
  "compiler": {
    "name": "solc",
    "version": "0.8.1+commit.df193b15.Emscripten.clang"
  },
  "schemaVersion": "3.4.10",
  "updatedAt": "2022-11-28T08:35:00.907Z",
  "networkType": "ethereum",
  "devdoc": {
    "kind": "dev",
    "methods": {
      "balanceOf(address,uint256)": {
        "details": "See {IERC1155-balanceOf}. Requirements: - `account` cannot be the zero address."
      },
      "balanceOfBatch(address[],uint256[])": {
        "details": "See {IERC1155-balanceOfBatch}. Requirements: - `accounts` and `ids` must have the same length."
      },
      "isApprovedForAll(address,address)": {
        "details": "See {IERC1155-isApprovedForAll}."
      },
      "mintNFT(address,uint256,uint256,string,string)": {
        "details": "mtnftid  tokenId, amount  "
      },
      "owner()": {
        "details": "Returns the address of the current owner."
      },
      "renounceOwnership()": {
        "details": "Leaves the contract without owner. It will not be possible to call `onlyOwner` functions anymore. Can only be called by the current owner. NOTE: Renouncing ownership will leave the contract without an owner, thereby removing any functionality that is only available to the owner."
      },
      "safeBatchTransferFrom(address,address,uint256[],uint256[],bytes)": {
        "details": "See {IERC1155-safeBatchTransferFrom}."
      },
      "safeTransferFrom(address,address,uint256,uint256,bytes)": {
        "details": "See {IERC1155-safeTransferFrom}."
      },
      "setApprovalForAll(address,bool)": {
        "details": "See {IERC1155-setApprovalForAll}."
      },
      "supportsInterface(bytes4)": {
        "details": "See {IERC165-supportsInterface}."
      },
      "transferOwnership(address)": {
        "details": "Transfers ownership of the contract to a new account (`newOwner`). Can only be called by the current owner."
      },
      "uri(uint256)": {
        "details": "See {IERC1155MetadataURI-uri}. This implementation returns the same URI for *all* token types. It relies on the token type ID substitution mechanism https://eips.ethereum.org/EIPS/eip-1155#metadata[defined in the EIP]. Clients calling this function must replace the `\\{id\\}` substring with the actual token type ID."
      }
    },
    "version": 1
  },
  "userdoc": {
    "kind": "user",
    "methods": {},
    "version": 1
  }
}